Component: ARM Compiler 5.06 update 6 (build 750) Tool: armlink [4d35ed]

==============================================================================

Section Cross References

    main.o(.text) refers to system_stm32f10x.o(.text) for SystemInit
    main.o(.text) refers to delay.o(.text) for delay_init
    main.o(.text) refers to lcd.o(.text) for LCD_Init
    main.o(.text) refers to test.o(.text) for main_test
    test.o(.text) refers to gui.o(.text) for LCD_Fill
    test.o(.text) refers to delay.o(.text) for delay_ms
    test.o(.text) refers to lcd.o(.bss) for lcddev
    test.o(.text) refers to lcd.o(.data) for POINT_COLOR
    test.o(.text) refers to test.o(.data) for ColorTab
    test.o(.text) refers to touch.o(.text) for TP_Init
    test.o(.text) refers to key.o(.text) for KEY_Init
    test.o(.text) refers to lcd.o(.text) for LCD_Clear
    test.o(.text) refers to test.o(.constdata) for gImage_qq
    test.o(.text) refers to touch.o(.data) for tp_dev
    gui.o(.text) refers to lcd.o(.text) for LCD_SetCursor
    gui.o(.text) refers to lcd.o(.bss) for lcddev
    gui.o(.text) refers to lcd.o(.data) for POINT_COLOR
    gui.o(.text) refers to gui.o(.constdata) for asc2_1206
==============================================================================

Removing Unused input sections from the image.

    Removing core_cm3.o(.emb_text), (32 bytes).
    Removing stm32f10x_spi.o(.text), (780 bytes).
    Removing stm32f10x_usart.o(.text), (1032 bytes).

3 unused section(s) (total 1844 bytes) removed from the image.

==============================================================================

Image Symbol Table

    Local Symbols

    Symbol Name                              Value     Ov Type        Size  Object(Section)

    ../clib/angel/boardlib.s                 0x00000000   Number         0  boardshut.o ABSOLUTE
    ../clib/angel/boardlib.s                 0x00000000   Number         0  boardinit1.o ABSOLUTE
    ../clib/angel/boardlib.s                 0x00000000   Number         0  boardinit3.o ABSOLUTE
    ../clib/angel/boardlib.s                 0x00000000   Number         0  boardinit2.o ABSOLUTE
    ../clib/angel/handlers.s                 0x00000000   Number         0  __scatter_zi.o ABSOLUTE
    ../clib/angel/handlers.s                 0x00000000   Number         0  __scatter_copy.o ABSOLUTE
    ../clib/angel/kernel.s                   0x00000000   Number         0  rtexit2.o ABSOLUTE
    ../clib/angel/kernel.s                   0x00000000   Number         0  __rtentry.o ABSOLUTE
    ../clib/angel/kernel.s                   0x00000000   Number         0  __rtentry4.o ABSOLUTE
    ../clib/angel/kernel.s                   0x00000000   Number         0  __rtentry2.o ABSOLUTE
    ../clib/angel/kernel.s                   0x00000000   Number         0  rtexit.o ABSOLUTE
    ../clib/angel/rt.s                       0x00000000   Number         0  rt_raise.o ABSOLUTE
    ../clib/angel/rt.s                       0x00000000   Number         0  rt_errno_addr_intlibspace.o ABSOLUTE
    ../clib/angel/rt.s                       0x00000000   Number         0  rt_errno_addr.o ABSOLUTE
    ../clib/angel/scatter.s                  0x00000000   Number         0  __scatter.o ABSOLUTE
    ../clib/angel/startup.s                  0x00000000   Number         0  __main.o ABSOLUTE
    ../clib/angel/sys.s                      0x00000000   Number         0  use_no_semi.o ABSOLUTE
    ../clib/angel/sys.s                      0x00000000   Number         0  libspace.o ABSOLUTE
    ../clib/angel/sys.s                      0x00000000   Number         0  indicate_semi.o ABSOLUTE
    ../clib/angel/sys.s                      0x00000000   Number         0  sys_stackheap_outer.o ABSOLUTE
    ../clib/angel/sysapp.c                   0x00000000   Number         0  sys_exit.o ABSOLUTE
    ../clib/angel/sysapp.c                   0x00000000   Number         0  sys_wrch.o ABSOLUTE
    ../clib/angel/sysapp.c                   0x00000000   Number         0  sys_command.o ABSOLUTE
    ../clib/armsys.c                         0x00000000   Number         0  argv_veneer.o ABSOLUTE
    ../clib/armsys.c                         0x00000000   Number         0  argv_veneer.o ABSOLUTE
    ../clib/armsys.c                         0x00000000   Number         0  _get_argv_nomalloc.o ABSOLUTE
    ../clib/armsys.c                         0x00000000   Number         0  no_argv.o ABSOLUTE
    ../clib/fenv.c                           0x00000000   Number         0  _rserrno.o ABSOLUTE
    ../clib/heapalloc.c                      0x00000000   Number         0  hrguard.o ABSOLUTE
    ../clib/heapaux.c                        0x00000000   Number         0  heapauxi.o ABSOLUTE
    ../clib/libinit.s                        0x00000000   Number         0  libinit2.o ABSOLUTE
    ../clib/libinit.s                        0x00000000   Number         0  libshutdown2.o ABSOLUTE
    ../clib/libinit.s                        0x00000000   Number         0  libinit.o ABSOLUTE
    ../clib/libinit.s                        0x00000000   Number         0  libshutdown.o ABSOLUTE
    ../clib/signal.c                         0x00000000   Number         0  defsig_cppl_inner.o ABSOLUTE
    ../clib/signal.c                         0x00000000   Number         0  defsig_pvfn_inner.o ABSOLUTE
    ../clib/signal.c                         0x00000000   Number         0  defsig_stak_inner.o ABSOLUTE
    ../clib/signal.c                         0x00000000   Number         0  defsig_rtred_inner.o ABSOLUTE
    ../clib/signal.c                         0x00000000   Number         0  defsig_fpe_inner.o ABSOLUTE
    ../clib/signal.c                         0x00000000   Number         0  defsig_segv_inner.o ABSOLUTE
    ../clib/signal.c                         0x00000000   Number         0  defsig_rtmem_outer.o ABSOLUTE
    ../clib/signal.c                         0x00000000   Number         0  defsig_rtmem_formal.o ABSOLUTE
    ../clib/signal.c                         0x00000000   Number         0  defsig_abrt_inner.o ABSOLUTE
    ../clib/signal.c                         0x00000000   Number         0  defsig_general.o ABSOLUTE
    ../clib/signal.c                         0x00000000   Number         0  __raise.o ABSOLUTE
    ../clib/signal.c                         0x00000000   Number         0  defsig_rtmem_inner.o ABSOLUTE
    ../clib/signal.c                         0x00000000   Number         0  defsig_exit.o ABSOLUTE
    ../clib/signal.c                         0x00000000   Number         0  defsig_other.o ABSOLUTE
    ../clib/signal.s                         0x00000000   Number         0  defsig.o ABSOLUTE
    ../clib/stdlib.c                         0x00000000   Number         0  exit.o ABSOLUTE
    ../clib/string.c                         0x00000000   Number         0  strlen.o ABSOLUTE
    ../fplib/dcmpi.s                         0x00000000   Number         0  dcmpi.o ABSOLUTE
    ../fplib/dfixu.s                         0x00000000   Number         0  dfixu.o ABSOLUTE
    ../fplib/dflt.s                          0x00000000   Number         0  dflt_clz.o ABSOLUTE
    ../fplib/dleqf.s                         0x00000000   Number         0  dleqf.o ABSOLUTE
    ../fplib/dnaninf.s                       0x00000000   Number         0  dnaninf.o ABSOLUTE
    ../fplib/dretinf.s                       0x00000000   Number         0  dretinf.o ABSOLUTE
    ../fplib/drleqf.s                        0x00000000   Number         0  drleqf.o ABSOLUTE
    ../fplib/dsqrt.s                         0x00000000   Number         0  dsqrt_noumaal.o ABSOLUTE
    ../fplib/f2d.s                           0x00000000   Number         0  f2d.o ABSOLUTE
    ../fplib/faddsub.s                       0x00000000   Number         0  faddsub_clz.o ABSOLUTE
    ../fplib/fdiv.s                          0x00000000   Number         0  fdiv.o ABSOLUTE
    ../fplib/ffix.s                          0x00000000   Number         0  ffix.o ABSOLUTE
    ../fplib/ffixu.s                         0x00000000   Number         0  ffixu.o ABSOLUTE
    ../fplib/fflt.s                          0x00000000   Number         0  fflt_clz.o ABSOLUTE
    ../fplib/fmul.s                          0x00000000   Number         0  fmul.o ABSOLUTE
    ../fplib/fnaninf.s                       0x00000000   Number         0  fnaninf.o ABSOLUTE
    ../fplib/fpinit.s                        0x00000000   Number         0  fpinit.o ABSOLUTE
    ../fplib/fretinf.s                       0x00000000   Number         0  fretinf.o ABSOLUTE
    ../fplib/usenofp.s                       0x00000000   Number         0  usenofp.o ABSOLUTE
    ../mathlib/sqrt.c                        0x00000000   Number         0  sqrt_x.o ABSOLUTE
    ../mathlib/sqrt.c                        0x00000000   Number         0  sqrt.o ABSOLUTE
    ..\CORE\core_cm3.c                       0x00000000   Number         0  core_cm3.o ABSOLUTE
    ..\CORE\startup_stm32f10x_md.s           0x00000000   Number         0  startup_stm32f10x_md.o ABSOLUTE
    ..\HARDWARE\24CXX\24cxx.c                0x00000000   Number         0  24cxx.o ABSOLUTE
    ..\HARDWARE\IIC\myiic.c                  0x00000000   Number         0  myiic.o ABSOLUTE
    ..\HARDWARE\KEY\key.c                    0x00000000   Number         0  key.o ABSOLUTE
    ..\HARDWARE\LCD\lcd.c                    0x00000000   Number         0  lcd.o ABSOLUTE
    ..\HARDWARE\TOUCH\touch.c                0x00000000   Number         0  touch.o ABSOLUTE
    ..\STM32F10x_FWLib\src\misc.c            0x00000000   Number         0  misc.o ABSOLUTE
    ..\STM32F10x_FWLib\src\stm32f10x_gpio.c  0x00000000   Number         0  stm32f10x_gpio.o ABSOLUTE
    ..\STM32F10x_FWLib\src\stm32f10x_rcc.c   0x00000000   Number         0  stm32f10x_rcc.o ABSOLUTE
    ..\STM32F10x_FWLib\src\stm32f10x_spi.c   0x00000000   Number         0  stm32f10x_spi.o ABSOLUTE
    ..\STM32F10x_FWLib\src\stm32f10x_usart.c 0x00000000   Number         0  stm32f10x_usart.o ABSOLUTE
    ..\SYSTEM\delay\delay.c                  0x00000000   Number         0  delay.o ABSOLUTE
    ..\\CORE\\core_cm3.c                     0x00000000   Number         0  core_cm3.o ABSOLUTE
    GUI.c                                    0x00000000   Number         0  gui.o ABSOLUTE
    dc.s                                     0x00000000   Number         0  dc.o ABSOLUTE
    main.c                                   0x00000000   Number         0  main.o ABSOLUTE
    system_stm32f10x.c                       0x00000000   Number         0  system_stm32f10x.o ABSOLUTE
    test.c                                   0x00000000   Number         0  test.o ABSOLUTE
    RESET                                    0x08000000   Section      236  startup_stm32f10x_md.o(RESET)
    !!!main                                  0x080000ec   Section        8  __main.o(!!!main)
    !!!scatter                               0x080000f4   Section       52  __scatter.o(!!!scatter)
    !!handler_copy                           0x08000128   Section       26  __scatter_copy.o(!!handler_copy)
    !!handler_zi                             0x08000144   Section       28  __scatter_zi.o(!!handler_zi)
    .ARM.Collect$$libinit$$00000000          0x08000160   Section        2  libinit.o(.ARM.Collect$$libinit$$00000000)
    .ARM.Collect$$libinit$$00000002          0x08000162   Section        0  libinit2.o(.ARM.Collect$$libinit$$00000002)
    .ARM.Collect$$libinit$$00000004          0x08000162   Section        0  libinit2.o(.ARM.Collect$$libinit$$00000004)
    .ARM.Collect$$libinit$$0000000A          0x08000162   Section        0  libinit2.o(.ARM.Collect$$libinit$$0000000A)
    .ARM.Collect$$libinit$$0000000C          0x08000162   Section        0  libinit2.o(.ARM.Collect$$libinit$$0000000C)
    .ARM.Collect$$libinit$$0000000E          0x08000162   Section        0  libinit2.o(.ARM.Collect$$libinit$$0000000E)
    .ARM.Collect$$libinit$$00000011          0x08000162   Section        0  libinit2.o(.ARM.Collect$$libinit$$00000011)
    .ARM.Collect$$libinit$$00000013          0x08000162   Section        0  libinit2.o(.ARM.Collect$$libinit$$00000013)
    .ARM.Collect$$libinit$$00000015          0x08000162   Section        0  libinit2.o(.ARM.Collect$$libinit$$00000015)
    .ARM.Collect$$libinit$$00000017          0x08000162   Section        0  libinit2.o(.ARM.Collect$$libinit$$00000017)
    .ARM.Collect$$libinit$$00000019          0x08000162   Section        0  libinit2.o(.ARM.Collect$$libinit$$00000019)
    .ARM.Collect$$libinit$$0000001B          0x08000162   Section        0  libinit2.o(.ARM.Collect$$libinit$$0000001B)
    .ARM.Collect$$libinit$$0000001D          0x08000162   Section        0  libinit2.o(.ARM.Collect$$libinit$$0000001D)
    .ARM.Collect$$libinit$$0000001F          0x08000162   Section        0  libinit2.o(.ARM.Collect$$libinit$$0000001F)
    .ARM.Collect$$libinit$$00000021          0x08000162   Section        0  libinit2.o(.ARM.Collect$$libinit$$00000021)
    .ARM.Collect$$libinit$$00000023          0x08000162   Section        0  libinit2.o(.ARM.Collect$$libinit$$00000023)
    .ARM.Collect$$libinit$$00000025          0x08000162   Section        0  libinit2.o(.ARM.Collect$$libinit$$00000025)
    .ARM.Collect$$libinit$$0000002C          0x08000162   Section        0  libinit2.o(.ARM.Collect$$libinit$$0000002C)
    .ARM.Collect$$libinit$$0000002E          0x08000162   Section        0  libinit2.o(.ARM.Collect$$libinit$$0000002E)
    .ARM.Collect$$libinit$$00000030          0x08000162   Section        0  libinit2.o(.ARM.Collect$$libinit$$00000030)
    .ARM.Collect$$libinit$$00000032          0x08000162   Section        0  libinit2.o(.ARM.Collect$$libinit$$00000032)
    .ARM.Collect$$libinit$$00000033          0x08000162   Section        2  libinit2.o(.ARM.Collect$$libinit$$00000033)
    .ARM.Collect$$libshutdown$$00000000      0x08000164   Section        2  libshutdown.o(.ARM.Collect$$libshutdown$$00000000)
    .ARM.Collect$$libshutdown$$00000002      0x08000166   Section        0  libshutdown2.o(.ARM.Collect$$libshutdown$$00000002)
    .ARM.Collect$$libshutdown$$00000004      0x08000166   Section        0  libshutdown2.o(.ARM.Collect$$libshutdown$$00000004)
    .ARM.Collect$$libshutdown$$00000007      0x08000166   Section        0  libshutdown2.o(.ARM.Collect$$libshutdown$$00000007)
    .ARM.Collect$$libshutdown$$0000000A      0x08000166   Section        0  libshutdown2.o(.ARM.Collect$$libshutdown$$0000000A)
    .ARM.Collect$$libshutdown$$0000000C      0x08000166   Section        0  libshutdown2.o(.ARM.Collect$$libshutdown$$0000000C)
    .ARM.Collect$$libshutdown$$0000000F      0x08000166   Section        0  libshutdown2.o(.ARM.Collect$$libshutdown$$0000000F)
    .ARM.Collect$$libshutdown$$00000010      0x08000166   Section        2  libshutdown2.o(.ARM.Collect$$libshutdown$$00000010)
    .ARM.Collect$$rtentry$$00000000          0x08000168   Section        0  __rtentry.o(.ARM.Collect$$rtentry$$00000000)
    .ARM.Collect$$rtentry$$00000002          0x08000168   Section        0  __rtentry2.o(.ARM.Collect$$rtentry$$00000002)
    .ARM.Collect$$rtentry$$00000004          0x08000168   Section        6  __rtentry4.o(.ARM.Collect$$rtentry$$00000004)
    .ARM.Collect$$rtentry$$00000009          0x0800016e   Section        0  __rtentry2.o(.ARM.Collect$$rtentry$$00000009)
    .ARM.Collect$$rtentry$$0000000A          0x0800016e   Section        4  __rtentry2.o(.ARM.Collect$$rtentry$$0000000A)
    .ARM.Collect$$rtentry$$0000000C          0x08000172   Section        0  __rtentry2.o(.ARM.Collect$$rtentry$$0000000C)
    .ARM.Collect$$rtentry$$0000000D          0x08000172   Section        8  __rtentry2.o(.ARM.Collect$$rtentry$$0000000D)
    .ARM.Collect$$rtexit$$00000000           0x0800017a   Section        2  rtexit.o(.ARM.Collect$$rtexit$$00000000)
    .ARM.Collect$$rtexit$$00000002           0x0800017c   Section        0  rtexit2.o(.ARM.Collect$$rtexit$$00000002)
    .ARM.Collect$$rtexit$$00000003           0x0800017c   Section        4  rtexit2.o(.ARM.Collect$$rtexit$$00000003)
    .ARM.Collect$$rtexit$$00000004           0x08000180   Section        6  rtexit2.o(.ARM.Collect$$rtexit$$00000004)
    .text                                    0x08000186   Section        0  main.o(.text)
    .text                                    0x080001b8   Section        0  test.o(.text)
    .text                                    0x08000c64   Section        0  gui.o(.text)
    .text                                    0x08001670   Section        0  delay.o(.text)
    .text                                    0x0800171c   Section        0  system_stm32f10x.o(.text)
    SetSysClockTo72                          0x0800171d   Thumb Code   214  system_stm32f10x.o(.text)
    SetSysClock                              0x080017f3   Thumb Code     8  system_stm32f10x.o(.text)
    .text                                    0x080018fc   Section        0  key.o(.text)
    .text                                    0x080019b8   Section        0  lcd.o(.text)
    .text                                    0x08001eb4   Section        0  myiic.o(.text)
    .text                                    0x0800210c   Section        0  24cxx.o(.text)
    .text                                    0x08002288   Section        0  touch.o(.text)
    .text                                    0x08003220   Section       64  startup_stm32f10x_md.o(.text)
    .text                                    0x08003260   Section        0  misc.o(.text)
    .text                                    0x0800333c   Section        0  stm32f10x_gpio.o(.text)
    .text                                    0x08003698   Section        0  stm32f10x_rcc.o(.text)
    .text                                    0x08003a3c   Section        0  strlen.o(.text)
    .text                                    0x08003a7a   Section        0  heapauxi.o(.text)
    .text                                    0x08003a80   Section        0  _rserrno.o(.text)
    .text                                    0x08003a98   Section        8  rt_errno_addr_intlibspace.o(.text)
    .text                                    0x08003aa0   Section        8  libspace.o(.text)
    .text                                    0x08003aa8   Section       74  sys_stackheap_outer.o(.text)
    .text                                    0x08003af2   Section        0  exit.o(.text)
    .text                                    0x08003b04   Section        0  sys_exit.o(.text)
    .text                                    0x08003b10   Section        2  use_no_semi.o(.text)
    .text                                    0x08003b12   Section        0  indicate_semi.o(.text)
    i.sqrt                                   0x08003b12   Section        0  sqrt.o(i.sqrt)
    x$fpl$dcmpinf                            0x08003b5e   Section       24  dcmpi.o(x$fpl$dcmpinf)
    x$fpl$dfixu                              0x08003b78   Section       90  dfixu.o(x$fpl$dfixu)
    x$fpl$dfltu                              0x08003bd2   Section       38  dflt_clz.o(x$fpl$dfltu)
    x$fpl$dleqf                              0x08003bf8   Section      120  dleqf.o(x$fpl$dleqf)
    x$fpl$dnaninf                            0x08003c70   Section      156  dnaninf.o(x$fpl$dnaninf)
    x$fpl$dretinf                            0x08003d0c   Section       12  dretinf.o(x$fpl$dretinf)
    x$fpl$drleqf                             0x08003d18   Section      108  drleqf.o(x$fpl$drleqf)
    x$fpl$dsqrt                              0x08003d84   Section      460  dsqrt_noumaal.o(x$fpl$dsqrt)
    x$fpl$f2d                                0x08003f50   Section       86  f2d.o(x$fpl$f2d)
    x$fpl$fadd                               0x08003fa8   Section      196  faddsub_clz.o(x$fpl$fadd)
    _fadd1                                   0x08003fb7   Thumb Code     0  faddsub_clz.o(x$fpl$fadd)
    x$fpl$fdiv                               0x0800406c   Section      388  fdiv.o(x$fpl$fdiv)
    _fdiv1                                   0x0800406d   Thumb Code     0  fdiv.o(x$fpl$fdiv)
    x$fpl$ffix                               0x080041f0   Section       54  ffix.o(x$fpl$ffix)
    x$fpl$ffixu                              0x08004228   Section       62  ffixu.o(x$fpl$ffixu)
    x$fpl$fflt                               0x08004268   Section       48  fflt_clz.o(x$fpl$fflt)
    x$fpl$ffltu                              0x08004298   Section       38  fflt_clz.o(x$fpl$ffltu)
    x$fpl$fmul                               0x080042c0   Section      258  fmul.o(x$fpl$fmul)
    x$fpl$fnaninf                            0x080043c2   Section      140  fnaninf.o(x$fpl$fnaninf)
    x$fpl$fretinf                            0x0800444e   Section       10  fretinf.o(x$fpl$fretinf)
    x$fpl$fsub                               0x08004458   Section      234  faddsub_clz.o(x$fpl$fsub)
    _fsub1                                   0x08004467   Thumb Code     0  faddsub_clz.o(x$fpl$fsub)
    .constdata                               0x08004542   Section     3200  test.o(.constdata)
    x$fpl$usenofp                            0x08004542   Section        0  usenofp.o(x$fpl$usenofp)
    .constdata                               0x080051c2   Section     5262  gui.o(.constdata)
    .conststring                             0x08006650   Section      121  touch.o(.conststring)
    .data                                    0x20000000   Section       10  test.o(.data)
    .data                                    0x2000000a   Section        4  delay.o(.data)
    fac_us                                   0x2000000a   Data           1  delay.o(.data)
    fac_ms                                   0x2000000c   Data           2  delay.o(.data)
    .data                                    0x20000010   Section       20  system_stm32f10x.o(.data)
    .data                                    0x20000024   Section        6  lcd.o(.data)
    .data                                    0x2000002c   Section       48  touch.o(.data)
    .data                                    0x2000005c   Section       20  stm32f10x_rcc.o(.data)
    APBAHBPrescTable                         0x2000005c   Data          16  stm32f10x_rcc.o(.data)
    ADCPrescTable                            0x2000006c   Data           4  stm32f10x_rcc.o(.data)
    .bss                                     0x20000070   Section       14  lcd.o(.bss)
    .bss                                     0x20000080   Section       96  libspace.o(.bss)
    HEAP                                     0x200000e0   Section      512  startup_stm32f10x_md.o(HEAP)
    Heap_Mem                                 0x200000e0   Data         512  startup_stm32f10x_md.o(HEAP)
    STACK                                    0x200002e0   Section     1024  startup_stm32f10x_md.o(STACK)
    Stack_Mem                                0x200002e0   Data        1024  startup_stm32f10x_md.o(STACK)
    __initial_sp                             0x200006e0   Data           0  startup_stm32f10x_md.o(STACK)

    Global Symbols

    Symbol Name                              Value     Ov Type        Size  Object(Section)

    BuildAttributes$$THM_ISAv4$P$D$K$B$S$PE$A:L22UL41UL21$X:L11$S22US41US21$IEEE1$IW$USESV6$~STKCKD$USESV7$~SHL$OTIME$ROPI$IEEEJ$EBA8$UX$STANDARDLIB$REQ8$PRES8$EABIv2 0x00000000   Number         0  anon$$obj.o ABSOLUTE
    __ARM_use_no_argv                        0x00000000   Number         0  main.o ABSOLUTE
    __ARM_exceptions_init                     - Undefined Weak Reference
    __alloca_initialize                       - Undefined Weak Reference
    __arm_preinit_                            - Undefined Weak Reference
    __cpp_initialize__aeabi_                  - Undefined Weak Reference
    __cxa_finalize                            - Undefined Weak Reference
    __rt_locale                               - Undefined Weak Reference
    __sigvec_lookup                           - Undefined Weak Reference
    _atexit_init                              - Undefined Weak Reference
    _call_atexit_fns                          - Undefined Weak Reference
    _clock_init                               - Undefined Weak Reference
    _fp_trap_init                             - Undefined Weak Reference
    _fp_trap_shutdown                         - Undefined Weak Reference
    _get_lc_collate                           - Undefined Weak Reference
    _get_lc_ctype                             - Undefined Weak Reference
    _get_lc_monetary                          - Undefined Weak Reference
    _get_lc_numeric                           - Undefined Weak Reference
    _get_lc_time                              - Undefined Weak Reference
    _getenv_init                              - Undefined Weak Reference
    _handle_redirection                       - Undefined Weak Reference
    _init_alloc                               - Undefined Weak Reference
    _init_user_alloc                          - Undefined Weak Reference
    _initio                                   - Undefined Weak Reference
    _rand_init                                - Undefined Weak Reference
    _signal_finish                            - Undefined Weak Reference
    _signal_init                              - Undefined Weak Reference
    _terminate_alloc                          - Undefined Weak Reference
    _terminate_user_alloc                     - Undefined Weak Reference
    _terminateio                              - Undefined Weak Reference
    __Vectors_Size                           0x000000ec   Number         0  startup_stm32f10x_md.o ABSOLUTE
    __Vectors                                0x08000000   Data           4  startup_stm32f10x_md.o(RESET)
    __Vectors_End                            0x080000ec   Data           0  startup_stm32f10x_md.o(RESET)
    __main                                   0x080000ed   Thumb Code     8  __main.o(!!!main)
    __scatterload                            0x080000f5   Thumb Code     0  __scatter.o(!!!scatter)
    __scatterload_rt2                        0x080000f5   Thumb Code    44  __scatter.o(!!!scatter)
    __scatterload_rt2_thumb_only             0x080000f5   Thumb Code     0  __scatter.o(!!!scatter)
    __scatterload_null                       0x08000103   Thumb Code     0  __scatter.o(!!!scatter)
    __scatterload_copy                       0x08000129   Thumb Code    26  __scatter_copy.o(!!handler_copy)
    __scatterload_zeroinit                   0x08000145   Thumb Code    28  __scatter_zi.o(!!handler_zi)
    __rt_lib_init                            0x08000161   Thumb Code     0  libinit.o(.ARM.Collect$$libinit$$00000000)
    __rt_lib_init_alloca_1                   0x08000163   Thumb Code     0  libinit2.o(.ARM.Collect$$libinit$$0000002E)
    __rt_lib_init_argv_1                     0x08000163   Thumb Code     0  libinit2.o(.ARM.Collect$$libinit$$0000002C)
    __rt_lib_init_atexit_1                   0x08000163   Thumb Code     0  libinit2.o(.ARM.Collect$$libinit$$0000001B)
    __rt_lib_init_clock_1                    0x08000163   Thumb Code     0  libinit2.o(.ARM.Collect$$libinit$$00000021)
    __rt_lib_init_cpp_1                      0x08000163   Thumb Code     0  libinit2.o(.ARM.Collect$$libinit$$00000032)
    __rt_lib_init_exceptions_1               0x08000163   Thumb Code     0  libinit2.o(.ARM.Collect$$libinit$$00000030)
    __rt_lib_init_fp_1                       0x08000163   Thumb Code     0  libinit2.o(.ARM.Collect$$libinit$$00000002)
    __rt_lib_init_fp_trap_1                  0x08000163   Thumb Code     0  libinit2.o(.ARM.Collect$$libinit$$0000001F)
    __rt_lib_init_getenv_1                   0x08000163   Thumb Code     0  libinit2.o(.ARM.Collect$$libinit$$00000023)
    __rt_lib_init_heap_1                     0x08000163   Thumb Code     0  libinit2.o(.ARM.Collect$$libinit$$0000000A)
    __rt_lib_init_lc_collate_1               0x08000163   Thumb Code     0  libinit2.o(.ARM.Collect$$libinit$$00000011)
    __rt_lib_init_lc_ctype_1                 0x08000163   Thumb Code     0  libinit2.o(.ARM.Collect$$libinit$$00000013)
    __rt_lib_init_lc_monetary_1              0x08000163   Thumb Code     0  libinit2.o(.ARM.Collect$$libinit$$00000015)
    __rt_lib_init_lc_numeric_1               0x08000163   Thumb Code     0  libinit2.o(.ARM.Collect$$libinit$$00000017)
    __rt_lib_init_lc_time_1                  0x08000163   Thumb Code     0  libinit2.o(.ARM.Collect$$libinit$$00000019)
    __rt_lib_init_preinit_1                  0x08000163   Thumb Code     0  libinit2.o(.ARM.Collect$$libinit$$00000004)
    __rt_lib_init_rand_1                     0x08000163   Thumb Code     0  libinit2.o(.ARM.Collect$$libinit$$0000000E)
    __rt_lib_init_return                     0x08000163   Thumb Code     0  libinit2.o(.ARM.Collect$$libinit$$00000033)
    __rt_lib_init_signal_1                   0x08000163   Thumb Code     0  libinit2.o(.ARM.Collect$$libinit$$0000001D)
    __rt_lib_init_stdio_1                    0x08000163   Thumb Code     0  libinit2.o(.ARM.Collect$$libinit$$00000025)
    __rt_lib_init_user_alloc_1               0x08000163   Thumb Code     0  libinit2.o(.ARM.Collect$$libinit$$0000000C)
    __rt_lib_shutdown                        0x08000165   Thumb Code     0  libshutdown.o(.ARM.Collect$$libshutdown$$00000000)
    __rt_lib_shutdown_cpp_1                  0x08000167   Thumb Code     0  libshutdown2.o(.ARM.Collect$$libshutdown$$00000002)
    __rt_lib_shutdown_fp_trap_1              0x08000167   Thumb Code     0  libshutdown2.o(.ARM.Collect$$libshutdown$$00000007)
    __rt_lib_shutdown_heap_1                 0x08000167   Thumb Code     0  libshutdown2.o(.ARM.Collect$$libshutdown$$0000000F)
    __rt_lib_shutdown_return                 0x08000167   Thumb Code     0  libshutdown2.o(.ARM.Collect$$libshutdown$$00000010)
    __rt_lib_shutdown_signal_1               0x08000167   Thumb Code     0  libshutdown2.o(.ARM.Collect$$libshutdown$$0000000A)
    __rt_lib_shutdown_stdio_1                0x08000167   Thumb Code     0  libshutdown2.o(.ARM.Collect$$libshutdown$$00000004)
    __rt_lib_shutdown_user_alloc_1           0x08000167   Thumb Code     0  libshutdown2.o(.ARM.Collect$$libshutdown$$0000000C)
    __rt_entry                               0x08000169   Thumb Code     0  __rtentry.o(.ARM.Collect$$rtentry$$00000000)
    __rt_entry_presh_1                       0x08000169   Thumb Code     0  __rtentry2.o(.ARM.Collect$$rtentry$$00000002)
    __rt_entry_sh                            0x08000169   Thumb Code     0  __rtentry4.o(.ARM.Collect$$rtentry$$00000004)
    __rt_entry_li                            0x0800016f   Thumb Code     0  __rtentry2.o(.ARM.Collect$$rtentry$$0000000A)
    __rt_entry_postsh_1                      0x0800016f   Thumb Code     0  __rtentry2.o(.ARM.Collect$$rtentry$$00000009)
    __rt_entry_main                          0x08000173   Thumb Code     0  __rtentry2.o(.ARM.Collect$$rtentry$$0000000D)
    __rt_entry_postli_1                      0x08000173   Thumb Code     0  __rtentry2.o(.ARM.Collect$$rtentry$$0000000C)
    __rt_exit                                0x0800017b   Thumb Code     0  rtexit.o(.ARM.Collect$$rtexit$$00000000)
    __rt_exit_ls                             0x0800017d   Thumb Code     0  rtexit2.o(.ARM.Collect$$rtexit$$00000003)
    __rt_exit_prels_1                        0x0800017d   Thumb Code     0  rtexit2.o(.ARM.Collect$$rtexit$$00000002)
    __rt_exit_exit                           0x08000181   Thumb Code     0  rtexit2.o(.ARM.Collect$$rtexit$$00000004)
    main                                     0x08000187   Thumb Code    50  main.o(.text)
    DrawTestPage                             0x080001b9   Thumb Code   134  test.o(.text)
    main_test                                0x0800023f   Thumb Code   124  test.o(.text)
    Test_Color                               0x080002bb   Thumb Code   338  test.o(.text)
    Test_FillRec                             0x0800040d   Thumb Code   392  test.o(.text)
    Test_Circle                              0x08000595   Thumb Code   444  test.o(.text)
    English_Font_test                        0x08000751   Thumb Code   128  test.o(.text)
    Chinese_Font_test                        0x080007d1   Thumb Code   122  test.o(.text)
    Pic_test                                 0x0800084b   Thumb Code   152  test.o(.text)
    Touch_Test                               0x080008e3   Thumb Code   892  test.o(.text)
    GUI_DrawPoint                            0x08000c65   Thumb Code    24  gui.o(.text)
    LCD_Fill                                 0x08000c7d   Thumb Code   180  gui.o(.text)
    LCD_DrawLine                             0x08000d31   Thumb Code   176  gui.o(.text)
    LCD_DrawRectangle                        0x08000de1   Thumb Code    64  gui.o(.text)
    LCD_DrawFillRectangle                    0x08000e21   Thumb Code    30  gui.o(.text)
    _draw_circle_8                           0x08000e3f   Thumb Code   132  gui.o(.text)
    gui_circle                               0x08000ec3   Thumb Code   154  gui.o(.text)
    LCD_ShowChar                             0x08000f5d   Thumb Code   276  gui.o(.text)
    LCD_ShowString                           0x08001071   Thumb Code   120  gui.o(.text)
    mypow                                    0x080010e9   Thumb Code    22  gui.o(.text)
    LCD_ShowNum                              0x080010ff   Thumb Code   168  gui.o(.text)
    GUI_DrawFont16                           0x080011a7   Thumb Code   252  gui.o(.text)
    GUI_DrawFont24                           0x080012a3   Thumb Code   268  gui.o(.text)
    GUI_DrawFont32                           0x080013af   Thumb Code   278  gui.o(.text)
    Show_Str                                 0x080014c5   Thumb Code   264  gui.o(.text)
    Gui_StrCenter                            0x080015cd   Thumb Code    68  gui.o(.text)
    Gui_Drawbmp16                            0x08001611   Thumb Code    90  gui.o(.text)
    delay_init                               0x08001671   Thumb Code    52  delay.o(.text)
    delay_ms                                 0x080016a5   Thumb Code    56  delay.o(.text)
    delay_us                                 0x080016dd   Thumb Code    56  delay.o(.text)
    SystemInit                               0x080017fb   Thumb Code    78  system_stm32f10x.o(.text)
    SystemCoreClockUpdate                    0x08001849   Thumb Code   142  system_stm32f10x.o(.text)
    KEY_Init                                 0x080018fd   Thumb Code    82  key.o(.text)
    KEY_Scan                                 0x0800194f   Thumb Code    92  key.o(.text)
    LCD_WR_REG                               0x080019b9   Thumb Code    40  lcd.o(.text)
    LCD_WR_DATA                              0x080019e1   Thumb Code    44  lcd.o(.text)
    LCD_DrawPoint_16Bit                      0x08001a0d   Thumb Code    64  lcd.o(.text)
    LCD_WriteReg                             0x08001a4d   Thumb Code    20  lcd.o(.text)
    LCD_WriteRAM_Prepare                     0x08001a61   Thumb Code    12  lcd.o(.text)
    LCD_SetCursor                            0x08001a6d   Thumb Code    52  lcd.o(.text)
    LCD_DrawPoint                            0x08001aa1   Thumb Code    86  lcd.o(.text)
    LCD_SetWindows                           0x08001af7   Thumb Code    78  lcd.o(.text)
    LCD_Clear                                0x08001b45   Thumb Code   118  lcd.o(.text)
    LCD_GPIOInit                             0x08001bbb   Thumb Code    92  lcd.o(.text)
    LCD_RESET                                0x08001c17   Thumb Code    30  lcd.o(.text)
    LCD_SetParam                             0x08001c35   Thumb Code    40  lcd.o(.text)
    LCD_Init                                 0x08001c5d   Thumb Code   596  lcd.o(.text)
    IIC_Init                                 0x08001eb5   Thumb Code    52  myiic.o(.text)
    IIC_Start                                0x08001ee9   Thumb Code    68  myiic.o(.text)
    IIC_Stop                                 0x08001f2d   Thumb Code    62  myiic.o(.text)
    IIC_Wait_Ack                             0x08001f6b   Thumb Code    86  myiic.o(.text)
    IIC_Ack                                  0x08001fc1   Thumb Code    66  myiic.o(.text)
    IIC_NAck                                 0x08002003   Thumb Code    66  myiic.o(.text)
    IIC_Send_Byte                            0x08002045   Thumb Code    90  myiic.o(.text)
    IIC_Read_Byte                            0x0800209f   Thumb Code    98  myiic.o(.text)
    AT24CXX_Init                             0x0800210d   Thumb Code     8  24cxx.o(.text)
    AT24CXX_ReadOneByte                      0x08002115   Thumb Code    88  24cxx.o(.text)
    AT24CXX_WriteOneByte                     0x0800216d   Thumb Code    80  24cxx.o(.text)
    AT24CXX_WriteLenByte                     0x080021bd   Thumb Code    42  24cxx.o(.text)
    AT24CXX_ReadLenByte                      0x080021e7   Thumb Code    44  24cxx.o(.text)
    AT24CXX_Check                            0x08002213   Thumb Code    46  24cxx.o(.text)
    AT24CXX_Read                             0x08002241   Thumb Code    34  24cxx.o(.text)
    AT24CXX_Write                            0x08002263   Thumb Code    36  24cxx.o(.text)
    TP_Write_Byte                            0x08002289   Thumb Code    56  touch.o(.text)
    TP_Read_AD                               0x080022c1   Thumb Code   132  touch.o(.text)
    TP_Read_XOY                              0x08002345   Thumb Code   120  touch.o(.text)
    TP_Read_XY                               0x080023bd   Thumb Code    38  touch.o(.text)
    TP_Read_XY2                              0x080023e3   Thumb Code   192  touch.o(.text)
    TP_Drow_Touch_Point                      0x080024a3   Thumb Code   116  touch.o(.text)
    TP_Draw_Big_Point                        0x08002517   Thumb Code    54  touch.o(.text)
    TP_Scan                                  0x0800254d   Thumb Code   246  touch.o(.text)
    TP_Save_Adjdata                          0x08002643   Thumb Code   148  touch.o(.text)
    TP_Get_Adjdata                           0x080026d7   Thumb Code   152  touch.o(.text)
    TP_Adj_Info_Show                         0x0800276f   Thumb Code   322  touch.o(.text)
    TP_Adjust                                0x080028b1   Thumb Code  2242  touch.o(.text)
    TP_Init                                  0x08003173   Thumb Code   106  touch.o(.text)
    Reset_Handler                            0x08003221   Thumb Code     8  startup_stm32f10x_md.o(.text)
    NMI_Handler                              0x08003229   Thumb Code     2  startup_stm32f10x_md.o(.text)
    HardFault_Handler                        0x0800322b   Thumb Code     2  startup_stm32f10x_md.o(.text)
    MemManage_Handler                        0x0800322d   Thumb Code     2  startup_stm32f10x_md.o(.text)
    BusFault_Handler                         0x0800322f   Thumb Code     2  startup_stm32f10x_md.o(.text)
    UsageFault_Handler                       0x08003231   Thumb Code     2  startup_stm32f10x_md.o(.text)
    SVC_Handler                              0x08003233   Thumb Code     2  startup_stm32f10x_md.o(.text)
    DebugMon_Handler                         0x08003235   Thumb Code     2  startup_stm32f10x_md.o(.text)
    PendSV_Handler                           0x08003237   Thumb Code     2  startup_stm32f10x_md.o(.text)
    SysTick_Handler                          0x08003239   Thumb Code     2  startup_stm32f10x_md.o(.text)
    ADC1_2_IRQHandler                        0x0800323b   Thumb Code     0  startup_stm32f10x_md.o(.text)
    CAN1_RX1_IRQHandler                      0x0800323b   Thumb Code     0  startup_stm32f10x_md.o(.text)
    CAN1_SCE_IRQHandler                      0x0800323b   Thumb Code     0  startup_stm32f10x_md.o(.text)
    DMA1_Channel1_IRQHandler                 0x0800323b   Thumb Code     0  startup_stm32f10x_md.o(.text)
    DMA1_Channel2_IRQHandler                 0x0800323b   Thumb Code     0  startup_stm32f10x_md.o(.text)
    DMA1_Channel3_IRQHandler                 0x0800323b   Thumb Code     0  startup_stm32f10x_md.o(.text)
    DMA1_Channel4_IRQHandler                 0x0800323b   Thumb Code     0  startup_stm32f10x_md.o(.text)
    DMA1_Channel5_IRQHandler                 0x0800323b   Thumb Code     0  startup_stm32f10x_md.o(.text)
    DMA1_Channel6_IRQHandler                 0x0800323b   Thumb Code     0  startup_stm32f10x_md.o(.text)
    DMA1_Channel7_IRQHandler                 0x0800323b   Thumb Code     0  startup_stm32f10x_md.o(.text)
    EXTI0_IRQHandler                         0x0800323b   Thumb Code     0  startup_stm32f10x_md.o(.text)
    EXTI15_10_IRQHandler                     0x0800323b   Thumb Code     0  startup_stm32f10x_md.o(.text)
    EXTI1_IRQHandler                         0x0800323b   Thumb Code     0  startup_stm32f10x_md.o(.text)
    EXTI2_IRQHandler                         0x0800323b   Thumb Code     0  startup_stm32f10x_md.o(.text)
    EXTI3_IRQHandler                         0x0800323b   Thumb Code     0  startup_stm32f10x_md.o(.text)
    EXTI4_IRQHandler                         0x0800323b   Thumb Code     0  startup_stm32f10x_md.o(.text)
    EXTI9_5_IRQHandler                       0x0800323b   Thumb Code     0  startup_stm32f10x_md.o(.text)
    FLASH_IRQHandler                         0x0800323b   Thumb Code     0  startup_stm32f10x_md.o(.text)
    I2C1_ER_IRQHandler                       0x0800323b   Thumb Code     0  startup_stm32f10x_md.o(.text)
    I2C1_EV_IRQHandler                       0x0800323b   Thumb Code     0  startup_stm32f10x_md.o(.text)
    I2C2_ER_IRQHandler                       0x0800323b   Thumb Code     0  startup_stm32f10x_md.o(.text)
    I2C2_EV_IRQHandler                       0x0800323b   Thumb Code     0  startup_stm32f10x_md.o(.text)
    PVD_IRQHandler                           0x0800323b   Thumb Code     0  startup_stm32f10x_md.o(.text)
    RCC_IRQHandler                           0x0800323b   Thumb Code     0  startup_stm32f10x_md.o(.text)
    RTCAlarm_IRQHandler                      0x0800323b   Thumb Code     0  startup_stm32f10x_md.o(.text)
    RTC_IRQHandler                           0x0800323b   Thumb Code     0  startup_stm32f10x_md.o(.text)
    SPI1_IRQHandler                          0x0800323b   Thumb Code     0  startup_stm32f10x_md.o(.text)
    SPI2_IRQHandler                          0x0800323b   Thumb Code     0  startup_stm32f10x_md.o(.text)
    TAMPER_IRQHandler                        0x0800323b   Thumb Code     0  startup_stm32f10x_md.o(.text)
    TIM1_BRK_IRQHandler                      0x0800323b   Thumb Code     0  startup_stm32f10x_md.o(.text)
    TIM1_CC_IRQHandler                       0x0800323b   Thumb Code     0  startup_stm32f10x_md.o(.text)
    TIM1_TRG_COM_IRQHandler                  0x0800323b   Thumb Code     0  startup_stm32f10x_md.o(.text)
    TIM1_UP_IRQHandler                       0x0800323b   Thumb Code     0  startup_stm32f10x_md.o(.text)
    TIM2_IRQHandler                          0x0800323b   Thumb Code     0  startup_stm32f10x_md.o(.text)
    TIM3_IRQHandler                          0x0800323b   Thumb Code     0  startup_stm32f10x_md.o(.text)
    TIM4_IRQHandler                          0x0800323b   Thumb Code     0  startup_stm32f10x_md.o(.text)
    USART1_IRQHandler                        0x0800323b   Thumb Code     0  startup_stm32f10x_md.o(.text)
    USART2_IRQHandler                        0x0800323b   Thumb Code     0  startup_stm32f10x_md.o(.text)
    USART3_IRQHandler                        0x0800323b   Thumb Code     0  startup_stm32f10x_md.o(.text)
    USBWakeUp_IRQHandler                     0x0800323b   Thumb Code     0  startup_stm32f10x_md.o(.text)
    USB_HP_CAN1_TX_IRQHandler                0x0800323b   Thumb Code     0  startup_stm32f10x_md.o(.text)
    USB_LP_CAN1_RX0_IRQHandler               0x0800323b   Thumb Code     0  startup_stm32f10x_md.o(.text)
    WWDG_IRQHandler                          0x0800323b   Thumb Code     0  startup_stm32f10x_md.o(.text)
    __user_initial_stackheap                 0x0800323d   Thumb Code     0  startup_stm32f10x_md.o(.text)
    NVIC_PriorityGroupConfig                 0x08003261   Thumb Code    10  misc.o(.text)
    NVIC_Init                                0x0800326b   Thumb Code   100  misc.o(.text)
    NVIC_SetVectorTable                      0x080032cf   Thumb Code    14  misc.o(.text)
    NVIC_SystemLPConfig                      0x080032dd   Thumb Code    34  misc.o(.text)
    SysTick_CLKSourceConfig                  0x080032ff   Thumb Code    40  misc.o(.text)
    GPIO_DeInit                              0x0800333d   Thumb Code   172  stm32f10x_gpio.o(.text)
    GPIO_AFIODeInit                          0x080033e9   Thumb Code    20  stm32f10x_gpio.o(.text)
    GPIO_Init                                0x080033fd   Thumb Code   278  stm32f10x_gpio.o(.text)
    GPIO_StructInit                          0x08003513   Thumb Code    16  stm32f10x_gpio.o(.text)
    GPIO_ReadInputDataBit                    0x08003523   Thumb Code    18  stm32f10x_gpio.o(.text)
    GPIO_ReadInputData                       0x08003535   Thumb Code     8  stm32f10x_gpio.o(.text)
    GPIO_ReadOutputDataBit                   0x0800353d   Thumb Code    18  stm32f10x_gpio.o(.text)
    GPIO_ReadOutputData                      0x0800354f   Thumb Code     8  stm32f10x_gpio.o(.text)
    GPIO_SetBits                             0x08003557   Thumb Code     4  stm32f10x_gpio.o(.text)
    GPIO_ResetBits                           0x0800355b   Thumb Code     4  stm32f10x_gpio.o(.text)
    GPIO_WriteBit                            0x0800355f   Thumb Code    10  stm32f10x_gpio.o(.text)
    GPIO_Write                               0x08003569   Thumb Code     4  stm32f10x_gpio.o(.text)
    GPIO_PinLockConfig                       0x0800356d   Thumb Code    18  stm32f10x_gpio.o(.text)
    GPIO_EventOutputConfig                   0x0800357f   Thumb Code    26  stm32f10x_gpio.o(.text)
    GPIO_EventOutputCmd                      0x08003599   Thumb Code     6  stm32f10x_gpio.o(.text)
    GPIO_PinRemapConfig                      0x0800359f   Thumb Code   138  stm32f10x_gpio.o(.text)
    GPIO_EXTILineConfig                      0x08003629   Thumb Code    66  stm32f10x_gpio.o(.text)
    GPIO_ETH_MediaInterfaceConfig            0x0800366b   Thumb Code     8  stm32f10x_gpio.o(.text)
    RCC_DeInit                               0x08003699   Thumb Code    64  stm32f10x_rcc.o(.text)
    RCC_HSEConfig                            0x080036d9   Thumb Code    70  stm32f10x_rcc.o(.text)
    RCC_GetFlagStatus                        0x0800371f   Thumb Code    56  stm32f10x_rcc.o(.text)
    RCC_WaitForHSEStartUp                    0x08003757   Thumb Code    56  stm32f10x_rcc.o(.text)
    RCC_AdjustHSICalibrationValue            0x0800378f   Thumb Code    20  stm32f10x_rcc.o(.text)
    RCC_HSICmd                               0x080037a3   Thumb Code     6  stm32f10x_rcc.o(.text)
    RCC_PLLConfig                            0x080037a9   Thumb Code    24  stm32f10x_rcc.o(.text)
    RCC_PLLCmd                               0x080037c1   Thumb Code     6  stm32f10x_rcc.o(.text)
    RCC_SYSCLKConfig                         0x080037c7   Thumb Code    18  stm32f10x_rcc.o(.text)
    RCC_GetSYSCLKSource                      0x080037d9   Thumb Code    10  stm32f10x_rcc.o(.text)
    RCC_HCLKConfig                           0x080037e3   Thumb Code    18  stm32f10x_rcc.o(.text)
    RCC_PCLK1Config                          0x080037f5   Thumb Code    18  stm32f10x_rcc.o(.text)
    RCC_PCLK2Config                          0x08003807   Thumb Code    20  stm32f10x_rcc.o(.text)
    RCC_ITConfig                             0x0800381b   Thumb Code    26  stm32f10x_rcc.o(.text)
    RCC_USBCLKConfig                         0x08003835   Thumb Code     8  stm32f10x_rcc.o(.text)
    RCC_ADCCLKConfig                         0x0800383d   Thumb Code    18  stm32f10x_rcc.o(.text)
    RCC_LSEConfig                            0x0800384f   Thumb Code    50  stm32f10x_rcc.o(.text)
    RCC_LSICmd                               0x08003881   Thumb Code     6  stm32f10x_rcc.o(.text)
    RCC_RTCCLKConfig                         0x08003887   Thumb Code    12  stm32f10x_rcc.o(.text)
    RCC_RTCCLKCmd                            0x08003893   Thumb Code     8  stm32f10x_rcc.o(.text)
    RCC_GetClocksFreq                        0x0800389b   Thumb Code   192  stm32f10x_rcc.o(.text)
    RCC_AHBPeriphClockCmd                    0x0800395b   Thumb Code    26  stm32f10x_rcc.o(.text)
    RCC_APB2PeriphClockCmd                   0x08003975   Thumb Code    26  stm32f10x_rcc.o(.text)
    RCC_APB1PeriphClockCmd                   0x0800398f   Thumb Code    26  stm32f10x_rcc.o(.text)
    RCC_APB2PeriphResetCmd                   0x080039a9   Thumb Code    26  stm32f10x_rcc.o(.text)
    RCC_APB1PeriphResetCmd                   0x080039c3   Thumb Code    26  stm32f10x_rcc.o(.text)
    RCC_BackupResetCmd                       0x080039dd   Thumb Code     8  stm32f10x_rcc.o(.text)
    RCC_ClockSecuritySystemCmd               0x080039e5   Thumb Code     6  stm32f10x_rcc.o(.text)
    RCC_MCOConfig                            0x080039eb   Thumb Code     6  stm32f10x_rcc.o(.text)
    RCC_ClearFlag                            0x080039f1   Thumb Code    14  stm32f10x_rcc.o(.text)
    RCC_GetITStatus                          0x080039ff   Thumb Code    20  stm32f10x_rcc.o(.text)
    RCC_ClearITPendingBit                    0x08003a13   Thumb Code     6  stm32f10x_rcc.o(.text)
    strlen                                   0x08003a3d   Thumb Code    62  strlen.o(.text)
    __use_two_region_memory                  0x08003a7b   Thumb Code     2  heapauxi.o(.text)
    __rt_heap_escrow$2region                 0x08003a7d   Thumb Code     2  heapauxi.o(.text)
    __rt_heap_expand$2region                 0x08003a7f   Thumb Code     2  heapauxi.o(.text)
    __read_errno                             0x08003a81   Thumb Code    10  _rserrno.o(.text)
    __set_errno                              0x08003a8b   Thumb Code    12  _rserrno.o(.text)
    __aeabi_errno_addr                       0x08003a99   Thumb Code     8  rt_errno_addr_intlibspace.o(.text)
    __errno$intlibspace                      0x08003a99   Thumb Code     0  rt_errno_addr_intlibspace.o(.text)
    __rt_errno_addr$intlibspace              0x08003a99   Thumb Code     0  rt_errno_addr_intlibspace.o(.text)
    __user_libspace                          0x08003aa1   Thumb Code     8  libspace.o(.text)
    __user_perproc_libspace                  0x08003aa1   Thumb Code     0  libspace.o(.text)
    __user_perthread_libspace                0x08003aa1   Thumb Code     0  libspace.o(.text)
    __user_setup_stackheap                   0x08003aa9   Thumb Code    74  sys_stackheap_outer.o(.text)
    exit                                     0x08003af3   Thumb Code    18  exit.o(.text)
    _sys_exit                                0x08003b05   Thumb Code     8  sys_exit.o(.text)
    __I$use$semihosting                      0x08003b11   Thumb Code     0  use_no_semi.o(.text)
    __use_no_semihosting_swi                 0x08003b11   Thumb Code     2  use_no_semi.o(.text)
    __semihosting_library_function           0x08003b13   Thumb Code     0  indicate_semi.o(.text)
    sqrt                                     0x08003b13   Thumb Code    76  sqrt.o(i.sqrt)
    __fpl_dcmp_Inf                           0x08003b5f   Thumb Code    24  dcmpi.o(x$fpl$dcmpinf)
    __aeabi_d2uiz                            0x08003b79   Thumb Code     0  dfixu.o(x$fpl$dfixu)
    _dfixu                                   0x08003b79   Thumb Code    90  dfixu.o(x$fpl$dfixu)
    __aeabi_ui2d                             0x08003bd3   Thumb Code     0  dflt_clz.o(x$fpl$dfltu)
    _dfltu                                   0x08003bd3   Thumb Code    38  dflt_clz.o(x$fpl$dfltu)
    __aeabi_cdcmple                          0x08003bf9   Thumb Code     0  dleqf.o(x$fpl$dleqf)
    _dcmple                                  0x08003bf9   Thumb Code   120  dleqf.o(x$fpl$dleqf)
    __fpl_dcmple_InfNaN                      0x08003c5b   Thumb Code     0  dleqf.o(x$fpl$dleqf)
    __fpl_dnaninf                            0x08003c71   Thumb Code   156  dnaninf.o(x$fpl$dnaninf)
    __fpl_dretinf                            0x08003d0d   Thumb Code    12  dretinf.o(x$fpl$dretinf)
    __aeabi_cdrcmple                         0x08003d19   Thumb Code     0  drleqf.o(x$fpl$drleqf)
    _drcmple                                 0x08003d19   Thumb Code   108  drleqf.o(x$fpl$drleqf)
    _dsqrt                                   0x08003d85   Thumb Code   456  dsqrt_noumaal.o(x$fpl$dsqrt)
    __aeabi_f2d                              0x08003f51   Thumb Code     0  f2d.o(x$fpl$f2d)
    _f2d                                     0x08003f51   Thumb Code    86  f2d.o(x$fpl$f2d)
    __aeabi_fadd                             0x08003fa9   Thumb Code     0  faddsub_clz.o(x$fpl$fadd)
    _fadd                                    0x08003fa9   Thumb Code   196  faddsub_clz.o(x$fpl$fadd)
    __aeabi_fdiv                             0x0800406d   Thumb Code     0  fdiv.o(x$fpl$fdiv)
    _fdiv                                    0x0800406d   Thumb Code   384  fdiv.o(x$fpl$fdiv)
    __aeabi_f2iz                             0x080041f1   Thumb Code     0  ffix.o(x$fpl$ffix)
    _ffix                                    0x080041f1   Thumb Code    54  ffix.o(x$fpl$ffix)
    __aeabi_f2uiz                            0x08004229   Thumb Code     0  ffixu.o(x$fpl$ffixu)
    _ffixu                                   0x08004229   Thumb Code    62  ffixu.o(x$fpl$ffixu)
    __aeabi_i2f                              0x08004269   Thumb Code     0  fflt_clz.o(x$fpl$fflt)
    _fflt                                    0x08004269   Thumb Code    48  fflt_clz.o(x$fpl$fflt)
    __aeabi_ui2f                             0x08004299   Thumb Code     0  fflt_clz.o(x$fpl$ffltu)
    _ffltu                                   0x08004299   Thumb Code    38  fflt_clz.o(x$fpl$ffltu)
    __aeabi_fmul                             0x080042c1   Thumb Code     0  fmul.o(x$fpl$fmul)
    _fmul                                    0x080042c1   Thumb Code   258  fmul.o(x$fpl$fmul)
    __fpl_fnaninf                            0x080043c3   Thumb Code   140  fnaninf.o(x$fpl$fnaninf)
    __fpl_fretinf                            0x0800444f   Thumb Code    10  fretinf.o(x$fpl$fretinf)
    __aeabi_fsub                             0x08004459   Thumb Code     0  faddsub_clz.o(x$fpl$fsub)
    _fsub                                    0x08004459   Thumb Code   234  faddsub_clz.o(x$fpl$fsub)
    __I$use$fp                               0x08004542   Number         0  usenofp.o(x$fpl$usenofp)
    gImage_qq                                0x08004542   Data        3200  test.o(.constdata)
    asc2_1206                                0x080051c2   Data        1140  gui.o(.constdata)
    asc2_1608                                0x08005636   Data        1520  gui.o(.constdata)
    tfont16                                  0x08005c26   Data        1564  gui.o(.constdata)
    tfont24                                  0x08006242   Data         518  gui.o(.constdata)
    tfont32                                  0x08006448   Data         520  gui.o(.constdata)
    Region$$Table$$Base                      0x080066cc   Number         0  anon$$obj.o(Region$$Table)
    Region$$Table$$Limit                     0x080066ec   Number         0  anon$$obj.o(Region$$Table)
    ColorTab                                 0x20000000   Data          10  test.o(.data)
    SystemCoreClock                          0x20000010   Data           4  system_stm32f10x.o(.data)
    AHBPrescTable                            0x20000014   Data          16  system_stm32f10x.o(.data)
    POINT_COLOR                              0x20000024   Data           2  lcd.o(.data)
    BACK_COLOR                               0x20000026   Data           2  lcd.o(.data)
    DeviceCode                               0x20000028   Data           2  lcd.o(.data)
    tp_dev                                   0x2000002c   Data          40  touch.o(.data)
    CMD_RDX                                  0x20000054   Data           1  touch.o(.data)
    CMD_RDY                                  0x20000055   Data           1  touch.o(.data)
    TP_REMIND_MSG_TBL                        0x20000058   Data           4  touch.o(.data)
    lcddev                                   0x20000070   Data          14  lcd.o(.bss)
    __libspace_start                         0x20000080   Data          96  libspace.o(.bss)
    __temporary_stack_top$libspace           0x200000e0   Data           0  libspace.o(.bss)



==============================================================================

Memory Map of the image

  Image Entry point : 0x080000ed

  Load Region LR_IROM1 (Base: 0x08000000, Size: 0x0000675c, Max: 0x00010000, ABSOLUTE)

    Execution Region ER_IROM1 (Exec base: 0x08000000, Load base: 0x08000000, Size: 0x000066ec, Max: 0x00010000, ABSOLUTE)

    Exec Addr    Load Addr    Size         Type   Attr      Idx    E Section Name        Object

    0x08000000   0x08000000   0x000000ec   Data   RO          332    RESET               startup_stm32f10x_md.o
    0x080000ec   0x080000ec   0x00000008   Code   RO          405  * !!!main             c_w.l(__main.o)
    0x080000f4   0x080000f4   0x00000034   Code   RO          632    !!!scatter          c_w.l(__scatter.o)
    0x08000128   0x08000128   0x0000001a   Code   RO          634    !!handler_copy      c_w.l(__scatter_copy.o)
    0x08000142   0x08000142   0x00000002   PAD
    0x08000144   0x08000144   0x0000001c   Code   RO          636    !!handler_zi        c_w.l(__scatter_zi.o)
    0x08000160   0x08000160   0x00000002   Code   RO          505    .ARM.Collect$$libinit$$00000000  c_w.l(libinit.o)
    0x08000162   0x08000162   0x00000000   Code   RO          509    .ARM.Collect$$libinit$$00000002  c_w.l(libinit2.o)
    0x08000162   0x08000162   0x00000000   Code   RO          511    .ARM.Collect$$libinit$$00000004  c_w.l(libinit2.o)
    0x08000162   0x08000162   0x00000000   Code   RO          514    .ARM.Collect$$libinit$$0000000A  c_w.l(libinit2.o)
    0x08000162   0x08000162   0x00000000   Code   RO          516    .ARM.Collect$$libinit$$0000000C  c_w.l(libinit2.o)
    0x08000162   0x08000162   0x00000000   Code   RO          518    .ARM.Collect$$libinit$$0000000E  c_w.l(libinit2.o)
    0x08000162   0x08000162   0x00000000   Code   RO          521    .ARM.Collect$$libinit$$00000011  c_w.l(libinit2.o)
    0x08000162   0x08000162   0x00000000   Code   RO          523    .ARM.Collect$$libinit$$00000013  c_w.l(libinit2.o)
    0x08000162   0x08000162   0x00000000   Code   RO          525    .ARM.Collect$$libinit$$00000015  c_w.l(libinit2.o)
    0x08000162   0x08000162   0x00000000   Code   RO          527    .ARM.Collect$$libinit$$00000017  c_w.l(libinit2.o)
    0x08000162   0x08000162   0x00000000   Code   RO          529    .ARM.Collect$$libinit$$00000019  c_w.l(libinit2.o)
    0x08000162   0x08000162   0x00000000   Code   RO          531    .ARM.Collect$$libinit$$0000001B  c_w.l(libinit2.o)
    0x08000162   0x08000162   0x00000000   Code   RO          533    .ARM.Collect$$libinit$$0000001D  c_w.l(libinit2.o)
    0x08000162   0x08000162   0x00000000   Code   RO          535    .ARM.Collect$$libinit$$0000001F  c_w.l(libinit2.o)
    0x08000162   0x08000162   0x00000000   Code   RO          537    .ARM.Collect$$libinit$$00000021  c_w.l(libinit2.o)
    0x08000162   0x08000162   0x00000000   Code   RO          539    .ARM.Collect$$libinit$$00000023  c_w.l(libinit2.o)
    0x08000162   0x08000162   0x00000000   Code   RO          541    .ARM.Collect$$libinit$$00000025  c_w.l(libinit2.o)
    0x08000162   0x08000162   0x00000000   Code   RO          545    .ARM.Collect$$libinit$$0000002C  c_w.l(libinit2.o)
    0x08000162   0x08000162   0x00000000   Code   RO          547    .ARM.Collect$$libinit$$0000002E  c_w.l(libinit2.o)
    0x08000162   0x08000162   0x00000000   Code   RO          549    .ARM.Collect$$libinit$$00000030  c_w.l(libinit2.o)
    0x08000162   0x08000162   0x00000000   Code   RO          551    .ARM.Collect$$libinit$$00000032  c_w.l(libinit2.o)
    0x08000162   0x08000162   0x00000002   Code   RO          552    .ARM.Collect$$libinit$$00000033  c_w.l(libinit2.o)
    0x08000164   0x08000164   0x00000002   Code   RO          572    .ARM.Collect$$libshutdown$$00000000  c_w.l(libshutdown.o)
    0x08000166   0x08000166   0x00000000   Code   RO          585    .ARM.Collect$$libshutdown$$00000002  c_w.l(libshutdown2.o)
    0x08000166   0x08000166   0x00000000   Code   RO          587    .ARM.Collect$$libshutdown$$00000004  c_w.l(libshutdown2.o)
    0x08000166   0x08000166   0x00000000   Code   RO          590    .ARM.Collect$$libshutdown$$00000007  c_w.l(libshutdown2.o)
    0x08000166   0x08000166   0x00000000   Code   RO          593    .ARM.Collect$$libshutdown$$0000000A  c_w.l(libshutdown2.o)
    0x08000166   0x08000166   0x00000000   Code   RO          595    .ARM.Collect$$libshutdown$$0000000C  c_w.l(libshutdown2.o)
    0x08000166   0x08000166   0x00000000   Code   RO          598    .ARM.Collect$$libshutdown$$0000000F  c_w.l(libshutdown2.o)
    0x08000166   0x08000166   0x00000002   Code   RO          599    .ARM.Collect$$libshutdown$$00000010  c_w.l(libshutdown2.o)
    0x08000168   0x08000168   0x00000000   Code   RO          457    .ARM.Collect$$rtentry$$00000000  c_w.l(__rtentry.o)
    0x08000168   0x08000168   0x00000000   Code   RO          474    .ARM.Collect$$rtentry$$00000002  c_w.l(__rtentry2.o)
    0x08000168   0x08000168   0x00000006   Code   RO          486    .ARM.Collect$$rtentry$$00000004  c_w.l(__rtentry4.o)
    0x0800016e   0x0800016e   0x00000000   Code   RO          476    .ARM.Collect$$rtentry$$00000009  c_w.l(__rtentry2.o)
    0x0800016e   0x0800016e   0x00000004   Code   RO          477    .ARM.Collect$$rtentry$$0000000A  c_w.l(__rtentry2.o)
    0x08000172   0x08000172   0x00000000   Code   RO          479    .ARM.Collect$$rtentry$$0000000C  c_w.l(__rtentry2.o)
    0x08000172   0x08000172   0x00000008   Code   RO          480    .ARM.Collect$$rtentry$$0000000D  c_w.l(__rtentry2.o)
    0x0800017a   0x0800017a   0x00000002   Code   RO          506    .ARM.Collect$$rtexit$$00000000  c_w.l(rtexit.o)
    0x0800017c   0x0800017c   0x00000000   Code   RO          554    .ARM.Collect$$rtexit$$00000002  c_w.l(rtexit2.o)
    0x0800017c   0x0800017c   0x00000004   Code   RO          555    .ARM.Collect$$rtexit$$00000003  c_w.l(rtexit2.o)
    0x08000180   0x08000180   0x00000006   Code   RO          556    .ARM.Collect$$rtexit$$00000004  c_w.l(rtexit2.o)
    0x08000186   0x08000186   0x00000032   Code   RO            1    .text               main.o
    0x080001b8   0x080001b8   0x00000aac   Code   RO          124    .text               test.o
    0x08000c64   0x08000c64   0x00000a0c   Code   RO          149    .text               gui.o
    0x08001670   0x08001670   0x000000ac   Code   RO          170    .text               delay.o
    0x0800171c   0x0800171c   0x000001e0   Code   RO          184    .text               system_stm32f10x.o
    0x080018fc   0x080018fc   0x000000bc   Code   RO          224    .text               key.o
    0x080019b8   0x080019b8   0x000004fc   Code   RO          236    .text               lcd.o
    0x08001eb4   0x08001eb4   0x00000258   Code   RO          263    .text               myiic.o
    0x0800210c   0x0800210c   0x0000017a   Code   RO          278    .text               24cxx.o
    0x08002286   0x08002286   0x00000002   PAD
    0x08002288   0x08002288   0x00000f98   Code   RO          293    .text               touch.o
    0x08003220   0x08003220   0x00000040   Code   RO          333    .text               startup_stm32f10x_md.o
    0x08003260   0x08003260   0x000000dc   Code   RO          337    .text               misc.o
    0x0800333c   0x0800333c   0x0000035c   Code   RO          349    .text               stm32f10x_gpio.o
    0x08003698   0x08003698   0x000003a4   Code   RO          361    .text               stm32f10x_rcc.o
    0x08003a3c   0x08003a3c   0x0000003e   Code   RO          401    .text               c_w.l(strlen.o)
    0x08003a7a   0x08003a7a   0x00000006   Code   RO          403    .text               c_w.l(heapauxi.o)
    0x08003a80   0x08003a80   0x00000016   Code   RO          458    .text               c_w.l(_rserrno.o)
    0x08003a96   0x08003a96   0x00000002   PAD
    0x08003a98   0x08003a98   0x00000008   Code   RO          491    .text               c_w.l(rt_errno_addr_intlibspace.o)
    0x08003aa0   0x08003aa0   0x00000008   Code   RO          493    .text               c_w.l(libspace.o)
    0x08003aa8   0x08003aa8   0x0000004a   Code   RO          496    .text               c_w.l(sys_stackheap_outer.o)
    0x08003af2   0x08003af2   0x00000012   Code   RO          498    .text               c_w.l(exit.o)
    0x08003b04   0x08003b04   0x0000000c   Code   RO          564    .text               c_w.l(sys_exit.o)
    0x08003b10   0x08003b10   0x00000002   Code   RO          575    .text               c_w.l(use_no_semi.o)
    0x08003b12   0x08003b12   0x00000000   Code   RO          577    .text               c_w.l(indicate_semi.o)
    0x08003b12   0x08003b12   0x0000004c   Code   RO          450    i.sqrt              m_ws.l(sqrt.o)
    0x08003b5e   0x08003b5e   0x00000018   Code   RO          460    x$fpl$dcmpinf       fz_ws.l(dcmpi.o)
    0x08003b76   0x08003b76   0x00000002   PAD
    0x08003b78   0x08003b78   0x0000005a   Code   RO          407    x$fpl$dfixu         fz_ws.l(dfixu.o)
    0x08003bd2   0x08003bd2   0x00000026   Code   RO          411    x$fpl$dfltu         fz_ws.l(dflt_clz.o)
    0x08003bf8   0x08003bf8   0x00000078   Code   RO          417    x$fpl$dleqf         fz_ws.l(dleqf.o)
    0x08003c70   0x08003c70   0x0000009c   Code   RO          462    x$fpl$dnaninf       fz_ws.l(dnaninf.o)
    0x08003d0c   0x08003d0c   0x0000000c   Code   RO          464    x$fpl$dretinf       fz_ws.l(dretinf.o)
    0x08003d18   0x08003d18   0x0000006c   Code   RO          419    x$fpl$drleqf        fz_ws.l(drleqf.o)
    0x08003d84   0x08003d84   0x000001cc   Code   RO          466    x$fpl$dsqrt         fz_ws.l(dsqrt_noumaal.o)
    0x08003f50   0x08003f50   0x00000056   Code   RO          421    x$fpl$f2d           fz_ws.l(f2d.o)
    0x08003fa6   0x08003fa6   0x00000002   PAD
    0x08003fa8   0x08003fa8   0x000000c4   Code   RO          423    x$fpl$fadd          fz_ws.l(faddsub_clz.o)
    0x0800406c   0x0800406c   0x00000184   Code   RO          430    x$fpl$fdiv          fz_ws.l(fdiv.o)
    0x080041f0   0x080041f0   0x00000036   Code   RO          433    x$fpl$ffix          fz_ws.l(ffix.o)
    0x08004226   0x08004226   0x00000002   PAD
    0x08004228   0x08004228   0x0000003e   Code   RO          437    x$fpl$ffixu         fz_ws.l(ffixu.o)
    0x08004266   0x08004266   0x00000002   PAD
    0x08004268   0x08004268   0x00000030   Code   RO          442    x$fpl$fflt          fz_ws.l(fflt_clz.o)
    0x08004298   0x08004298   0x00000026   Code   RO          441    x$fpl$ffltu         fz_ws.l(fflt_clz.o)
    0x080042be   0x080042be   0x00000002   PAD
    0x080042c0   0x080042c0   0x00000102   Code   RO          447    x$fpl$fmul          fz_ws.l(fmul.o)
    0x080043c2   0x080043c2   0x0000008c   Code   RO          468    x$fpl$fnaninf       fz_ws.l(fnaninf.o)
    0x0800444e   0x0800444e   0x0000000a   Code   RO          470    x$fpl$fretinf       fz_ws.l(fretinf.o)
    0x08004458   0x08004458   0x000000ea   Code   RO          425    x$fpl$fsub          fz_ws.l(faddsub_clz.o)
    0x08004542   0x08004542   0x00000000   Code   RO          472    x$fpl$usenofp       fz_ws.l(usenofp.o)
    0x08004542   0x08004542   0x00000c80   Data   RO          125    .constdata          test.o
    0x080051c2   0x080051c2   0x0000148e   Data   RO          150    .constdata          gui.o
    0x08006650   0x08006650   0x00000079   Data   RO          294    .conststring        touch.o
    0x080066c9   0x080066c9   0x00000003   PAD
    0x080066cc   0x080066cc   0x00000020   Data   RO          630    Region$$Table       anon$$obj.o


    Execution Region RW_IRAM1 (Exec base: 0x20000000, Load base: 0x080066ec, Size: 0x000006e0, Max: 0x00005000, ABSOLUTE)

    Exec Addr    Load Addr    Size         Type   Attr      Idx    E Section Name        Object

    0x20000000   0x080066ec   0x0000000a   Data   RW          126    .data               test.o
    0x2000000a   0x080066f6   0x00000004   Data   RW          171    .data               delay.o
    0x2000000e   0x080066fa   0x00000002   PAD
    0x20000010   0x080066fc   0x00000014   Data   RW          185    .data               system_stm32f10x.o
    0x20000024   0x08006710   0x00000006   Data   RW          238    .data               lcd.o
    0x2000002a   0x08006716   0x00000002   PAD
    0x2000002c   0x08006718   0x00000030   Data   RW          295    .data               touch.o
    0x2000005c   0x08006748   0x00000014   Data   RW          362    .data               stm32f10x_rcc.o
    0x20000070        -       0x0000000e   Zero   RW          237    .bss                lcd.o
    0x2000007e   0x0800675c   0x00000002   PAD
    0x20000080        -       0x00000060   Zero   RW          494    .bss                c_w.l(libspace.o)
    0x200000e0        -       0x00000200   Zero   RW          331    HEAP                startup_stm32f10x_md.o
    0x200002e0        -       0x00000400   Zero   RW          330    STACK               startup_stm32f10x_md.o


==============================================================================

Image component sizes


      Code (inc. data)   RO Data    RW Data    ZI Data      Debug   Object Name

       378          0          0          0          0       2958   24cxx.o
         0          0          0          0          0         32   core_cm3.o
       172          8          0          4          0       1239   delay.o
      2572         58       5262          0          0      10066   gui.o
       188         14          0          0          0        800   key.o
      1276         24          0          6         14       6520   lcd.o
        50          0          0          0          0     225819   main.o
       220         22          0          0          0       1953   misc.o
       600         12          0          0          0       1952   myiic.o
        64         26        236          0       1536        872   startup_stm32f10x_md.o
       860         38          0          0          0       5889   stm32f10x_gpio.o
       932         36          0         20          0       9148   stm32f10x_rcc.o
       480         38          0         20          0       1971   system_stm32f10x.o
      2732        680       3200         10          0       3374   test.o
      3992        318        121         48          0       7021   touch.o

    ----------------------------------------------------------------------
     14518       1274       8854        112       1552     279614   Object Totals
         0          0         32          0          0          0   (incl. Generated)
         2          0          3          4          2          0   (incl. Padding)

    ----------------------------------------------------------------------

      Code (inc. data)   RO Data    RW Data    ZI Data      Debug   Library Member Name

         8          0          0          0          0         68   __main.o
         0          0          0          0          0          0   __rtentry.o
        12          0          0          0          0          0   __rtentry2.o
         6          0          0          0          0          0   __rtentry4.o
        52          8          0          0          0          0   __scatter.o
        26          0          0          0          0          0   __scatter_copy.o
        28          0          0          0          0          0   __scatter_zi.o
        22          0          0          0          0        100   _rserrno.o
        18          0          0          0          0         80   exit.o
         6          0          0          0          0        152   heapauxi.o
         0          0          0          0          0          0   indicate_semi.o
         2          0          0          0          0          0   libinit.o
         2          0          0          0          0          0   libinit2.o
         2          0          0          0          0          0   libshutdown.o
         2          0          0          0          0          0   libshutdown2.o
         8          4          0          0         96         68   libspace.o
         8          4          0          0          0         68   rt_errno_addr_intlibspace.o
         2          0          0          0          0          0   rtexit.o
        10          0          0          0          0          0   rtexit2.o
        62          0          0          0          0         76   strlen.o
        12          4          0          0          0         68   sys_exit.o
        74          0          0          0          0         80   sys_stackheap_outer.o
         2          0          0          0          0         68   use_no_semi.o
        24          0          0          0          0         68   dcmpi.o
        90          4          0          0          0         92   dfixu.o
        38          0          0          0          0         68   dflt_clz.o
       120          4          0          0          0         92   dleqf.o
       156          4          0          0          0         92   dnaninf.o
        12          0          0          0          0         68   dretinf.o
       108          0          0          0          0         80   drleqf.o
       460         56          0          0          0        120   dsqrt_noumaal.o
        86          4          0          0          0         84   f2d.o
       430          8          0          0          0        168   faddsub_clz.o
       388         76          0          0          0         96   fdiv.o
        54          4          0          0          0         84   ffix.o
        62          4          0          0          0         84   ffixu.o
        86          0          0          0          0        136   fflt_clz.o
       258          4          0          0          0         84   fmul.o
       140          4          0          0          0         84   fnaninf.o
        10          0          0          0          0         68   fretinf.o
         0          0          0          0          0          0   usenofp.o
        76          0          0          0          0         84   sqrt.o

    ----------------------------------------------------------------------
      2976        192          0          0         96       2480   Library Totals
        14          0          0          0          0          0   (incl. Padding)

    ----------------------------------------------------------------------

      Code (inc. data)   RO Data    RW Data    ZI Data      Debug   Library Name

       364         20          0          0         96        828   c_w.l
      2522        172          0          0          0       1568   fz_ws.l
        76          0          0          0          0         84   m_ws.l

    ----------------------------------------------------------------------
      2976        192          0          0         96       2480   Library Totals

    ----------------------------------------------------------------------

==============================================================================


      Code (inc. data)   RO Data    RW Data    ZI Data      Debug   

     17494       1466       8854        112       1648     279906   Grand Totals
     17494       1466       8854        112       1648     279906   ELF Image Totals
     17494       1466       8854        112          0          0   ROM Totals

==============================================================================

    Total RO  Size (Code + RO Data)                26348 (  25.73kB)
    Total RW  Size (RW Data + ZI Data)              1760 (   1.72kB)
    Total ROM Size (Code + RO Data + RW Data)      26460 (  25.84kB)

==============================================================================

