:020000040800F2
:10000000B004002001010008791300080F12000855
:10001000751300086D010008411900080000000078
:100020000000000000000000000000007D17000834
:1000300071010008000000007D1300087F17000810
:100040001B0100081B0100081B0100081B01000820
:100050001B0100081B0100081B0100081B01000810
:100060001B0100081B0100081B0100081B01000800
:100070001B0100081B0100081B0100081B010008F0
:100080001B0100081B0100081B0100081B010008E0
:100090001B0100081B0100081B0100081B010008D0
:1000A0001B0100081B0100081B0100081B010008C0
:1000B0001B0100081B0100081B0100081B010008B0
:1000C0001B0100081B0100081B0100081B010008A0
:1000D0001B0100081B0100081B0100081B01000890
:1000E0001B0100081B0100081B010008DFF80CD0F1
:1000F00000F02AF800480047411A0008B004002028
:100100000648804706480047FEE7FEE7FEE7FEE7B1
:10011000FEE7FEE7FEE7FEE7FEE7FEE7D71700088B
:10012000ED000008D2B201E000F8012B491EFBD21D
:1001300070470022F6E710B513460A4604461946F2
:10014000FFF7F0FF204610BD064C074D06E0E068C3
:1001500040F0010394E8070098471034AC42F6D30E
:10016000FFF7C8FFECBA00080CBB000800BFFEE7B1
:10017000704772B600BFFEE770B5044600F0A6F9FE
:1001800006462546681C10B104480078054400BFA7
:1001900000F09CF9801BA842FAD370BD0800002033
:1001A0002DE9F8470346002294466EE14FF001081E
:1001B00008FA02F4D1F8008008EA0400A0427DD1D8
:1001C000DFF8DCA2D1F80480A8EB0A09D0453AD0C8
:1001D00014DCB8F1030F50D009DCB8F1000F31D0B6
:1001E000B8F1010F1CD0B8F1020F49D120E0B8F1ED
:1001F000110F18D0B8F1120F42D11EE0B9F5881FC7
:1002000025D006DCB9F5803F20D0B9F5801F37D165
:100210001AE0B9F5001F18D0B9F5041F30D117E066
:10022000D1F80CC02DE0D1F80C8008F1040C28E0C6
:10023000D1F80C8008F1080C23E0D1F80C8008F10B
:100240000C0C1EE000BF00BF00BF00BF00BF00BF1E
:10025000D1F80880B8F1000F02D14FF0040C0BE088
:10026000D1F80880B8F1010F03D14FF0080C1C61E0
:1002700002E04FF0080C5C6103E04FF0000C00E07E
:1002800000BF00BFFF2801D8984601E003F1040831
:100290004646FF2802D84FEA820803E0A2F1080888
:1002A0004FEA88084746D6F800804FF00F0909FA50
:1002B00007F928EA09080CFA07F900E088E048EA9B
:1002C0000908C6F80080D1F8048008F08058B8F119
:1002D000805F7DD100BFDFF8CC81D8F8188048F06E
:1002E0000108DFF8C091C9F81880C846D8F818800E
:1002F00008F00108CDF8008000BF00BF4FEAB93810
:100300004FEA920958F829504FEA82784FEA187953
:100310004FF00F0808FA09F825EA0805DFF8888188
:10032000434502D14FF0000816E0DFF880814345D5
:1003300002D14FF001080FE0DFF87481434502D18C
:100340004FF0020808E0DFF86C81434502D14FF01E
:10035000030801E04FF004084FEA82794FEA197967
:1003600008FA09F848EA0505DFF84C814FEA9209D6
:1003700048F82950D1F8048008F48038B8F5803F57
:100380000AD1DFF83881D8F8008048EA0008DFF8A1
:100390002C91C9F8008009E0DFF82081D8F80080AE
:1003A00028EA0008DFF81491C9F80080D1F8048029
:1003B00008F40038B8F5003F10D1DFF8008108F1EB
:1003C0000408D8F8008048EA0008DFF8F09000E060
:1003D0005AE009F10409C9F800800DE0DFF8DC807B
:1003E00008F10408D8F8008028EA0008DFF8CC906B
:1003F00009F10409C9F80080D1F8048008F48018D4
:10040000B8F5801F0ED1DFF8B48008F10808D8F8DD
:10041000008048EA0008DFF8A49009F10809C9F84B
:1004200000800DE0DFF8948008F10808D8F800801B
:1004300028EA0008DFF8849009F10809C9F800806B
:10044000D1F8048008F40018B8F5001F0ED1DFF8C9
:100450006C8008F10C08D8F8008048EA0008DFF842
:100460005C9009F10C09C9F800800DE0DFF84C80C0
:1004700008F10C08D8F8008028EA0008DFF83C9062
:1004800009F10C09C9F80080521CD1F8008028FA43
:1004900002F8B8F1000F7FF489AEBDE8F8870000DC
:1004A000000011100010024000080140000C014043
:1004B0000010014000140140080001400004014008
:1004C0000AB1016101E00B04036170470148006853
:1004D00070470000000000200348006803490978C5
:1004E000084401490860704700000020080000200F
:1004F00010B50848006840F0100006490860032065
:1005000000F098F80F2000F007F800F02BF800201A
:1005100010BD00000020024070B504460E4800786F
:100520004FF47A71B1FBF0F00C490968B1FBF0F5BA
:10053000284600F06CFD08B1012070BD102C07D2D8
:1005400000222146501E00F037F80548046001E003
:100550000120F2E70020F0E7080000200C00002056
:100560000400002008B500BF1148806940F0010078
:100570000F4988610846806900F00100009000BFC3
:1005800000BF00BF0846C06940F08050C8610846FF
:10059000C06900F08050009000BF00BF00BF054957
:1005A000486820F0E06040F00070486000BF08BD7F
:1005B00000100240000001402DE9F05F80460D462A
:1005C0001646002701F0BEF9074639462A4633464B
:1005D00001F00700C0F1070ABAF1040F02D94FF089
:1005E000040A01E0C0F1070AD14600F1040ABAF199
:1005F000070F02D24FF0000A01E0A0F1030AD4462F
:100600004FF0010A0AFA09FAAAF1010A0AEA020AF3
:100610000AFA0CFA4FF0010B0BFA0CFBABF1010BD1
:100620000BEA030B4AEA0B042146404601F092F91B
:10063000BDE8F09F00BF00F00702064B19684FF6B7
:10064000FF031940044B0B4343EA0221014B19609D
:1006500000BF70470CED00E00000FA0570B50446DD
:100660000D460CB9012070BD5A48006800F0070023
:10067000A8420ED25748006820F007002843554989
:1006800008600846006800F00700A84201D0012079
:10069000E9E7207800F0020002281DD1207800F060
:1006A0000400042805D14C48406840F4E0604A4901
:1006B0004860207800F00800082805D146484068C6
:1006C00040F46050444948604348406820F0F000DE
:1006D000A168084340494860207800F0010078B3E1
:1006E0006068012806D13C48006800F4003090B9E9
:1006F0000120B8E76068022806D13748006800F09A
:10070000007040B90120AEE73348006800F00200F5
:1007100008B90120A7E73048406820F0030061686D
:1007200008432D494860FFF7D1FE064609E0FFF770
:10073000CDFE801B41F28831884202D9032092E726
:1007400007E02548406800F00C006168B0EB810FBD
:10075000EDD12048006800F00700A8420ED91D48DE
:10076000006820F0070028431A490860084600681E
:1007700000F00700A84201D0012074E7207800F0C3
:100780000400042807D11448406820F4E060E168C0
:10079000084311494860207800F00800082808D173
:1007A0000D48406820F46050216940EAC1000A49C0
:1007B000486000F03FF808494968C1F30311074A4F
:1007C000515CC8400649086006480068FFF7A4FE6F
:1007D000002048E70020024000100240D3BA000881
:1007E0000C00002004000020014800687047000051
:1007F0000C00002000B5FFF7F7FF04494968C1F37A
:100800000221034A515CC84000BD000000100240B4
:10081000E3BA000800B5FFF7E7FF04494968C1F3F0
:10082000C221034A515CC84000BD000000100240D4
:10083000E3BA0008F0B585B00FF26C0C9CE8E0104C
:1008400001A8A0E8E0101CA52D6800950021002259
:10085000002300240020194D696801F00C05F5B152
:10086000042D02D0082D19D101E0154819E001AD81
:10087000C1F38346AC5D01F4803555B10F4D6D6811
:10088000C5F340451DF805200D4D6543B5FBF2F35A
:1008900002E00C4D04FB05F3184602E000BF0848D7
:1008A00000BF00BF05B0F0BD02030405060708093C
:1008B0000A0B0C0D0E0F1010010200000010024078
:1008C00000127A0000093D00F8B504460CB9012079
:1008D000F8BD207800F00100002878D0F848406882
:1008E00000F00C0004280CD0F548406800F00C0023
:1008F000082811D1F248406800F48030B0F5803FFC
:100900000AD1EF48006800F4003000285FD060682A
:1009100000285CD10120DBE700BF6068B0F5803FB4
:1009200006D1E748006840F48030E549086028E0D7
:10093000606858B9E248006820F48030E0490860F7
:100940000846006820F4802008601AE06068B0F56E
:10095000A02F0BD1DA48006840F48020D849086005
:100960000846006840F4803008600AE0D448006817
:1009700020F48030D24908600846006820F48020C6
:10098000086000BF606888B1FFF7A0FD054606E07B
:10099000FFF79CFD401B642801D9032098E7C84855
:1009A000006800F400300028F2D010E0FFF78EFD60
:1009B000054606E0FFF78AFD401B642801D90320A5
:1009C00086E7BF48006800F400300028F2D12078A4
:1009D00000F00200022857D1B948406800F00C002E
:1009E00050B1B748406800F00C00082818D1B4484E
:1009F000406800F4803098B9B148006800F0020007
:100A000020B12069012801D0012061E7AC480068CD
:100A100020F0F800616940EAC100A949086033E0AC
:100A20002069E8B10120A7490860FFF74FFD05469E
:100A300006E0FFF74BFD401B022801D9032047E7E2
:100A40009F48006800F002000028F2D09C4800682F
:100A500020F0F800616940EAC1009949086013E09C
:100A6000002098490860FFF731FD054606E0FFF7D2
:100A70002DFD401B022801D9032029E7904800687A
:100A800000F002000028F2D1207800F008000828C9
:100A90002DD1A069B8B101208B490860FFF716FD80
:100AA000054606E0FFF712FD401B022801D903208E
:100AB0000EE78348406A00F002000028F2D00120CF
:100AC00000F05EFC13E000207F490860FFF7FEFCA9
:100AD000054606E0FFF7FAFC401B022801D9032077
:100AE000F6E67748406A00F002000028F2D120784C
:100AF00000F00400042873D100277148C06900F099
:100B0000805070B900BF6E48C06940F080506C4999
:100B1000C8610846C06900F08050009000BF00BF67
:100B200001276A48006800F48070B0B9674800681F
:100B300040F4807065490860FFF7C8FC054606E090
:100B4000FFF7C4FC401B642801D90320C0E65F48BE
:100B5000006800F480700028F2D000BFE06801282F
:100B600006D15748006A40F001005549086227E065
:100B7000E06858B95248006A20F001005049086204
:100B80000846006A20F00400086219E0E0680528C1
:100B90000BD14B48006A40F00400494908620846FE
:100BA000006A40F0010008620AE04548006A20F04F
:100BB0000100434908620846006A20F00400086208
:100BC00000BFE068A0B1FFF781FC054609E0FFF730
:100BD0007DFC401B41F28831884202D9032077E630
:100BE00022E03748006A00F002000028EFD012E04F
:100BF000FFF76CFC054608E0FFF768FC401B41F27C
:100C00008831884201D9032062E62D48006A00F04D
:100C100002000028F0D1012F05D12948C06920F039
:100C200080502749C86100BFE069C8B324484068C4
:100C300000F00C00082860D0E069022848D10020AC
:100C400020490866FFF742FC054606E0FFF73EFC38
:100C5000401B022801D903203AE61948006800F039
:100C600000700028F2D1206AB0F5803F07D1144807
:100C7000406820F40030A168084311494860D4E975
:100C8000080108430E49496821F4741108430C49CE
:100C9000486001200B490866FFF718FC054607E08D
:100CA0003DE0FFF713FC401B022801D903200FE6AB
:100CB0000348006800F000700028F2D02FE0000028
:100CC0000010024000004242800442420070004096
:100CD000002014490866FFF7F9FB054606E0FFF718
:100CE000F5FB401B022801D90320F1E50E480068FE
:100CF00000F000700028F2D111E0E069012800D175
:100D0000E6E50948466806F48031206A814204D14C
:100D100006F47011606A814201D00120D8E50020FC
:100D2000D6E50000000042420010024010B5044623
:100D30000CB9012010BD606A38B96068B0F5827FD7
:100D400000D105E00021E16102E000212161616143
:100D50000021A16294F8510028B9002084F85000C5
:100D6000204600F043F8022084F851002068006813
:100D700020F0400021680860A08800F4827021897A
:100D800001F404410843A18901F400610843217C76
:100D900001F002010843217D01F001010843218B8C
:100DA00001F400710843217F01F03801084320213C
:100DB000095D01F080010843218D01F400510843D1
:100DC000216808600421A06901EA10402168486098
:100DD0002068C06920F400602168C8610020606557
:100DE000012084F851000020A4E7000010B586B06F
:100DF0000446002002900390049005901549206855
:100E0000884224D100BF1448806940F480501249C0
:100E100088610846806900F48050019000BF00BFDF
:100E200000BF0846806940F0040088610846806978
:100E300000F00400019000BF00BFA020029002203B
:100E400003900320059002A90448FFF7A9F906B012
:100E500010BD0000003001400010024000080140B9
:100E60002DE9F84F0446884616461D464FF0000A05
:100E700000BF94F85000012802D10220BDE8F88F8D
:100E8000012084F8500000BFFFF720FB0746B14661
:100E900094F85100012802D04FF0020AADE0B8F1F9
:100EA000000F00D016B94FF0010AA6E0032084F825
:100EB000510000206065C4F83080A686E686A063F5
:100EC000A087E08760642064A068B0F5004F0BD174
:100ED0002068006820F040002168086020680068F1
:100EE00040F48040216808602068006800F04000FD
:100EF000402805D02068006840F040002168086064
:100F0000E068B0F5006F2FD1606810B1B9F1010F42
:100F100009D1206B00882168C860206B801C206389
:100F2000E08E401EE0861BE02068806800F0020032
:100F300002280AD1206B00882168C860206B801CC1
:100F40002063E08E401EE0860AE0FFF7BFFAC01B78
:100F5000A84201D3681C00B915B94FF0030A4CE050
:100F6000E08E0028E0D12EE0606810B1B9F1010FE9
:100F700009D1206B007821680873206B401C206326
:100F8000E08E401EE0861BE02068806800F00200D2
:100F900002280AD1206B007821680873206B401C5E
:100FA0002063E08E401EE0860AE0FFF78FFAC01B48
:100FB000A84201D3681C00B915B94FF0030A1CE020
:100FC000E08E0028E0D13A462946204600F0ECF9B0
:100FD00008B120206065A06850B900BF00200090D3
:100FE0002068C068009020688068009000BF00BF43
:100FF000606D08B14FF0010A00BF012084F8510074
:1010000000BF002084F8500000BF504636E770B59E
:1010100004462546681EB0F1807F01D301200FE011
:10102000681E4FF0E02148610F214FF0FF3000F0C3
:1010300091FC00204FF0E02188610720086100202A
:1010400070BD10B504460CB9012010BDA06900B1F7
:1010500000E000BF94F83D0028B9002084F83C006F
:10106000204600F027F8242084F83D002068C0685E
:1010700020F400502168C860204600F0ADFB2068D5
:10108000006920F49040216808612068406920F0E0
:101090002A00216848612068C06840F40050216837
:1010A000C86000202064202084F83D0084F83E00C1
:1010B0000020CAE710B586B00446002002900390D5
:1010C000049005901A49206888422ED100BF194823
:1010D000806940F48040174988610846806900F4BF
:1010E0008040019000BF00BF00BF0846806940F00B
:1010F000040088610846806900F00400019000BF88
:1011000000BF48150290022003900320059002A919
:101110000948FFF745F84FF48060029000200390E3
:10112000049002A90448FFF73BF806B010BD000088
:101130000038014000100240000801402DE9F84F3E
:1011400004460E46174699464FF0000A94F83D00B3
:1011500020285AD106B117B90120BDE8F88F00BF89
:1011600094F83C00012801D10220F6E7012084F820
:101170003C0000BF00202064212084F83D00FFF7E0
:10118000A5F98246A784E784A068B0F5805F04D102
:10119000206910B90025B04602E035464FF000083E
:1011A00000BF002084F83C0000BF1BE05346002233
:1011B00080212046CDF8009000F08CFB08B1032080
:1011C000CBE745B9B8F80000C0F3080021684860D3
:1011D00008F1020803E02878216848606D1CE08C63
:1011E000401EE084E08C0028E0D1534600224021DC
:1011F0002046CDF8009000F06DFB08B10320ACE76D
:10120000202084F83D000020A7E70220A5E700BFCA
:10121000FEE7000000B585B0002001900290039029
:10122000049000BF2F48806940F010002D4988616C
:101230000846806900F01000009000BF00BF00BFAA
:101240000846806940F0040088610846806900F023
:101250000400009000BF00BF00BF0846806940F056
:10126000080088610846806900F00800009000BF0F
:1012700000BF012251031C48FFF722F9002248F267
:1012800040011A48FFF71CF900224FF480711848FA
:10129000FFF716F94FF400500190012002900390DF
:1012A0000220049001A91048FEF77AFF48F240009E
:1012B000019001200290002003900220049001A9D7
:1012C0000A48FEF76DFF4FF48070019001200290F4
:1012D000002003900220049001A90548FEF760FF5A
:1012E00005B000BD0010024000100140000C01409C
:1012F0000008014010B50F480F4908604FF4827094
:1013000048604FF400410C4881600021C1600161D8
:1013100041614FF4007181610021C161016241624C
:1013200081620A21C162FFF701FD08B1FEF721FFCA
:1013300010BD0000003001401000002010B50B4827
:101340000B4908604FF4E130486000210848816093
:10135000C16001610C21416100218161C161FFF720
:1013600070FE08B1FEF705FF10BD00000038014017
:101370006800002000BFFEE700BFFEE770470000E6
:1013800008B508490968C9084FF47A72B1FBF2F14F
:101390004143009100BF00BF00994A1E00920029FE
:1013A000F9D108BD0C000020F8B504460D461646DC
:1013B0002B46002280212046009600F009F828B133
:1013C000606D40F0200060650320F8BD0020FCE760
:1013D0002DE9F84F04460D4690461E46DDF828904C
:1013E000FFF774F8A0EB0900371AFFF76FF8824691
:1013F0002C480068C0F3CB307843009045E0701C67
:10140000002842D0FFF762F8A0EB0A00B84200D2F1
:10141000A7BB2068406820F0E00021684860606851
:10142000B0F5827F0DD1A068B0F5004F03D0A06861
:10143000B0F5806F05D12068006820F04000216879
:101440000860A06AB0F5005F0DD100BF2068006899
:1014500020F40050216808602068006840F40050C3
:101460002168086000BF012084F8510000BF0020FF
:1014700084F8500000BF0320BDE8F88FFFE7009814
:1014800000B900270098401E00902068806828401E
:10149000A84201D1012000E000204045AFD100204A
:1014A000EAE700000C0000202DE9F04104460D465B
:1014B00016461F46DDF81880802C01DAA02D01DBCE
:1014C000BDE8F081A019401E802800DBF8E7E8198C
:1014D000401EA02800DBF3E700F0EEF805EB070C58
:1014E000ACF1010C0CF0FF0304EB060CACF1010CA9
:1014F0000CF0FF02E9B2E0B200F0E8F8700000FB87
:1015000007F1404600F026F900F006F900BFD7E7E2
:10151000F8B504460D461646802C01DAA02D00DBF6
:10152000F8BD00F0C9F86F1CFBB2671CFAB2E9B253
:10153000E0B200F0CBF830128DF80000F0B28DF878
:1015400001000221684600F005F900F0E5F800BF4F
:10155000E6E72DE9F041044614F8017B1BE014F89E
:10156000018B404600F0E2F814F8015B05F08006BC
:1015700025F0800525B12946204600F0EBF82C44E3
:1015800046B114F8016BFF2E01D14FF4FA763046C4
:10159000FEF7F2FD00BF381EA7F10101CFB2DED188
:1015A000BDE8F0812DE9F84304460D4616461F4676
:1015B000DDF82080802C01DAA02D01DBBDE8F88366
:1015C000A019401E802802DBC4F1800086B2E81911
:1015D000401EA02802DBC5F1A00087B200F06CF825
:1015E00005EB070CACF1010C0CF0FF0304EB060C4F
:1015F000ACF1010C0CF0FF02E9B2E0B200F066F8C9
:101600004FEA28208DF8000008F0FF008DF8010057
:101610000122D1030C48FEF753FF3D460EE034464D
:1016200008E04FF0FF33022269460848FFF718FC34
:10163000601E84B2002CF4DC681E85B2002DEEDC46
:1016400000F06AF800BFB9E7000C0140100000206C
:1016500038B50446A0238022002108460094FFF7F5
:10166000A1FF38BD10B500F027F800F013F80648C8
:10167000FFF76FFF0548FFF76CFF0548FFF769FFAD
:1016800000F04AF810BD000060BA00089BBA0008DC
:10169000A8BA000810B500224FF480710548FEF783
:1016A0000FFF0520FEF768FD012211020148FEF739
:1016B00007FF10BD0008014010B50022402102487C
:1016C000FEF7FEFE10BD0000000C0140F8B5074615
:1016D0000C4615461E462A2000F028F800200090EF
:1016E000F8B28DF80100E8B28DF8030004216846D5
:1016F00000F030F82B2000F019F8E0B28DF801006E
:10170000F0B28DF803000421684600F023F82C2085
:1017100000F00CF8F8BD000010B50122402102488D
:10172000FEF7CEFE10BD0000000C014001B5002206
:101730004FF400410548FEF7C3FE4FF0FF3301228E
:1017400069460348FFF78CFB08BD0000000C014010
:101750001000002070B504460D460122D103054853
:10176000FEF7AEFEAAB24FF0FF3321460248FFF764
:1017700077FB70BD000C014010000020704710B5D1
:10178000FEF7AAFE10BD00B58FB0282105A8FEF710
:10179000D0FC14216846FEF7CCFC02200590012005
:1017A000099010200A9000200C9005A8FFF78CF8F3
:1017B00008B1FEF7DEFC0F2000900020019002909F
:1017C0000390049000216846FEF748FF08B1FEF739
:1017D000D0FC0FB000BD704770B5044621680969A0
:1017E00021F44051E2681143226811612269A16825
:1017F0001143626941EA02052168C96841F20C623D
:10180000914329432268D1602168496921F44071DC
:10181000A2691143226851612D4A2168914202D187
:10182000FEF7F8FF01E0FEF7E5FF00EBC00101EB7A
:10183000001162689200B1FBF2F100EBC00202EB12
:10184000001263689B00B2FBF3F26423B2FBF3F275
:1018500002EBC20303EB0212A1EB8201322202EB84
:1018600001116422B1FBF2F101F0F00100EBC002C2
:1018700002EB001263689B00B2FBF3F26423B2FB3D
:10188000F3F201EB021200EBC00101EB00116368FF
:101890009B00B1FBF3F100EBC00303EB00136668A0
:1018A000B600B3FBF6F36426B3FBF6F303EBC30613
:1018B00006EB0313A1EB8301322303EB0111642335
:1018C000B1FBF3F101F00F0111442268916070BD8A
:1018D000003801402DE9F04104460D461746984670
:1018E000069E21E0701CF8B12EB1FEF7EFFDA0EBD3
:1018F0000800B04218D92068C06820F4D070216870
:10190000C8602068406920F00100216848612020FB
:1019100084F83D0084F83E0000BF002084F83C00BD
:1019200000BF0320BDE8F081206800682840A8427D
:1019300001D1012000E00020B842D3D00020F1E71F
:1019400000BFFEE702480068C0F3022070470000B5
:101950000CED00E010B5002804DB0A07130E054A61
:10196000135406E00A07140E034A00F00F031B1F6E
:10197000D45410BD00E400E018ED00E002E008C817
:10198000121F08C1002AFAD170477047002001E0F9
:1019900001C1121F002AFBD1704700000EB5FFF7EE
:1019A00061FE06A207CA8DE807004FF0FF33082248
:1019B00069460548FFF7C2FB0EBD00005265616431
:1019C00079210D0A000000006800002038B50020D1
:1019D000FFF73EFE00240CE0A0B24FF47842002155
:1019E000FFF796FDA0B24FF478429F21FFF790FDDC
:1019F000641C802CF0DB00240CE0A1B24FF4784290
:101A00000020FFF785FDA1B24FF478427F20FFF759
:101A10007FFD641CA02CF0DB4FF49670FEF7ACFB4E
:101A20000648A0238022002100900846FFF73CFDD5
:101A300041F28830FEF7A0FB38BD0000601A0008B4
:101A4000FEF756FDFFF79FFEFFF7E4FBFFF752FCA2
:101A5000FFF774FCFFF7A2FF01E0FFF7B7FFFCE719
:101A600087FF87FF87FF87FF87FF87FF87FF87FF46
:101A700087FF87FF87FF87FF87FF87FFF5F7F5F76A
:101A8000F5F7F5F7F5F7F5F7F5F7F5F7F5F7F5F7F6
:101A9000F5F7F5F7F5F7F5F7F5F7F69AFFBFFFBF9E
:101AA000FF9FFFBFFFBFFFBFFFBFFFBFFF9FFFBF86
:101AB000FFBFFFBFFF9FFFBFFF9FFFBFFFBFFFBF76
:101AC000FF9FFF9FFF9FFF9FFFBFFFBFFFBFFFBFA6
:101AD000FFBFFF9FFFBFFFBFFFBFFFBFFFBFFF9F56
:101AE000FFBFFFBFFFBFFFBFFFBFFF9FFFBFFFBF26
:101AF000FF9FFF9FFF9FFFBFFF9FFFBFFFBFFFBF76
:101B0000FFBFFFBFFF9FFFBFFFBFFFBFFF9FFF9F45
:101B1000FF9FFFBFFFBFFFBFFF9FFFBFFF9FFFBF35
:101B2000FFBFFFBFFFBFFFBFFF9FFF9FFFBFFFBF05
:101B3000FFBFFFBFFFBFFF9FFFBFFF9FFFBFFFBFF5
:101B4000A514D65A87FF87FF87FF87FF87FF87FF88
:101B500087FF87FF87FF87FF87FF87FF87FF87FF55
:101B600087FF87FF87FF87FF87FF87FF87FF87FF45
:101B700087FF87FF87FF87FF87FF87FFF5F7F5F769
:101B8000F5F7F5F7F5F7F5F7F5F7F5F7F5F7F5F7F5
:101B9000F5F7F5F7F5F7F5F7F5F7F6DBFFBFFF9F7C
:101BA000FF9FFF9FFF9FFF9FFF9FFFBFFF9FFF9F25
:101BB000FF9FFF9FFF9FFF9FFF9FFFBFFF9FFF9F15
:101BC000FF9FFF9FFF9FFFBFFF9FFF9FFF9FFF9F05
:101BD000FFBFFF9FFFBFFF9FFF9FFF9FFFBFFF9FB5
:101BE000FFBFFF9FFF9FFF9FFF9FFF9FFFBFFF9FC5
:101BF000FF9FFF9FFF9FFF9FFF9FFF9FFF9FFF9FF5
:101C0000FF9FFF9FFF9FFF9FFF9FFF9FFF9FFF9FE4
:101C1000FF9FFFBFFF9FFF9FFF9FFF9FFF9FFF9FB4
:101C2000FF9FFF9FFF9FFFBFFF9FFF9FFF9FFF9FA4
:101C3000FF9FFF9FFF9FFF9FFFBFFF9FFF9FFF9F94
:101C4000AD75B57687FF87FF87FF87FF87FF87FF23
:101C500087FF87FF87FF87FF87FF87FF87FF87FF54
:101C600087FF87FF87FF87FF87FF87FF87FF87FF44
:101C700087FF87FF87FF87FF87FF87FFF5F7F5F768
:101C8000F5F7F5F7F5F7F5F7F5F7F5F7F5F7F5F7F4
:101C9000F5F7F5F7F5F7F5F7F5F7F71CFFBFFF9F39
:101CA000FF9FFF9FFF9FFF9FFFBFFF9FFF9FFFBF04
:101CB000FF9FFF9FFFBFFF9FFF9FFFBFFF9FFFBFD4
:101CC000FFBFFF9FFF9FFFBFFFBFFFBFFFBFFFBF64
:101CD000FF9FFF9FFFBFFFBFFF9FFFBFFF9FFF9FB4
:101CE000FFBFFF9FFF9FFFBFFF9FFF9FFFBFFF9FA4
:101CF000FF9FFFBFFF9FFF9FFFBFFF9FFFBFFFBF74
:101D0000FFBFFF9FFF9FFFBFFF9FFF9FFFBFFF9F83
:101D1000FF9FFFBFFF9FFF9FFFBFFF9FFF9FFFBF73
:101D2000FF9FFFBFFFBFFF9FFF9FFFBFFF9FFF9F63
:101D3000FFBFFFBFFF9FFF9FFFBFFFBFFF9FFFBF13
:101D4000A514C5F887FF87FF87FF87FF87FF87FFF9
:101D500087FF87FF87FF87FF87FF87FF87FF87FF53
:101D600087FF87FF87FF87FF87FF87FF87FF87FF43
:101D700087FF87FF87FF87FF87FF87FFF5F7F5F767
:101D8000F5F7F5F7F5F7F5F7F5F7F5F7F5F7F5F7F3
:101D9000F5F7F5F7F5F7F5F7F5F7FF3DFF9FFF9F2F
:101DA000FF9FFF9FFF9FFFBFFFBFFF9FFFBFFF9FE3
:101DB000FF9FFF9FFF9FFF9FFF9FFF9FFF9FFF9F33
:101DC000FFBFFFBFFF9FFF9FFFBFFF9FFFBFFF9FA3
:101DD000FF9FFF9FFF9FFF9FFFBFFF9FFF9FFF9FF3
:101DE000FFBFFF9FFFBFFF9FFF9FFF9FFF9FFF9FC3
:101DF000FF9FFFBFFF9FFF9FFF9FFF9FFF9FFFBFB3
:101E0000FFBFFF9FFF9FFFBFFF9FFFBFFF9FFF9F82
:101E1000FF9FFFBFFF9FFF9FFF9FFFBFFF9FFF9F92
:101E2000FF9FFF9FFFBFFFBFFF9FFF9FFFBFFF9F62
:101E3000FFBFFF9FFF9FFF9FFFBFFF9FFFBFFFBF32
:101E40008C72C61887FF87FF87FF87FF87FF87FF92
:101E500087FF87FF87FF87FF87FF87FF87FF87FF52
:101E600087FF87FF87FF87FF87FF87FF87FF87FF42
:101E700087FF87FF87FF87FF87FF87FFF5F7F5F766
:101E8000F5F7F5F7F5F7F5F7F5F7F5F7F5F7F5F7F2
:101E9000F5F7F5F7F5F7F5F7F5F7FF5EFF9FFFBFED
:101EA000FFBFFF9FFFBFFF9FFF9FFF9FFFBFFF9FE2
:101EB000FF9FFFBFFF9FFF9FFFBFFF9FFF9FFFBFD2
:101EC000FF9FFF9FFF9FFF9FFF9FFFBFFF9FFF9F02
:101ED000FFBFFF9FFF9FFFBFFF9FFFBFFF9FFFBF92
:101EE000FF9FFF9FFFBFFF9FFF9FFFBFFF9FFF9FC2
:101EF000FFBFFF9FFF9FFFBFFF9FFF9FFFBFFF9F92
:101F0000FF9FFF9FFF9FFF9FFFBFFF9FFF9FFF9FC1
:101F1000FFBFFF9FFF9FFF9FFF9FFF9FFFBFFF9F91
:101F2000FF9FFFBFFF9FFF9FFF9FFF9FFF9FFFBF81
:101F3000FF9FFF9FFFBFFF9FFF9FFF9FFF9FFFBF71
:101F40007C539D5787FF87FF87FF87FF87FF87FFAA
:101F500087FF87FF87FF87FF87FF87FF87FF87FF51
:101F600087FF87FF87FF87FF87FF87FF87FF87FF41
:101F700087FF87FF87FF87FF87FF87FFF5F7F5F765
:101F8000F5F7F5F7F5F7F5F7F5F7F5F7F5F7F5F7F1
:101F9000F5F7F5F7F5F7F5F7F5F7FF7EFF9FFF9FEC
:101FA000FFBFFF9FFFBFFF9FFF9FFF9FFFBFFF9FE1
:101FB000FFBFFF9FFFBFFF9FFFBFFF9FFF9FFF9FD1
:101FC000FF9FFF9FFF9FFFBFFF9FFF9FFF9FFF9F01
:101FD000FF9FFFBFFF9FFF9FFF9FFFBFFF9FFFBFB1
:101FE000FF9FFF9FFF9FFFBFFF9FFF9FFFBFFF9FC1
:101FF000FF9FFF9FFF9FFF9FFFBFFF9FFFBFFF9FB1
:10200000FFBFFF9FFFBFFF9FFFBFFF9FFFBFFF9F60
:10201000FFBFFF9FFF9FFF9FFF9FFF9FFF9FFF9FB0
:10202000FF9FFF9FFF9FFF9FFF9FFFBFFF9FFF9FA0
:10203000FF9FFF9FFF9FFFBFFF9FFF9FFF9FFFBF70
:102040001B544C1587FF87FF87FF87FF87FF87FF9C
:1020500087FF87FF87FF87FF87FF87FF87FF87FF50
:1020600087FF87FF87FF87FF87FF87FF87FF87FF40
:1020700087FF87FF87FF87FF87FF87FFF5F7F5F764
:10208000F5F7F5F7F5F7F5F7F5F7F5F7F5F7F5F7F0
:10209000F5F7F5F7F5F7F5F7F5F7FF9FFF9FFF9FCA
:1020A000FF9FFFBFFF9FFFBFFF9FFF9FFF9FFFBFE0
:1020B000FFBFFFBFFF9FFF9FFF9FFF9FFF9FFF9FF0
:1020C000FF9FFF9FFF9FFF9FFFBFFF9FFF9FFF9F00
:1020D000FF9FFF9FFFBFFF9FFFBFFF9FFF9FFF9FD0
:1020E000FF9FFF9FFFBFFF9FFF9FFF9FFF9FFF9FE0
:1020F000FF9FFF9FFF9FFF9FFF9FFFBFFF9FFF9FD0
:10210000FF9FFF9FFF9FFFBFFF9FFFBFFF9FFF9F9F
:10211000FF9FFFBFFF9FFFBFFF9FFF9FFF9FFF9F8F
:10212000FF9FFF9FFF9FFF9FFF9FFF9FFFBFFFBF7F
:10213000FF9FFF9FFF9FFF9FFFBFFF9FFFBFBE3A15
:1021400013965C1587FF87FF87FF87FF87FF87FF51
:1021500087FF87FF87FF87FF87FF87FF87FF87FF4F
:1021600087FF87FF87FF87FF87FF87FF87FF87FF3F
:1021700087FF87FF87FF87FF87FF87FFF5F7F5F763
:10218000F5F7F5F7F5F7F5F7F5F7F5F7F5F7F5F7EF
:10219000F5F7F5F7F5F7F5F7F618FF9FFF9FFF9FA7
:1021A000FF9FFFBFFF9FFF9FFF9FFFBFFF9FFFBFDF
:1021B000FF9FFF9FFF9FFFBFFF9FFF9FFF9FFF9F0F
:1021C000FF9FFFBFFF9FFF9FFF9FFF9FFF9FFFBFDF
:1021D000FFBFFF9FFFBFFF9FFF9FFF9FFFBFFF9FAF
:1021E000FFBFFF9FFF9FFF9FFFBFFFBFFFBFFF9F7F
:1021F000FF9FFF9FFFBFFFBFFF9FFFBFFF9FFF9F8F
:10220000FF9FFFBFFF9FFFBFFF9FFF9FFF9FFFBF7E
:10221000FFBFFFBFFF9FFF9FFF9FFFBFFFBFFF9F4E
:10222000FF9FFF9FFF9FFFBFFFBFFF9FFF9FFF9F7E
:10223000FF9FFF9FFFBFFF9FFFBFFF9FFF9FFF9F6E
:102240001B337CB687FF87FF87FF87FF87FF87FFEA
:1022500087FF87FF87FF87FF87FF87FF87FF87FF4E
:1022600087FF87FF87FF87FF87FF87FF87FF87FF3E
:1022700087FF87FF87FF87FF87FF87FFF5F7F5F762
:10228000F5F7F5F7F5F7F5F7F5F7F5F7F5F7F5F7EE
:10229000F5F7F5F7F5F7F5F7F659FFBFFF9FFF9F45
:1022A000FF9FFFBFFFBFFFBFFFBFFF9FFF9FFFBF9E
:1022B000FFBFFFBFFFBFFF9FFF9FFFBFFF9FFFBF8E
:1022C000FFBFFFBFFF9FFFBFFF9FFFBFFFBFFFBF5E
:1022D000FF9FFF9FFFBFFFBFFFBFFFBFFF9FFF9F8E
:1022E000FFBFFF9FFF9FFFBFFF9FFF9FFFBFFF9F9E
:1022F000FFBFFFBFFF9FFF9FFFBFFF9FFFBFFFBF4E
:10230000FFBFFF9FFF9FFFBFFFBFFF9FFFBFFF9F5D
:10231000FF9FFFBFFFBFFFBFFFBFFF9FFF9FFFBF2D
:10232000FF9FFFBFFFBFFF9FFF9FFFBFFF9FFFBF3D
:10233000FFBFFFBFFF9FFF9FFFBFFFBFFF9FFFBF0D
:10234000AD759CB387FF87FF87FF87FF87FF87FFF8
:1023500087FF87FF87FF87FF87FF87FF87FF87FF4D
:1023600087FF87FF87FF87FF87FF87FF87FF87FF3D
:1023700087FF87FF87FF87FF87FF87FFF5F7F5F761
:10238000F5F7F5F7F5F7F5F7F5F7F5F7F5F7F5F7ED
:10239000F5F7F5F7F5F7F5F7F679FFBFFF9FFF9F24
:1023A000FF9FFFBFFF9FFF9FFF9FFF9FFF9FFF9F1D
:1023B000FF9FFF9FFF9FFFBFFF9FFF9FFF9FFF9F0D
:1023C000FFBFFFBFFF9FFF9FFFBFFF9FFF9FFF9FBD
:1023D000FF9FFF9FFF9FFF9FFF9FFF9FFF9FFF9F0D
:1023E000FFBFFF9FFF9FFF9FFF9FFF9FFF9FFF9FDD
:1023F000FF9FFF9FFFBFFF9FFF9FFF9FFF9FFF9FCD
:10240000FFBFFF9FFF9FFF9FFF9FFF9FFF9FDE99E3
:10241000FF9FFFBFFF9FFF9FFF9FFFBFFF9FFF9F8C
:10242000FF9FFF9FFFBFFFBFFF9FFF9FFF9FFF9F7C
:10243000FFBFFFBFFF9FFF9FFFBFE6DCB577AD7714
:1024400094B2BDD687FF87FF87FF87FF87FF87FF8F
:1024500087FF87FF87FF87FF87FF87FF87FF87FF4C
:1024600087FF87FF87FF87FF87FF87FF87FF87FF3C
:1024700087FF87FF87FF87FF87FF87FFF5F7F5F760
:10248000F5F7F5F7F5F7F5F7F5F7F5F7F5F7F5F7EC
:10249000F5F7F5F7F5F7F5F7F69AFFBFFFBFFFBFC2
:1024A000FFBFFF9FFFBFFF9FFFBFFF9FFFBFFF9FBC
:1024B000FF9FFFBFFF9FFF9FFFBFFF9FFF9FFFBFCC
:1024C000FF9FFFBFFFBFFF9FFF9FFFBFFF9FFFBF9C
:1024D000FFBFFFBFFF9FFFBFFFBFFF9FFF9FFFBF6C
:1024E000FF9FFF9FFFBFFF9FFF9FFFBFFF9FFF9FBC
:1024F000FFBFFF9FFFBFFFBFFF9FFF9FFFBFFF9F6C
:10250000FF9FFFBFFFBFFF9FFFBFFFBFDE58CDF69E
:10251000FFBFFFBFFF9FFFBFFF9FFF9FFFBFFF9F4B
:10252000FF9FFFBFFF9FFFBFFFBFFF9FFFBFFFBF1B
:10253000FFBFFFBFF77EBDD8B597CE59FFBED69A75
:10254000AD55CE5987FF87FF87FF87FF87FF87FF3E
:1025500087FF87FF87FF87FF87FF87FF87FF87FF4B
:1025600087FF87FF87FF87FF87FF87FF87FF87FF3B
:1025700087FF87FF87FF87FF87FF87FFF5F7F5F75F
:10258000F5F7F5F7F5F7F5F7F5F7F5F7F5F7F5F7EB
:10259000F5F7F5F7F5F7F5F7F6BBFF9FFFBFFF9FE0
:1025A000FF9FFF9FFFBFFF9FFFBFFF9FFF9FFF9FFB
:1025B000FF9FFF9FFF9FFF9FFF9FFF9FFF9FFF9F2B
:1025C000FF9FFF9FFF9FFF9FFF9FFF9FFF9FFF9F1B
:1025D000FF9FFFBFFF9FFFBFFF9FFF9FFF9FFFBFAB
:1025E000FF9FFFBFFF9FFF9FFF9FFF9FFFBFFFBF9B
:1025F000FF9FFF9FFF9FFF9FFFBFFF9FFFBFFF9FAB
:10260000FF9FFF9FFFBFFF9FFFBFCDB4A44EFF9F63
:10261000FF9FFF9FFF9FFF9FFFBFFF9FFF9FFF9FAA
:10262000FF9FFF9FFF9FFF9FFF9FFFBFFF9FFFBF7A
:10263000E6FDB597BDD8F79DFFBEFFBEFFBED69A9B
:10264000BDF7C61887FF87FF87FF87FF87FF87FFD4
:1026500087FF87FF87FF87FF87FF87FF87FF87FF4A
:1026600087FF87FF87FF87FF87FF87FF87FF87FF3A
:1026700087FF87FF87FF87FF87FF87FFF5F7F5F75E
:10268000F5F7F5F7F5F7F5F7F5F7F5F7F5F7F5F7EA
:10269000F5F7F5F7F5F7F5F7FEFCFF9FFF9FFFBF96
:1026A000FF9FFF9FFF9FFF9FFF9FFF9FFFBFFF9F1A
:1026B000FF9FFF9FFF9FFF9FFFBFFF9FFF9FFF9F0A
:1026C000FF9FFF9FFF9FFF9FFF9FFF9FFF9FFF9F1A
:1026D000FF9FFF9FFF9FFF9FFF9FFF9FFF9FFF9F0A
:1026E000FF9FFF9FFF9FFF9FFF9FFFBFFF9FFF9FDA
:1026F000FF9FFF9FFF9FFFBFFF9FFF9FFF9FFF9FCA
:10270000FF9FFF9FFFBFDE58BC6DB46DFF7EFF9F34
:10271000FF9FFF9FFF9FFF9FFF9FFF9FFFBFFF9FA9
:10272000FF9FFF9FFF9FFF9FFF9FFF9FFF9FA5367C
:10273000C619FFBEFFBEFFBEFFBEFFBEFFBEFFBE8F
:10274000A514CE5887FF87FF87FF87FF87FF87FF86
:1027500087FF87FF87FF87FF87FF87FF87FF87FF49
:1027600087FF87FF87FF87FF87FF87FF87FF87FF39
:1027700087FF87FF87FF87FF87FF87FFF5F7F5F75D
:10278000F5F7F5F7F5F7F5F7F5F7F5F7F5F7F5F7E9
:10279000F5F7F5F7F5F7F5F7FF1CFF9FFF9FFFBF74
:1027A000FF9FFFBFFF9FFFBFFFBFFFBFFFBFFFBF79
:1027B000FF9FFFBFFF9FFFBFFFBFFF9FFF9FFF9FC9
:1027C000FFBFFFBFFFBFFF9FFFBFFF9FFFBFFFBF59
:1027D000FFBFFF9FFFBFFF9FFFBFFFBFFFBFFF9F69
:1027E000FFBFFF9FFF9FFF9FFFBFFFBFFFBFFF9F79
:1027F000FF9FFF9FFFBFFFBFFF9FFFBFFF9FFFBF69
:10280000EF3CCDB4BC6CBC0ABCD0FF9FFF9FFFBFA8
:10281000FF9FFFBFFF9FFF9FFF9FFFBFFFBFFFBF48
:10282000FFBFFF9FFF9FFFBFFFBFFF9F9CF5EF3DD7
:10283000FFBEFFBEFFBEFFBEFFBEFFBEFFBEFFBEB0
:102840009CD3CE5887FF87FF87FF87FF87FF87FFCF
:1028500087FF87FF87FF87FF87FF87FF87FF87FF48
:1028600087FF87FF87FF87FF87FF87FF87FF87FF38
:1028700087FF87FF87FF87FF87FF87FFF5F7F5F75C
:10288000F5F7F5F7F5F7F5F7F5F7F5F7F5F7F5F7E8
:10289000F5F7F5F7F5F7F5F7FF5DFFBFFFBFFF9F12
:1028A000FF9FFF9FFFBFFF9FFFBFFF9FFF9FFFBFD8
:1028B000FFBFFFBFFFBFFF7EE6BACDF6CDB4CD723E
:1028C000CD30C50ECCEDC4CDC4EDCCEECD0FCD5189
:1028D000CD92CDB4D617E6DAFF7EFFBFFF9FFF9FF4
:1028E000FFBFFF9FFF9FFFBFFF9FFF9FFFBFFF9F98
:1028F000FFBFFFBFFF9FFF9FEF3CD617CD72C4AD58
:10290000BC2ACC6BB3EACDB4FFBFFF9FFFBFFF9FD4
:10291000FF9FFF9FFF9FFF9FFFBFFF9FFF9FFFBF87
:10292000FFBFFFBFFFBFFF9FFF9FFFBFAD77EF5D03
:10293000D67AC639BDF8C618BDF8BDD8BDD8A555DC
:102940009CD3AD7687FF87FF87FF87FF87FF87FFD1
:1029500087FF87FF87FF87FF87FF87FF87FF87FF47
:1029600087FF87FF87FF87FF87FF87FF87FF87FF37
:1029700087FF87FF87FF87FF87FF87FFF5F7F5F75B
:10298000F5F7F5F7F5F7F5F7F5F7F5F7F5F7F5F7E7
:10299000F5F7F5F7F5F7F5F7FF5EFF9FFF9FFF9F50
:1029A000FF9FFF9FFF9FFF9FFF9FFF9FFF9FE6DA15
:1029B000CDB4CD30C4CCC48AD4EBED6CED6CED6CF1
:1029C000ED6CED6CED6CED6CED6CED6CED6CED6C3F
:1029D000ED6CED6CE54CDCEBC48AC48BC4ACB48DFF
:1029E000B4AFB4F0C553CDB5CDF6CDF6D5D5CDB495
:1029F000CD72CD50CCEDC48BCC6AD4CCCC8BC44B37
:102A0000C42BB42CE6BAFFBFFF9FFF9FFF9FFF9F21
:102A1000FF9FFF9FFF9FFF9FFF9FFF9FFF9FFFBFA6
:102A2000FF9FFF9FFF9FFF9FFF9FFF9FBDB8FFBEC0
:102A3000F79DEF3DE71CCE7AAD779D3694F58C94EB
:102A400094D48C7387FF87FF87FF87FF87FF87FFFB
:102A500087FF87FF87FF87FF87FF87FF87FF87FF46
:102A600087FF87FF87FF87FF87FF87FF87FF87FF36
:102A700087FF87FF87FF87FF87FF87FFF5F7F5F75A
:102A8000F5F7F5F7F5F7F5F7F5F7F5F7F5F7F5F7E6
:102A9000F5F7F5F7F5F7F5F7FF9FFFBFFF9FFFBFCE
:102AA000FFBFFF9FFF9FF79ED617CDB3C4EDDCEBB2
:102AB000ED6CED6CED6CED6CED6CED6CED6CED6C4E
:102AC000ED6CED6CED6CED6CED6CED6CED6CED6C3E
:102AD000ED6CED6CED6CE54CE52CDD0CDCECDCEC30
:102AE000D4ABCC8BCC8BCC8BD4CBDCECDCCCD4CCB3
:102AF000D4ACD48CCC6BC44BC44BC44BC44BB3EAE6
:102B0000C573FF9FFFBFFF9FFF9FFFBFFFBFFF9FDB
:102B1000FFBFFF9FFF9FFFBFFFBFFF9FFFBFFF9F45
:102B2000FF9FFFBFFFBFFFBFE699CD93A515C65915
:102B30009CF5847474137C348CD68CF78CF78CF7EA
:102B40008CF78CF787FF87FF87FF87FF87FF87FF5B
:102B500087FF87FF87FF87FF87FF87FF87FF87FF45
:102B600087FF87FF87FF87FF87FF87FF87FF87FF35
:102B700087FF87FF87FF87FF87FF87FFF5F7F5F759
:102B8000F5F7F5F7F5F7F5F7F5F7F5F7F5F7F5F7E5
:102B9000F5F7F5F7F5F7F618FFBFFF9FFF9FFF9FCB
:102BA000FF9FDE58CDB3CDD0F6D3EDEEED6CED6CDE
:102BB000ED6CED6CED6CED6CED6CED6CED6CED6C4D
:102BC000ED6CED6CED6CED6CE54CE50CDCECD4AC37
:102BD000D48BCC6BC44BBBEAABA9B40AB42BB42BDB
:102BE000B42BB42BB3EAB3C9C44BCC4BC44BC44BCA
:102BF000C44BC44BC44BC44BC44BB3C98AE5BD538F
:102C0000E69AEEFCF73DFF9EFFBFFF9FFFBFFF9FD1
:102C1000FFBFFF9FFFBFFF9FF77EEEFCDE99D5F75A
:102C2000CDB4CD71C4EEC48ADD0BB46C73B1741332
:102C30008CD694F78CF78CD78475741373F37C332C
:102C400084748C9587FF87FF87FF87FF87FF87FF47
:102C500087FF87FF87FF87FF87FF87FF87FF87FF44
:102C600087FF87FF87FF87FF87FF87FF87FF87FF34
:102C700087FF87FF87FF87FF87FF87FFF5F7F5F758
:102C8000F5F7F5F7F5F7F5F7F5F7F5F7F5F7F5F7E4
:102C9000F5F7F5F7F5F7F638FF9FFF9FFF9FCDF6A5
:102CA000CDB1EED3FF55F6F3ED8DED6CED6CED6C23
:102CB000ED6CED6CED6CED6CED6CED6CED6CE54C74
:102CC000DD0CD4CCD48CCC6BC44BC44BC44BC44BA8
:102CD000C44BC44BB44CE676EED8F655EDF3EDD2CA
:102CE000EDD2EDD2EDD2DD50B3EAC42AC44BC44BD1
:102CF000C44BC44BC44BBC0AB3C9BBEAC44BC44BA2
:102D0000CC6ACCAACCAAC46AC46AC46AC48AC48A7B
:102D1000C48AC48AC46AC469CC8AD4CADD0BED6C87
:102D2000ED6CED6CED6CED6CC48C53138CD67C1398
:102D3000845494F5AD77BDF8D6BAEF5DFFBEFFBE03
:102D4000FFBEFFBE87FF87FF87FF87FF87FF87FFE5
:102D500087FF87FF87FF87FF87FF87FF87FF87FF43
:102D600087FF87FF87FF87FF87FF87FF87FF87FF33
:102D700087FF87FF87FF87FF87FF87FFF5F7F5F757
:102D8000F5F7F5F7F5F7F5F7F5F7F5F7F5F7F5F7E3
:102D9000F5F7F5F7F5F7F659FF9FD616CDB0F7140E
:102DA000FF55FF55F6D2ED6DED6CED6CED6CED6CF5
:102DB000ED6CED6CDD0BCC8AC449BC29BC09BC0AA6
:102DC000CC6BCC8BCC6BCC6BCC6BC42BC44BC44BC3
:102DD000C44BCC4BCD71FF3ACD72C4ADC4ADC4AEC3
:102DE000D4EFE5B2EDD2EDD2EDD2B40AC44BC42B90
:102DF000B3CABBEAC44BC44BC44BC44BC44BC44B57
:102E0000C44BC44BCC4BCC8BD4ACD4CCDCECDD0C65
:102E1000E50CE52CE52CE54CE54CE54CE54CE54CAA
:102E2000E52CDD0CDCCCCC8B8B2B6BB3B5B7EF3C3E
:102E3000FFBEF77DCE5AB597A5369CF58CB5847448
:102E40007C3473F387FF87FF87FF87FF87FF87FF48
:102E500087FF87FF87FF87FF87FF87FF87FF87FF42
:102E600087FF87FF87FF87FF87FF87FF87FF87FF32
:102E700087FF87FF87FF87FF87FF87FFF5F7F5F756
:102E8000F5F7F5F7F5F7F5F7F5F7F5F7F5F7F5F7E2
:102E9000F5F7F5F7F5F7DDD6C571F6F4FF55FF55F3
:102EA000FF55F6D3ED6DED6CED6CED6CED6CED6CEE
:102EB000ED6CE54CED6CED6CED6CED6CED6CED6C72
:102EC000ED6CED6CED6CED6CED6CE54CD4CACC8A20
:102ED000BC29B3E8AC2BD5B3DE35C4ADEDD2EDD211
:102EE000EDD2EDD2EDD2EDD2EDD2E592ABC9CC4B25
:102EF000C44BC44BC44BC44BC44BC44BC44BC44B5A
:102F0000C44BC44BC44BC44BC44BC44BC44BC44B49
:102F1000C44BC44BC44BC44BC44BC44BC44BC44B39
:102F2000C44BC44BC44BC44B942FC65ABDF89D151B
:102F30008454741384B594F78CF78CF78CF78CF762
:102F40008CF78CF787FF87FF87FF87FF87FF87FF57
:102F500087FF87FF87FF87FF87FF87FF87FF87FF41
:102F600087FF87FF87FF87FF87FF87FF87FF87FF31
:102F700087FF87FF87FF87FF87FF87FFF5F7F5F755
:102F8000F5F7F5F7F5F7F5F7F5F7F5F7F5F7F5F7E1
:102F9000F5F7F5F7CCF1DE11FF55FF55FF55FF555D
:102FA000FF14ED8DED6CED6CED6CED6CED6CED6C7E
:102FB000ED6CED6CED6CED6CED6CED6CED6CED6C49
:102FC000ED6CED6CED6CED6CED6CED6CED6CED6C39
:102FD000ED6CED6CED6CE54CCCAABC49BC4ABC4B2D
:102FE000ABC99B68A3A9DD50EDD2EDD2C48DC42B33
:102FF000C44BC44BC44BC44BC44BC44BC44BC44B59
:10300000C44BC44BC44BC44BC44BC44BC44BC44B48
:10301000C44BC44BC44BC44BC44BC44BC44BC44B38
:10302000C44BC44BC44BC44B62EF52B18CD68CF72B
:1030300094F794F78CF78CF794F794F78CF794D671
:103040008C53945087FF87FF87FF87FF87FF87FF99
:1030500087FF87FF87FF87FF87FF87FF87FF87FF40
:1030600087FF87FF87FF87FF87FF87FF87FF87FF30
:1030700087FF87FF87FF87FF87FF87FFF5F7F5F754
:10308000F5F7F5F7F5F7F5F7F5F7F5F7F5F7F5F7E0
:10309000EDD7BCEFF6F4FF55FF55FF55FF55FF3454
:1030A000EDAEED6CED6CED6CED6CED6CED6CED6C16
:1030B000ED6CED6CED6CED6CED6CED6CED6CED6C48
:1030C000ED6CED6CED6CED6CED6CED6CED6CED6C38
:1030D000E52CE54CED6CED6CED6CED6CED6CED6C98
:1030E000ED6CE54CD4CAC449BC49BC4ABC4B9B26D8
:1030F000B3A8BBEAC44BC44BC44BC44BC44BC44B76
:10310000C44BC44BC44BC44BC44BC44BC44BC44B47
:10311000C44BC44BC44BC44BC44BC44BC44BC44B37
:10312000BC0ABBEAC42BB3EB4A9152D384968CF70A
:1031300094F68CB58C528C319C4FA46EBC6CC48BB5
:10314000E52CDD2C87FF87FF87FF87FF87FF87FF41
:1031500087FF87FF87FF87FF87FF87FF87FF87FF3F
:1031600087FF87FF87FF87FF87FF87FF87FF87FF2F
:1031700087FF87FF87FF87FF87FF87FFF5F7F5F753
:10318000F5F7F5F7F5F7F5F7F5F7F5F7F5F7EDB628
:10319000C50FFF35F6B2F6D3FF55FF55FF55EDEFDE
:1031A000ED6CED6CED6CED6CED6CED6CED6CED6C57
:1031B000ED6CED6CED6CED6CED6CED6CED6CED6C47
:1031C000ED6CED6CED6CED6CED6CED6CED6CED6C37
:1031D000ED6CD4CBCC8BE52CED6CED6CED6CED6C2B
:1031E000ED6CED6CED6CED6CED6CED6CED6CED6C17
:1031F000E52CD4AAC449BC28BC09B3E8B3E9B3C8D8
:10320000B3C8ABA8AB88AB68A367A367AB68AB8850
:10321000ABA8ABA8B3A9B3A9B3C9AB689B06930687
:103220009B47ABA8B3C89B68834C938CA3CBBC4B88
:10323000C48AD4CAE52CED6CEDCEED8DED6CE52C99
:10324000D48CC44B87FF87FF87FF87FF87FF87FFEB
:1032500087FF87FF87FF87FF87FF87FF87FF87FF3E
:1032600087FF87FF87FF87FF87FF87FF87FF87FF2E
:1032700087FF87FF87FF87FF87FF87FFF5F7F5F752
:10328000F5F7F5F7F5F7F5F7F5F7F5F7E595C52F48
:10329000F671EDADED8DFF34FF55FF55F6D2ED6CB7
:1032A000ED6CED6CED6CED6CED6CED6CED6CED6C56
:1032B000ED6CED6CED6CED6CED6CED6CED6CED6C46
:1032C000ED6CED6CED6CED6CED6CED6CED6CED6C36
:1032D000ED6CED6CDCEBC42AD48BE52CED6CED6C65
:1032E000ED6CED6CED6CED6CED6CED6CED6CED6C16
:1032F000ED6CED6CED6CED6CED6CED6CED6CED6C06
:10330000ED6CED6CED6CED6CED6CED6CE54CE52C65
:10331000DD2BDD0BDD0BDD0BDD0BDD2BE52CE54CBB
:10332000ED6CED6CED6CED6CED6CED6CED6CED6CD5
:10333000ED6CED6CED6CED6CF650E52CCC8BBC0AB5
:10334000BBE9CC8A87FF87FF87FF87FF87FF87FF5F
:1033500087FF87FF87FF87FF87FF87FF87FF87FF3D
:1033600087FF87FF87FF87FF87FF87FF87FF87FF2D
:1033700087FF87FF87FF87FF87FF87FFF5F7F5F751
:10338000F5F7F5F7F5F7F5F7F5F7EDB6C48CED8D34
:10339000ED6CED6CF671FF55FF55FF55F6B2ED6C17
:1033A000ED6CED6CED6CED6CED6CED6CED6CED6C55
:1033B000ED6CED6CE52CD4CAD4CBDD0CE52CE52C02
:1033C000D4CACC89D4CAE54CED6CED6CED6CED6CD7
:1033D000ED6CED6CED6CE54CD48BC44BD48BE52CD3
:1033E000ED6CED6CED6CED6CED6CED6CED6CED6C15
:1033F000ED6CED6CED6CED6CED6CED6CED6CED6C05
:10340000ED6CED6CED6CED6CED6CED6CED6CED6CF4
:10341000ED6CED6CED6CED6CED6CED6CED6CED6CE4
:10342000ED6CED6CED6CED6CED6CED6CED6CED6CD4
:10343000ED6CED6CED6CDD0CEE92B3C8BC29D4CB19
:10344000ED6CED6C87FF87FF87FF87FF87FF87FFA6
:1034500087FF87FF87FF87FF87FF87FF87FF87FF3C
:1034600087FF87FF87FF87FF87FF87FF87FF87FF2C
:1034700087FF87FF87FF87FF87FF87FFF5F7F5F750
:10348000F5F7F5F7F5F7F5F7F5D7BC4CED6CED6C06
:10349000ED6CED8DFF34FF55FF55FF55EDADED6C37
:1034A000ED6CED6CED6CED6CED6CED6CE54CCC8A7F
:1034B000C469C449CC6AD4ACC44BC44BBC0AB3EA9B
:1034C000D50FE5D2E5F3D5B1CD70C52ECD4DEE309B
:1034D000EDCEED6CED6CED6CED6CCC8BC44BCC4B50
:1034E000D4ABE54CED6CED6CED6CED6CED6CED6C16
:1034F000ED6CED6CED6CED6CED6CED6CED6CED6C04
:10350000ED6CED6CED6CED6CED6CED6CED6CED6CF3
:10351000ED6CED6CED6CED6CED6CED6CED6CED6CE3
:10352000ED6CED6CED6CED6CED6CED6CED6CED6CD3
:10353000E54CDCCCBC2AC48BD58EED6CED6CED6C0F
:10354000ED6CED6C87FF87FF87FF87FF87FF87FFA5
:1035500087FF87FF87FF87FF87FF87FF87FF87FF3B
:1035600087FF87FF87FF87FF87FF87FF87FF87FF2B
:1035700087FF87FF87FF87FF87FF87FFF5F7F5F74F
:10358000F5F7F5F7F5F7F5F7C46EE54CED6CED6C76
:10359000ED6CED8DF6B2FF55FF55F671ED6CED6CEF
:1035A000ED6CED6CED6CED6CD4CBBC29C489E54CB5
:1035B000ED6CED6CE54CCC6BC44BB3C9CCCEEE548A
:1035C000F6F7FF79FF79FF79FF79FF79F717CDB12A
:1035D000CD8FE671F650ED8DED6CE54CA367ABA891
:1035E000C40ACC4BDCECED6CED6CED6CED6CED6C71
:1035F000ED6CED6CED6CED6CED6CED6CED6CED6C03
:10360000ED6CED6CED6CED6CED6CED6CED6CED6CF2
:10361000ED6CED6CED6CED6CED6CED6CED6CED6CE2
:10362000ED6CED6CED6CED6CED6CED6CE52CDD0C8A
:10363000DCECDCEBED6CF6D3EE30ED6CED6CED6CB0
:10364000ED6CED6C87FF87FF87FF87FF87FF87FFA4
:1036500087FF87FF87FF87FF87FF87FF87FF87FF3A
:1036600087FF87FF87FF87FF87FF87FF87FF87FF2A
:1036700087FF87FF87FF87FF87FF87FFF5F7F5F74E
:10368000F5F7F5F7F5F7D4F2DD0BED6CED6CED6CBD
:10369000ED6CED6CF671FF55FF34ED8DED6CED6C5E
:1036A000ED6CED6CCC8AC449BC70C470ED6CED6CF3
:1036B000ED6CE54CCC6BBC0AB42BEE55FF59FF7991
:1036C000FF79FF79FF79FF79FF79FF79FF79FF595A
:1036D000FF59DE34C570E692F671ED6DCCAAABEA07
:1036E000D50FC4ADBCADB40ADCEBED6CED6CED6C8C
:1036F000ED6CED6CED6CED6CED6CED6CED6CED6C02
:10370000ED6CED6CED6CED6CED6CED6CED6CED6CF1
:10371000ED6CED6CED6CED6CED6CED6CED6CED6CE1
:10372000ED6CED6CED6CED6CED6CED6CED6CED6CD1
:10373000ED6CED6CEDEFFF55ED8DED6CED6CED6C22
:10374000ED6CED6C87FF87FF87FF87FF87FF87FFA3
:1037500087FF87FF87FF87FF87FF87FF87FF87FF39
:1037600087FF87FF87FF87FF87FF87FF87FF87FF29
:1037700087FF87FF87FF87FF87FF87FFF5F7F5F74D
:10378000F5F7F5F7EDB6C48AED6CED6CED6CED6C0C
:10379000ED6CED6CF6B2FF55F650ED6CED6CED6C2A
:1037A000C46ABC28E52CED6CBC2DCC94E54CED6CCA
:1037B000E54CCC6BABA8CD2FFF38FF79FF79FF59D3
:1037C000FF79FF79FF79FF79FF79FF79FF79FF5959
:1037D000FF39FF18FEF8DDD3C56FF6F3EDEFB3E95F
:1037E000EDD2EDF3FF79FF79E675D5B1CD2ECCCBD7
:1037F000D4CBED6CED6CED6CED6CED6CED6CED6CBB
:10380000ED6CED6CED6CED6CED6CED6CED6CED6CF0
:10381000ED6CED6CED6CED6CED6CED6CED6CED6CE0
:10382000ED6CED6CED6CED6CED6CED6CED6CED6CD0
:10383000ED6CED8DF714F692ED6CED6CED6CED6CBE
:10384000E54CBC6B87FF87FF87FF87FF87FF87FFFC
:1038500087FF87FF87FF87FF87FF87FF87FF87FF38
:1038600087FF87FF87FF87FF87FF87FF87FF87FF28
:1038700087FF87FF87FF87FF87FF87FFF5F7F5F74C
:10388000F5F7F5F7C46DED6CED6CED6CED6CED6C72
:10389000ED6CEDADFF55FF34ED8DED6CDD0BC449E6
:1038A000C4B4C42BED6CED6CDCECCC75C42BE56CB6
:1038B000CC6BB3C9B46CFF79FF79FF799C4E838CD4
:1038C000B531F759FF79FF79FF79FF79FF79FF5912
:1038D000FF38FEF8FF5BFE97FE97C52FEEB3D5AF1E
:1038E000DD71EDF3FF79FF79FF79FF79FF79FF79DA
:1038F000EED6CD2FCCACB3E8C469D4CBED6CED6C77
:10390000ED6CED6CED6CED6CED6CED6CED6CED6CEF
:10391000ED6CED6CED6CED6CED6CED6CED6CED6CDF
:10392000ED6CED6CED6CED6CED6CED6CED6CED6CCF
:10393000ED6CF6B2FF55F651F671E610BD2FA48F6F
:103940008C5294F787FF87FF87FF87FF87FF87FFEA
:1039500087FF87FF87FF87FF87FF87FF87FF87FF37
:1039600087FF87FF87FF87FF87FF87FF87FF87FF27
:1039700087FF87FF87FF87FF87FF87FFF5F7F5F74B
:10398000F5F7DD33D4EBED6CED6CED6CED6CED6CBF
:10399000ED6CF650FF55F691ED4CCC8AD4EBED6C06
:1039A000C471BC4FED6CED6CED6CC3F1BBEFD48B0F
:1039B000C44BABA9F6F7FF79FF79732A38E172EBB4
:1039C0008C108C30AD13BD94CDF5EEF8FF79FF5916
:1039D000FF38FEF8FEB7FE77FE96FEB7CD91E69271
:1039E000C4CEEE13FF79FF79FF79FF79FF79FF7974
:1039F000FF79FF79F6B6DD71A368A326A306AB674E
:103A0000B3C8BC08C469D4CAE52BED6CED6CED6C91
:103A1000ED6CED6CED6CED6CED6CED6CED6CED6CDE
:103A2000ED6CED6CED6CED6CED6CED8DEE0FEE3044
:103A3000DDF0CDD0BD70A4F194718C948CF68CF730
:103A40008CF78CF787FF87FF87FF87FF87FF87FF4C
:103A500087FF87FF87FF87FF87FF87FF87FF87FF36
:103A600087FF87FF87FF87FF87FF87FF87FF87FF26
:103A700087FF87FF87FF87FF87FF87FFF5F7F5F74A
:103A8000F5F7C46CED6CED6CED6CED6CED6CED6C04
:103A9000ED6CF6F3FF55DD2DC44AE56CED6CED6C75
:103AA000BC2CC454E54CED6CED6CBC0CC3D3C40B06
:103AB000C42BBC8DFF79FF79838B38E18C30CEBB72
:103AC000EF5DFFFFFFFFFFFFFFFFE73CEF3AFF590E
:103AD000FF38FED8FEB7FE77FE77FE96FED7C5709C
:103AE000C50EEE54FF79FF79FF79FF79FF79FF79F1
:103AF000FF79FF79FF79F738EDF3ABC9AB26AB4718
:103B0000AB47AB47B367AB47A326A326AB46AB8710
:103B1000B3A8B3E8BC08BC08BC28BC28BC09ABEB04
:103B2000A3EBA3CB93AC8B8D836E736F73907BF2FF
:103B30008CB594F78CF78CF78CF78CF78CF78CF7A7
:103B40008CF78CF787FF87FF87FF87FF87FF87FF4B
:103B500087FF87FF87FF87FF87FF87FF87FF87FF35
:103B600087FF87FF87FF87FF87FF87FF87FF87FF25
:103B700087FF87FF87FF87FF87FF87FFF5F7F5F749
:103B8000DD33DD0BED6CED6CED6CED6CED6CED6C27
:103B9000ED8DFF55EEB3CC6BED6CED6CED6CED6C1B
:103BA000DD0CC434C42BED6CED6CD4ACBBB3A34BB7
:103BB000B3A9EE34FF79BD5230E183CED6BBF79E78
:103BC000FFFFFFFFFFFFFFFFFFFFFFFFFFFFFF9B69
:103BD000FF38FED7FE97FE57FE76FE96FED7FF17FC
:103BE0009BE9F6B6FF79FF79FF79FF79FF79FF79D5
:103BF000FF79FF79FF79FF79FF59EE34B40AAB26DC
:103C0000B347B367AB67AB67AB67AB67B367B36724
:103C1000AB67AB67B367B367B367AB475A6D52D354
:103C200052F352D452F36BD57C568CD78CF794F761
:103C30008CF78CF78CF78CF78CF78CF794F78CF764
:103C40008CF78CF787FF87FF87FF87FF87FF87FF4A
:103C500087FF87FF87FF87FF87FF87FF87FF87FF34
:103C600087FF87FF87FF87FF87FF87FF87FF87FF24
:103C700087FF87FF87FF87FF87FF87FFF5F7F5F748
:103C8000C48DED6CED6CED6CED6CED6CED6CED6C74
:103C9000EDEFFF55E5F0ED6CED6CED6CED6CED6C62
:103CA000ED6CBBF0BBF0ED6CDD2CC42BAB4EAB4F21
:103CB000BC4BF6D6F73849845A27CE9BDEDB9CB244
:103CC0005B2F426D3A4D42AE8472A535EF3CFFBC8E
:103CD000FF18FED7FE77FE76FE57FE96FED7FF183A
:103CE000BCAEFF38FF79FF79FF79FF79FF79FF7963
:103CF000FF79FF79FF79FF79FF79FF59EE14ABEA7D
:103D0000AB47AB67B367AB67AB67B367AB67AB6733
:103D1000B367AB67AB67B367AB475A8D52F352F3E8
:103D200052F352F374358CF78CF78CF78CF78CF7D1
:103D30008CF78CF78CF78CD684967C3674156BB523
:103D400063745B1487FF87FF87FF87FF87FF87FF09
:103D500087FF87FF87FF87FF87FF87FF87FF87FF33
:103D600087FF87FF87FF87FF87FF87FF87FF87FF23
:103D700087FF87FF87FF87FF87FF87FFF5F7E595B9
:103D8000D4AAED6CED6CED6CED6CED6CED6CE52C8E
:103D9000E5D0FF55EDADED6CED6CED6CED6CED6CC3
:103DA000ED6CC42CC414D4EBABA8C44BB3CBAB1197
:103DB000CCCFFF38A48F38E1B5769C9239C8222E3B
:103DC000222E222E222E5C549619B67AD6BACE37DF
:103DD000FF18FED7FE97FE57FE56FE76FED7FF1859
:103DE000EEB6FF59FF79FF79FF79FF79FF79FF7907
:103DF000FF79FF79FF79FF79FF79FF79FF58EDF3BC
:103E0000A36892C5AB47AB67AB67AB47AB67AB6724
:103E1000B367AB46AB46AB475A8C52D352F352F31F
:103E200052F352F374157C5574146BD36B93637314
:103E30005B535B1352F352F352D352D352D352D348
:103E400052D352F387FF87FF87FF87FF87FF87FFE4
:103E500087FF87FF87FF87FF87FF87FF87FF87FF32
:103E600087FF87FF87FF87FF87FF87FF87FF87FF22
:103E700087FF87FF87FF87FF87FF87FFF5F7CC8FD7
:103E8000ED6CED6CED6CED6CED6CED6CE54CCC4BD4
:103E9000EE52FF14ED6CED6CED6CED6CED6CED6CB9
:103EA000ED6CE54DC4139AEACC4BDD0CED6CAB0F19
:103EB000BC70FF795A265A489C922988222E222EBD
:103EC000222E222E2A8F8DB89E199E19BEBBB5B602
:103ED000FF18FED7FE97FE56FE76FE77FED7FF1838
:103EE000FF39FF59FF79FF79FF79FF79FF79FF7972
:103EF000FF79FF79FF79FF79FF79FF79FF79F7186B
:103F0000E591BC6CB40B9B477A63826392A49AE5FB
:103F10009B05AB46AB67628C52F352F352D34271AE
:103F20005ACFA431BCB0D531BC6DE635E696C5F5A7
:103F30006B4F3A2F4271429142914A7142914291A4
:103F40004291429187FF87FF87FF87FF87FF87FFA7
:103F500087FF87FF87FF87FF87FF87FF87FF87FF31
:103F600087FF87FF87FF87FF87FF87FF87FF87FF21
:103F700087FF87FF87FF87FF87FF87FFF5F7C46B02
:103F8000ED6CED6CED6CED6CED6CED6CD48BCC4BA5
:103F9000F6D3F692ED6CED6CED6CED6CED6CED6CBA
:103FA000ED6CED6CAB6CBBB1E54DED6CED6CAB8AC3
:103FB000E5D3FF5938E28C0F398619EE222E222ED6
:103FC000222E222E4B9295D99E199E19B69BB5B6DC
:103FD000FF18FED7FE96FE57FE57FE96FED7FF1837
:103FE000FF59FF79FF79FF79FF79FF79FF79FF7931
:103FF000FF79FF79FF79FF79FF79FF79FF79FF7901
:10400000F6B6E571DD50DD50DD50C48DABC9A32699
:10401000A326AB479B274AB252F352F34AB24270EF
:10402000B490EDD2EDD2EDD2CCCEF738FF79FF7956
:10403000949352F352D353145B145B345B345B346C
:104040005B345B1387FF87FF87FF87FF87FF87FF4F
:1040500087FF87FF87FF87FF87FF87FF87FF87FF30
:1040600087FF87FF87FF87FF87FF87FF87FF87FF20
:1040700087FF87FF87FF87FF87FF87FFDD54D4EB2C
:10408000ED6CED6CED6CED6CED6CDD0CCC4BDD2C6A
:10409000FF54F630ED6CED6CED6CED6CED6CED6C91
:1040A000ED6CB3E8B3CAC3D4CC8CED6CED6CC48CAE
:1040B000F6D7EEF738E18BEF210519EE222E222EEE
:1040C000222E2A2D29CA3ACF8DB89E19C6BBB5B665
:1040D000FF18FED7FE96FE76FE56FE96FED7FF1818
:1040E000FF59FF59FF79FF79FF79FF79FF79FF7950
:1040F000FF79FF79FF79FF79FF79FF79FF79FF7900
:10410000FF79EE34E591E550E571EDD2EDD2EDD2D7
:10411000D50FBC4CA3A96AED5AAF52D152D38390AC
:10412000EDD2EDD2EDD2EDB2DD50E695FF79FF791B
:104130007C138CD68CF78CF78CF78CF78CF78CF77C
:104140008CF78CF787FF87FF87FF87FF87FF87FF45
:1041500087FF87FF87FF87FF87FF87FF87FF87FF2F
:1041600087FF87FF87FF87FF87FF87FF87FF87FF1F
:1041700087FF87FF87FF87FF87FF87FFCCAFED6C47
:10418000ED6CED6CED6CED6CED6CCC8BDD0CEDAD98
:10419000FF55EDEEED6CED6CED6CED6CED6CED6CDA
:1041A000BC09CC6BED6CB38FB3AEED6CD4CADD50F3
:1041B000FF38EED730E1945120C319AD222E222EC4
:1041C000222E29A93102298885579E19C6BBB5B66A
:1041D000FF18FED7FE96FE76FE57FE96FED7FF1816
:1041E000FF59FF59FF79FF79FF79FF79FF79FF794F
:1041F000FF79FF79FF79FF79FF79FF79FF79FF79FF
:10420000FF79FF58EDD2E571E550EDB2EDD2EDD278
:10421000EDD2EDD2EDD2EDD2EDB2D530C4AECCCEF2
:10422000CD0FDDD2EEB6F718F717D5F3FF79F759B2
:1042300073F38CF78CF78CF684958CF78CF78CF7EE
:104240008CF78CF787FF87FF87FF87FF87FF87FF44
:1042500087FF87FF87FF87FF87FF87FF87FF87FF2E
:1042600087FF87FF87FF87FF87FF87FF87FF87FF1E
:1042700087FF87FF87FF87FF87FF87FFC48CED6C71
:10428000ED6CED6CED6CED6CE54CDD0CED6CEDCE9C
:10429000FF55ED8DED6CED6CED6CED6CED6CC46966
:1042A000CC6AED6CED6CBC0CAB31DD0CC46AEDF38B
:1042B000FF79F75930E1A5145A6852EE19CB222E36
:1042C000224E222E43318DB89E199E19B69BB5B64B
:1042D000FF18FEF7FEB6FE76FE77FE97FEF7FF3874
:1042E000FF59FF79FF79FF79FF79FF79FF79FF792E
:1042F000FF79FF79FF79FF79FF79FF79FF79FF79FE
:10430000FF79FF79F6B6E591E550EDB1EDD2EDD24A
:10431000EDD2EDD2EDD2EDD2EDD2EDD2EDD2EE1363
:10432000FF79FF79FF79FF79FF79C591FF79DE97F2
:104330007C758CF76B707B2C836C6B6F8CF78CF7B8
:104340008CF78CF787FF87FF87FF87FF87FF87FF43
:1043500087FF87FF87FF87FF87FF87FF87FF87FF2D
:1043600087FF87FF87FF87FF87FF87FF87FF87FF1D
:1043700087FF87FF87FF87FF87FF87FFC46AED6C92
:10438000ED6CED6CED6CED6CED6CED6CED6CEE0FC1
:10439000FF55ED6CED6CED6CED6CED6CD4CAC44961
:1043A000ED6CED6CED6CE54CA2EFB3ACC48CF67526
:1043B000FF79FF7949A4AD35C618FFFFCE5929AA68
:1043C000220D224E32B08DB89E199E199E39B59598
:1043D000FF38FEF7FEB6FE96FE77FEB7FEF8FF3812
:1043E000FF59FF79FF79FF79FF79FF79FF79FF792D
:1043F000FF79FF79FF79FF79FF79FF79FF79FF79FD
:10440000FF79FF79FF79EE13D50FE571EDD2EDD28B
:10441000EDD2EDD2EDD2EDD2EDD2EDD2EDD2EDD2A4
:10442000F6D7FF79FF79FF79FF79F718F758CE169D
:104430008CB68CF77B4DA40C9BCC73B18CF78CF7AE
:104440008CF78CF787FF87FF87FF87FF87FF87FF42
:1044500087FF87FF87FF87FF87FF87FF87FF87FF2C
:1044600087FF87FF87FF87FF87FF87FF87FF87FF1C
:1044700087FF87FF87FF87FF87FF87FFDCEBED6CF8
:10448000ED6CED6CED6CED6CED6CED6CED6CF63097
:10449000FF14ED6CED6CED6CED6CDD0BBC29ED6C7F
:1044A000ED6CED6CED6CED6CB3ACA2CED510F6D628
:1044B000FF79EF18732983ADD6FCFFFFFFFFAD76C0
:1044C0001108222E222E6CB596199E198DB8B5743E
:1044D000FF38FEF8FED7FE96FEB6FEB7FEF8FF38B0
:1044E000FF59FF79FF79FF79FF79FF79FF79FF792C
:1044F000FF79FF79FF79FF79FF79FF79FF79FF79FC
:10450000FF79FF79FF79F6F7CCCEDD50EDB2EDD231
:10451000EDD2EDD2EDD2EDD2EDD2EDD2EDD2EDD2A3
:10452000EDF3FF59FF79FF79FF79FF79FF79BDB48A
:104530008CF794F762ED734D6B9194F78CF78CF7D1
:104540008CF78CF787FF87FF87FF87FF87FF87FF41
:1045500087FF87FF87FF87FF87FF87FF87FF87FF2B
:1045600087FF87FF87FF87FF87FF87FF87FF87FF1B
:1045700087FF87FF87FF87FF87FF87FFED6CED6C65
:10458000ED6CED6CED6CED6CED6CED6CED6CF65076
:10459000F6F3ED6CED6CED6CED6CBC08ED6DED6C57
:1045A000ED6CED6CED6CED6CDD0CA2D0C470FF58C1
:1045B000FF79DE76BD524164CE7AF79ECE5962CA4B
:1045C00020C4198A19ED2A6F64127C93AD56FF9BA3
:1045D000FF38FF18FED7FEB7FED7FEF7FF18FF59CA
:1045E000FF59FF79FF79FF79FF79FF79FF79FF792B
:1045F000FF79FF79FF79FF79FF79FF79FF79FF79FB
:10460000FF79FF79FF79FF79EE34C46CE592EDD242
:10461000EDD2EDD2EDD2EDD2EDD2EDD2EDD2EDD2A2
:10462000EDD2F675FF79FF79FF79FF79FF79BD94B7
:1046300094F78CF78CD68CF78CF78CF78CF78CF77B
:1046400084956BB287FF87FF87FF87FF87FF87FF10
:1046500087FF87FF87FF87FF87FF87FF87FF87FF2A
:1046600087FF87FF87FF87FF87FF87FF87FF87FF1A
:1046700087FF87FF87FF87FF87FF87FFED6CED6C64
:10468000ED6CED6CED6CED6CED6CED6CED6CF67154
:10469000F6B2ED6CED6CED6CBC29E54CED6CED6C9F
:1046A000ED6CED6CED6CED6CED6C9ACCCD11FF7991
:1046B000FF79EEF8DE9651E5838DD6DBFFFFFFFF35
:1046C000DEDBC5F7BDD6CE38EF5CFFFFFFFFFF9BFB
:1046D000FF58FF18FEF7FED7FED7FEF8FF38FF5948
:1046E000FF59FF79FF79FF79FF79FF79FF79FF792A
:1046F000FF79FF79FF79FF79FF79FF79FF79FF79FA
:10470000FF79FF79FF79FF79FF18C48DDD50EDB295
:10471000EDD2EDD2EDD2EDD2EDD2EDD2EDD2EDD2A1
:10472000EDD2EDD2F718FF79FF79FF79FF79B574F3
:1047300094F78CF78CF78CF78CF78CF78CF66BD39F
:10474000741484B687FF87FF87FF87FF87FF87FF83
:1047500087FF87FF87FF87FF87FF87FF87FF87FF29
:1047600087FF87FF87FF87FF87FF87FF87FF87FF19
:1047700087FF87FF87FF87FF87FF87FFED6CED6C63
:10478000ED6CED6CED6CED6CED6CED6CED6CF69133
:10479000F692ED6CED6CCCAAD4EBED6CED6CED6C9F
:1047A000ED6CED6CED6CED6CB409C4AEF695FF7973
:1047B000FF79FF79CDF4DE96732AA4D3E73DFFFF9E
:1047C000FFFFFFFFFFFFFFFFFFFFFFFFFFFFFF797F
:1047D000FF59FF38FF18FEF8FEF8FF18FF38FF59A1
:1047E000FF79FF79FF79FF79FF79FF79FF79FF7909
:1047F000FF79FF79FF79FF79FF79FF79FF79FF79F9
:10480000FF79FF79FF79FF79FF79EE34BC6CE5B26F
:10481000EDD2EDD2EDD2EDD2EDD2EDD2EDD2EDD2A0
:10482000EDD2EDD2EE34FF79FF79FF79FF79A5342F
:104830008CF78CF78CF78CF78CF77C556BD28CD679
:1048400094F78C9487FF87FF87FF87FF87FF87FF99
:1048500087FF87FF87FF87FF87FF87FF87FF87FF28
:1048600087FF87FF87FF87FF87FF87FF87FF87FF18
:1048700087FF87FF87FF87FF87FF87FFED6CED6C62
:10488000ED6CED6CED6CED6CED6CED6CED6CF6B211
:10489000F671ED6CE54CC469ED6CED6CED6CED6C96
:1048A000ED6CED6CED6CED6CC46A9BACF6F7FF79CA
:1048B000FF79FF79E6B7CDF4FF799C2E9CD3E73DD5
:1048C000FFFFFFFFFFFFFFFFFFFFFFFFFF9BFF79E2
:1048D000FF59FF38FF38FF18FF18FF38FF59FF59FD
:1048E000FF79FF79FF79FF79FF79FF79FF79FF7908
:1048F000FF79FF79FF79FF79FF79FF79FF79FF79F8
:10490000FF79FF79FF79FF79FF79F718BC6CE571C2
:10491000EDD2EDD2EDD2EDD2EDD2EDD2EDD2EDD29F
:10492000EDD2EDD2EDD2F717FF79EF18FF799CF4B5
:104930008CF78CF78CF78CD66BD27C548CF78CF779
:104940007C34E6FC87FF87FF87FF87FF87FF87FFB1
:1049500087FF87FF87FF87FF87FF87FF87FF87FF27
:1049600087FF87FF87FF87FF87FF87FF87FF87FF17
:1049700087FF87FF87FF87FF87FF87FFED6CED6C61
:10498000ED6CED6CED6CED6CED6CED6CED6DF6B20F
:10499000F671ED6CC469ED6CED6CED6CED6CED6C6D
:1049A000ED6CED6CED6CED6CC46BDD92B511FF79C7
:1049B000FF79FF79FF79C572D5F4FF79D634BDD57B
:1049C000E73BF7BEE71BFFDEFFBCFF7AFF79FF790D
:1049D000FF79FF59FF39FF38FF38FF59FF59FF7939
:1049E000FF79FF79FF79FF79FF79FF79FF79FF7907
:1049F000FF79FF79FF79FF79FF79FF79FF79FF79F7
:104A0000FF79FF79FF79FF79FF79FF79DD91C48D17
:104A1000EDB2EDD2EDD2EDD2EDD2EDD2EDD2EDD2BE
:104A2000EDD2EDD2EDD2EE54DE75E675FF798CB3A2
:104A30008CF78CF77C556BD28CD68CF78CF78CF777
:104A40007C33F77D87FF87FF87FF87FF87FF87FF1F
:104A500087FF87FF87FF87FF87FF87FF87FF87FF26
:104A600087FF87FF87FF87FF87FF87FF87FF87FF16
:104A700087FF87FF87FF87FF87FF87FFED6CED6C60
:104A8000ED6CED6CED6CED6CED6CED6CED6CF6D2EF
:104A9000F650DCEBDD0BED6CED6CED6CED6CED6C64
:104AA000ED6CED6CED6CDD0BD50FF655D635C5D440
:104AB000FF79FF79FF79FF79D5B2D5F4FF79FF79D6
:104AC000FF79CDB2B4CEFF79FF79FF79FF79FF7915
:104AD000FF79FF59FF59FF59FF59FF59FF79FF79B6
:104AE000FF79FF79FF79FF79FF79FF79FF79FF7906
:104AF000FF79FF79FF79FF79FF79FF79FF79FF79F6
:104B0000FF79FF79FF79FF79FF79FF79F6D6B42B2A
:104B1000E571EDD2EDD2EDD2EDD2EDD2EDD2EDD206
:104B2000EDD2EDD2EDD2EDD2C550FF79FF799CF4F4
:104B30008CF66BD37C548CF78CF78CF78CF78CF756
:104B400073F3CE7A87FF87FF87FF87FF87FF87FF93
:104B500087FF87FF87FF87FF87FF87FF87FF87FF25
:104B600087FF87FF87FF87FF87FF87FF87FF87FF15
:104B700087FF87FF87FF87FF87FF87FFED6CED6C5F
:104B8000ED6CED6CED6CED6CED6CED6CED6CF6D2EE
:104B9000F650CCAAED6CED6CED6CED6CED6CED6C43
:104BA000ED6CED6CED6CC46AEDD2F6F7FF79BD9358
:104BB000DE76FF79FF79FF79FF79F6F7FF59FF7904
:104BC000BCEEA3A9F738FF79FF79FF79FF79FF7968
:104BD000FF79FF79FF59FF59FF59FF79FF79FF7975
:104BE000FF79FF79FF79FF79FF79FF79FF79F7186E
:104BF000FF79FF79FF79FF79FF79FF79FF79FF79F5
:104C0000FF79FF79FF79FF79FF79FF79FF59B40ABE
:104C1000E551EDB2EDD2EDD2EDD2EDD2EDD2EDD245
:104C2000EDD2EDD2EDD2EDB2CD71FF79FF79BD9528
:104C30006BB28CD68CF78CF78CF78CF78CF78CD703
:104C40005312AD5587FF87FF87FF87FF87FF87FFD9
:104C500087FF87FF87FF87FF87FF87FF87FF87FF24
:104C600087FF87FF87FF87FF87FF87FF87FF87FF14
:104C700087FF87FF87FF87FF87FF87FFED6CED6C5E
:104C8000ED6CED6CED6CED6CED6CED6CED6CF6D2ED
:104C9000E5CFE54CED6CED6CED6CED6CED6CED6C19
:104CA000ED6CED6CED6CC48CEDD3FF79FF79FF7981
:104CB000ACF0F718FF79FF79FF79FF79F718B44C5A
:104CC000ABA9DE75FF79FF79FF79FF79FF79FF796D
:104CD000FF79FF79FF79FF79FF79FF79FF79FF7914
:104CE000FF79FF79FF79FF79FF79FF79FF59D5F4D3
:104CF000FF79FF79FF79FF79FF79FF79FF79FF79F4
:104D0000FF79FF79FF79FF79FF79FF79FF58B42B9D
:104D1000E550E571EDD2EDD2EDD2EDD2EDD2EDD28E
:104D2000EDD2EDD2EDD2CCCEE591FF59BDB57C33BD
:104D30008CF78CF78CF78CF78CF78CF78CD7637427
:104D400062EEBC4A87FF87FF87FF87FF87FF87FFE9
:104D500087FF87FF87FF87FF87FF87FF87FF87FF23
:104D600087FF87FF87FF87FF87FF87FF87FF87FF13
:104D700087FF87FF87FF87FF87FF87FFED6CED6C5D
:104D8000ED6CED6CED6CED6CED6CED6CED6CF6B20C
:104D9000E5CFED6CED6CED6CED6CED6CED6CED6CF0
:104DA000ED6CED6CCC8AE591EE74FF79FF79FF79BB
:104DB000FF799C6EF718FF79FF79DE55B40AB3EAE4
:104DC000CDD2FF79FF79FF79FF79FF79FF79FF79FC
:104DD000FF79FF79FF79FF79FF79FF79FF79FF7913
:104DE000FF79FF79FF79FF79FF79FF79D5F4FF59D2
:104DF000FF79FF79FF79FF79FF79FF79FF79FF79F3
:104E0000FF79FF79FF79FF79FF79FF79F6F7C48D94
:104E1000E550E550EDB2EDD2EDD2EDD2EDD2EDD2CE
:104E2000EDD2EDD2EDD2C48DE5927BB073D48CF788
:104E30008CF78CF78CF78CF78CF78CF76B72938B65
:104E4000E52CE52C87FF87FF87FF87FF87FF87FF1C
:104E500087FF87FF87FF87FF87FF87FF87FF87FF22
:104E600087FF87FF87FF87FF87FF87FF87FF87FF12
:104E700087FF87FF87FF87FF87FF87FFED6CED6C5C
:104E8000ED6CED6CED6CED6CED6CED6CED6CF6B20B
:104E9000EE50ED6CED6CED6CED6CED6CED6CED6C65
:104EA000ED6CED6CC46BEDD2F6F7FF79FF79FF790D
:104EB000F7389C6FDE76FF79C550BC0ABBEAC55057
:104EC000FF79FF79FF79FF79FF79FF79FF79FF7922
:104ED000FF79FF79FF79FF79FF79FF79FF79FF7912
:104EE000FF79FF79FF79FF79FF79FF79D5B3FF79F2
:104EF000FF79FF79FF79FF79FF79FF79FF79FF79F2
:104F0000FF79FF79FF79FF79FF79FF79F696D4EF82
:104F1000E550E550E571EDD2EDD2EDD2EDD2EDD216
:104F2000EDD2EDD2EDB2938B5AD05B148CD78CF7C7
:104F30008CF78CF78CF794F794F783CFC46AED6CF9
:104F4000ED6CE52C87FF87FF87FF87FF87FF87FFD3
:104F500087FF87FF87FF87FF87FF87FF87FF87FF21
:104F600087FF87FF87FF87FF87FF87FF87FF87FF11
:104F700087FF87FF87FF87FF87FF87FFED6CED6C5B
:104F8000ED6CED6CED6CED6CED6CED6CED6CF6922A
:104F9000F671ED6CED6CED6CED6CED6CED6CED6C3B
:104FA000ED6CD4CBDD50EDF3FF79FF79FF79FF791C
:104FB000D635BD93C593B46CC42BBBEAC52FFF791E
:104FC000FF79FF79FF79FF79FF79FF79FF79FF7921
:104FD000FF79FF79FF79FF79FF79FF79FF79FF7911
:104FE000FF79FF79FF79FF79FF79FF39DDF4FF79E8
:104FF000FF79FF79FF79FF79FF79FF79FF79FF79F1
:10500000FF79FF79FF79FF79FF79FF79EE14E55099
:10501000E550E550DD50EDB2EDD2EDD2EDD2EDD25E
:10502000EDD2EDD28BAF4A9152F374158CF78CF719
:105030008CF78CF78CF78CD59C0CE52CED6CED6C1B
:10504000ED6CED6C87FF87FF87FF87FF87FF87FF8A
:1050500087FF87FF87FF87FF87FF87FF87FF87FF20
:1050600087FF87FF87FF87FF87FF87FF87FF87FF10
:1050700087FF87FF87FF87FF87FF87FFED6CED6C5A
:10508000ED6CED6CED6CED6CED6CED6CED6CF6912A
:10509000F671ED6CED6CED6CED6CED6CED6CED6C3A
:1050A000ED6CBC6BEDD2F696FF79FF79FF79FF7955
:1050B000D655A44DBC0ACC2BBBEAC52FFF79FF798E
:1050C000FF79FF79FF79FF79FF79FF79FF79FF7920
:1050D000FF79FF79FF79FF79FF79FF79FF79FF7910
:1050E000FF79FF79FF79FF79FF79FF59C511FF59E2
:1050F000FF79FF79FF79FF79FF79FF79FF79FF79F0
:10510000FF79FF79FF79FF79FF79FF59E591E55044
:10511000E550DD50E550E571EDD2EDD2EDD2EDB2C6
:10512000D5516B0F4AD352F353138CD78CF78CF7AE
:105130008CF78CF78C72BC4AED6CED6CED6CED6C01
:10514000ED6CED6C87FF87FF87FF87FF87FF87FF89
:1051500087FF87FF87FF87FF87FF87FF87FF87FF1F
:1051600087FF87FF87FF87FF87FF87FF87FF87FF0F
:1051700087FF87FF87FF87FF87FF87FFED6CED6C59
:10518000ED6CED6CED6CED6CED6CED6CED6CF65169
:10519000F692ED6CED6CED6CED6CED6CED6CED6C18
:1051A000D4EBCCEEEDD2FF59FF79FF79FF79EED742
:1051B000CD0DD4ABC44BB3EACD71FF79FF79FF7944
:1051C000FF79FF79FF79FF79FF79FF79FF79FF791F
:1051D000FF79FF79FF79FF79FF79FF79FF79FF790F
:1051E000FF79FF79FF79FF79FF79FF79F738CDB340
:1051F000F759FF79FF79FF79FF79FF79FF79FF7917
:10520000FF79FF79FF79FF79FF79F6F7C48DE550D3
:10521000E550DD50E550E550E591EDD2EDD2AC70B2
:1052200052B152F352F352D36BB58CF78CF794F71B
:1052300094F7940FD4CBED6CED6CED6CED6CED6CE4
:10524000ED6CED6C87FF87FF87FF87FF87FF87FF88
:1052500087FF87FF87FF87FF87FF87FF87FF87FF1E
:1052600087FF87FF87FF87FF87FF87FF87FF87FF0E
:1052700087FF87FF87FF87FF87FF87FFED6CED6C58
:10528000ED6CED6CED6CED6CED6CED6CED6CF63089
:10529000F6B2ED6CED6CED6CED6CED6CED6CED6CF7
:1052A000B3E8EDD2EE54FF79FF79FF79CD91D4ECDC
:1052B000DD0CC44BB3CAD5D2FF79FF79FF79FF79F2
:1052C000FF79FF79FF79FF79FF79FF79FF79FF791E
:1052D000FF79FF79FF79E675DE76FF79FF79FF794F
:1052E000FF79FF79FF79FF79FF79FF79FF79FF79FE
:1052F000FF79FF79FF79FF79FF79FF79FF79FF79EE
:10530000FF79FF79FF79FF79FF79E633ABCAE55082
:10531000E550E550E550E550E551E5927B6F4AB226
:1053200052F352F352F352F384768CF78CF78CB528
:105330009C0CE52CED6CED6CED6CED6CED6CED6C9E
:10534000ED6CED6C87FF87FF87FF87FF87FF87FF87
:1053500087FF87FF87FF87FF87FF87FF87FF87FF1D
:1053600087FF87FF87FF87FF87FF87FF87FF87FF0D
:1053700087FF87FF87FF87FF87FF87FFE54CED6C7F
:10538000ED6CED6CED6CED6CED6CED6CED6CEE0FB1
:10539000F6D3ED6CED6CED6CED6CED6CED6CD4CA90
:1053A000BC6CEDD2FF38FF79DE33C4CCED6CE52C5C
:1053B000CC4BB3EADE54FF79FF79FF79FF79FF79AF
:1053C000FF79FF79FF79FF79FF79FF79FF79FF791D
:1053D000FF79FF79BD92CDF4FF79FF79FF79FF79ED
:1053E000FF79FF79FF79FF79FF79FF79FF79FF79FD
:1053F000FF79FF79FF79FF79FF79FF79FF79FF79ED
:10540000FF79FF79FF79FF79FF79B44BBC2CDD5030
:10541000DD50E550DD50E550C4D05ACF52D352F3A1
:1054200052F352F352F353148CF78CF78C73B44A43
:10543000ED6CED6CED6CED6CED6CED6CED6CED6CA4
:10544000ED6CED6D87FF87FF87FF87FF87FF87FF85
:1054500087FF87FF87FF87FF87FF87FF87FF87FF1C
:1054600087FF87FF87FF87FF87FF87FF87FF87FF0C
:1054700087FF87FF87FF87FF87FF87FFCCAAED6C39
:10548000ED6CED6CED6CED6CED6CED6CED6CEDCEF2
:10549000FF13ED6CED6CED6CED6CED6CED6C9B4603
:1054A000EDB2EE34E695C4EDDD0BED6CE52CC44BAE
:1054B000AC0BEED7FF79FF79FF79FF79FF79FF79A0
:1054C000FF79FF79FF79FF79FF79FF79FF79FF791C
:1054D000FF79FF79FF79FF79FF79FF79FF59FF792C
:1054E000FF79FF79FF79FF79FF79FF79FF79FF79FC
:1054F000FF79FF79FF79FF79FF79FF79FF79FF79EC
:10550000FF79FF79FF79FF79FF1882C4A368A38927
:10551000B40CCCCEE550AC4F529152F352F352F34F
:1055200052F352F352F36B9594F7942FCCCBED6C6E
:10553000ED6CED6CED6CED6CED6CED6CED6CED6CA3
:10554000ED6CF67187FF87FF87FF87FF87FF87FF77
:1055500087FF87FF87FF87FF87FF87FF87FF87FF1B
:1055600087FF87FF87FF87FF87FF87FF87FF87FF0B
:1055700087FF87FF87FF87FF87FF87FFC46BED6C7F
:10558000ED6CED6CED6CED6CED6CED6CED6CED8D32
:10559000FF34ED6CED6CED6CED6CED6CBC08B42B78
:1055A000DD50BCACD4CAED6CED6CE52CC42AB4ADB6
:1055B000F759FF79FF79FF79FF79FF79FF79FF7953
:1055C000FF79FF79FF79FF79FF79FF79FF79FF791B
:1055D000FF79FF79FF79FF79FF79FF59FF59FF596B
:1055E000FF59FF79FF79FF79FF79FF79FF79FF791B
:1055F000FF79FF79FF79FF79FF79FF79FF79FF79EB
:10560000FF79FF79FF79FF79DDF3A326AB67526F4E
:1056100052D352D05A6C4AB152D352F352F352F38E
:1056200052F352F352D374149BECDD2CED6CED6C01
:10563000ED6CED6CED6CED6CED6CED6CED6CED6CA2
:10564000EDCEFF5587FF87FF87FF87FF87FF87FF27
:1056500087FF87FF87FF87FF87FF87FF87FF87FF1A
:1056600087FF87FF87FF87FF87FF87FF87FF87FF0A
:1056700087FF87FF87FF87FF87FF87FFCC8DED6C54
:10568000ED6CED6CED6CED6CED6CED6CED6CED6C52
:10569000FF34ED8DED6CED6CED6CD4CB7222BC4A19
:1056A000CCAAED6CED6CED6CE50CB3EACDB1FF79F5
:1056B000FF79FF79FF79FF79FF59FF59FF79FF796A
:1056C000FF79FF79FF79FF79FF79FF79FF79FF791A
:1056D000FF79FF79FF79FF59FF59FF59FF39FF59CA
:1056E000FF59FF59FF79FF79FF79FF79FF79FF793A
:1056F000FF79FF79FF79FF79FF79FF79FF79FF79EA
:10570000FF79FF79FF79FF79B44BB3678AC84AD331
:105710004AD33A2F4AB252F352F352F352F352F3AE
:1057200052F352D352D0AC0AED6CED6CED6CED6CD3
:10573000ED6CED6CED6CED6CED6CED6CED6CED8D80
:10574000FF14FF5587FF87FF87FF87FF87FF87FFCE
:1057500087FF87FF87FF87FF87FF87FF87FF87FF19
:1057600087FF87FF87FF87FF87FF87FF87FF87FF09
:1057700087FF87FF87FF87FF87FF87FFCCD0ED6C10
:10578000ED6CED6CED6CED6CED6CED6CED6CED6C51
:10579000F6F3EDCEED6CED6CED6CCC89DD0BED6CC4
:1057A000ED6CED6CED6CDCECB42BE6B6FF79FF79BB
:1057B000FF79FF79FF79FF59A48FF738FF79F6B6A3
:1057C000FF59FF79FF79FF79FF79FF79FF79FF7939
:1057D000FF79FF79FF79FF59FF38FF38FF18FF384D
:1057E000FF39FF59FF79FF79FF79FF79FF79FF7959
:1057F000FF79FF79FF79FF79FF79FF79FF79FF79E9
:10580000FF79FF79FF79FF389B26B36772AB52D3DC
:10581000429152D352F352F352F352F352F352F3F2
:1058200052F36ACECC8BED6CED6CED6CED6CED6CE7
:10583000ED6CED6CED6CED6CED6CED6CED6DF6D230
:10584000F7149C6E87FF87FF87FF87FF87FF87FF1F
:1058500087FF87FF87FF87FF87FF87FF87FF87FF18
:1058600087FF87FF87FF87FF87FF87FF87FF87FF08
:1058700087FF87FF87FF87FF87FF87FFED95CCAA0C
:10588000ED6CED6CED6CED6CED6CED6CED6CED6C50
:10589000F692EE0FED6CED6CED6CED6CED6CED6C6D
:1058A000ED6CED6CCCAAC550FF79FF79FF79FF79DB
:1058B000FF79FF79FF79B511D655FF79EEB6ACAF18
:1058C000FF79D655E6F9DE99AD5494B394B3A53477
:1058D000CE36FF7AFF79FF59FF38FF18FEF8FF1820
:1058E000FF38FF58FF79FF79FF79FF79FF79FF795A
:1058F000FF79FF79FF79FF79FF79FF79FF79FF79E8
:10590000FF79FF79FF79CD91AB46B3678AE84AD337
:1059100052D352D352F352F352F352F352F352D2C0
:105920008B4BE52BED6CED6CED6CED6CED6CED6C7B
:10593000ED6CED6CED6CED6CED6CED6CF671DE729A
:10594000734E52D387FF87FF87FF87FF87FF87FF4D
:1059500087FF87FF87FF87FF87FF87FF87FF87FF17
:1059600087FF87FF87FF87FF87FF87FF87FF87FF07
:1059700087FF87FF87FF87FF87FF87FFF5F7C46CE7
:10598000ED6CED6CED6CED6CED6CED6CED6CED6C4F
:10599000F630F671ED6CED6CED6CED6CED6CED6C64
:1059A000DD0BC4CCEED6FF79FF79FF79FF79FF7963
:1059B000FF79FF79FF79C593EEF7FF798B8BEF18AD
:1059C000B5318C0F630C29EB224E224F222E74F638
:1059D0009597C617D656FF58FF18FEF8FED8FEF763
:1059E000FF18FF38FF59FF79FF79FF79FF79FF79B9
:1059F000FF79FF79FF79FF79FF79FF79FF79FF79E7
:105A0000FF79FF79FF79AC0AB367AB47AB675A8D73
:105A100052F352F352F352F352F352F35ACFB40A01
:105A2000ED6CED6CED6CED6CED6CED6CED6CED6CAE
:105A3000ED6CED6CED6CED6CED6CEE30BD4F6B50C4
:105A400073F57C5687FF87FF87FF87FF87FF87FFF8
:105A500087FF87FF87FF87FF87FF87FF87FF87FF16
:105A600087FF87FF87FF87FF87FF87FF87FF87FF06
:105A700087FF87FF87FF87FF87FF87FFF5F7CCAF9B
:105A8000ED6CED6CED6CED6CED6CED6CED6CED6C4E
:105A9000EDCEF6D2ED6CED6CED6CED6CE54CC44AE0
:105AA000D591FF79FF79FF79FF79FF79FF79FF7948
:105AB000FF79FF79FF79ACF1FF79F738A46FBD92D8
:105AC000520639A719EE222E222E222E2A6F74D6C4
:105AD00095F9AE7AB5D7DE35FF18FED7FE97FEB73B
:105AE000FEF7FF18FF59FF79FF79FF79FF79FF79FA
:105AF000FF79FF79FF79FF79FF79FF79FF79FF79E6
:105B0000FF79FF79EEB6A326A3269B059AE592E6D8
:105B10004A9052F352F352F352D37B2CD4EBED6CF8
:105B2000ED6CED6CED6CED6CED6CED6CED6CED6CAD
:105B3000ED6CED6CED6CED6CE5AEA48E8CB594F770
:105B40008CF78CF787FF87FF87FF87FF87FF87FF2B
:105B500087FF87FF87FF87FF87FF87FF87FF87FF15
:105B600087FF87FF87FF87FF87FF87FF87FF87FF05
:105B700087FF87FF87FF87FF87FF87FFF5F7E5959B
:105B8000CCAAED6CED6CED6CED6CED6CED6CED6C30
:105B9000ED8DFF34ED6CED6CE54CC449C4ADF6B64B
:105BA000FF79FF79FF79FF79FF79FF79FF79FF7935
:105BB000FF79FF79CE14DE76FF79DE56DE75730944
:105BC0005A27192819EE1A0E222E222E2988294624
:105BD00032B09E19C6BB9C70FF18FED7FE97FE9789
:105BE000FED7FEF8FF38FF59FF79FF79FF79FF797B
:105BF000FF79FF79FF79FF79FF79FF79FF79FF79E5
:105C0000FF79FF79BCCDAB47B367B367AB479AE584
:105C10006A664AB252F35ACFAC0AED6CED6CED6C89
:105C2000ED6CED6CED6CED6CED6CED6CED6CED6CAC
:105C3000ED6CED6CED6CCCCB8C5094F78CF78CF755
:105C40008CF68CD687FF87FF87FF87FF87FF87FF4C
:105C500087FF87FF87FF87FF87FF87FF87FF87FF14
:105C600087FF87FF87FF87FF87FF87FF87FF87FF04
:105C700087FF87FF87FF87FF87FF87FFF5F7F5F728
:105C8000C46CED6CED6CED6CED6CED6CED6CED6C75
:105C9000ED6CFF13D54CB3E8C46CEDF3FF38FF791E
:105CA000FF79FF79FF79FF79FF79FF79FF79FF7934
:105CB000FF79FF79ACF1FF79FF79C5B3FF794984AA
:105CC000732B18E519CE19EE222E222E29EC3A2B31
:105CD0006C959E19AE7A9CF3F6B6FED7FE97FE77CA
:105CE000FE97FED7FF18FF59FF79FF79FF79FF79FB
:105CF000FF79FF79FF79FF79FF79FF79FF79FF79E4
:105D0000FF79F718A326B367AB67AB67B367B367D1
:105D1000B36772A98B4BDD0BED6CED6CED6CED6C2C
:105D2000ED6CED6CED6CED6CED6CED6CED6CED6CAB
:105D3000ED6CED6CB44B8C738CF78CF78CF78CF7A7
:105D40008CF7843487FF87FF87FF87FF87FF87FFF4
:105D500087FF87FF87FF87FF87FF87FF87FF87FF13
:105D600087FF87FF87FF87FF87FF87FF87FF87FF03
:105D700087FF87FF87FF87FF87FF87FFF5F7F5F727
:105D8000D4F1E52CED6CED6CED6CED6CED6CE52B70
:105D9000ABA79B67BC6CE5B2F675FF79FF79FF791D
:105DA000FF79FF79FF79FF79FF79FF79FF79FF7933
:105DB000FF79CDD3DE96FF79FF79D635FF7930C1F3
:105DC000AD34524884324AAE198B224E222E2A908C
:105DD00085779E199E19BE9BC573FED7FE97FE77E9
:105DE000FE97FED7FF18FF59FF59FF79FF79FF791A
:105DF000FF79FF79FF79FF79FF79FF79FF79FF79E3
:105E0000FF79BCEEAB67AB67AB67AB67B367AB471C
:105E1000A346CC89ED6CDD0BED6CED6CED6CED6C9F
:105E2000ED6CED6CED6CED6CED6CED6CED6CED6CAA
:105E3000DD2B9C0C94D68CF68CF78CF78CF78CF7BA
:105E40007C54D69A87FF87FF87FF87FF87FF87FFEE
:105E500087FF87FF87FF87FF87FF87FF87FF87FF12
:105E600087FF87FF87FF87FF87FF87FF87FF87FF02
:105E700087FF87FF87FF87FF87FF87FFF5F7F5F726
:105E8000F5F7C46BED6CED6CED6CED6CED6CED6CE1
:105E9000CCAAA388EDD2EDD3FF58FF79FF79FF7923
:105EA000FF79FF79FF79FF79FF79FF79FF79FF7932
:105EB000F738AD11FF79FF79FF79F758FF7930C1D5
:105EC000CE59A534FFFFFFFF73CF198B222E1A0E78
:105ED00043528DB89E199DF99492FED7FE96FE7797
:105EE000FE76FEB7FEF8FF38FF59FF79FF79FF799C
:105EF000FF79FF79FF79FF79FF79FF79FF79FF79E2
:105F0000EEF7A326AB67B367AB47AB47A326BC2925
:105F1000ED6CE54CD4ABED6CED6CED6CED6CED6CBB
:105F2000ED6CED6CED6CED6CED6CED6CED6CCCAB8B
:105F30008C3094F78CF78CF78CF78CF78CF78CD629
:105F4000AD56FFBE87FF87FF87FF87FF87FF87FF6D
:105F500087FF87FF87FF87FF87FF87FF87FF87FF11
:105F600087FF87FF87FF87FF87FF87FF87FF87FF01
:105F700087FF87FF87FF87FF87FF87FFF5F7F5F725
:105F8000F5F7C4AFED6CED6CED6CED6CED6CED6C9C
:105F9000ED6CBC49CCCEEDD2EE34FF79FF79FF79C0
:105FA000FF79FF79FF79FF79FF79FF79FF79FF7931
:105FB000CDF4F759FF79FF79FF79FF79FF794163D4
:105FC000AD55D6BBFFFFEF7D9471190719ED1A0E81
:105FD00019EF3B31645473F1E71CFF19FE97FE760D
:105FE000FE77FE96FEF7FF18FF59FF79FF79FF79DC
:105FF000FF79FF79FF79FF79FF79FF79FF79FF79E1
:10600000B44CAB67AB67AB67A326BC08E54CED6C43
:10601000D4EBC44AED6CED6CED6CED6CED6CED6C9D
:10602000ED6CED6CED6CED6CED6CED6CA3CA8C73EE
:1060300094F78CF78CF78CF78CF784B6741394D59F
:10604000FFBEF79E87FF87FF87FF87FF87FF87FFDA
:1060500087FF87FF87FF87FF87FF87FF87FF87FF10
:1060600087FF87FF87FF87FF87FF87FF87FF87FF00
:1060700087FF87FF87FF87FF87FF87FFF5F7F5F724
:10608000F5F7EDB6CC8AED6CED6CED6CED6CED6C6E
:10609000ED6CED6CCD4ED52FEDD2EE54FF79FF793E
:1060A000FF79FF79FF79FF79FF79FF79FF79FF7930
:1060B000FF79FF79FF79FF79FF79FF79FF796AA886
:1060C0007B8DCE9BE73DFFFFC5F78C0F732C630CD8
:1060D0006B4E8411BDB6FFFFFFFFFF7BFEB6FE7661
:1060E000FE76FE77FED7FF18FF58DE13FF79FF79A3
:1060F000FF79FF79FF79FF79FF79FF79FF79D5D2B1
:10610000AB46AB47A326BC28E54CED6CED6CC4490F
:10611000BC0AED4CED6CED6CED6CED6CED6CED6C6A
:10612000ED6CED6CED6CED6CDD0B7B2C6BB48CF7DA
:106130008CF78CD67C148474A536C639F79EFFBEC6
:10614000FFBEAD7687FF87FF87FF87FF87FF87FF4B
:1061500087FF87FF87FF87FF87FF87FF87FF87FF0F
:1061600087FF87FF87FF87FF87FF87FF87FF87FFFF
:1061700087FF87FF87FF87FF87FF87FFF5F7F5F723
:10618000F5F7F5F7C48EED6CED6CED6CED6CED6C28
:10619000ED6CED6CF692D5CFD4EFEDD2EE54FF79E5
:1061A000FF79FF79FF79FF79FF79FF79FF79FF792F
:1061B000FF79FF79FF79FF79FF79FF79FF79A4AF44
:1061C0004143C618D69BF79EFFFFFFFFFFFFFFFF6F
:1061D000FFFFFFFFFFFFFFFFFFFFFF9DFEB7FE96E4
:1061E000FE77FE77FEB7FF18FF38B44BFF79FF79D3
:1061F000FF79FF79FF79FF79FF79FF79E6B69B0692
:10620000AB67C449E56CED6CED6CDD0BABC8C42A23
:10621000E52CED6CED6CED6CED6CED6CED6CED6CFE
:10622000ED6CED6CED6CBC2A62CF531484757C135D
:1062300094F5B5B8EF5DFFBEFFBEFFBEEF7DC6189B
:10624000A5567C5487FF87FF87FF87FF87FF87FF5F
:1062500087FF87FF87FF87FF87FF87FF87FF87FF0E
:1062600087FF87FF87FF87FF87FF87FF87FF87FFFE
:1062700087FF87FF87FF87FF87FF87FFF5F7F5F722
:10628000F5F7F5F7EDD6C46AED6CED6CED6CED6CE1
:10629000ED6CED6CEE0FFF55D50CC48CEDB2EE1429
:1062A000FF58FF79FF79FF79FF79FF79FF79FF794F
:1062B000FF79FF79FF79FF79FF79FF79FF79F71887
:1062C00041645207C65AD6BBF79EFFFFFFFFFFFF90
:1062D000FFFFFFFFFFFFFFFFFFFFFFBDFED7FE96A3
:1062E000FE97FE97FEB7FF18DE13BC4CFF38FF7910
:1062F000FF79FF79FF79FF79FF79EEF7B44ADCEB9C
:10630000ED6CED6CED6CED6CC449B3C9C44BDCCCE9
:10631000ED6CED6CED6CED6CED6CED6CED6CED6CB5
:10632000ED6CDD2C8B4B52B252D194B5CE59FFBEE1
:10633000FFBEF7BED67AAD7794F5845474138CD62D
:106340008CF78CF787FF87FF87FF87FF87FF87FF23
:1063500087FF87FF87FF87FF87FF87FF87FF87FF0D
:1063600087FF87FF87FF87FF87FF87FF87FF87FFFD
:1063700087FF87FF87FF87FF87FF87FFF5F7F5F721
:10638000F5F7F5F7F5F7D4F1DD2BED6CED6CED6C71
:10639000ED6CED6CED8DFF55F650E54CBC4ADD50D3
:1063A000EDF3F6F7FF79FF79FF79FF79FF79FF7950
:1063B000FF79FF79FF79FF79FF79FF79FF79FF791D
:1063C000BD9238E15206BDF8D69BE73DFFDFFFFFE7
:1063D000FFFFFFFFFFFFFFFFFFFFF73BFED7FEB60C
:1063E000FED8FED9FEB8FEF8CD2EC48DF6F7FF79A3
:1063F000FF79FF79FF79FF79EEF7C4ABED6CED6CB7
:10640000ED6CED6CD4CBB3C8C42BC44BD48BED6C0A
:10641000ED6CED6CED6CED6CED6CED6CED6CED6CB4
:10642000BC4A62CD5B1194F5DEFBF7BECE5AA55691
:106430008C95741384958CF78CF794F78CF794F7FC
:106440008CF78CF787FF87FF87FF87FF87FF87FF22
:1064500087FF87FF87FF87FF87FF87FF87FF87FF0C
:1064600087FF87FF87FF87FF87FF87FF87FF87FFFC
:1064700087FF87FF87FF87FF87FF87FFF5F7F5F720
:10648000F5F7F5F7F5F7F5F7C44CED6CED6CED6C41
:10649000ED6CED6CED6CF6B2FF14ED6CED6CD4CAE6
:1064A000C46CE5B1F675FF59FF79FF79FF79FF7983
:1064B000FF79FF79FF79FF79FF79FF79FF79FF791C
:1064C000FF79B531390241439451CE9BD6BBDEFCF6
:1064D000EF5DEF9EEF3CC5D6D636FF38FEF8FEB72F
:1064E000FE96FE96FEB7EE76BC29CCAEF6D6FF79C8
:1064F000FF79FF79FF79DE54C4ABED6CED6CED6C88
:10650000E52CBC09BBEAC44BC44BCC8BED6CED6CE9
:10651000ED6CED6CED6CED6CED6CED6CDD0B8B6B87
:1065200052B173D3C659B5B89D167C33849594F790
:106530008CF78CF794F78CF794F78CF77C547C13DA
:1065400084546B7087FF87FF87FF87FF87FF87FF74
:1065500087FF87FF87FF87FF87FF87FF87FF87FF0B
:1065600087FF87FF87FF87FF87FF87FF87FF87FFFB
:1065700087FF87FF87FF87FF87FF87FFF5F7F5F71F
:10658000F5F7F5F7F5F7F5F7EDB6C46BED6CED6CD7
:10659000ED6CED6CED6CEE0FFF55EDEFED6CED6C11
:1065A000ED6CC46AC48CEDD2F6D7FF79FF79FF7920
:1065B000FF79FF79FF79FF79FF79FF79FF79FF791B
:1065C000FF79FF79D6355A4738E149847B4C94509E
:1065D00083CE942FBD52FF59FF59FF38FF18FED7C5
:1065E000FEB6FEB6FED7C4ACB3E8D50FF6D7FF793A
:1065F000FF79DE75C50ED4EBED6CED6CE54CC46A2D
:10660000BBE9C44BC44BC44BCC6BE54CED6CED6C9F
:10661000ED6CED6CED6CED6CED6CB40A62CF4AD3B1
:1066200073F3BDF86B927C348CF78CF78CF78CF796
:106630008CF78495741384749CF6AD779CF5A5361D
:10664000A536C65A87FF87FF87FF87FF87FF87FF2B
:1066500087FF87FF87FF87FF87FF87FF87FF87FF0A
:1066600087FF87FF87FF87FF87FF87FF87FF87FFFA
:1066700087FF87FF87FF87FF87FF87FFF5F7F5F71E
:10668000F5F7F5F7F5F7F5F7F5F7DD33CCCBED6C6E
:10669000ED6CED6CED6CED6CDE72F6D3ED6CED6CCB
:1066A000ED6CED6CE56CC46AC46CDDB2F6F7FF7995
:1066B000FF79FF79FF79FF79FF79FF79FF79FF791A
:1066C000FF79FF79FF79FF79C5B37B2A49848BCCA9
:1066D000CDF4FF79FF79FF79FF79FF59FF38FEF894
:1066E000FED7E614C4EEDD2C92E4C48CCD2FCD0E83
:1066F000C4ABDD0BED6CED6CED6CD4CBBC2AC44BA4
:10670000C44BC44BC44BCC6BE54CED6CED6CED6CE9
:10671000ED6CED6CED6DCCAA934852D252D36B92D6
:10672000B5B852D1639494F78CB674137C338C94BF
:10673000AD57CE5AF79ECE5AB5B7AD56C65AC65AC1
:10674000C65AC65A87FF87FF87FF87FF87FF87FFE5
:1067500087FF87FF87FF87FF87FF87FF87FF87FF09
:1067600087FF87FF87FF87FF87FF87FF87FF87FFF9
:1067700087FF87FF87FF87FF87FF87FFF5F7F5F71D
:10678000F5F7F5F7F5F7F5F7F5F7F5F7D5F6D4EBF7
:10679000ED6CED6CED6CED6CF671D631D4EBED6C0F
:1067A000ED6CED6CED6CED6CED6CD4AAC46BC4CEED
:1067B000EE75FF59FF79FF79FF79FF79FF79FF794E
:1067C000FF79FF79FF79FF79FF79FF79FF79F71872
:1067D000FF79FF79FF79FF79FF79F718D5B1C4AD5B
:1067E000ABC9A367D4EBCCAADD0BED6CED6CED6C03
:1067F000ED6CED6CE54CDCCCCC6BC44BC44BC44BAA
:10680000C44BC44BCC6BE54CED6CED6CED6CED6C9E
:10681000ED6CD4EBB3E8BBEAB3EB4AB25B11ADB8B5
:1068200052D152F363938C749D36CE9AE75DFFBECE
:10683000F79EBDD7B597D6BBCE9AC659C65AC65A8B
:10684000C65AC65A87FF87FF87FF87FF87FF87FFE4
:1068500087FF87FF87FF87FF87FF87FF87FF87FF08
:1068600087FF87FF87FF87FF87FF87FF87FF87FFF8
:1068700087FF87FF87FF87FF87FF87FFF5F7F5F71C
:10688000F5F7F5F7F5F7F5F7F5F7F618FF9FCDB43F
:10689000DD0BED6CED6CED6CEDAEFF55EEB2C46949
:1068A000C469E54CED6CED6CED6CED6CED6CED6C74
:1068B000CCAAC46AC4EECD91E675FF58FF79FF7982
:1068C000FF79FF79FF79FF58F718FF79FF79FF7992
:1068D000FF59FF18DE13CD50C4ECCC8AE52CCC4B0D
:1068E000BC2ADD2BED6CC449ED6CED6CED6CE52C38
:1068F000DCECCC8BC44BC44BC44BC44BC44BC44B1F
:10690000C44BD48BED6CED6CED6CED6CED6CD4CBBD
:10691000BC49C42AC44BC44BC44B424EAD775AF158
:1069200052D352D2B5B8D6BBEF7DFFBEFFBEBDF885
:10693000B597EF7DDEFCC65AC65AC65AC65AC65A25
:10694000C65ABDF887FF87FF87FF87FF87FF87FF4E
:1069500087FF87FF87FF87FF87FF87FF87FF87FF07
:1069600087FF87FF87FF87FF87FF87FF87FF87FFF7
:1069700087FF87FF87FF87FF87FF87FFF5F7F5F71B
:10698000F5F7F5F7F5F7F5F7F5F7F639FFBFFF9FE0
:10699000CD93DD0BED6CED6CED6CF6D3FF55E5CFD3
:1069A000D4ABBC08C449D4EBED6CED6CED6CED6C74
:1069B000ED6CED6CED6CED6CDD0BC489C48AC4CC60
:1069C000C4CCC4CCA3C8ABEAEDF3E5F3CD0FC4ACA3
:1069D000C46BC469DD0BED6CED6CE52CD4ACE54CFF
:1069E000ED6CED6CC449DCEBDCECD4ABCC4BC44BB4
:1069F000C44BC44BC44BC44BC44BC44BC44BC44B1F
:106A0000D4CCED6CED6CED6CED6DCCAABC8DB46CA2
:106A1000C4CCC48ADCEBDD0CCC8C8C32635152D3F9
:106A20004AB2AD77DEFCFFBEFFBEF79EA556E6FC80
:106A3000F79ED69AC659C65AC65AC65AAD97BE19B7
:106A4000E71CFFBE87FF87FF87FF87FF87FF87FF62
:106A500087FF87FF87FF87FF87FF87FF87FF87FF06
:106A600087FF87FF87FF87FF87FF87FF87FF87FFF6
:106A700087FF87FF87FF87FF87FF87FFF5F7F5F71A
:106A8000F5F7F5F7F5F7F5F7F5F7F659FF9FFF9FDF
:106A9000FF9FCD93DCEBED6CED6CEDEFFF55FF351B
:106AA000EDAED4CCCC6BBC0ABC2AD4CBDD0CE54C0F
:106AB000ED6CED6CED6CED6CED6CE54CD4CABC2866
:106AC000A366A387BC6BC48BC46ACC8AE54CED6C0F
:106AD000ED6CED6CED6CED6CE52CE52CED6CED6C7E
:106AE000ED6CCCAABBEAC44BC44BC44BC44BC44BE7
:106AF000C44BC44BC44BC44BC44BC44BCC4BDD0C3C
:106B0000ED6CED6CE52CC48BCD72EF3CFF9FFF9FCD
:106B1000FFBFFF9EE6BACDB4C4CD5AAC4AB24AD24A
:106B20008C95DEFBFFBEFFBEEF5CA536F79DF79EA2
:106B3000CE9AC67AC659C67AC65A8C948C94F77D7A
:106B4000FFBEFFBE87FF87FF87FF87FF87FF87FFA7
:106B500087FF87FF87FF87FF87FF87FF87FF87FF05
:106B600087FF87FF87FF87FF87FF87FF87FF87FFF5
:106B700087FF87FF87FF87FF87FF87FFF5F7F5F719
:106B8000F5F7F5F7F5F7F5F7F5F7F69AFFBFFF9F7D
:106B9000FF9FFF9FD616DE31FF14F691FF34FF559D
:106BA000FF14EDADED6CE52CDCECDCCCD4ABD48B80
:106BB000D48BD4ABCC8AC46AC469CC89DD0BED6DAF
:106BC000ED8DED6DED6CED6CED6CED6CED6CED6CDB
:106BD000ED6CED6CED6CED6CED6CED6CED6CED6CED
:106BE000CC8ABC0AC44BC44BC44BC44BC44BC44B2F
:106BF000C44BC44BC44BC44BC44BD4ACE54CED6D3F
:106C0000CCAAABA7D5F6FFBFFFBFFFBFFF9FFF9F7B
:106C1000FF9FFF9FFFBFFF9FFF9F5B1152F36352D8
:106C2000D6BBFFBEFFBEE71CAD76FFBEF79ECE9A79
:106C3000C65AC659C659C659C65ABDF8F79DFFBEB1
:106C4000FFBEFFBE87FF87FF87FF87FF87FF87FFA6
:106C500087FF87FF87FF87FF87FF87FF87FF87FF04
:106C600087FF87FF87FF87FF87FF87FF87FF87FFF4
:106C700087FF87FF87FF87FF87FF87FFF5F7F5F718
:106C8000F5F7F5F7F5F7F5F7F5F7F6BBFF9FFF9F7B
:106C9000FFBFFFBFFF9FDE99CDB1FF55FF55FF55E9
:106CA000FF55F6F3ED6CED6CED6CED6CED6CED6C91
:106CB000ED6CED6CED6CED6CED6CED6CED6CED6C0C
:106CC000ED6CED6CED6CED6CED6CED6CED6CED6CFC
:106CD000ED6CED6CED6CED6CED6CED6CE54CBC2988
:106CE000C40AC44BC44BC44BC44BC44BC44BC44B6D
:106CF000C44BC44BC44BCC6BE52CD4CABC29B3C821
:106D0000BC0ABC2AAC6EFFBFFF9FFF9FFF9FFFBF67
:106D1000FF9FFFBFFF9FFF9FFF9F5B124AB2AD77B0
:106D2000F79EFFBEE6FCB5B7FFBEF7BED6BAC65AA1
:106D3000C65AC67AC65AC659DEDBFFBEFFBEFFBEC4
:106D4000FFBEFFBE87FF87FF87FF87FF87FF87FFA5
:106D500087FF87FF87FF87FF87FF87FF87FF87FF03
:106D600087FF87FF87FF87FF87FF87FF87FF87FFF3
:106D700087FF87FF87FF87FF87FF87FFF5F7F5F717
:106D8000F5F7F5F7F5F7F5F7F5F7FEDBFF9FFFBF32
:106D9000FF9FFF9FFFBFFF9FEF3CC571F6F4FF55BC
:106DA000FF55FF55F691ED6CED6CED6CED6CED6CF7
:106DB000ED6CED6CED6CED6CED6CED6CED6CED6C0B
:106DC000ED6CED6CED6CED6CED6CED6CED6CED6CFB
:106DD000ED6CED6CED6CED6CE54CCC6ABBE9C44B35
:106DE000C44BC44BC44BC44BC44BC44BC44BC44B2B
:106DF000C44BCC6BBC2AC4CECDB3EEFBD616C4AD0F
:106E0000D4ABCC4BBC0ABD31FFBFFF9FFFBFFF9F80
:106E1000FF9FFFBFFF9FFFBFFFDF52F1424EE71C06
:106E2000FFBEE71CB5B7FFBEFFBED6DBC659C659CD
:106E3000C659C659C659E71CFFBEFFBEFFBEFFBEFE
:106E4000FFBEFFBE87FF87FF87FF87FF87FF87FFA4
:106E500087FF87FF87FF87FF87FF87FF87FF87FF02
:106E600087FF87FF87FF87FF87FF87FF87FF87FFF2
:106E700087FF87FF87FF87FF87FF87FFF5F7F5F716
:106E8000F5F7F5F7F5F7F5F7F5F7FEFCFF9FFF9F30
:106E9000FF9FFF9FFF9FFF9FFF9FFFBFCDF6CDD0BE
:106EA000FF55FF55FF55F6F3EDAEED6DED6CED6C56
:106EB000ED6CED6CED6CED6CED6CED6CED6CED6C0A
:106EC000ED6CED6CED6CED6CED6CED6CED6CED6CFA
:106ED000ED6CED6CE54CD4CCC42BC44BC44BC44B13
:106EE000C44BC44BC44BC44BC44BC42BB3C9B40B2D
:106EF000C4F0D5F6F75DFF9FFF9FFF9FFF9FFF9FA9
:106F0000CDB4C48BCC6BBBEACDD5FF9FFF9FFF9F59
:106F1000FF9FFF9FFF9FFF9FFF9F5B126372FFBE5C
:106F2000EF5DBDD7FFBEFFBEE71CC659C659C67A86
:106F3000C67ACE7AEF5DFFBEFFBEFFBEFFBEFFBECC
:106F4000FFBEFFBE87FF87FF87FF87FF87FF87FFA3
:106F500087FF87FF87FF87FF87FF87FF87FF87FF01
:106F600087FF87FF87FF87FF87FF87FF87FF87FFF1
:106F700087FF87FF87FF87FF87FF87FFF5F7F5F715
:106F8000F5F7F5F7F5F7F5F7F5F7FF3DFFBFFF9FCD
:106F9000FF9FFFBFFF9FFF9FFFBFFF9FFF9FF73D2B
:106FA000C5B3DE11FF55FF55FF35EE0FED6CED6CEF
:106FB000ED6CE52CDD0CE54CED6CED6CED6CED6CE9
:106FC000ED6CED6CED6CED6CED6CED6CED6CE54C21
:106FD000DCECD48BC44BCC4BC44BC44BC44BC44B28
:106FE000BC0AABA9B40BBCAEC552D617F73CFF9F89
:106FF000FFBFFF9FFFBFFFBFFF9FFF9FFFBFFF9F21
:10700000FFBFEF1CBCADCC6BABCAEEFBFF9FFF9F7D
:10701000FFBFFF9FFF9FFFBFFFBF9D177C34F79E01
:10702000BDF8FFBEFFBEF77DCE5AC659C65AC65A36
:10703000D6BBF79EFFBEFFBEFFBEFFBEFFBEFFBEBC
:10704000FFBEFFBE87FF87FF87FF87FF87FF87FFA2
:1070500087FF87FF87FF87FF87FF87FF87FF87FF00
:1070600087FF87FF87FF87FF87FF87FF87FF87FFF0
:1070700087FF87FF87FF87FF87FF87FFF5F7F5F714
:10708000F5F7F5F7F5F7F5F7F5F7FF7EFF9FFF9FAB
:10709000FF9FFF9FFFBFFF9FFFBFFF9FFF9FFF9FC0
:1070A000FFBFEEFBCDB3D5F0FF35FF55F650ED6CCD
:1070B000ED6CED6CE54CD4ACCC6BD48CD4CCD4ABB7
:1070C000CCAACC8ACCAAD4CAD4AAC46ABC09ABA81C
:1070D000AB88ABA9AC0AB44CBCAEC511CD94D5F607
:1070E000E699F77EFF9FFFBFFF9FFF9FFF9FFF9FD8
:1070F000FF9FFF9FFF9FFF9FFFBFFF9FFFBFFF9F60
:10710000FF9FFF9FFF9FC531BC2BB44DFFBFFF9F6B
:10711000FF9FFF9FFFBFFF9FFF9FFF9FA556E71C9D
:10712000FFBEFFBEFFBED6BBC67AC65ACE7AE71CEC
:10713000FFBEFFBEFFBEFFBEFFBEFFBEFFBEFFBE67
:10714000FFBEFFBE87FF87FF87FF87FF87FF87FFA1
:1071500087FF87FF87FF87FF87FF87FF87FF87FFFF
:1071600087FF87FF87FF87FF87FF87FF87FF87FFEF
:1071700087FF87FF87FF87FF87FF87FFF5F7F5F713
:10718000F5F7F5F7F5F7F5F7F5F7FF9FFF9FFF9F89
:10719000FF9FFF9FFF9FFF9FFF9FFF9FFF9FFFBFDF
:1071A000FF9FFF9FFFBFF75DCDD5CDB0E6B3F67172
:1071B000ED6CED6CED6CED6CD4EBA3A8AC6DC57211
:1071C000C552C573C594D617E6BAEEFBEEFCF73D83
:1071D000FF9EFF9FFF9FFFBFFF9FFF9FFF9FFF9FA0
:1071E000FF9FFF9FFF9FFF9FFF9FFFBFFF9FFF9F8F
:1071F000FF9FFF9FFF9FFFBFFF9FFF9FFFBFFF9F5F
:10720000FF9FFF9FFF9FFFBFC573B3C9D5F6FF9FC9
:10721000FFBFFF9FFFBFFF9FFF9FFF9FBDD8FFBE28
:10722000FFBEFFBEFFBECE9AC65AD6BBF77DFFBEDD
:10723000FFBEFFBEFFBEFFBEFFBEFFBEFFBEFFBE66
:10724000FFBEFFBE87FF87FF87FF87FF87FF87FFA0
:1072500087FF87FF87FF87FF87FF87FF87FF87FFFE
:1072600087FF87FF87FF87FF87FF87FF87FF87FFEE
:1072700087FF87FF87FF87FF87FF87FFF5F7F5F712
:10728000F5F7F5F7F5F7F5F7F618FF9FFF9FFFBF46
:10729000FFBFFFBFFF9FFFBFFF9FFFBFFFBFFFBF3E
:1072A000FFBFFFBFFF9FFFBFFFBFFFBFDE79CDB3B3
:1072B000C4EDDD0BED6CED6CED6CED6CDD0BC4CC59
:1072C000CD93EF1CFFBFFF9FFFBFFF9FFFBFFFBF1F
:1072D000FFBFFF9FFFBFFF9FFFBFFFBFFFBFFF9F1E
:1072E000FFBFFF9FFFBFFF9FFFBFFFBFFFBFFF9F0E
:1072F000FF9FFF9FFFBFFFBFFF9FFFBFFF9FFFBF1E
:10730000FFBFFFBFFF9FFFBFFF9FC573A3A9F77E0E
:10731000FF9FFFBFFF9FFFBFFFBFFFBFBDD8FFBEE7
:10732000FFBEFFBEFFBEF79DF77DFFBEFFBEFFBEE7
:10733000FFBEFFBEFFBEFFBEFFBEFFBEFFBEFFBE65
:10734000FFBEF77D87FF87FF87FF87FF87FF87FFE8
:1073500087FF87FF87FF87FF87FF87FF87FF87FFFD
:1073600087FF87FF87FF87FF87FF87FF87FF87FFED
:1073700087FF87FF87FF87FF87FF87FFF5F7F5F711
:10738000F5F7F5F7F5F7F5F7F639FF9FFFBFFFBF04
:10739000FF9FFF9FFFBFFF9FFFBFFF9FFFBFFF9F9D
:1073A000FF9FFFBFFFBFFFBFFFBFFF9FFF9FFFBF4D
:1073B000FFBFDE99CD92C4CDCC8AE54CED6CED6C6F
:1073C000ED6DCCCAC4CDCD93E6DAFFBFFFBFFF9F02
:1073D000FF9FFF9FFFBFFFBFFF9FFFBFFF9FFF9F5D
:1073E000FFBFFF9FFF9FFFBFFF9FFF9FFFBFFF9F4D
:1073F000FF9FFFBFFF9FFF9FFFBFFF9FFFBFFFBF1D
:10740000FFBFFF9FFF9FFF9FFFBFFF9FBCF0BD120D
:10741000FF9FFFBFFFBFFF9FFFBFFF9FBDD8FFBE06
:10742000FFBEFFBEFFBEFFBEFFBEFFBEFFBEFFBE74
:10743000FFBEFFBEFFBEFFBEFFBEFFBEFFBEFFBE64
:10744000FFBEDEFC87FF87FF87FF87FF87FF87FF81
:1074500087FF87FF87FF87FF87FF87FF87FF87FFFC
:1074600087FF87FF87FF87FF87FF87FF87FF87FFEC
:1074700087FF87FF87FF87FF87FF87FFF5F7F5F710
:10748000F5F7F5F7F5F7F5F7F659FF9FFF9FFF9F23
:10749000FF9FFF9FFF9FFFBFFF9FFF9FFF9FFF9FDC
:1074A000FF9FFFBFFF9FFF9FFF9FFF9FFF9FFFBFAC
:1074B000FF9FFF9FFFBFFFBFF75DD5F6CD71C4CD26
:1074C000C46AD4EBED6CED6CD4EBC4ACCD51D5F605
:1074D000F71CFF9FFFBFFF9FFF9FFF9FFF9FFF9F27
:1074E000FFBFFF9FFF9FFF9FFFBFFF9FFFBFFF9F4C
:1074F000FF9FFF9FFFBFFF9FFF9FFF9FFF9FFF9F7C
:10750000FF9FFF9FFF9FFFBFFF9FFF9FFF7E9BAAE5
:10751000F73DFFBFFF9FFF9FFF9FFF9FBDB8FFBECF
:10752000FFBEFFBEFFBEFFBEFFBEFFBEFFBEFFBE73
:10753000FFBEFFBEFFBEFFBEFFBEFFBEFFBEFFBE63
:10754000FFBEEF7D87FF87FF87FF87FF87FF87FFEE
:1075500087FF87FF87FF87FF87FF87FF87FF87FFFB
:1075600087FF87FF87FF87FF87FF87FF87FF87FFEB
:1075700087FF87FF87FF87FF87FF87FFF5F7F5F70F
:10758000F5F7F5F7F5F7F5F7F69AFF9FFFBFFF9FC1
:10759000FF9FFFBFFF9FFF9FFFBFFFBFFF9FFFBF7B
:1075A000FFBFFF9FFF9FFFBFFFBFFF9FFFBFFFBF4B
:1075B000FF9FFFBFFFBFFFBFFFBFFF9FFF9FFFBF3B
:1075C000FF9EE6DACDF6CD93CD30C4EEC4CCC48BAD
:1075D000A3A79BA8A42CC573EF3DFFBFFF9FFFBFD0
:1075E000FF9FFF9FFFBFFFBFFFBFFFBFFF9FFF9F2B
:1075F000FFBFFF9FFFBFFFBFFF9FFF9FFFBFFFBFFB
:10760000FFBFFFBFFFBFFF9FFF9FFFBFFFBFDE7931
:10761000BD12FF9FFF9FFFBFFFBFFF9FB5B7FFBE1C
:10762000FFBEFFBEFFBEFFBEFFBEFFBEFFBEFFBE72
:10763000FFBEFFBEFFBEFFBEFFBEFFBEFFBEFFBE62
:10764000FFBEFFBE87FF87FF87FF87FF87FF87FF9C
:1076500087FF87FF87FF87FF87FF87FF87FF87FFFA
:1076600087FF87FF87FF87FF87FF87FF87FF87FFEA
:1076700087FF87FF87FF87FF87FF87FFF5F7F5F70E
:10768000F5F7F5F7F5F7F5F7F6BBFF9FFFBFFF9F9F
:10769000FF9FFF9FFF9FFF9FFF9FFF9FFFBFFF9FDA
:1076A000FF9FFF9FFF9FFF9FFFBFFF9FFF9FFF9FCA
:1076B000FFBFFF9FFFBFFF9FFF9FFF9FFF9FFF9F9A
:1076C000FF9FFF9FFF9FFFBFFF9FFF9FFF9FFFBF8A
:1076D000FF9FFFBFFF9FFFBFFF9FFF9FFF9FFF9F7A
:1076E000FF9FFFBFFF9FFFBFFF9FFF9FFF9FFF9F6A
:1076F000FF9FFF9FFFBFFF9FFF9FFF9FFFBFEF3DCC
:10770000634D7BEFF77EFF9FFFBFFF9FFF9FFF9FB4
:10771000B511FF9FFF9FFF9FFF9FFF9FF75EB597EC
:10772000FFBEFFBEFFBEFFBEFFBEFFBEFFBEFFBE71
:10773000FFBEFFBEFFBEFFBEFFBEFFBEFFBEFFBE61
:10774000FFBEFFBE87FF87FF87FF87FF87FF87FF9B
:1077500087FF87FF87FF87FF87FF87FF87FF87FFF9
:1077600087FF87FF87FF87FF87FF87FF87FF87FFE9
:1077700087FF87FF87FF87FF87FF87FFF5F7F5F70D
:10778000F5F7F5F7F5F7F5F7F6DBFFBFFF9FFF9F7E
:10779000FF9FFFBFFFBFFF9FFF9FFF9FFF9FFF9FB9
:1077A000FFBFFF9FFF9FFF9FFF9FFFBFFFBFFF9F89
:1077B000FF9FFF9FFF9FFF9FFFBFFF9FFF9FFF9FB9
:1077C000FF9FFF9FFF9FFF9FFF9FFF9FFF9FFF9FC9
:1077D000FFBFFFBFFF9FFF9FFF9FFFBFFF9FFFBF39
:1077E000FF9FFFBFFF9FFF9FFF9FFFBFFF9FFF9F69
:1077F000FF9FFF9FFF9FFFBFFFBFFF9FFF9FFFBF39
:10780000FFBFFFBFFFBFFF9FFF9FFF9FFF9FFFBF08
:10781000DE79FF9FFF9FFF9FFF9FFF9FFFBFE71D39
:10782000AD77E6FCFFBEFFBEFFBEFFBEFFBEFFBEE4
:10783000FFBEFFBEFFBEFFBEFFBEFFBEFFBEFFBE60
:10784000FFBEFFBE87FF87FF87FF87FF87FF87FF9A
:1078500087FF87FF87FF87FF87FF87FF87FF87FFF8
:1078600087FF87FF87FF87FF87FF87FF87FF87FFE8
:1078700087FF87FF87FF87FF87FF87FFF5F7F5F70C
:10788000F5F7F5F7F5F7F5F7F71CFFBFFFBFFF9F1B
:10789000FFBFFFBFFF9FFFBFFF9FFFBFFFBFFFBF38
:1078A000FF9FFFBFFF9FFFBFFFBFFFBFFF9FFFBF48
:1078B000FF9FFFBFFFBFFFBFFF9FFFBFFF9FFF9F58
:1078C000FF9FFFBFFFBFFF9FFFBFFF9FFFBFFFBF28
:1078D000FFBFFF9FFFBFFF9FFFBFFFBFFFBFFF9F18
:1078E000FFBFFFBFFFBFFFBFFFBFFFBFFFBFFFBFA8
:1078F000FF9FFFBFFFBFFFBFFF9FFFBFFFBFFFBFD8
:10790000FFBFFFBFFF9FFFBFFF9FFFBFFF9FFFBFE7
:10791000FF9FFFBFFF9FFFBFFF9FFFBFFFBFFFBFD7
:10792000FFBFCE3AB597D67AFFBEFFBEFFBEFFBE01
:10793000FFBEFFBEFFBEFFBEFFBEFFBEFFBEFFBE5F
:10794000FFBEFFBE87FF87FF87FF87FF87FF87FF99
:1079500087FF87FF87FF87FF87FF87FF87FF87FFF7
:1079600087FF87FF87FF87FF87FF87FF87FF87FFE7
:1079700087FF87FF87FF87FF87FF87FFF5F7F5F70B
:10798000F5F7F5F7F5F7F5F7FF3DFF9FFF9FFF9F31
:10799000FF9FFF9FFF9FFF9FFF9FFF9FFFBFFF9FD7
:1079A000FF9FFF9FFF9FFF9FFFBFFF9FFF9FFF9FC7
:1079B000FF9FFF9FFF9FFF9FFF9FFFBFFF9FFF9FB7
:1079C000FF9FFF9FFF9FFF9FFF9FFF9FFF9FFF9FC7
:1079D000FF9FFFBFFF9FFF9FFF9FFFBFFF9FFF9F77
:1079E000FF9FFF9FFF9FFFBFFF9FFF9FFFBFFFBF47
:1079F000FF9FFF9FFF9FFF9FFFBFFF9FFFBFFF9F57
:107A0000FFBFFF9FFFBFFF9FFF9FFF9FFF9FFF9F46
:107A1000FF9FFF9FFF9FFF9FFF9FFF9FFF9FFFBF56
:107A2000FF9FFF9FFF9FE6DCB598B5B7C619F77EAD
:107A3000FFBEFFBEFFBEFFBEFFBEFFBEFFBEFFBE5E
:107A4000FFBEFFBE87FF87FF87FF87FF87FF87FF98
:107A500087FF87FF87FF87FF87FF87FF87FF87FFF6
:107A600087FF87FF87FF87FF87FF87FF87FF87FFE6
:107A700087FF87FF87FF87FF87FF87FFF5F7F5F70A
:107A8000F5F7F5F7F5F7F5F7FF7EFF9FFF9FFFBFCF
:107A9000FF9FFF9FFF9FFF9FFF9FFFBFFFBFFF9FB6
:107AA000FF9FFF9FFF9FFF9FFFBFFF9FFF9FFFBFA6
:107AB000FF9FFF9FFFBFFF9FFF9FFFBFFF9FFF9F96
:107AC000FFBFFF9FFF9FFFBFFFBFFF9FFFBFFF9F46
:107AD000FF9FC5F8E6FCFFBFEF5DFFBFFFBFFF9F45
:107AE000FF9FFF9FFF9FFFBFFF9FFF9FFFBFFF9F66
:107AF000FF9FFFBFFF9FFF9FFF9FFF9FFFBFFFBF36
:107B0000FF9FE71CCE79FFBFFF9FFF9FFF9FFF9F57
:107B1000FF9FFFBFFF9FFF9FFFBFFF9FFF9FFF9F35
:107B2000FF9FFF9FFFBFFF9FFF9FFFBFEF5EC5D976
:107B3000B5B8B556BD97C619E71CF7BEFFBEFFBE68
:107B4000FFBEFFBE87FF87FF87FF87FF87FF87FF97
:107B500087FF87FF87FF87FF87FF87FF87FF87FFF5
:107B600087FF87FF87FF87FF87FF87FF87FF87FFE5
:107B700087FF87FF87FF87FF87FF87FFF5F7F5F709
:107B8000F5F7F5F7F5F7F5F7FF7FFF9FFFBFFFBFAD
:107B9000FFBFFF9FFF9FFF9FFF9FFFBFFFBFFF9F95
:107BA000FF9FFF9FFF9FFFBFFF9FFF9FFFBFFF9FA5
:107BB000FF9FFFBFFFBFFF9FFFBFFF9FFF9FFFBF55
:107BC000FFBFFFBFFFBFFF9FFF9FFFBFFFBFFFBF05
:107BD000FFBFAD75FFBFDEFC7BCFFFBFFF9FFFBFC9
:107BE000FF9FFF9FFFBFFF9FFF9FFF9FFF9FFF9F85
:107BF000F77EF77EFF9FFFBFFF9FFF9FB596949292
:107C0000BDD7A5149492FFBFFF9FFFBFFFBFFF9F8B
:107C1000FFBFFF9FFF9FFFBFFFBFFF9FFFBFFF9FF4
:107C2000FF9FFFBFFF9FFF9FFFBFFF9FFFBFFFBFE4
:107C3000FF7EF5F7F5F8E5B7CD15BCB3B4D4B4F4D1
:107C4000B4F4BCF587FF87FF87FF87FF87FF87FFB7
:107C500087FF87FF87FF87FF87FF87FF87FF87FFF4
:107C600087FF87FF87FF87FF87FF87FF87FF87FFE4
:107C700087FF87FF87FF87FF87FF87FFF5F7F5F708
:107C8000F5F7F5F7F5F7F5F7FF9FFF9FFFBFFF9FAC
:107C9000FF9FFF9FFF9FFF9FFFBFFF9FFF9FFF9FD4
:107CA000FF9FFF9FFFBFFF9FFFBFFF9FFF9FFF9FA4
:107CB000FFBFFF9FFFBFFF9FFF9FFF9FFF9FFF9F94
:107CC000FF9FFF9FFF9FFF9FFF9FFFBFFF9FFF9FA4
:107CD000FF9FEF3DFFBFCE59E73DFFBFFF9FFF9FD7
:107CE000FF9FFF9FFF9FFF9FFF9FFF9FFF9FFF9FA4
:107CF000CE59AD55FF9FFFBFFF9FFF9FE71CB59675
:107D0000A514A4F4BDB6FFBFFF9FFF9FFFBFFF9F59
:107D1000FF9FFF9FFF9FFF9FFF9FFF9FFFBFFF9F53
:107D2000FF9FFFBFFF9FFF9FFF9FFF9FFF9FFFBF23
:107D3000FF3DF5F7F5F7F5F7F5F7F5F7F5F7F5F793
:107D4000F5F7F5F787FF87FF87FF87FF87FF87FF37
:107D500087FF87FF87FF87FF87FF87FF87FF87FFF3
:107D600087FF87FF87FF87FF87FF87FF87FF87FFE3
:107D700087FF87FF87FF87FF87FF87FFF5F7F5F707
:107D8000F5F7F5F7F5F7F618FFBFFF9FFF9FFF9F89
:107D9000FF9FFF9FFFBFFF9FFF9FFF9FFFBFFF9FB3
:107DA000FFBFFF9FFF9FFF9FFF9FFF9FFFBFFF9FA3
:107DB000FF9FFF9FFF9FFF9FFFBFFF9FFF9FFF9FB3
:107DC000FF9FFF9FFFBFFFBFFF9FFF9FFF9FFF9F83
:107DD000FFBFFFDFFFBFFFDFD69AFFBFFF9FFFBFE1
:107DE000FF9FFF9FFF9FFF9FFFBFFFBFFFBFFF9F43
:107DF000EF3DC638FFBFFFBFFFBFC618F77EFF9F2E
:107E0000FFBFFFBFFFBFFF9FFF9FFF9FFF9FFF9F22
:107E1000FFBFFF9FFF9FFF9FFFBFFF9FFFBFFF9F12
:107E2000FF9FFF9FFF9FFF9FFF9FFFBFFF9FFF9F42
:107E3000FEFCF5F7F5F7F5F7F5F7F5F7F5F7F5F7D4
:107E4000F5F7F5F787FF87FF87FF87FF87FF87FF36
:107E500087FF87FF87FF87FF87FF87FF87FF87FFF2
:107E600087FF87FF87FF87FF87FF87FF87FF87FFE2
:107E700087FF87FF87FF87FF87FF87FFF5F7F5F706
:107E8000F5F7F5F7F5F7F659FFBFFFBFFF9FFF9F27
:107E9000FF9FFF9FFF9FFFBFFFBFFFBFFFBFFFBF52
:107EA000FF9FFFBFFFBFFFBFFF9FFFBFFF9FFFBF42
:107EB000FFBFFFBFFFBFFFBFFF9FFFBFFFBFFFBFF2
:107EC000FFBFFFBFFF9FFF9FFFBFFFBFFFBFFFBF02
:107ED000E71CA51494928430B596FFBFFF9FFF9FC7
:107EE000FFBFFF9FFFBFFF9FFF9FFFBFFFBFFFBF02
:107EF000FFBFFFBFFFBFB5B6AD7552AAB596FFBFB6
:107F0000FFBFFFBFFF9FFFBFFFBFFFBFFF9FFFBFC1
:107F1000FF9FFFBFFFBFFFBFFFBFFFBFFFBFFFBF91
:107F2000FFBFFFBFFFBFFFBFFFBFFF9FFFBFFFBF81
:107F3000F6FBF5F7F5F7F5F7F5F7F5F7F5F7F5F7DC
:107F4000F5F7F5F787FF87FF87FF87FF87FF87FF35
:107F500087FF87FF87FF87FF87FF87FF87FF87FFF1
:107F600087FF87FF87FF87FF87FF87FF87FF87FFE1
:107F700087FF87FF87FF87FF87FF87FFF5F7F5F705
:107F8000F5F7F5F7F5F7F67AFF9FFF9FFF9FFF9F45
:107F9000FF9FFF9FFF9FFF9FFF9FFF9FFFBFFF9FD1
:107FA000FF9FFFBFFF9FFF9FFF9FFF9FFF9FFFBFA1
:107FB000FF9FFF9FFF9FFFBFFF9FFFBFFF9FFF9F91
:107FC000FF9FFF9FFF9FFF9FFF9FFF9FFF9FFFBFA1
:107FD000FFBFFFBFFFBFFFBFFFBFFF9FFF9FFF9F11
:107FE000FFBFFF9FFF9FFF9FFF9FFF9FFFBFFF9F61
:107FF000FFBFFFBFFF9FFFBFB5B7528A8C71E71C61
:10800000FFBFFF9FFF9FFFBFFF9FFF9FFF9FFF9F40
:10801000FF9FFF9FFF9FFF9FFF9FFF9FFF9FFF9F70
:10802000FF9FFF9FFF9FFFBFFF9FFF9FFF9FFF9F40
:10803000F6BBF5F7F5F7F5F7F5F7F5F7F5F7F5F71B
:10804000F5F7F5F787FF87FF87FF87FF87FF87FF34
:1080500087FF87FF87FF87FF87FF87FF87FF87FFF0
:1080600087FF87FF87FF87FF87FF87FF87FF87FFE0
:1080700087FF87FF87FF87FF87FF87FFF5F7F5F704
:10808000F5F7F5F7F5F7F6BAFFBFFF9FFF9FFFBFC4
:10809000FF9FFF9FFF9FFF9FFF9FFFBFFFBFFF9FB0
:1080A000FF9FFFBFFF9FFF9FFFBFFF9FFF9FFFBF80
:1080B000FF9FFFBFFFBFFF9FFF9FFFBFFF9FFFBF50
:1080C000FFBFFF9FFF9FFF9FFF9FFFBFC618EF3DB2
:1080D000FFBFD6BAFFBFFF9FFF9FFFBFFF9FFF9F5E
:1080E000FFBFFF9FFF9FFFBFFF9FFF9FFFBFFF9F40
:1080F000EF7DDEDBFF9FFF9FF77E84107BCF9CF33D
:10810000FFBFFF9FFF9FFFBFFF9FFF9FFFBFFF9F1F
:10811000FF9FFFBFFF9FFF9FFFBFFF9FFF9FFFBF0F
:10812000FF9FFF9FFFBFFFBFFF9FFFBFFF9FFF9FFF
:10813000F67AF5F7F5F7F5F7F5F7F5F7F5F7F5F75B
:10814000F5F7F5F787FF87FF87FF87FF87FF87FF33
:1081500087FF87FF87FF87FF87FF87FF87FF87FFEF
:1081600087FF87FF87FF87FF87FF87FF87FF87FFDF
:1081700087FF87FF87FF87FF87FF87FFF5F7F5F703
:10818000F5F7F5F7F5F7F6DBFF9FFF9FFF9FFFBFC2
:10819000FFBFFF9FFF9FFF9FFF9FFFBFFF9FFF9FAF
:1081A000FF9FFF9FFF9FFF9FFFBFFF9FFF9FFF9FBF
:1081B000FF9FFF9FFF9FFF9FFF9FFF9FFF9FFF9FCF
:1081C000FFBFFF9FFFBFFF9FFF9FFF9FA514F79E6D
:1081D000E71C8410CE59FFBFFFBFFF9FFF9FFF9F8B
:1081E000FF9FFF9FFFBFFF9FFF9FFF9FFFBFC638FF
:1081F0009CD3AD55F79EEF5DFF9FFF9FCE59F79E35
:10820000FFBFFF9FFF9FFFBFFF9FFFBFFF9FFFBFFE
:10821000FF9FFF9FFF9FFF9FFF9FFF9FFF9FFF9F6E
:10822000FF9FFF9FFFBFFFBFFF9FFF9FFF9FFF9F1E
:10823000F659F5F7F5F7F5F7F5F7F5F7F5F7F5F77B
:10824000F5F7F5F787FF87FF87FF87FF87FF87FF32
:1082500087FF87FF87FF87FF87FF87FF87FF87FFEE
:1082600087FF87FF87FF87FF87FF87FF87FF87FFDE
:1082700087FF87FF87FF87FF87FF87FFF5F7F5F702
:10828000F5F7F5F7F5F7FF1CFF9FFF9FFFBFFF9F77
:10829000FF9FFFBFFF9FFF9FFFBFFF9FFF9FFF9FAE
:1082A000FF9FFF9FFFBFFF9FFF9FFF9FFFBFFFBF7E
:1082B000FF9FFFBFFF9FFF9FFFBFFF9FFF9FFFBF6E
:1082C000FF9FFF9FFFBFFF9FFF9FFFBFFFBFEF5DB0
:1082D000BDB78C7173AEB596FF9FFFBFFF9FFFBF09
:1082E000FF9FFF9FFF9FFF9FFF9FFFBFFF9FB5B6B1
:1082F00083F0738E8C31B596FFBFF79EF79EFF9F7C
:10830000FFBFFF9FFF9FFF9FFFBFFF9FFF9FFF9F3D
:10831000FFBFFF9FFF9FFFBFFF9FFF9FFFBFFF9F0D
:10832000FF9FFFBFFF9FFF9FFFBFFF9FFF9FFFBFFD
:10833000F638F5F7F5F7F5F7F5F7F5F7F5F7F5F79B
:10834000F5F7F5F787FF87FF87FF87FF87FF87FF31
:1083500087FF87FF87FF87FF87FF87FF87FF87FFED
:1083600087FF87FF87FF87FF87FF87FF87FF87FFDD
:1083700087FF87FF87FF87FF87FF87FFF5F7F5F701
:10838000F5F7F5F7F5F7F73DFF9FFF9FFF9FFF9F7D
:10839000FF9FFF9FFFBFFF9FFF9FFF9FFF9FFF9FCD
:1083A000FFBFFF9FFF9FFF9FFF9FFF9FFFBFFF9F9D
:1083B000FF9FFF9FFF9FFF9FFF9FFFBFFF9FFF9FAD
:1083C000FF9FFFBFFF9FFFBFFFBFEF3DF77EFFBFD8
:1083D000FFBFFFBF7BEFBDB7FF9FFFBFFF9FFFBF8B
:1083E000FF9FFF9FFF9FFFBFFFBFFFBFFFBFFFBFFD
:1083F000F77EF79FFFBFFFBFFFBFE6FCDEDBFFDFBF
:10840000EF5DFF9FFFBFFF9FFFBFFF9FFF9FFF9F8E
:10841000FFBFFF9FFF9FFF9FFFBFFF9FFFBFFFBFEC
:10842000FFBFFF9FFF9FFF9FFF9FFFBFFF9FFF9F1C
:10843000F5F8F5F7F5F7F5F7F5F7F5F7F5F7F5F7DB
:10844000F5F7F5F787FF87FF87FF87FF87FF87FF30
:1084500087FF87FF87FF87FF87FF87FF87FF87FFEC
:1084600087FF87FF87FF87FF87FF87FF87FF87FFDC
:1084700087FF87FF87FF87FF87FF87FFF5F7F5F700
:10848000F5F7F5F7F5F7FF5EFF9FFF9FFFBFFF9F33
:10849000FF9FFF9FFF9FFF9FFF9FFF9FFF9FFF9FEC
:1084A000FF9FFFBFFF9FFF9FFF9FFF9FFF9FFFBF9C
:1084B000FF9FFFBFFF9FFF9FFF9FFF9FFF9FFFBF8C
:1084C000FF9FFF9FFF9FEF5D73AE73AEBDF7FFBFD2
:1084D000FFBFFF9FF79EF79EFFBFFF9FFF9FFF9F7E
:1084E000FFBFFF9FFFBFFF9FFF9FFFBFFF9FFFBF1C
:1084F000FFBFFF9FFF9FFF9FFF9FFFBFCE39B59636
:10850000CE59FFBFFF9FFF9FFF9FFFBFFF9FFF9FB2
:10851000FF9FFFBFFF9FFFBFFF9FFF9FFF9FFF9F2B
:10852000FFBFFFBFFF9FFF9FFF9FFF9FFFBFFF9FFB
:10853000F5F7F5F7F5F7F5F7F5F7F5F7F5F7F5F7DB
:10854000F5F7F5F787FF87FF87FF87FF87FF87FF2F
:1085500087FF87FF87FF87FF87FF87FF87FF87FFEB
:1085600087FF87FF87FF87FF87FF87FF87FF87FFDB
:1085700087FF87FF87FF87FF87FF87FFF5F7F5F7FF
:10858000F5F7F5F7F5F8FF7EFF9FFF9FFF9FFFBF11
:10859000FFBFFFBFFF9FFF9FFF9FFF9FFF9FFF9FAB
:1085A000FF9FFFBFFF9FFF9FFF9FFFBFFF9FFFBF7B
:1085B000FF9FFF9FFF9FFFBFFFBFFF9FFF9FFF9F8B
:1085C000FF9FFFBFFF9FFF9FEF5D7BEF5AEB4228AE
:1085D000C618FF9FFFBFE6FCF77EFF9FFFBFFF9F10
:1085E000FFBFFF9FFF9FFF9FFFBFFFBFFF9FFF9F3B
:1085F000FF9FFF9FFFBFFFBFFF9FFFBFEF3DCE3934
:10860000F79EDEDBFFBFFFBFFF9FFF9FFF9FFFBF08
:10861000FFBFFF9FFF9FFF9FFF9FFFBFFFBFFF9F0A
:10862000FF9FFF9FFF9FFFBFFFBFFF9FFFBFFF5E3B
:10863000F5F7F5F7F5F7F5F7F5F7F5F7F5F7F5F7DA
:10864000F5F7F5F787FF87FF87FF87FF87FF87FF2E
:1086500087FF87FF87FF87FF87FF87FF87FF87FFEA
:1086600087FF87FF87FF87FF87FF87FF87FF87FFDA
:1086700087FF87FF87FF87FF87FF87FFF5F7F5F7FE
:10868000F5F7F5F7F5F7FF9FFFBFFF9FFFBFFFBFB0
:10869000FF9FFF9FFFBFFF9FFFBFFFBFFF9FFF9F8A
:1086A000FF9FFF9FFFBFFFBFFFBFFF9FFF9FFFBF5A
:1086B000FFBFFF9FFFBFFF9FFF9FFFBFFF9FFFBF4A
:1086C000FFBFFF9FFF9FFFBFFFBFD69AFFDFEF5D9A
:1086D000F79EFFBFFFBFBDF7BDD7FFBFFF9FFF9F47
:1086E000FFBFFF9FFF9FFFBFFF9FFF9FFFBFFF9F3A
:1086F000FFBFFFBFFF9FFF9FFFBFFFBFFFDFFFBFAA
:1087000094B28C517BCFC638FFBFFF9FFFBFFF9F46
:10871000FF9FFFBFFF9FFFBFFFBFFF9FFF9FFFBFE9
:10872000FF9FFF9FFFBFFF9FFF9FFFBFFF9FFF3D7B
:10873000F5F7F5F7F5F7F5F7F5F7F5F7F5F7F5F7D9
:10874000F5F7F5F787FF87FF87FF87FF87FF87FF2D
:1087500087FF87FF87FF87FF87FF87FF87FF87FFE9
:1087600087FF87FF87FF87FF87FF87FF87FF87FFD9
:1087700087FF87FF87FF87FF87FF87FFF5F7F5F7FD
:10878000F5F7F5F7F618FF9FFF9FFF9FFF9FFFBFCD
:10879000FFBFFF9FFF9FFF9FFF9FFF9FFF9FFF9FC9
:1087A000FF9FFF9FFF9FFF9FFF9FFF9FFF9FFFBFB9
:1087B000FF9FFF9FFFBFFFBFFF9FFF9FFF9FFF9F89
:1087C000FFBFFFBFFF9FFF9FFF9FFF9FFFBFFFBF39
:1087D000FFBFFF9FFFBFFFBF8410FFBFFF9FFF9F33
:1087E000FF9FFF9FFF9FFF9FFF9FFF9FFF9FFF9F99
:1087F000FF9FFFBFFFBFFFBFFF9FE73D6B6DB596BC
:10880000CE79FFBFEF3DC5F8FFBFFF9FFF9FFF9FE2
:10881000FF9FFF9FFF9FFF9FFF9FFF9FFF9FFF9F68
:10882000FF9FFF9FFF9FFF9FFF9FFF9FFF9FFEFCFC
:10883000F5F7F5F7F5F7F5F7F5F7F5F7F5F7F5F7D8
:10884000F5F7F5F787FF87FF87FF87FF87FF87FF2C
:1088500087FF87FF87FF87FF87FF87FF87FF87FFE8
:1088600087FF87FF87FF87FF87FF87FF87FF87FFD8
:1088700087FF87FF87FF87FF87FF87FFF5F7F5F7FC
:10888000F5F7F5F7F639FFBFFF9FFF9FFFBFFFBF6B
:10889000FFBFFFBFFF9FFF9FFF9FFF9FFFBFFF9F88
:1088A000FF9FFF9FFF9FFFBFFFBFFF9FFFBFFF9F78
:1088B000FF9FFFBFFFBFFFBFFFBFFF9FFF9FFFBF28
:1088C000D6BA94B2FF9EFF9FFFBFFFBFFFBFEF5D11
:1088D000C638FFBFFFBFEF5D8410FFBFFF9FFFBF24
:1088E000FF9FFF9FFFBFFF9FFF9FFFBFFF9FFF9F58
:1088F000FFBFFFBFFFBFBDF7EF5DFFBFF77E8C710E
:108900007BEFCE39FFBFFFBFFF9FFFBFFFBFFF9FC2
:10891000FFBFFF9FFF9FFFBFFF9FFF9FFFBFFF9F07
:10892000FF9FFFBFFF9FFF9FFFBFFF9FFF9FF6DCE3
:10893000F5F7F5F7F5F7F5F7F5F7F5F7F5F7F5F7D7
:10894000F5F7F5F787FF87FF87FF87FF87FF87FF2B
:1089500087FF87FF87FF87FF87FF87FF87FF87FFE7
:1089600087FF87FF87FF87FF87FF87FF87FF87FFD7
:1089700087FF87FF87FF87FF87FF87FFF5F7F5F7FB
:10898000F5F7F5F7F67AFF9FFF9FFF9FFF9FFFBF69
:10899000FFBFFF9FFFBFFF9FFFBFFF9FFF9FFF9F87
:1089A000FFBFFF9FFF9FFF9FFFBFFF9FFF9FFF9F97
:1089B000FFBFFF9FFFBFFF9FFF9FFF9FFF9FFFBF67
:1089C000630C4A499492FFBFFF9FFFBFFF9FFFBF09
:1089D000EF5DC618AD556B6DCE59FFBFFF9FFF9F72
:1089E000FF9FFFBFFF9FFFBFFF9FFF9FFFBFFFBF17
:1089F000FFBFD6798430634CC618F79EFFBFFFBF18
:108A0000F79EBDB7EF5DFF9FFFBFFF9FFF9FFF9FDB
:108A1000FF9FFF9FFFBFFF9FFFBFFF9FFF9FFF9F26
:108A2000FF9FFF9FFF9FFF9FFF9FFFBFFF9FF6BB23
:108A3000F5F7F5F7F5F7F5F7F5F7F5F7F5F7F5F7D6
:108A4000F5F7F5F787FF87FF87FF87FF87FF87FF2A
:108A500087FF87FF87FF87FF87FF87FF87FF87FFE6
:108A600087FF87FF87FF87FF87FF87FF87FF87FFD6
:108A700087FF87FF87FF87FF87FF87FFF5F7F5F7FA
:108A8000F5F7F5F7F69BFFBFFF9FFF9FFF9FFF9F47
:108A9000FF9FFF9FFF9FFF9FFF9FFF9FFF9FFF9FE6
:108AA000FF9FFF9FFF9FFF9FFF9FFF9FFFBFFF9FB6
:108AB000FFBFFF9FFF9FFF9FFFBFFF9FFFBFF79E6F
:108AC000632CD69ADEDBFF9FFF9FFF9FFF9FEF3D4A
:108AD000FF9FF79E8430B596FFBFFF9FFF9FFF9FCC
:108AE000FF9FFF9FFFBFFF9FFF9FFFBFFF9FFF9F56
:108AF000FF9FFFBFEF5D7BCE84106B4D73AE8C711B
:108B0000E73CFFBFFF9FFF9FFF9FFF9FFF9FFF9FD0
:108B1000FF9FFF9FFF9FFF9FFF9FFF9FFF9FFF9F65
:108B2000FF9FFF9FFF9FFF9FFFBFFF9FFF9FF69A43
:108B3000F5F7F5F7F5F7F5F7F5F7F5F7F5F7F5F7D5
:108B4000F5F7F5F787FF87FF87FF87FF87FF87FF29
:108B500087FF87FF87FF87FF87FF87FF87FF87FFE5
:108B600087FF87FF87FF87FF87FF87FF87FF87FFD5
:108B700087FF87FF87FF87FF87FF87FFF5F7F5F7F9
:108B8000F5F7F5F7F6DBFFBFFF9FFF9FFF9FFFBFE6
:108B9000FFBFFFBFFF9FFFBFFF9FFF9FFF9FFFBF65
:108BA000FF9FFFBFFF9FFF9FFF9FFFBFFF9FFFBF75
:108BB000FF9FFFBFFF9FFFBFFFBFFFBFFFBFFFBF05
:108BC00073AEFFDFFFBFFF9FFFBFFF9FFFBF9CD3C1
:108BD0008C31FFBFFFBFB5B6FFDFFFBFFFBFFF9FF9
:108BE000FFBFFF9FFFBFFF9FFFBFFFBFFFBFFF9FF5
:108BF000FF9FFF9FFFBFAD75EF5DFFBFF77EDEBB41
:108C0000EF5DFFBFFF9FFFBFFF9FFFBFFFBFFFBF26
:108C1000FFBFFFBFFF9FFF9FFF9FFFBFFFBFFF9FE4
:108C2000FFBFFF9FFF9FFFBFFFBFFF9FFFBFF65923
:108C3000F5F7F5F7F5F7F5F7F5F7F5F7F5F7F5F7D4
:108C4000F5F7F5F787FF87FF87FF87FF87FF87FF28
:108C500087FF87FF87FF87FF87FF87FF87FF87FFE4
:108C600087FF87FF87FF87FF87FF87FF87FF87FFD4
:108C700087FF87FF87FF87FF87FF87FFF5F7F5F7F8
:108C8000F5F7F5F7FEFCFF9FFFBFFF9FFFBFFFBF9C
:108C9000FF9FFF9FFF9FFF9FFF9FFF9FFFBFFF9FC4
:108CA000FF9FFFBFFFBFFF9FFFBFFF9FFF9FFFBF54
:108CB000FFBFFF9FFFBFFF9FFF9FFFBFFF9FFFBF44
:108CC0008430FFBFFF9FFF9FFF9FFF9FFFBFB596B1
:108CD0008410FFDFFFBFFFBFFF9FFFBFFF9FFF9F0E
:108CE000FFBFFF9FFF9FFFBFFF9FFF9FFFBFFF9F34
:108CF000FF9FFFBFFF9FFFBFFFBFFF9FFFBFFFBFE4
:108D0000FFBFFF9FFF9FFF9FFFBFFF9FFFBFFF9F13
:108D1000FF9FFFBFFF9FFF9FFFBFFF9FFF9FFFBF03
:108D2000FF9FFF9FFFBFFF9FFF9FFFBFFF9FF63982
:108D3000F5F7F5F7F5F7F5F7F5F7F5F7F5F7F5F7D3
:108D4000F5F7F5F787FF87FF87FF87FF87FF87FF27
:108D500087FF87FF87FF87FF87FF87FF87FF87FFE3
:108D600087FF87FF87FF87FF87FF87FF87FF87FFD3
:108D700087FF87FF87FF87FF87FF87FFF5F7F5F7F7
:108D8000F5F7F5F7FF3DFF9FFFBFFF9FFF9FFF9F99
:108D9000FF9FFF9FFF9FFF9FFF9FFF9FFF9FFF9FE3
:108DA000FF9FFFBFFF9FFF9FFF9FFF9FFF9FFF9FB3
:108DB000FF9FFF9FFF9FFF9FFF9FFF9FFF9FFF9FC3
:108DC00094B2E6FCFF9FFF9FFF9FFF9FFF9FB5961A
:108DD0008410FFBFFFBFFF9FFF9FFF9FFFBFFF9F4D
:108DE000FFBFFF9FFF9FFF9FFF9FFF9FFF9FFF9F73
:108DF000FF9FFFBFFFBFFFBFFFBFFFBFFF9FFF9FE3
:108E0000FF9FFF9FFF9FFF9FFF9FFF9FFF9FFF9F72
:108E1000FF9FFFBFFF9FFF9FFF9FFF9FFF9FFF9F42
:108E2000FF9FFF9FFF9FFFBFFF9FFF9FFF9FF618C2
:108E3000F5F7F5F7F5F7F5F7F5F7F5F7F5F7F5F7D2
:108E4000F5F7F5F787FF87FF87FF87FF87FF87FF26
:108E500087FF87FF87FF87FF87FF87FF87FF87FFE2
:108E600087FF87FF87FF87FF87FF87FF87FF87FFD2
:108E700087FF87FF87FF87FF87FF87FFF5F7F5F7F6
:108E8000F5F7F5F7FF5EFFBFFF9FFF9FFFBFFFBF37
:108E9000FFBFFFBFFF9FFF9FFFBFFFBFFFBFFF9F42
:108EA000FFBFFF9FFF9FFFBFFFBFFF9FFFBFFF9F52
:108EB000FF9FFFBFFFBFFFBFFFBFFF9FFF9FFFBF22
:108EC000CE59B596FFBFFF9FFF9FFFBFEF5D6B6D54
:108ED000A514CE79FFDFFFBFFFBFFFBFFF9FFFBF1E
:108EE000FF9FFF9FFFBFFF9FFF9FFFBFFF9FFFBF32
:108EF000FFBFFFBFC6185AEB630C8C71FFBFFFBFEB
:108F0000FFBFFF9FFFBFFF9FFF9FFFBFFFBFFF9FF1
:108F1000FFBFFF9FFF9FFFBFFFBFFF9FFFBFFF9FE1
:108F2000FF9FFFBFFFBFFFBFFFBFFF9FFF9FF5F783
:108F3000F5F7F5F7F5F7F5F7F5F7F5F7F5F7F5F7D1
:108F4000F5F7F5F787FF87FF87FF87FF87FF87FF25
:108F500087FF87FF87FF87FF87FF87FF87FF87FFE1
:108F600087FF87FF87FF87FF87FF87FF87FF87FFD1
:108F700087FF87FF87FF87FF87FF87FFF5F7F5F7F5
:108F8000F5F7F5F7FF7EFFBFFF9FFF9FFF9FFF9F56
:108F9000FF9FFF9FFF9FFF9FFF9FFF9FFF9FFF9FE1
:108FA000FF9FFF9FFFBFFF9FFF9FFF9FFFBFFF9F91
:108FB000FF9FFF9FFF9FFF9FFF9FFF9FFF9FFF9FC1
:108FC000FFBF9492FFBFFF9FFF9FFFBFC5F8632CB9
:108FD000F77EE71CAD75C5F8FF9FFF9FFF9FFFBFA2
:108FE000FF9FFFBFFF9FFF9FFF9FFF9FFFBFC61811
:108FF000528A5AEBE71CF77EEF3DF77EFFBFFF9FDB
:10900000FF9FFF9FFF9FFF9FFFBFFF9FFFBFFF9F30
:10901000FF9FFF9FFF9FFF9FFF9FFF9FFF9FFF9F60
:10902000FF9FFFBFFF9FFF9FFF9FFFBFFF5EF5F703
:10903000F5F7F5F7F5F7F5F7F5F7F5F7F5F7F5F7D0
:10904000F5F7F5F787FF87FF87FF87FF87FF87FF24
:1090500087FF87FF87FF87FF87FF87FF87FF87FFE0
:1090600087FF87FF87FF87FF87FF87FF87FF87FFD0
:1090700087FF87FF87FF87FF87FF87FFF5F7F5F7F4
:10908000F5F7F5F7FF9FFFBFFF9FFFBFFF9FFF9F14
:10909000FF9FFF9FFF9FFF9FFF9FFF9FFF9FFF9FE0
:1090A000FFBFFF9FFF9FFF9FFF9FFF9FFFBFFF9F90
:1090B000FF9FFF9FFF9FFF9FFFBFFF9FFF9FFF9FA0
:1090C000FFBFCE39FFDFFFBFFF9FFF9FEF5DF77E42
:1090D000FFBFFFDFBDD794B29CF3B5B6FFBFFFBFA4
:1090E000FF9FFFBFFF9FFF9FFF9FFFBFFFBF8C71D1
:1090F000F77EC618FFDFFFBFFFBFFF9FFFBFFF9FC9
:10910000FF9FFFBFFFBFFF9FFF9FFF9FFF9FFF9F2F
:10911000FFBFFF9FFF9FFF9FFF9FFF9FFFBFFF9F1F
:10912000FF9FFF9FFF9FFF9FFF9FFFBFFF3DF5F743
:10913000F5F7F5F7F5F7F5F7F5F7F5F7F5F7F5F7CF
:10914000F5F7F5F787FF87FF87FF87FF87FF87FF23
:1091500087FF87FF87FF87FF87FF87FF87FF87FFDF
:1091600087FF87FF87FF87FF87FF87FF87FF87FFCF
:1091700087FF87FF87FF87FF87FF87FFF5F7F5F7F3
:10918000F5F7F618FFBFFFBFFFBFFFBFFF9FFF9FB1
:10919000FFBFFFBFFF9FFFBFFF9FFFBFFF9FFFBF3F
:1091A000FF9FFFBFFF9FFFBFFFBFFFBFFFBFFFBF0F
:1091B000FFBFFFBFFF9FFFBFFFBFFFBFFF9FFFBFFF
:1091C000FFBFFFBFFFBFFF9FFFBFFF9FFFBFFFBFEF
:1091D000FFBFE6FC9CD3A514FFDFFFDFFFBFFF9FAF
:1091E000FFBFFFBFFFBFFFBFFFBFFFBFEF1DAD76DC
:1091F000FFBFFFBFFFBFFFBFFF9FFFBFFF9FFFBFBF
:10920000FFBFFFBFFF9FFFBFFFBFFFBFFF9FFFBFAE
:10921000FFBFFFBFFF9FFFBFFFBFFFBFFFBFFFBF7E
:10922000FFBFFF9FFFBFFFBFFFBFFF9FFF1CF5F703
:10923000F5F7F5F7F5F7F5F7F5F7F5F7F5F7F5F7CE
:10924000F5F7F5F787FF87FF87FF87FF87FF87FF22
:1092500087FF87FF87FF87FF87FF87FF87FF87FFDE
:1092600087FF87FF87FF87FF87FF87FF87FF87FFCE
:1092700087FF87FF87FF87FF87FF87FFF5F7F5F7F2
:10928000F5F7F639FF9FFF9FFFBFFF9FFF9FFF9FEF
:10929000FF9FFF9FFF9FFF9FFF9FFF9FFFBFFF9FBE
:1092A000FF9FFF9FFF9FFF9FFFBFFF9FFF9FFFBF8E
:1092B000FF9FFF9FFFBFFF9FFF9FFFBFFF9FFF9F7E
:1092C000FFBFFF9FFF9FFF9FFF9FFFBFFF9FFF9F6E
:1092D000FF9FFFBFDEBB8C9194B2DEFCFF9FFF9F20
:1092E000FFBFFF9FFF9FFFBFE73D7BCFCE5984109D
:1092F000FFBFFFBFFFBFFF9FFFBFFF9FFF9FFF9FFE
:10930000FFBFFF9FFF9FFF9FFF9FFF9FFF9FFF9F4D
:10931000FF9FFFBFFF9FFF9FFFBFFF9FFF9FFFBFFD
:10932000FF9FFF9FFFBFFF9FFF9FFFBFFEFCF5F763
:10933000F5F7F5F7F5F7F5F7F5F7F5F7F5F7F5F7CD
:10934000F5F7F5F787FF87FF87FF87FF87FF87FF21
:1093500087FF87FF87FF87FF87FF87FF87FF87FFDD
:1093600087FF87FF87FF87FF87FF87FF87FF87FFCD
:1093700087FF87FF87FF87FF87FF87FFF5F7F5F7F1
:10938000F5F7F679FFBFFF9FFFBFFF9FFF9FFFBF6E
:10939000FFBFFF9FFF9FFF9FFF9FFF9FFF9FFF9FBD
:1093A000FF9FFFBFFF9FFF9FFFBFFF9FFF9FFFBF6D
:1093B000FF9FFF9FFFBFFF9FFF9FFF9FFF9FFF9F9D
:1093C000FFBFFF9FFF9FFF9FFFBFD6BAF79EFF9F84
:1093D000FF9FD69AFFBFEF3DFFBFFFBFFF9FFF9FDD
:1093E000FFBFFF9FFFBFC6187BCF4A494A494A4982
:1093F000632C9CF3F75EFF9FFF9FFFBFFFBFFFBF84
:10940000FFBFFF9FFF9FFFBFFF9FFF9FFFBFFF9F0C
:10941000FF9FFFBFFF9FFF9FFFBFFF9FFF9FFFBFFC
:10942000FF9FFF9FFFBFFF9FFF9FFF9FF6DBF5F7AB
:10943000F5F7F5F7F5F7F5F7F5F7F5F7F5F7F5F7CC
:10944000F5F7F5F787FF87FF87FF87FF87FF87FF20
:1094500087FF87FF87FF87FF87FF87FF87FF87FFDC
:1094600087FF87FF87FF87FF87FF87FF87FF87FFCC
:1094700087FF87FF87FF87FF87FF87FFF5F7F5F7F0
:10948000F5F7F69AFF9FFFBFFF9FFF9FFF9FFFBF6C
:10949000FFBFFF9FFF9FFF9FFF9FFFBFFF9FFF9F9C
:1094A000FF9FFF9FFF9FFFBFFF9FFF9FFFBFFFBF6C
:1094B000FF9FFF9FFF9FFF9FFFBFFF9FFF9FFFBF7C
:1094C000FFBFFFBFFF9FFF9FFFBF7BCFCE59FFBFF7
:1094D000CE3952AAFFDFFF9FFFBFFF9FFF9FFFBF55
:1094E000FF9FFF9FFFBFF77EC6389492BDD78C5178
:1094F000738EA514F77EFFBFF77EA514E6FCFFBFB1
:10950000FFBFFF9FFF9FFFBFFF9FFF9FFFBFFF9F0B
:10951000FFBFFF9FFF9FFFBFFFBFFFBFFFBFFF9FBB
:10952000FF9FFFBFFFBFFFBFFFBFFF9FF69AF5F78B
:10953000F5F7F5F7F5F7F5F7F5F7F5F7F5F7F5F7CB
:10954000F5F7F5F787FF87FF87FF87FF87FF87FF1F
:1095500087FF87FF87FF87FF87FF87FF87FF87FFDB
:1095600087FF87FF87FF87FF87FF87FF87FF87FFCB
:1095700087FF87FF87FF87FF87FF87FFF5F7F5F7EF
:10958000F5F7F6DBFF9FFF9FFF9FFF9FFFBFFF9F4A
:10959000FF9FFF9FFF9FFF9FFFBFFF9FFF9FFF9FBB
:1095A000FF9FFF9FFFBFFF9FFF9FFF9FFFBFFF9F8B
:1095B000FFBFFFBFFF9FFF9FFFBFFF9FFF9FFFBF3B
:1095C000FF9FFFBFFFBFFF9FF77E528AB596FFBF89
:1095D00094B29CF3FFBFFFBFFF9FFF9FFF9FFF9FC2
:1095E000FF9FFF9FFF9FFF9FFFBFF79EFF9FFFBF54
:1095F000FFBFFFBFFF9FFFBFB596C618FFBFFF9F0E
:10960000FFBFFF9FFF9FFF9FFFBFFF9FFF9FFF9F2A
:10961000FF9FFF9FFF9FFF9FFF9FFF9FFF9FFF9F5A
:10962000FF9FFFBFFF9FFF9FFFBFFF9FF679F5F7EB
:10963000F5F7F5F7F5F7F5F7F5F7F5F7F5F7F5F7CA
:10964000F5F7F5F787FF87FF87FF87FF87FF87FF1E
:1096500087FF87FF87FF87FF87FF87FF87FF87FFDA
:1096600087FF87FF87FF87FF87FF87FF87FF87FFCA
:1096700087FF87FF87FF87FF87FF87FFF5F7F5F7EE
:10968000F5F7FEFCFF9FFFBFFFBFFF9FFF9FFF9F00
:10969000FF9FFFBFFFBFFF9FFF9FFF9FFFBFFFBF5A
:1096A000FFBFFF9FFF9FFF9FFF9FFF9FFFBFFF9F8A
:1096B000FFBFFF9FFF9FFF9FFFBFFFBFFFBFFFBF1A
:1096C000FFDFA534BDD7FFDFEF3D4A49BDD7FFBF60
:1096D000F79FFFDFFF9FFF9FFF9FFFBFFF9FFFBF22
:1096E000FF9FFF9FFF9FFF9FFFBFFFBFFFBFFF9F2A
:1096F000FF9FFF9FFF9FFFBFFFBFFF9FFF9FFF9F3A
:10970000FF9FFF9FFFBFFF9FFF9FFF9FFFBFFF9F29
:10971000FFBFFF9FFF9FFF9FFF9FFF9FFFBFFFBFF9
:10972000FF9FFF9FFFBFFF9FFF9FFFBFF639F5F72A
:10973000F5F7F5F7F5F7F5F7F5F7F5F7F5F7F5F7C9
:10974000F5F7F5F787FF87FF87FF87FF87FF87FF1D
:1097500087FF87FF87FF87FF87FF87FF87FF87FFD9
:1097600087FF87FF87FF87FF87FF87FF87FF87FFC9
:1097700087FF87FF87FF87FF87FF87FFF5F7F5F7ED
:10978000F5F7FF1DFFBFFF9FFFBFFFBFFFBFFF9F9D
:10979000FFBFFFBFFF9FFFBFFFBFFFBFFFBFFFBFF9
:1097A000FF9FFFBFFFBFFFBFFFBFFFBFFF9FFFBF09
:1097B000FFBFFFBFFFBFFFBFFF9FFFBFCE595ACB09
:1097C0005ACB4A696B4DAD35AD554A49A514AD75B7
:1097D000B596C618FF9EFF9FFFBFFF9FFF9FFF9F8D
:1097E000FFBFFF9FFFBFFF9FFF9FFF9FFFBFFF9F29
:1097F000FFBFFF9FFFBFFFBFFF9FFFBFFFBFFFBFB9
:10980000FFBFFFBFFF9FFFBFFF9FFFBFFF9FFF9FE8
:10981000FF9FFFBFFF9FFFBFFF9FFFBFFFBFFFBFB8
:10982000FFBFFFBFFFBFFFBFFFBFFF9FF618F5F7EA
:10983000F5F7F5F7F5F7F5F7F5F7F5F7F5F7F5F7C8
:10984000F5F7F5F787FF87FF87FF87FF87FF87FF1C
:1098500087FF87FF87FF87FF87FF87FF87FF87FFD8
:1098600087FF87FF87FF87FF87FF87FF87FF87FFC8
:1098700087FF87FF87FF87FF87FF87FFF5F7F5F7EC
:10988000F5F7FF3DFF9FFF9FFF9FFF9FFF9FFF9FFC
:10989000FF9FFF9FFF9FFF9FFF9FFF9FFFBFFF9FB8
:1098A000FF9FFFBFFF9FFF9FFF9FFFBFFF9FFF9F88
:1098B000FF9FFF9FFF9FFFBFFF9FFF9FFFBFD67AC6
:1098C000C63852AA5AEB630C5ACB4A694A494A69CC
:1098D00052AA4A69AD55FFBFFF9FFF9FFF9FFF9FA1
:1098E000FFBFFF9FFF9FFF9FFF9FFF9FFF9FFF9F68
:1098F000FF9FFF9FFFBFFF9FFF9FFF9FFFBFB5B76A
:10990000FFBFFFBFFF9FFF9FFF9FFF9FFF9FFF9F27
:10991000FF9FFF9FFF9FFF9FFF9FFFBFFF9FFF9F37
:10992000FF9FFF9FFF9FFFBFFF9FFF9FF5F7F5F78B
:10993000F5F7F5F7F5F7F5F7F5F7F5F7F5F7F5F7C7
:10994000F5F7F5F787FF87FF87FF87FF87FF87FF1B
:1099500087FF87FF87FF87FF87FF87FF87FF87FFD7
:1099600087FF87FF87FF87FF87FF87FF87FF87FFC7
:1099700087FF87FF87FF87FF87FF87FFF5F7F5F7EB
:10998000F5F7FF7EFF9FFF9FFFBFFF9FFFBFFFBF5A
:10999000FF9FFF9FFFBFFF9FFFBFFFBFFFBFFF9F57
:1099A000FF9FFFBFFF9FFFBFFFBFFF9FFF9FFFBF47
:1099B000FF9FFF9FFFBFFF9FFF9FFFBFFF9FFFBF57
:1099C000FFBF4A69CE79FFBFEF5D4A69EF3DF77E81
:1099D000E71CDEFBEF1CFFBFFF9FFFBFFF9FFF9F4A
:1099E000FFBFFF9FFF9FFFBFFF9FFF9FFFBFFF9F27
:1099F000FF9FFFBFFF9FFF9FFFBFFFBFDEFC52CB5C
:109A0000DEDBFF9FFF9FFFBFFF9FFF9FFFBFFF9F0B
:109A1000FF9FFFBFFFBFFF9FFFBFFF9FFF9FFFBFD6
:109A2000FF9FFF9FFFBFFF9FFF9FFF7EF5F7F5F7AB
:109A3000F5F7F5F7F5F7F5F7F5F7F5F7F5F7F5F7C6
:109A4000F5F7F5F787FF87FF87FF87FF87FF87FF1A
:109A500087FF87FF87FF87FF87FF87FF87FF87FFD6
:109A600087FF87FF87FF87FF87FF87FF87FF87FFC6
:109A700087FF87FF87FF87FF87FF87FFF5F7F5F7EA
:109A8000F5F7FF9FFF9FFFBFFF9FFF9FFF9FFF9F78
:109A9000FF9FFFBFFF9FFF9FFF9FFFBFFF9FFF9F96
:109AA000FF9FFFBFFF9FFF9FFF9FFF9FFFBFFF9F86
:109AB000FF9FFF9FFF9FFF9FFF9FFF9FFF9FFF9FB6
:109AC000F79EE73CFFBFFF9FDEBB4A49E71CFFBF95
:109AD00073AE7BEFE6FCFFBFFFBFFF9FFF9FFF9FC3
:109AE000FF9FFF9FFF9FFF9FFFBFFF9FFF9FFFBF46
:109AF000FFBFF79EC618FFBFDEDBA514AD55CE59DC
:109B0000F79EFF9FFF9FFFBFFF9FFFBFFFBFFF9F0E
:109B1000FFBFFF9FFF9FFF9FFF9FFF9FFFBFFF9F15
:109B2000FF9FFF9FFFBFFF9FFF9FFF3EF5F7F5F7EA
:109B3000F5F7F5F7F5F7F5F7F5F7F5F7F5F7F5F7C5
:109B4000F5F7F5F787FF87FF87FF87FF87FF87FF19
:109B500087FF87FF87FF87FF87FF87FF87FF87FFD5
:109B600087FF87FF87FF87FF87FF87FF87FF87FFC5
:109B700087FF87FF87FF87FF87FF87FFF5F7F5F7E9
:109B8000F618FF9FFF9FFFBFFF9FFF9FFFBFFF9F35
:109B9000FF9FFFBFFF9FFF9FFFBFFF9FFFBFFFBF55
:109BA000FF9FFF9FFF9FFF9FFF9FFF9FFFBFFF9FA5
:109BB000FF9FFF9FFF9FFF9FFFBFFF9FFF9FFFBF75
:109BC000FF9FFF9FFFDFF79FD6BA630CDEDBFFBF6F
:109BD000E71C7BEF8430F79EFF9FFF9FFF9FFFBF37
:109BE000FF9FFF9FFFBFFFBFFFBFFFBFFF9FDEDBEA
:109BF00084104A6973AEEF7DFF9FFF9FFFBFFF9FF9
:109C0000FFBFFF9FFF9FFF9FFFBFFFBFFF9FFF9F04
:109C1000FFBFFFBFFF9FFF9FFF9FFF9FFFBFFF9FF4
:109C2000FF9FFFBFFF9FFF9FFF9FFF1DF5F7F5F70A
:109C3000F5F7F5F7F5F7F5F7F5F7F5F7F5F7F5F7C4
:109C4000F5F7F5F787FF87FF87FF87FF87FF87FF18
:109C500087FF87FF87FF87FF87FF87FF87FF87FFD4
:109C600087FF87FF87FF87FF87FF87FF87FF87FFC4
:109C700087FF87FF87FF87FF87FF87FFF5F7F5F7E8
:109C8000F639FFBFFF9FFF9FFF9FFF9FFF9FFF9F33
:109C9000FF9FFF9FFFBFFF9FFF9FFF9FFF9FFF9FB4
:109CA000FFBFFF9FFF9FFF9FFFBFFF9FFFBFFF9F64
:109CB000FF9FFF9FFFBFFF9FFF9FFF9FFF9FFF9F94
:109CC000FF9FFFBF94B27BCFF79EF79EFFBFFFBF02
:109CD000F79EFFDFFFBFFFBFFF9FFF9FFF9FFFBFFD
:109CE000FF9FFF9FFF9FFFBFFFBFFFBFFFBFA514E9
:109CF0007BEFC618EF5DF77EFFBFFF9FFFBFFFBF83
:109D0000FFBFFF9FFFBFFF9FFFBFFF9FFF9FFF9F03
:109D1000FFBFFF9FFF9FFF9FFF9FFF9FFFBFFFBFF3
:109D2000FF9FFF9FFF9FFF9FFF9FFEFCF5F7F5F74B
:109D3000F5F7F5F7F5F7F5F7F5F7F5F7F5F7F5F7C3
:109D4000F5F7F5F787FF87FF87FF87FF87FF87FF17
:109D500087FF87FF87FF87FF87FF87FF87FF87FFD3
:109D600087FF87FF87FF87FF87FF87FF87FF87FFC3
:109D700087FF87FF87FF87FF87FF87FFF5F7F5F7E7
:109D8000F679FF9FFF9FFF9FFF9FFFBFFFBFFF9FD2
:109D9000FF9FFF9FFF9FFFBFFFBFFFBFFF9FFF9F73
:109DA000FF9FFFBFFFBFFFBFFF9FFF9FFF9FFF9F63
:109DB000FFBFFFBFFF9FFF9FFF9FFF9FFF9FFFBF53
:109DC000FFBFF77D84106B6DFFBFDEDB4A696B6DF3
:109DD000738EF77EFFBFFFBFFFBFFF9FFF9FFF9FF9
:109DE000FF9FFF9FFFBFFF9FFFBF8C71BDF77BEF02
:109DF000843084107BEF7BCFFFBFFFBFEF7D6B6DA7
:109E0000FF9EFF9FFF9FFFBFFFBFFFBFFF9FFF9F03
:109E1000FF9FFFBFFFBFFFBFFF9FFF9FFF9FFF9FF2
:109E2000FF9FFFBFFF9FFF9FFF9FF6BBF5F7F5F773
:109E3000F5F7F5F7F5F7F5F7F5F7F5F7F5F7F5F7C2
:109E4000F5F7F5F787FF87FF87FF87FF87FF87FF16
:109E500087FF87FF87FF87FF87FF87FF87FF87FFD2
:109E600087FF87FF87FF87FF87FF87FF87FF87FFC2
:109E700087FF87FF87FF87FF87FF87FFF5F7F5F7E6
:109E8000F69AFF9FFFBFFFBFFF9FFF9FFF9FFF9FB0
:109E9000FFBFFF9FFF9FFF9FFF9FFF9FFF9FFFBF92
:109EA000FF9FFF9FFF9FFF9FFF9FFFBFFF9FFF9FA2
:109EB000FF9FFF9FFF9FFFBFFFBFFF9FFF9FFF9F72
:109EC000FFBF630C4A6952AAB5B6EF5DAD557BEF93
:109ED0004A494A69B596FF9FFF9FFF9FFFBFFF9FBB
:109EE000FFBFFF9FFF9FFF9FFFBF5ACBBDF74A6990
:109EF0009492C618528ADEBBFFBFFFBFBDF7841025
:109F0000FFBFFFBFFF9FFF9FFF9FFF9FFF9FFFBF01
:109F1000FF9FFFBFFF9FFF9FFF9FFFBFFFBFFF9FF1
:109F2000FF9FFF9FFF9FFFBFFFBFF69AF5F7F5F773
:109F3000F5F7F5F7F5F7F5F7F5F7F5F7F5F7F5F7C1
:109F4000F5F7F5F787FF87FF87FF87FF87FF87FF15
:109F500087FF87FF87FF87FF87FF87FF87FF87FFD1
:109F600087FF87FF87FF87FF87FF87FF87FF87FFC1
:109F700087FF87FF87FF87FF87FF87FFF5F7F5F7E5
:109F8000F6BBFFBFFF9FFF9FFFBFFF9FFFBFFFBF4E
:109F9000FF9FFF9FFFBFFF9FFFBFFFBFFFBFFF9F51
:109FA000FF9FFF9FFFBFFF9FFFBFFF9FFF9FFFBF61
:109FB000FFBFFFBFFFBFFF9FFF9FFFBFFF9FFFBF11
:109FC000FFBFF77E94B24A495ACB5AEB7BCF738ED0
:109FD0005AEBA534DEBBFFBFFFBFFFBFFF9FFF9F54
:109FE000FFBFFF9FFF9FFFBFF75E52AA84304A4921
:109FF000DEFBB5B65ACBFFDF9CD35AEB6B4DB59663
:10A00000FFBFFF9FFF9FFFBFFFBFFF9FFFBFFF9FE0
:10A01000FF9FFFBFFFBFFF9FFFBFFF9FFF9FFFBFD0
:10A02000FF9FFFBFFFBFFF9FFF9FF679F5F7F5F793
:10A03000F5F7F5F7F5F7F5F7F5F7F5F7F5F7F5F7C0
:10A04000F5F7F5F787FF87FF87FF87FF87FF87FF14
:10A0500087FF87FF87FF87FF87FF87FF87FF87FFD0
:10A0600087FF87FF87FF87FF87FF87FF87FF87FFC0
:10A0700087FF87FF87FF87FF87FF87FFF5F7F5F7E4
:10A08000FEDCFF9FFF9FFF9FFF9FFF9FFF9FFF9FA4
:10A09000FF9FFF9FFF9FFF9FFF9FFF9FFF9FFF9FD0
:10A0A000FF9FFF9FFF9FFF9FFF9FFF9FFF9FFF9FC0
:10A0B000FF9FFF9FFF9FFF9FFF9FFF9FFF9FFF9FB0
:10A0C000FF9FFFBFCE794A69EF7DCE59CE59738E7F
:10A0D000D67AFFBFFFBFFF9FFF9FFF9FFF9FFF9F9E
:10A0E000FF9FFF9FFF9FFF9FF79E5ACBDEFB630CF6
:10A0F000FFDF73AE8C71EF5D5B0BDEDB5AEBA534DB
:10A10000FFBFFF9FFF9FFF9FFF9FFF9FFFBFFF9F1F
:10A11000FFBFFFBFFF9FFF9FFF9FFF9FFF9FFF9F0F
:10A12000FF9FFF9FFF9FFF9FFF9FF659F5F7F5F7F2
:10A13000F5F7F5F7F5F7F5F7F5F7F5F7F5F7F5F7BF
:10A14000F5F7F5F787FF87FF87FF87FF87FF87FF13
:10A1500087FF87FF87FF87FF87FF87FF87FF87FFCF
:10A1600087FF87FF87FF87FF87FF87FF87FF87FFBF
:10A1700087FF87FF87FF87FF87FF87FFF5F7F5F7E3
:10A18000FF1CFF9FFF9FFFBFFF9FFF9FFFBFFF9F22
:10A19000FF9FFFBFFF9FFF9FFFBFFF9FFFBFFFBF4F
:10A1A000FFBFFF9FFF9FFFBFFFBFFF9FFFBFFF9F3F
:10A1B000FF9FFFBFFFBFFF9FFFBFFF9FFF9FFFBF2F
:10A1C000FF9FFFBFF77EC618FFBFFFBFFF9FFFDFE8
:10A1D000BDD79CD3AD35EF5DFF9FFFBFFFBFFFBF76
:10A1E000FF9FFF9FFFBFFFBFFFDF630CCE59738E42
:10A1F000FFDFB596DEBBCE594A49C618D6BA52AA79
:10A20000D6BAFFBFFFBFFF9FFF9FFFBFFFBFFF9FEC
:10A21000FFBFFF9FFF9FFFBFFFBFFF9FFFBFFF9FCE
:10A22000FF9FFFBFFFBFFFBFFFBFF638F5F7F5F792
:10A23000F5F7F5F7F5F7F5F7F5F7F5F7F5F7F5F7BE
:10A24000F5F7F5F787FF87FF87FF87FF87FF87FF12
:10A2500087FF87FF87FF87FF87FF87FF87FF87FFCE
:10A2600087FF87FF87FF87FF87FF87FF87FF87FFBE
:10A2700087FF87FF87FF87FF87FF87FFF5F7F5F7E2
:10A28000FF3DFFBFFF9FFF9FFFBFFF9FFF9FFF9F00
:10A29000FF9FFF9FFFBFFF9FFF9FFF9FFF9FFF9FAE
:10A2A000FFBFFF9FFFBFFF9FFF9FFF9FFFBFFF9F5E
:10A2B000FF9FFF9FFF9FFF9FFF9FFF9FFF9FFF9FAE
:10A2C000FFBFFF9FFF9FFFBFFF9FFF9FFF9FFFDF1E
:10A2D0008410F79EAD75FFDFFF9FFF9FFF9FFFBFBD
:10A2E000EF5DAD55D67AFFBFFFBF738EFFDFF7BEC0
:10A2F000FFBFB5B67BEFEF5DC618B596FFBFAD35B6
:10A300008410FFBFFFBFFF9FFFBFFF9FFF9FFF9F07
:10A31000FFBFFF9FFFBFFF9FFFBFFF9FFF9FFFBFCD
:10A32000FF9FFF9FFF9FFF9FFF9FF5F7F5F7F5F753
:10A33000F5F7F5F7F5F7F5F7F5F7F5F7F5F7F5F7BD
:10A34000F5F7F5F787FF87FF87FF87FF87FF87FF11
:10A3500087FF87FF87FF87FF87FF87FF87FF87FFCD
:10A3600087FF87FF87FF87FF87FF87FF87FF87FFBD
:10A3700087FF87FF87FF87FF87FF87FFF5F7F5F7E1
:10A38000FF5EFF9FFF9FFFBFFF9FFFBFFFBFFF9FBE
:10A39000FF9FFFBFFF9FFF9FFF9FFFBFFF9FFF9F8D
:10A3A000FF9FFF9FFF9FFF9FFF9FFF9FFFBFFFBF7D
:10A3B000FFBFFF9FFF9FFF9FFFBFFF9FFF9FFF9F6D
:10A3C000FF9FFF9FFFBFFF9FFF9FFF9FFF9FFFBF5D
:10A3D00094B2FFDFCE79B596FFBFFF9FFF9FFF9F2F
:10A3E000F79E4A49B596FF9FFFBF6B6DFFDF7BEF7E
:10A3F000BDD7FFBFDEBBF75EFF9FFFBFFFBFFFBF45
:10A40000FFBFFFBFFF9FFFBFFFBFFF9FFF9FFFBFBC
:10A41000FFBFFF9FFF9FFF9FFF9FFF9FFFBFFF9F0C
:10A42000FFBFFF9FFF9FFF9FFF7EF5F7F5F7F5F753
:10A43000F5F7F5F7F5F7F5F7F5F7F5F7F5F7F5F7BC
:10A44000F5F7F5F787FF87FF87FF87FF87FF87FF10
:10A4500087FF87FF87FF87FF87FF87FF87FF87FFCC
:10A4600087FF87FF87FF87FF87FF87FF87FF87FFBC
:10A4700087FF87FF87FF87FF87FF87FFF5F7F5F7E0
:10A48000FF9FFF9FFFBFFF9FFFBFFF9FFF9FFF9F9C
:10A49000FFBFFFBFFF9FFFBFFF9FFFBFFFBFFFBF0C
:10A4A000FF9FFFBFFF9FFF9FFF9FFFBFFF9FFFBF5C
:10A4B000FF9FFF9FFF9FFFBFFFBFFFBFFF9FFF9F4C
:10A4C000FFBFFFBFFF9FFF9FFFBFFF9FD69AF7BE53
:10A4D000BDF7B576A514BDB7FFBFFFBFFFBFFF9F98
:10A4E000DEFB4A499492FFBFFFBFE73CFFBFF79EE8
:10A4F0008410EF3DFFBFFFBFFF9FFFBFFF9FFFBF68
:10A50000FFBFFFBFFF9FFFBFFF9FFFBFFFBFFFBF9B
:10A51000FF9FFFBFFF9FFF9FFF9FFFBFFFBFFFBFCB
:10A52000FFBFFF9FFF9FFFBFFF5EF5F8F5F7F5F751
:10A53000F5F7F5F7F5F7F5F7F5F7F5F7F5F7F5F7BB
:10A54000F5F7F5F787FF87FF87FF87FF87FF87FF0F
:10A5500087FF87FF87FF87FF87FF87FF87FF87FFCB
:10A5600087FF87FF87FF87FF87FF87FF87FF87FFBB
:10A5700087FF87FF87FF87FF87FF87FFF5F7F618BD
:10A58000FFBFFFBFFF9FFF9FFFBFFF9FFFBFFFBF3B
:10A59000FF9FFF9FFF9FFF9FFFBFFFBFFFBFFF9F6B
:10A5A000FF9FFF9FFFBFFF9FFFBFFF9FFF9FFFBF5B
:10A5B000FFBFFF9FFFBFFF9FFF9FFFBFFF9FFFBF2B
:10A5C000FFBFFF9FFF9FFF9FFF9FFFBF6B4D6B6E06
:10A5D000E71CF79EEF3DFFDFFF9FFFBFFF9FFFBF21
:10A5E0006B6D4A496B6DEF5DF79EFFBFFFBFFFBF0D
:10A5F000F7BFFFDFFFBFFFBFFFBFFF9FFFBFFFBF73
:10A60000FFBFFF9FFF9FFF9FFFBFFF9FFFBFFF9FFA
:10A61000FF9FFF9FFF9FFF9FFFBFFF9FFF9FFFBF0A
:10A62000FF9FFFBFFFBFFF9FFF1DF5F7F5F7F5F792
:10A63000F5F7F5F7F5F7F5F7F5F7F5F7F5F7F5F7BA
:10A64000F5F7F5F787FF87FF87FF87FF87FF87FF0E
:10A6500087FF87FF87FF87FF87FF87FF87FF87FFCA
:10A6600087FF87FF87FF87FF87FF87FF87FF87FFBA
:10A6700087FF87FF87FF87FF87FF87FFF5F7F6389C
:10A68000FF9FFF9FFF9FFF9FFFBFFF9FFF9FFF9FBA
:10A69000FF9FFF9FFF9FFF9FFF9FFF9FFF9FFF9FCA
:10A6A000FF9FFF9FFF9FFF9FFF9FFF9FFF9FFFBF9A
:10A6B000FF9FFF9FFF9FFF9FFF9FFFBFFF9FFF9F8A
:10A6C000FF9FFFBFFF9FFFBFFFBFFF9FBDD74A494F
:10A6D000B5B6FF9FFFBFFF9FFF9FFF9FFFBFFF9F7D
:10A6E000D69A4A494A494A495ACB7BCF73AE73AE90
:10A6F0008C5194B284309CF3F79EFFBFFF9FFF9F65
:10A70000FF9FFF9FFF9FFFBFFF9FFF9FFF9FFF9F39
:10A71000FF9FFFBFFF9FFF9FFF9FFF9FFF9FFF9F29
:10A72000FF9FFF9FFF9FFF9FFEFCF5F7F5F7F5F7F3
:10A73000F5F7F5F7F5F7F5F7F5F7F5F7F5F7F5F7B9
:10A74000F5F7F5F787FF87FF87FF87FF87FF87FF0D
:10A7500087FF87FF87FF87FF87FF87FF87FF87FFC9
:10A7600087FF87FF87FF87FF87FF87FF87FF87FFB9
:10A7700087FF87FF87FF87FF87FF87FFF5F7F6795A
:10A78000FFBFFF9FFF9FFFBFFF9FFF9FFFBFFF9F79
:10A79000FF9FFFBFFF9FFF9FFF9FFFBFFF9FFFBF69
:10A7A000FFBFFF9FFF9FFFBFFF9FFF9FFFBFFF9F59
:10A7B000FF9FFFBFFFBFFF9FFFBF8C71FFBFFFBFAA
:10A7C0009492AD75FFBFB576FFDFFFBFFFBF7BEF94
:10A7D0007BEFFFBFFF9FFF9FFFBFFF9FFF9FFFBF5D
:10A7E000F79E52AA9492DEDBC618AD759CD3A514D1
:10A7F00094B2841073AE630C73AEBDF8FFBFFFBF9D
:10A80000FFBFFF9FFF9FFFBFFF9FFFBFFF9FFF9FF8
:10A81000FFBFFF9FFF9FFFBFFFBFFF9FFFBFFF9FC8
:10A82000FF9FFFBFFF9FFFBFF6DBF5F7F5F7F5F7DB
:10A83000F5F7F5F7F5F7F5F7F5F7F5F7F5F7F5F7B8
:10A84000F5F7F5F787FF87FF87FF87FF87FF87FF0C
:10A8500087FF87FF87FF87FF87FF87FF87FF87FFC8
:10A8600087FF87FF87FF87FF87FF87FF87FF87FFB8
:10A8700087FF87FF87FF87FF87FF87FFF5F7F69A38
:10A88000FF9FFF9FFF9FFF9FFF9FFF9FFFBFFF9FB8
:10A89000FF9FFF9FFF9FFF9FFF9FFF9FFF9FFF9FC8
:10A8A000FF9FFF9FFFBFFF9FFF9FFF9FFF9FFF9F98
:10A8B000FFBFFF9FFFBFFFBFFFBF5AEBFFBFF79E6A
:10A8C000528A8C51AD555ACB7BEFAD55FFBF8C51A1
:10A8D0007BCFFFBFFF9FFFBFFF9FFFBFFF9FFF9F7C
:10A8E000DEDB4A49AD55FFBFFF9FEF5D7BEFA5342F
:10A8F000A514EF7DFFBFFFBFDEDBF75EFFBFFF9F4D
:10A90000FF9FFF9FFF9FFF9FFFBFFF9FFF9FFF9F37
:10A91000FF9FFF9FFF9FFF9FFF9FFF9FFF9FFF9F47
:10A92000FF9FFF9FFF9FFF9FF6BAF5F7F5F7F5F73B
:10A93000F5F7F5F7F5F7F5F7F5F7F5F7F5F7F5F7B7
:10A94000F5F7F5F787FF87FF87FF87FF87FF87FF0B
:10A9500087FF87FF87FF87FF87FF87FF87FF87FFC7
:10A9600087FF87FF87FF87FF87FF87FF87FF87FFB7
:10A9700087FF87FF87FF87FF87FF87FFF5F7F6BB16
:10A98000FF9FFF9FFF9FFFBFFF9FFF9FFF9FFF9FB7
:10A99000FF9FFF9FFF9FFF9FFF9FFF9FFF9FFF9FC7
:10A9A000FF9FFF9FFF9FFF9FFF9FFF9FFFBFFF9F97
:10A9B000FF9FFF9FFFBFCE59F79E528AFFBFE6FC65
:10A9C000632C9CD34A494A497BCF8410FFBF9492A1
:10A9D0007BCFFFBFFF9FFF9FFF9FFF9FFF9FFFBF9B
:10A9E000D6BA4A49BDF7FF9FFF9FC5F84A6973AEC3
:10A9F000632CAD75FFBFFFBFFFBFFF9FFF9FFF9F92
:10AA0000FF9FFF9FFFBFFF9FFF9FFF9FFF9FFF9F36
:10AA1000FFBFFF9FFF9FFF9FFF9FFF9FFFBFFF9F06
:10AA2000FF9FFF9FFF9FFF9FF67AF5F7F5F7F5F77A
:10AA3000F5F7F5F7F5F7F5F7F5F7F5F7F5F7F5F7B6
:10AA4000F5F7F5F787FF87FF87FF87FF87FF87FF0A
:10AA500087FF87FF87FF87FF87FF87FF87FF87FFC6
:10AA600087FF87FF87FF87FF87FF87FF87FF87FFB6
:10AA700087FF87FF87FF87FF87FF87FFF5F7F6DBF5
:10AA8000FFBFFFBFFFBFFF9FFFBFFFBFFFBFFF9F16
:10AA9000FFBFFFBFFF9FFFBFFF9FFFBFFFBFFFBF06
:10AAA000FF9FFFBFFF9FFFBFFFBFFFBFFF9FFFBF16
:10AAB000FF9FFFBFFFBFDEDB6B2C4A49F79FFFBF45
:10AAC000FFDF9CF3CE595ACBFFDF9CD3F79EA4F453
:10AAD0007BEFFFBFFFBFFF9FFFBFFF9FFFBFFFBF1A
:10AAE000CE394A49CE39FF9FFFBFE71C9492FFBF82
:10AAF000CE598C71FFBFFFBFFF9FFFBFFFBFFFBFDE
:10AB0000FFBFFFBFFF9FFFBFFF9FFFBFFF9FFFBFB5
:10AB1000FF9FFFBFFF9FFFBFFFBFFFBFFFBFFFBF85
:10AB2000FFBFFFBFFF9FFFBFF659F5F7F5F7F5F73A
:10AB3000F5F7F5F7F5F7F5F7F5F7F5F7F5F7F5F7B5
:10AB4000F5F7F5F787FF87FF87FF87FF87FF87FF09
:10AB500087FF87FF87FF87FF87FF87FF87FF87FFC5
:10AB600087FF87FF87FF87FF87FF87FF87FF87FFB5
:10AB700087FF87FF87FF87FF87FF87FFF5F7FF1CAA
:10AB8000FF9FFFBFFF9FFF9FFFBFFF9FFF9FFFBF75
:10AB9000FF9FFF9FFFBFFF9FFF9FFF9FFFBFFF9F85
:10ABA000FF9FFFBFFF9FFF9FFFBFFF9FFF9FFFBF55
:10ABB000FF9FFF9FFFBFFF9FEF5D4A498430E71C67
:10ABC000FFBFB5968C71630C6B4D5AEB73AF5AEBAC
:10ABD0009CD3FFBFFF9FFF9FFF9FFFBFFF9FFF9F74
:10ABE000CE394A49CE59FFBFFF9FFF9FFFBFFFBF2E
:10ABF000BDD7A534FFBFFF9FFF9FFF9FFF9FFF9F14
:10AC0000FF9FFF9FFF9FFF9FFF9FFF9FFFBFFF9F34
:10AC1000FF9FFFBFFF9FFF9FFFBFFF9FFF9FFF9F04
:10AC2000FF9FFF9FFF9FFF9FF638F5F7F5F7F5F7BA
:10AC3000F5F7F5F7F5F7F5F7F5F7F5F7F5F7F5F7B4
:10AC4000F5F7F5F787FF87FF87FF87FF87FF87FF08
:10AC500087FF87FF87FF87FF87FF87FF87FF87FFC4
:10AC600087FF87FF87FF87FF87FF87FF87FF87FFB4
:10AC700087FF87FF87FF87FF87FF87FFF5F7FF3D88
:10AC8000FF9FFFBFFF9FFF9FFFBFFF9FFF9FFFBF74
:10AC9000FFBFFF9FFF9FFF9FFF9FFF9FFF9FFF9FA4
:10ACA000FF9FFFBFFF9FFF9FFF9FFF9FFF9FFFBF74
:10ACB000FF9FFF9FFFBFFF9FFFBF528AA514528ACD
:10ACC0009CD3BDD79CF3E71CCE59D6BA94B2DEBB59
:10ACD000FFBFFF9FFFBFFF9FFF9FFFBFFF9FFF9F24
:10ACE000CE594A49D67AFFBFFF9FFF9FCE398C715C
:10ACF00073AE8430FFBFFF9FFF9FFF9FFF9FFFBF8B
:10AD0000FFBFFF9FFF9FFFBFFF9FFF9FFFBFFF9FF3
:10AD1000FF9FFFBFFF9FFF9FFFBFFF9FFF9FFF9F03
:10AD2000FF9FFF9FFFBFFFBFF5F7F5F7F5F7F5F7BB
:10AD3000F5F7F5F7F5F7F5F7F5F7F5F7F5F7F5F7B3
:10AD4000F5F7F5F787FF87FF87FF87FF87FF87FF07
:10AD500087FF87FF87FF87FF87FF87FF87FF87FFC3
:10AD600087FF87FF87FF87FF87FF87FF87FF87FFB3
:10AD700087FF87FF87FF87FF87FF87FFF5F7FF5E66
:10AD8000FFBFFF9FFFBFFF9FFFBFFF9FFF9FFF9F73
:10AD9000FF9FFFBFFF9FFF9FFF9FFFBFFF9FFF9F83
:10ADA000FF9FFF9FFF9FFF9FFF9FFF9FFFBFFFBF73
:10ADB000FF9FFFBFFF9FFFBFFFDF632CFFDFDEFBB7
:10ADC000738EAD75630C94929CD3EF5DF77EFFBFDD
:10ADD000FF9FFF9FFF9FFF9FFFBFFF9FFF9FFFBF43
:10ADE000EF3D4A49CE59FF9FFF9FFFBFB5B6AD3536
:10ADF000BDF7AD75FFBFFF9FFF9FFF9FFF9FFFBF89
:10AE0000FFBFFF9FFFBFFFBFFF9FFFBFFF9FFF9FD2
:10AE1000FFBFFF9FFF9FFFBFFFBFFF9FFFBFFF9FC2
:10AE2000FF9FFF9FFFBFFF9EF5F7F5F7F5F7F5F7DB
:10AE3000F5F7F5F7F5F7F5F7F5F7F5F7F5F7F5F7B2
:10AE4000F5F7F5F787FF87FF87FF87FF87FF87FF06
:10AE500087FF87FF87FF87FF87FF87FF87FF87FFC2
:10AE600087FF87FF87FF87FF87FF87FF87FF87FFB2
:10AE700087FF87FF87FF87FF87FF87FFF5F7FF9F24
:10AE8000FFBFFF9FFF9FFF9FFF9FFF9FFFBFFF9F92
:10AE9000FF9FFFBFFF9FFF9FFFBFFF9FFF9FFF9F82
:10AEA000FF9FFF9FFF9FFF9FFF9FFF9FFF9FFF9FB2
:10AEB000FF9FFF9FFF9FFF9FFFBF7BCFFFBFFFBF96
:10AEC000FF9FFFBFE6FCAD758410EF5DFF9FFF9F06
:10AED000FF9FFF9FFF9FFFBFFF9FFF9FFF9FFF9F62
:10AEE000F77E4A49D69AFF9FFF9FFF9FFF9FFFBFB4
:10AEF000FFBFFFBFFF9FFF9FFF9FFF9FFFBFFF9F02
:10AF0000FFBFFF9FFF9FFF9FFFBFFF9FFF9FFF9F11
:10AF1000FF9FFF9FFFBFFF9FFF9FFF9FFFBFFF9F01
:10AF2000FF9FFFBFFF9FFF5EF5F7F5F7F5F7F5F71A
:10AF3000F5F7F5F7F5F7F5F7F5F7F5F7F5F7F5F7B1
:10AF4000F5F7F5F787FF87FF87FF87FF87FF87FF05
:10AF500087FF87FF87FF87FF87FF87FF87FF87FFC1
:10AF600087FF87FF87FF87FF87FF87FF87FF87FFB1
:10AF700087FF87FF87FF87FF87FF87FFF617FF9F02
:10AF8000FF9FFF9FFF9FFFBFFF9FFF9FFF9FFF9FB1
:10AF9000FF9FFF9FFFBFFF9FFF9FFF9FFF9FFFBF81
:10AFA000FFBFFF9FFF9FFF9FFF9FFF9FFFBFFF9F71
:10AFB000FF9FFF9FFF9FFF9FFFBFEF3CFFBFFFBFB4
:10AFC000FFBFFF9FFFBFFFBFFFBFFFBFFF9FFF9FF1
:10AFD000FF9FFFBFFF9FFF9FFF9FFFBFFF9FFFBF21
:10AFE000FFBFA4F3FFBFFFBFFF9FFFBFFF9FFF9FF8
:10AFF000FF9FFF9FFF9FFF9FFFBFFF9FFF9FFF9F41
:10B00000FF9FFF9FFFBFFF9FFF9FFF9FFF9FFF9F30
:10B01000FFBFFF9FFF9FFF9FFF9FFF9FFFBFFF9F00
:10B02000FF9FFF9FFFBFFF3DF5F7F5F7F5F7F5F73A
:10B03000F5F7F5F7F5F7F5F7F5F7F5F7F5F7F5F7B0
:10B04000F5F7F5F787FF87FF87FF87FF87FF87FF04
:10B0500087FF87FF87FF87FF87FF87FF87FF87FFC0
:10B0600087FF87FF87FF87FF87FF87FF87FF87FFB0
:10B0700087FF87FF87FF87FF87FF87FFF638FF9FE0
:10B08000FF9FFF9FFF9FFF9FFFBFFF9FFFBFFF9F90
:10B09000FFBFFF9FFF9FFFBFFFBFFFBFFF9FFFBF20
:10B0A000FF9FFFBFFF9FFF9FFF9FFFBFFF9FFFBF50
:10B0B000FFBFFFBFFF9FFF9FFF9FFFBFFFBF84102A
:10B0C000B596EF3DE6FCCE59B596F77EFFBFFF9FE4
:10B0D000FFBFFF9FFFBFFFBFFFBFFF9FFFBFFF9FE0
:10B0E000FFBFFFBFFFBFFF9FFF9FFFBFFFBFFF9FD0
:10B0F000FF9FFF9FFFBFFFBFFF9FFFBFFFBFFF9FE0
:10B10000FFBFFFBFFF9FFFBFFF9FFFBFFFBFFF9FAF
:10B11000FF9FFFBFFF9FFFBFFF9FFF9FFFBFFFBFBF
:10B12000FFBFFFBFFF9FFF1CF5F7F5F7F5F7F5F73A
:10B13000F5F7F5F7F5F7F5F7F5F7F5F7F5F7F5F7AF
:10B14000F5F7F5F787FF87FF87FF87FF87FF87FF03
:10B1500087FF87FF87FF87FF87FF87FF87FF87FFBF
:10B1600087FF87FF87FF87FF87FF87FF87FF87FFAF
:10B1700087FF87FF87FF87FF87FF87FFF659FF9FBE
:10B18000FF9FFF9FFF9FFF9FFF9FFF9FFF9FFF9FCF
:10B19000FF9FFF9FFF9FFF9FFF9FFF9FFF9FFF9FBF
:10B1A000FF9FFF9FFF9FFF9FFF9FFFBFFF9FFF9F8F
:10B1B000FF9FFF9FFF9FFF9FFF9FFF9FFFBF9492F7
:10B1C0004A4952AA632C6B4D6B6DD69AFF9FFF9F25
:10B1D000FF9FFF9FFF9FFF9FFF9FFF9FFFBFFF9F5F
:10B1E000FF9FFF9FFF9FFF9FFF9FFF9FFF9FFF9F6F
:10B1F000FF9FFF9FFFBFFF9FFFBFFF9FFF9FFF9F1F
:10B20000FF9FFF9FFF9FFF9FFF9FFF9FFF9FFF9F4E
:10B21000FF9FFF9FFF9FFF9FFF9FFF9FFF9FFF9F3E
:10B22000FF9FFF9FFF9FF6DBF5F7F5F7F5F7F5F7C3
:10B23000F5F7F5F7F5F7F5F7F5F7F5F7F5F7F5F7AE
:10B24000F5F7F5F787FF87FF87FF87FF87FF87FF02
:10B2500087FF87FF87FF87FF87FF87FF87FF87FFBE
:10B2600087FF87FF87FF87FF87FF87FF87FF87FFAE
:10B2700087FF87FF87FF87FF87FF87FFF69AFFBF5C
:10B28000FF9FFFBFFF9FFF9FFFBFFF9FFFBFFFBF4E
:10B29000FFBFFF9FFFBFFF9FFFBFFFBFFFBFFF9F1E
:10B2A000FF9FFF9FFFBFFFBFFFBFFF9FFF9FFFBF2E
:10B2B000FF9FFF9FFFBFFF9FFF9FFFBFFF9FEF3DD0
:10B2C0005ACB94B2FFDFFFBFFFBFFFBFFFBFFFBF7F
:10B2D000FF9FFF9FFFBFFFBFFF9FFFBFFF9FFF9F1E
:10B2E000FFBFFF9FFF9FFFBFFF9FFF9FFFBFFF9F0E
:10B2F000FFBFFFBFFF9FFF9FFFBFFFBFFFBFFFBF9E
:10B30000FFBFFF9FFF9FFFBFFFBFFF9FFFBFFF9FCD
:10B31000FF9FFFBFFF9FFF9FFFBFFF9FFF9FFFBFDD
:10B32000FF9FFFBFFFBFF6BBF5F7F5F7F5F7F5F7A2
:10B33000F5F7F5F7F5F7F5F7F5F7F5F7F5F7F5F7AD
:10B34000F5F7F5F787FF87FF87FF87FF87FF87FF01
:10B3500087FF87FF87FF87FF87FF87FF87FF87FFBD
:10B3600087FF87FF87FF87FF87FF87FF87FF87FFAD
:10B3700087FF87FF87FF87FF87FF87FFF6BBFF9F5A
:10B38000FF9FFF9FFF9FFFBFFF9FFF9FFF9FFFBF8D
:10B39000FFBFFFBFFF9FFF9FFF9FFFBFFF9FFF9F5D
:10B3A000FF9FFF9FFF9FFF9FFF9FFFBFFFBFFF9F6D
:10B3B000FF9FFF9FFFBFFF9FFFBFFF9FFF9FFFBF3D
:10B3C000BDF75ACBF77EFF9FFF9FFF9FFF9FFF9F19
:10B3D000FF9FFF9FFF9FFF9FFFBFFF9FFFBFFF9F3D
:10B3E000FF9FFF9FFF9FFF9FFF9FFFBFFF9FFF9F4D
:10B3F000FF9FFFBFFFBFFF9FFF9FFF9FFF9FFFBFFD
:10B40000FFBFFF9FFF9FFF9FFF9FFFBFFFBFFF9FEC
:10B41000FFBFFFBFFF9FFF9FFF9FFF9FFFBFFF9FDC
:10B42000FF9FFF9FFFBFF67AF5F7F5F7F5F7F5F702
:10B43000F5F7F5F7F5F7F5F7F5F7F5F7F5F7F5F7AC
:10B44000F5F7F5F787FF87FF87FF87FF87FF87FF00
:10B4500087FF87FF87FF87FF87FF87FF87FF87FFBC
:10B4600087FF87FF87FF87FF87FF87FF87FF87FFAC
:10B4700087FF87FF87FF87FF87FF87FFF6DCFF9F38
:10B48000FF9FFF9FFF9FFFBFFF9FFF9FFFBFFF9F8C
:10B49000FFBFFFBFFF9FFF9FFFBFFF9FFF9FFFBF3C
:10B4A000FF9FFF9FFF9FFF9FFF9FFF9FFFBFFF9F8C
:10B4B000FF9FFF9FFFBFFF9FFFBFFF9FFF9FFFBF3C
:10B4C000FF9FFFBFFFBFFF9FFF9FFFBFFF9FFF9F2C
:10B4D000FFBFFF9FFF9FFFBFFF9FFFBFFF9FFFBFFC
:10B4E000FF9FFF9FFFBFFF9FFF9FFFBFFF9FFF9F2C
:10B4F000FFBFFF9FFF9FFFBFFF9FFF9FFFBFFF9FFC
:10B50000FF9FFF9FFF9FFF9FFFBFFF9FFFBFFF9F0B
:10B51000FFBFFF9FFF9FFF9FFF9FFF9FFFBFFF9FFB
:10B52000FF9FFF9FFF9FF659F5F7F5F7F5F7F5F742
:10B53000F5F7F5F7F5F7F5F7F5F7F5F7F5F7F5F7AB
:10B54000F5F7F5F787FF87FF87FF87FF87FF87FFFF
:10B5500087FF87FF87FF87FF87FF87FF87FF87FFBB
:10B5600087FF87FF87FF87FF87FF87FF87FF87FFAB
:10B5700087FF87FF87FF87FF87FF87FFFEFCFF9F0F
:10B58000FF9FFFBFFF9FFF9FFF9FFF9FFF9FFF9FAB
:10B59000FF9FFF9FFFBFFF9FFF9FFF9FFF9FFF9F9B
:10B5A000FFBFFF9FFFBFFF9FFFBFFF9FFFBFFF9F2B
:10B5B000FFBFFF9FFFBFFF9FFF9FFFBFFF9FFF9F3B
:10B5C000FF9FFF9FFF9FFFBFFF9FFF9FFF9FFF9F6B
:10B5D000FF9FFFBFFF9FFFBFFF9FFF9FFF9FFF9F3B
:10B5E000FF9FFFBFFF9FFFBFFFBFFF9FFF9FFF9F0B
:10B5F000FF9FFF9FFF9FFF9FFFBFFF9FFFBFFF9F1B
:10B60000FF9FFF9FFFBFFF9FFFBFFF9FFF9FFF9F0A
:10B61000FFBFFF9FFFBFFF9FFF9FFF9FFFBFFF9FDA
:10B62000FF9FFF9FFFBFF638F5F7F5F7F5F7F5F742
:10B63000F5F7F5F7F5F7F5F7F5F7F5F7F5F7F5F7AA
:10B64000F5F7F5F787FF87FF87FF87FF87FF87FFFE
:10B6500087FF87FF87FF87FF87FF87FF87FF87FFBA
:10B6600087FF87FF87FF87FF87FF87FF87FF87FFAA
:10B6700087FF87FF87FF87FF87FF87FFFF3DFF9FCC
:10B68000FF9FFF9FFF9FFF9FFF9FFF9FFF9FFF9FCA
:10B69000FF9FFF9FFF9FFF9FFF9FFFBFFF9FFF9F9A
:10B6A000FF9FFFBFFF9FFF9FFF9FFFBFFF9FFFBF4A
:10B6B000FF9FFF9FFFBFFFBFFF9FFF9FFF9FFF9F5A
:10B6C000FF9FFF9FFF9FFF9FFFBFFF9FFF9FFF9F6A
:10B6D000FF9FFF9FFFBFFF9FFF9FFF9FFFBFFF9F3A
:10B6E000FF9FFF9FFF9FFF9FFF9FFFBFFF9FFF9F4A
:10B6F000FF9FFF9FFF9FFF9FFF9FFF9FFFBFFF9F3A
:10B70000FF9FFF9FFF9FFFBFFF9FFFBFFF9FFFBFE9
:10B71000FF9FFF9FFF9FFFBFFFBFFF9FFFBFFF9FD9
:10B72000FF9FFF9FFF9FF618F5F7F5F7F5F7F5F781
:10B73000F5F7F5F7F5F7F5F7F5F7F5F7F5F7F5F7A9
:10B74000F5F7F5F787FF87FF87FF87FF87FF87FFFD
:10B7500087FF87FF87FF87FF87FF87FF87FF87FFB9
:10B7600087FF87FF87FF87FF87FF87FF87FF87FFA9
:10B7700087FF87FF87FF87FF87FF87FFFF5EFF9FAA
:10B78000FF9FFF9FFFBFFF9FFF9FFF9FFF9FFF9FA9
:10B79000FFBFFFBFFF9FFFBFFF9FFF9FFF9FFFBF39
:10B7A000FF9FFFBFFF9FFF9FFFBFFFBFFF9FFFBF29
:10B7B000FF9FFF9FFF9FFFBFFF9FFF9FFF9FFF9F79
:10B7C000FF9FFFBFFFBFFF9FFFBFFF9FFF9FFFBF09
:10B7D000FFBFFF9FFFBFFF9FFF9FFF9FFFBFFF9F19
:10B7E000FFBFFF9FFF9FFF9FFFBFFF9FFF9FFF9F29
:10B7F000FF9FFF9FFF9FFF9FFF9FFFBFFF9FFF9F39
:10B80000FF9FFFBFFF9FFFBFFF9FFF9FFF9FFFBFE8
:10B81000FF9FFFBFFF9FFF9FFF9FFFBFFFBFFF9FD8
:10B82000FF9FFF9FFF9EF5F7F5F7F5F7F5F7F5F7A3
:10B83000F5F7F5F7F5F7F5F7F5F7F5F7F5F7F5F7A8
:10B84000F5F7F5F787FF87FF87FF87FF87FF87FFFC
:10B8500087FF87FF87FF87FF87FF87FF87FF87FFB8
:10B8600087FF87FF87FF87FF87FF87FF87FF87FFA8
:10B8700087FF87FF87FF87FF87FF87FFFF9FFFBF48
:10B88000FF9FFFBFFF9FFF9FFF9FFF9FFFBFFFBF68
:10B89000FF9FFF9FFF9FFF9FFFBFFFBFFFBFFF9F58
:10B8A000FF9FFFBFFFBFFF9FFFBFFF9FFF9FFFBF28
:10B8B000FFBFFF9FFFBFFF9FFF9FFFBFFF9FFFBF18
:10B8C000FFBFFF9FFF9FFF9FFF9FFFBFFFBFFFBF08
:10B8D000FF9FFF9FFF9FFF9FFF9FFFBFFF9FFF9F58
:10B8E000FFBFFF9FFFBFFFBFFF9FFF9FFF9FFF9F08
:10B8F000FFBFFFBFFF9FFF9FFF9FFF9FFFBFFFBFD8
:10B90000FFBFFF9FFF9FFFBFFFBFFFBFFFBFFF9FA7
:10B91000FF9FFFBFFFBFFFBFFFBFFF9FFF9FFFBF97
:10B92000FF9FFFBFFF7EF5F7F5F7F5F7F5F7F5F7A2
:10B93000F5F7F5F7F5F7F5F7F5F7F5F7F5F7F5F7A7
:10B94000F5F7F5F787FF87FF87FF87FF87FF87FFFB
:10B9500087FF87FF87FF87FF87FF87FF87FF87FFB7
:10B9600087FF87FF87FF87FF87FF87FF87FF87FFA7
:10B9700087FF87FF87FF87FF87FF87FFFF9FFF9F67
:10B98000FF9FFF9FFFBFFF9FFF9FFF9FFF9FFF9FA7
:10B99000FFBFFF9FFF9FFF9FFF9FFF9FFF9FFF9F97
:10B9A000FF9FFF9FFF9FFF9FFF9FFF9FFF9FFF9FA7
:10B9B000FF9FFF9FFFBFFF9FFF9FFF9FFF9FFF9F77
:10B9C000FF9FFF9FFF9FFF9FFF9FFF9FFF9FFF9F87
:10B9D000FF9FFF9FFFBFFF9FFF9FFF9FFF9FFF9F57
:10B9E000FF9FFF9FFF9FFF9FFF9FFF9FFF9FFF9F67
:10B9F000FF9FFF9FFFBFFF9FFF9FFF9FFF9FFF9F37
:10BA0000FF9FFF9FFF9FFF9FFF9FFF9FFF9FFF9F46
:10BA1000FF9FFF9FFF9FFF9FFF9FFF9FFF9FFF9F36
:10BA2000FF9FFF9FFF3DF5F7F5F7F5F7F5F7F5F702
:10BA3000F5F7F5F7F5F7F5F7F5F7F5F7F5F7F5F7A6
:10BA4000F5F7F5F787FF87FF87FF87FF87FF87FFFA
:10BA500087FF87FF87FF87FF87FF87FF87FF87FFB6
:10BA60000F0180961180FFB103012C2DB203012C30
:10BA70002DB306012C2D012C2DB40107C003A20209
:10BA800084C101C5C2020A00C3028A2AC4028AEE26
:10BA9000C5010E20003601C03A0105022A0400004B
:10BAA000007F2B040000007F04E010021C07123707
:10BAB00032292D29252B3900010310E110031D0720
:10BAC000062E2C292D2E2E373F0000021013800A3F
:10BAD0002980640000000000000000010203040649
:10BAE0000708090000000001020304000CBB000865
:10BAF00000000020100000007C1900081CBB00089A
:10BB000010000020A00400008C19000800000000B4
:0CBB100010000000010000000024F40000
:04000005080000ED02
:00000001FF
