:020000025000AC
:100000006FD0717500000000001801180028012849
:100010000228032800290129022903290429052986
:10002000062907290829002A012A022A032A042A64
:10003000052AA62ACCE506004E0F05003A11050058
:100040007A110500EA100500D81005007A39002061
:100050009E11050082120500AA1205000414050075
:100060009C1405005E0E05008E0D0500F80D0500C0
:10007000BA0D05009A180500B63900209811050040
:1000800010160500B4AA06006EAC0600E0AC06002F
:1000900016690600266906008203060032F705008D
:1000A00004A106003E1605005C6F060036B405008C
:1000B000BCB4050014B50500DC20050028210500AE
:1000C0009E1F050008730500C86D0500227C050011
:1000D000EE7F0500968305000A600500A85F050015
:1000E00088630500566005007E5F0500026005001C
:1000F000305F0500D26005002A610500DA60050066
:10010000DE6005007A61050032610500646105006A
:100110008066050088660500CE600500D660050093
:10012000766105008466050022620500F667050019
:10013000949105001C9205004A9205001C7505006B
:100140003475050070750500EC590500B45A0500BA
:100150000C5B0500D23C0500483805009C530500A7
:10016000BA380500F0520500A0C90600C4C2060056
:1001700024C7060072DA0600A6D90600F0DC0600E5
:10018000ECDC060032B6060084DD0600A4B30600EF
:1001900014DD060014D306002ED3060052D3060049
:1001A000F4DD0600DED7060074D7060064DE060024
:1001B000B2B506003AB606005EB6060000B6060006
:1001C000788606005C750600947B06003C76060087
:1001D0008A800600A4A106009AA00600D4B30600F7
:1001E0001C1A0500FE690600406F0600127006002A
:1001F000689C0600A29C06001A9D0600FC7805007B
:100200003886060002810600967806002E830600D6
:100210001875060010150500746B0600D8880600D6
:100220003E8B06009E8B0600EC890600D613050067
:100230006A760500DCF6050062C70600223D002054
:10024000344000200000000000000000000000001A
:10025000000000000000000000000000000000009E
:10026000000000000000000000000000000000008E
:10027000000000000000000000000000000000007E
:100280006373B60082801C419105110523AEF5FE13
:10029000C5BF938781B7138741026373F7008280DC
:0802A00023A007009107D5BF60
:1002A80049C5AA870145C1C58D07C207C183F19B0E
:1002B800C207C183130740036366F70203A501B8A9
:1002C80083A681B76393A60203A781D7014525C3F7
:1002D8004111C20706C60545DD8D0297B2400145AA
:1002E8004101828003A5C1B7E1BF0357650005EF4F
:1002F800035745006369F702B306F7402146637068
:10030800D6021041938687001D8FAA96611790C266
:100318002392E6002393060014C12312F500231349
:10032800B50021058280084171BF01458280828025
:1003380009C903A801B883A581B70147C28763E348
:10034800B70082809443636DF50663EBA6061386B7
:100358008700E368C5FE03D56700216605066317B5
:10036800C50003C681C405062384C1C423930700BE
:100378006383070303A6C1B7630FF600035667003C
:1003880019EA83D7470014C383564700B697A107D5
:100398002312F700BA879843E305B7FA83A6C1B7D3
:1003A800E301D7FA83566700C9FE83D64700035690
:1003B80047001843A106B2962392D70098C38280BB
:1003C8003E87B687ADBF09CDB71700401307700544
:1003D8002380E704130780FA2380E7042396A70203
:1003E800828019C1814799E982803387F500834665
:1003F80007003307F50085072300D700E397C7FEFA
:10040800E5B719C1FD5781E98280910503A7C5FFAA
:100418001105232EE5FE7D16E319F6FEF5B7797171
:1004280026D283A781DA06D622D44AD04ECE52CC21
:1004380056CA938481DA81C7829723A00400DC40DE
:1004480089CB03D5C1B84137DC40829703D5E1B8E1
:100458009D3F9C40639C07149387C1F683C7570050
:100468001389C1F6858B85C303477900A302090068
:10047800914763FAE700352383477900F9178A071C
:10048800A6979C43829783C7C1FB918B89C79740E6
:1004980006E0E78000949C4491C38297938641D8F4
:1004A80003A781B803C61600138A81B8138441D8FC
:1004B8008347040093961700BA9683D60600638F85
:1004C800060C8347040063FBC70686073E978355DF
:1004D80007002310070003D5C1B8938941B92EC678
:1004E80023900900CD350345040083A701BA1317EB
:1004F8002500B245BA979C438297AA8A03D5E1B8EA
:10050800D9358347040003D50900139717008327BB
:100518000A001345F5FF33755501BA9703D707004D
:10052800598D2390A70083470400034714008507CB
:1005380093F7F70F2300F40063E4E70023000400B7
:100548009C40ADE703A781B9938481B925C383474C
:10055800B90081CB8347790089E7973006E0E780C7
:10056800601E9C408297AA8431C11C48AA971CC867
:1005780083A7C1B985CF03D5C1B8B135268597D032
:1005880004E0E780C06A2254B25092540259F249FA
:10059800624AD24A03D5E1B8456135B5850793F774
:1005A800F70F2300F400E3E5C7F021BFB25022544F
:1005B80092540259F249624AD24A4561828091674F
:1005C800B7C600409387373023A6F6200F100000E7
:1005D800938741D8884F83A741CA316713073730BB
:1005E800F053B7071000FD17918F99833A0523A69A
:1005F800E6205D8D82804111B7170040985F3AC6AA
:10060800945F3247E39CE6FE324541018280411106
:1006180006C6D53703C6C1D5058A15CA9307303330
:100628003307F502B337F5023983CA07938541D8F2
:10063800D98FD849938641D801456307F70063707D
:10064800F7023385E740DCC9B24041018280E547C3
:100658003307F502B337F5022583DE07C1BF3765D7
:100668003D0809C637856F0813050590198D3E9515
:10067800DCCAD9BF0327C50F8346B50083A741F855
:1006880058439386160295829043FD1693F6F60F0B
:1006980010C3D04350C3904710C7D04750C7904BA2
:1006A80010CBD04B50CB904F10CFD04F50CF91C6DE
:1006B8001307070293870702C1BF82808347E501BA
:1006C80093F7E70FE1E32A870345F50145ED034674
:1006D80007018346870019C68345A70283C7D1D57A
:1006E80063E7F50093F70601C5C3814709C6C18AC8
:1006F8008357071581C603574715BA97D1C703A76C
:1007080081F0411122C406C67D548326070863F38D
:1007180086003684184375FB938681D483C64601C8
:10072800138781D4139686016186635606029387E0
:10073800C71395830347E701BA97635F06021D8CC9
:1007480083A741BA82973335A400B24022441345A7
:10075800150041018280858A9387C71289CA8A0752
:100768009387F7031305D007B3D7A702E1B7860726
:10077800FD071305D003CDBFE373F4FC3705C0A80C
:100788002A9475BF014582808280011126CA03A779
:1007980041C94EC606CE1C5F22CC4AC89983858BB8
:1007A800938441C9B9CF1C5F1384C1F693F7F7F955
:1007B8001CDF83C7C1F693F7070499CB83A741BA17
:1007C800829708C883C7C1F693F7F70B2386F1F61B
:1007D8008547A302F4008347440093F7070489EB95
:1007E80083A741CA5844B8D3930700FC2302F400F6
:1007F8008307640063D7070083A701C99C432303C9
:10080800F40098401C5F8583858BC1CBF5571CDFAE
:1008180001000100010001000100010001000100C8
:1008280001000100010001000100010001000100B8
:1008380001000100010001000100010001000100A8
:100848000100010001000100010001000100010098
:100858000100010001000100010001000100010088
:100868000100010001000100010001000100010078
:100878000100010001000100010001000100010068
:100888000100010001000100010001000100010058
:1008980083A741CA13075004B8CB98401C5F9183C3
:1008A800858B81CFBD571CDF83A741CA054723A885
:1008B80007049387C1F62382E70083A701C9D843B9
:1008C8000583058B19C7D843759BD8C3D843799B33
:1008D800D8C3F2406244D2444249B2490561828099
:1008E800397106DE16DC1ADA1ED82AD62ED432D290
:1008F80036D03ACE3ECC42CA46C872C676C47AC210
:100908007EC06135F250E2525253C2533255A2555D
:10091800125682567247E2475248C248324EA24E99
:10092800124F824F21617300203083A641CA9387FA
:10093800C1F6B85219CB03C72700058B19E703C7BF
:100948003700058B7DD723820700828083A701CAE1
:1009580099CB944BD04B9842518F98C294439C4763
:100968009842D98F9CC283A741CAB7C60040A8CB7A
:100978009305C003130620031387C1F683A78620B7
:10098800C18393F7F70363E9F50083A78620C18342
:1009980093F7F7036366F60083474700858BF9DF13
:1009A800828083A641CA9387C1F6B85219C703C784
:1009B8000700058B11C723820700A38207008280E6
:1009C80003C71700058B75D3FDB783A701CA99CB59
:1009D800944BD04B9842518F98C294439C4798426D
:1009E800D98F9CC283A641CA37C70040C145A8CA4F
:1009F800654683278720C18393F7F70363FBF500D8
:100A080083278720C18393F7F7036364F600BC52FA
:100A1800EDF3828003A741C9AA87185F1583058B68
:100A280025EF0345150015051377C51F19C6B386AD
:100A3800E70083C626002300D60085C583C621F7B4
:100A4800094593F60604B1CAB386E70083C63600A3
:100A5800054693F5F6066392C504E206E18663CE81
:100A680006023385E7008347150003470500A20700
:100A780093F70770D98F93960701C18213F6064042
:100A88001387C1C919C693E606802310D70001450C
:100A980082802310F700E5BF0545828083A541CAFF
:100AA800138841CA94459387C1F613970601418379
:100AB80093F816203A86638F080293F60620CDC66F
:100AC80083C62700B708001093E616002381D700D5
:100AD80093060019B4D1930600F82382D70083A5A2
:100AE80041C9D455F19A93E62600D4D59441B3E68A
:100AF800160194C19376261081CE1376061041C252
:100B080083C6C1F693E616002386D1F62394070020
:100B180003C647001347F7FF420762066186418311
:100B280083260800635F0600131617016350060644
:100B3800AC520D466367B60005462382C700BC5217
:100B4800FDFF8387C1D563DD070093170701C187C0
:100B580063D20704F052894763E4C700FC52FDFFE3
:100B68009C467D8F98C6828083C617002394070011
:100B780093E61600A380D70023820700A5BF83C68B
:100B8800370093E61600A381D70049B705462382AC
:100B9800C70045BFDC4613960701635C0600B7072C
:100BA8001000FD17FCD2938741D8904F050690CFCF
:100BB80045BFA1675D8F6DB7397106DE16DC1ADA9D
:100BC8001ED82AD62ED432D236D03ACE3ECC42CAFD
:100BD80046C872C676C47AC27EC0C935F250E2529F
:100BE8005253C2533255A255125682567247E247A3
:100BF8005248C248324EA24E124F824F21617300B2
:100C08002030938781FA138681F80346B60183C79B
:100C18005701938681FA138781F8B29793F7F70FF4
:100C28007D466361F604A300F70083471700484B2D
:100C380005463316F600A38AF600698E05EE03C64C
:100C4800960113080002814633F6C7028147B3555F
:100C5800F500858993F8F70F99C96317D600A300A3
:100C6800170182808117C1B7850693F6F60F8507AD
:100C7800E39F07FD828003A701CBB7570200938744
:100C8800279F832607091396560063580600832674
:100C980007091396660063440600FD17FDF382807A
:100CA80083A581D4938781D41386052223A0C1B854
:100CB80003D74700938785FFBA97056523ACF1B63C
:100CC8001D05930600206364E5009356370033073B
:100CD800D60023AEE1B623A0E522E1162312D60002
:100CE800231306001CC3998FE1172312F70023135F
:100CF8000700828083A701B803A781B70145631362
:100D0800F700828083D6670081E683D64700369550
:100D18009C43F5B783A701B883A681B701456393C0
:100D2800F600828003D7670011E703D74700637393
:100D3800E5003A859C43E5B783A701B803A681B7C8
:100D48002A87B305B5406314F6003A8529A8938627
:100D580087009C43E369D7FEE377F7FE2E85E3E43B
:100D6800D5FEE3F2F5FE828023AC05FE1C4191E737
:100D7800010001000CC18280BA8703A787FF6DFFBD
:100D880023ACB7FE82801DC18346E5FF1307F00F31
:100D98009147639EE600411106C69730FB1FE78026
:100DA80060B2B24081473E854101828095473E85C9
:100DB800828001E9014582800145B2402244410117
:100DC8008280411122C42A84210542059305D0045A
:100DD800418106C69730FB1FE780C0A571DDFD572E
:100DE80023200500231285002303F5002105F1B710
:100DF800411126C222C44AC083A741B806C601448D
:100E08000149938441B889E7A165CD2B05C401A8A0
:100E180003C7E7FF6317A70215C8A165AD2E984061
:100E2800832784FF6316E4029CC0FD57232C04FE2D
:100E3800230FF4FE2285B240224492440249410124
:100E4800828011E03E8983A787FF75BF3E84E5BF96
:100E5800232CF9FED9BFB9C583C751D8411122C483
:100E680006C62A842E856368F400313F0D45B240DA
:100E780022444101828083A785FF99E703C7E5FFE4
:100E88009307F00F6305F700FD3D1545CDB7238F98
:100E980085FE138541B8C93D22852244B240A1652B
:100EA8004101D5AC1545828023A201B8828083A771
:100EB800C1B999E33E85828003D727006316B7003E
:100EC80003C70700E308A7FEDC47E5B7411193977E
:100ED80005014AC006C622C426C2C1872E8963DE20
:100EE8000700393711C1453521653345A900B2409E
:100EF80022449244024941018280AA860145E5D9EB
:100F080001443D47B3578940858B8DCB83A401B9F4
:100F1800BD4791E28147A2978E070545BE943315D8
:100F28008500131405019C40C8404180829723A086
:100F3800040023A204003345240155BF0504E3132C
:100F4800E4FC0144CDBF83A781D6411122C406C663
:100F5800138481B385C7829708C00840B747030048
:100F68009387D73F3305F502B7A72600938737EC59
:100F7800B2403E9508C0224441018280184083A7B0
:100F880041D9BA971CC0D1BF011122CC938741D84F
:100F980006CE26CA4AC883C6170003A681B813849A
:100FA80041D8814713F7F70F6362D7089387C1F6D3
:100FB80003C7770091471389C1F663E0E70883C741
:100FC800C1FB918BBDEB6800EFF06029FD56630013
:100FD800D50C938781D483C737013247938481D452
:100FE80063FDE704404403C744016304D406058B4A
:100FF80039CB51473304E40263F187049730FB1F70
:10100800E780A0B8B2476373F400A28703C734012E
:10101800998F3E958387440163C20704B707C0A828
:10102800636EF502B70740573E950DA885071397DD
:10103800170032970357E7FF35D7F2406244D2448E
:10104800424905618280130790023304E402058057
:1010580065B762076187635707001D8D19E9370572
:10106800C0A801A8E37BF5FE3707C0A8B307F7407F
:101078003E9583A7C1D6829769F183278901D5DF79
:10108800EF50D123EF60410AEF50D1177DB75C4490
:10109800E385A7FA138781D403474701938481D452
:1010A800058B0DC351443384870283C73401E3F6AB
:1010B80087F89730FB1FE78040AD83C734011D8C4C
:1010C800229589BF13049002338487020580F1BFFB
:1010D8002A9609E582800505A30FB5FEE31DC5FE26
:1010E800D5BF81473307F5000307070019E33E859D
:1010F80082808507C5BF01112E8626CAAA841315CA
:1011080006019305F004418122CC06CE32C6972011
:10111800FB1FE78020722A8419C53246A6859730BE
:10112800FB1FE78040852285F2406244D244056176
:10113800828081476314F600054582803307F500F5
:101148008507B386F5000347070083C6F6FFE383E8
:10115800E6FE014582809307F6FFBE952A96631343
:10116800C5008280FD1583C715000505A30FF5FE90
:10117800FDB7814711E9014582803307F500034730
:101188000700E31AB7FE8507E319F6FE05458280D6
:1011980003A541D9828083C751D8637EF500931790
:1011A800150003A581B83E9583570500DD8D2310F2
:1011B800B500014582800D458280011126CA9387BA
:1011C80041D822CC4AC84EC652C456C206CE5AC0CE
:1011D8007D57D8C703A4C1B92A8A8149938441D8C5
:1011E800938AC1B9138981D4184481476374EA008A
:1011F800B3074741032749021CC409C7D84463F30E
:10120800E700DCC4A9E78355240085ED5C446399B5
:10121800090423A0FA00032BC40022859720FB1F92
:10122800E780406A5A8469F0832749028DCF624477
:10123800F240D2444249B249224A924A024B0561DD
:10124800A1B303450400813F5C4081CB1CC4835794
:101258002400CDDFA2894044F9B71C44C5DBC5BFD3
:1012680023A6F9004DBFF2406244D2444249B24934
:10127800224A924A024B0561828083C751D8637023
:10128800F5029317150003A581B893C5F5FF3E95A0
:1012980083570500FD8D2310B500014582800D455B
:1012A800828083C751D86364F5000145828041116B
:1012B80022C426C24AC006C62A842E89B284C53EE4
:1012C80001C504C5054515A0936504F0C205C18193
:1012D80041459720FB1FE780E05511ED83A781D793
:1012E80081C7A285114582970145B24022449244A4
:1012F8000249410182801387C1B91C4385E308C3B1
:1013080085472326050004C52311250123008500F0
:10131800A300F5002322050075B7BA87D84775FFE3
:10132800C8C7F9BF5DC1397122DC26DA4AD84ED662
:1013380052D45AD05ECE66CA6AC806DE56D262CC8D
:101348006EC63689328AAE89AA840144394D854BE6
:10135800F94C03A701B9131C3400937AF40F629770
:101368001C43938D01B9A9EF13B5FA001345150075
:10137800B3978B0063765D01930714FFB397FB0067
:1013880093950701C1815286293F1DC983A70D0086
:101398000145E29784C323A23701630409002300AF
:1013A8005901F2506254D2544259B259225A925AAF
:1013B800025BF24B624CD24C424DB24D21618280AD
:1013C8000504E31894F92145E9BF094582804111D4
:1013D80022C426C24AC006C6AA842E893284D135C0
:1013E800CA852685E93409C940C10145B24022446D
:1013F80092440249410182802145CDBF411122C456
:1014080026C24AC006C6AA842E8955342A8419C120
:101418002311050083C741D863949700239A21B903
:10142800CA852685993D014511E01945B2402244F7
:1014380092440249410182807547636BA70483A6E1
:1014480001B9411126C293143500A696944222C4CC
:1014580006C6AA87138401B9094595C613B5F700CE
:101468003947134515006373F700C5178545B395CC
:10147800F500C205C18159371C400145A69723A034
:10148800070023A20700B24022449244410182800F
:1014980009458280411106C6193C09C50845B24074
:1014A800410182800145E5BFF54763ECA70483A7A6
:1014B80001B913173500BA979843894721C7011115
:1014C80026CA06CE9334F50022CCB94793C414003B
:1014D80063F3A700451505443314A4004204418072
:1014E8002EC62685A2857D378947324609C5A2853D
:1014F8002685453B8147F2406244D2443E850561DA
:10150800828089473E8582802396A1B82397B1B807
:101518008280411106C623ACA1B80295B24023AC23
:10152800A1D8014541018280994763E8B7009397A4
:101538002500938581DABE9588C18280411106C64F
:1015480022C426C2EFF0CFF571468145138581DAB2
:101558004136138441D8130640028145138541D88A
:10156800853E23AE01B823AC01B883C741D69305A5
:10157800101013D527008D8B3E958D473305F50246
:101588009947938401B935051375F50F2301A40014
:101598003305F5021305050F9720FB1FE780802907
:1015A80088C031CD03462400994781453306F602A9
:1015B8001306060F313E9C40034724009387070F0C
:1015C800938401BA0A079CC0BA9723A4F1B8EFF034
:1015D800BF8D292E834714009840B716050013962F
:1015E80027003A96938646ED14C21386270085078E
:1015F80093F7F70F8A07A300C400BA9794C3B240C1
:101608002244924441018280138741D883471700BE
:101618008346270063FED70083A601BA1386170006
:10162800A300C70013972700369708C33E8582801A
:101638009307F00FE5BF1C41638F071241777D8F39
:10164800B706002089476319D71203574500630579
:101658000712411126C21946AA849305F00F5905AD
:1016680006C622C44AC0313605478D47630EE50ECB
:101678009C4499C7D85899476308070E985C6DC76A
:101688001306C0038145138581D499341306C0031A
:10169800A685138581D49720FB1FE780C02D138969
:1016A80081D40357C900938781D409E71307001031
:1016B8002396E70003C7E70001E705472387E7000C
:1016C80003C7F70001E76D47A387E70003C70701D2
:1016D80001E715472388E70003C7170101E7054716
:1016E800A388E70003C7570109E703C70701A38ACF
:1016F800E70003C7270101E751472389E70003C72C
:10170800E70115E383C647011307C0021396860154
:1017180061866348060013F716001337170013078E
:10172800D702238FE70003C7370115E383C64701B4
:101738001307C0021396860161866348060013F7F3
:101748001600133717001307D702A389E70003C74A
:10175800D40101E70947A38EE7009C5781C7829708
:101768002395A1D8E13B8147B240224492440249E3
:101778003E854101828089473E858280011122CCC5
:1017880006CE2A842EC6EFF00FFCB245F240818DBA
:1017980033A5A502229562441375F50F0561828071
:1017A800011122CC06CE2A842EC6EFF0CFF9B2451D
:1017B800F240818D33A5A5022295624442054181FC
:1017C80005618280011122CC06CE2A842EC6EFF054
:1017D8008FF7B245F240818D33B5A5022295624458
:1017E80005618280138781D41857011122CC06CE57
:1017F80026CA4AC84EC61384C1F631CF138981D48C
:101808000297138741D803576700AA84938941D860
:101818002DCFBA876373A700AA87C207C183BA8688
:1018280063F3E400A686C206C182958F5147635EC2
:10183800F7048327C90291C3829785472304F400DC
:10184800EF50A17C23939900F2406244D24442496C
:10185800B24905618280834784008DE783479400FD
:10186800850793F7F70FA304F400A18BF1DF8547F1
:101878002314F4006244F240D2444249B24905615B
:101888006F50217EA3040400F5B783478400CDDFA1
:10189800D5B7138781D45857011122CC06CE1384AB
:1018A80081D401C72AC602973245938741BA01CD30
:1018B80088C337450020130565BAA139F240624450
:1018C80001450561828003074401635C07001387B3
:1018D80041D8232C070037470020130767B598C362
:1018E800C9BF374700201307E7B8D5BF011122CC7D
:1018F800938781D4884706CE26CA4AC801E9054598
:10190800F2406244D244424905618280138481D402
:101918005C58F5D7185C65D77000854582971844E0
:10192800B247E30EF7FC0355C4009305E004972083
:10193800FB1FE78020F0138741D848CF938441D814
:101948005DDD0356C4009305F00F0149EFF04FF831
:101958008347E400D04C634DF90032859720FB1F84
:10196800E78040F6014523AE040023A0040249BFE6
:101978008355C4000844185CB38725038981050989
:101988003E9508C20297E9B7411122C4938781D4D2
:101998009C4726C206C64AC0938441D891EBC84CDE
:1019A8002DE1B2402244924402490145410182801E
:1019B800138481D41C5CE5D7DC4C91EB0355C4003F
:1019C8009305E0049720FB1FE780C0E6C8CCC84C0D
:1019D80079D50356C4009305F00F0149EFF04FEF96
:1019E8008347E400D04CE35CF9FA8355C4001C44F7
:1019F80033852503898105093E951C5C08C28297B9
:101A0800C5B79720FB1FE780E0EB23AE040023A0B7
:101A1800040241BF01114EC6938781D49C4726CA50
:101A28004AC852C406CE22CC56C25AC02A8AAE84AC
:101A380032896388071E938981D403A74903630009
:101A480007127D47636FA710138741D8832AC70100
:101A5800138441D8639A0A0803D5C900956593850C
:101A680015E09720FB1FE780E0DC48CC2A8665C993
:101A780083D5C90083A7490303A589008981829773
:101A880083A78900832AC4011CD089476316FA08F2
:101A9800C1476396F40C83D5C9009147938505FC2B
:101AA800B3C5F5028A05D69503C705009307A005B7
:101AB8006313F70A83C71500639F47094A8526867B
:101AC80091059720FB1FE78000EB5C4C56856391DE
:101AD80057130145F2406244D2444249B249224A6E
:101AE800924A024B056182801850E380E7FA03D5D9
:101AF800C9009565938525E09720FB1FE78080D373
:101B0800AA8A31CD83D5C9002A8683A7490303A5AC
:101B180089008981829795BF8D47631BFA00C14769
:101B2800639FF40283D5C900938545FDF199A5BF4C
:101B380091476318FA006394440383D5C900A1153B
:101B4800F5B7C147631DFA00A14763EA970083D53B
:101B5800C900C115E1BF5C4C5685639F570B2945E9
:101B680095BF1307F006636AA708930A05FE19478D
:101B7800B3CAEA0203D7C900B38AEA02BE9A9387B6
:101B880041D89C53138B41D8639557010324CB014B
:101B98001DE003D5C9009305E0049720FB1FE780EB
:101BA80060C92A844DDD83D5C90083A749032A86E5
:101BB80089815685829791451307A0058981939756
:101BC8002500A29783C607006393E60483C617001F
:101BD800639C460385058A052686A2954A85972033
:101BE800FB1FE78040D98327CB01E38487EE22855A
:101BF8009720FB1FE78000CDE9BD1307E007E360EE
:101C0800A7F6930A05F9BDB783D5270045BF8327F3
:101C1800CB01E38687F422859720FB1FE78080CAE3
:101C28003DBF83A501DA85DD91479306A005898329
:101C3800139727002E9703460700E312D6F20346B0
:101C48001700631C460185078A072686BE954A85C4
:101C58009720FB1FE78020D2ADBD83572700C1BF67
:101C6800938781D498471DCF985F0DCF8546631B16
:101C7800D502411122C4138441D8504C06C619CE4E
:101C880083D5C700085089810297484C9720FB1FCD
:101C9800E78040C3232E040023200402B2402244DC
:101CA800410182808280011122CC938781D456C25F
:101CB80083AA870026CA4AC84EC606CE52C42A89B5
:101CC800AE84B289138481D463870A1C1C5C99EBA7
:101CD8002945F2406244D2444249B249224A924AD2
:101CE800056182805C58EDD7FD4763E5A70C9387B3
:101CF80041D8DC4F138A41D8B9C7084483270A0260
:101D0800639FA70489476317F906C147E392F4FC68
:101D18000355C4009147130505FC3345F502931795
:101D280025000325CA012686CE853E959307A00582
:101D38002300F500A300250111059720FB1FE7806C
:101D480080C3014579B70355C4009305E004972083
:101D5800FB1FE78020AE232EAA0045F195BF8355CF
:101D6800C4005C580326CA01898182971C44232039
:101D7800FA0249BF8D47631CF900C147E39AF4F49E
:101D88000355C400130545FD9377C5FF59BF914717
:101D98006318F900E39E24F30355C4002115EDB739
:101DA800C147E317F9F2A147E3E497F20355C400EA
:101DB8004115D9BF9307F00663E7A706930705FE09
:101DC8001947B3C7E7020357C400B387E702BE9AAF
:101DD800938741D8DC4F138A41D8A9CF83270A02B9
:101DE800639657070325CA0191461308A005FD55B8
:101DF80093D72600C207C183139727002A97034663
:101E08000700631406078348170003562700639CDE
:101E18002805B306D64063C6960485078A07268632
:101E2800CE853E9519BF9307E007E3E3A7EA93073A
:101E380005F951BF0355C4009305E0049720FB1F23
:101E4800E780409F232EAA0051F959B58355C40055
:101E58005C580326CA0189815685829723205A0334
:101E680051B7A300B700B28661B70356C400B38563
:101E780096009105130606FCE3FCC5E413863400BE
:101E88001376C60F1106B29623000701A300270197
:101E98002311D70059B7938741D8DC4F138A41D80B
:101EA800A1C30325CA0191461308A005FD5593D780
:101EB8002600C207C183139727002A970346070005
:101EC8006312060583481700035627006398280104
:101ED800B306D640E3D396F4A300B700B286C1BFD9
:101EE8000345E4008357C4009305E0043305F50275
:101EF800420541819720FB1FE780C093232EAA004B
:101F08004DF1F9B30356C4008345E400B385C50217
:101F1800338696001106E3EDC5DA8DB70145828058
:101F280083C705002300F50083D72500A300F5002B
:101F380083D72500A1832301F50083C74500A301AA
:101F4800F5001145828023A601BA23A401BA828034
:101F580029C1411126C206C622C4AA8401458DC5DD
:101F68002E84B7E506002285414693854541972092
:101F7800FB1FE78040A083C7040005452306F40043
:101F880083C71400A306F400B240224492444101DE
:101F9800828001458280011122CC26CA06CE0947DB
:101FA800AA8432846381E50441468147639BC50066
:101FB800638FE6006397B6000DA841478147638E9B
:101FC800E600F2406244D2443E85056182808A85FB
:101FD8002285BD3F41468A8519A88A85953F414695
:101FE8008A85228531A0E39AB6FC2E86A2852685AD
:101FF800EFF02F94AA87F1B723A4A1BA828023A671
:10200800A1BA8280011122CC0354650006CE26CAEB
:102018004AC84EC641C083298500AE842A8803C9B0
:102028000900814713178901618763550702B14782
:10203800054563FA8704511442040355280041807A
:1020480033878900A2864E868545EFB0F045B337C1
:10205800A00085077D14135569004204058913798A
:10206800F90341802380F400A380A4002381240184
:1020780023928400014719C01387190098C409479F
:102088006383E7000145F2406244D2444249B249C1
:10209800056182800545C5BFC167F917630AF50266
:1020A800D94763F7B702011122CC2EC606CE2A847F
:1020B800EF70D033B2456368B50022856244F240C0
:1020C80005616F902042F2406244054505618280B7
:1020D80005458280C167F9176314F5006F701031E8
:1020E800411106C6EF90003011E15D45B240410153
:1020F800828091476394F502834705002300F60028
:102108008347250003471500A207D98F2311F6003E
:102118008347350001452302F600828011458280FD
:102128004111814522C426C206C6AA84392D2A84B3
:1021380019E583A781BA81C7F94526858297228543
:10214800B240224492444101828039714ED656D21F
:102158005AD006DE22DC26DA4AD852D4AA8A2E8B36
:10216800B28941EF36C6BD37CD45EF707038AA84C5
:102178004D492DC9B246054A238034010544630AF6
:102188000B00B68513851400029B05051314050181
:102198004180E20993D9894163D30902C145568533
:1021A800EF904031654905E933868400A28526858C
:1021B800EFB000742A8905E1310442044180914757
:1021C8002C085685231CF10026CE231D8100EF80A4
:1021D800F03D2A8901C963070A0026859710FB1F6D
:1021E800E780406EF25062544A85D2544259B2593F
:1021F800225A925A025B21618280BA84014AADBF99
:10220800011122CC26CA4AC84EC606CE2A89328473
:10221800B689253FAA8419ED83A7C1BA81CF05479E
:102228006317E40003C4090005041374F40FA285BE
:102238004A858297F240624426854249D244B2498F
:1022480005618280AE86B72505000147054693855E
:1022580085F27DB783D705002300F50083D70500F5
:10226800A183A300F5000945828083D705002300D8
:10227800F50083D70500A183A300F50083D72500C7
:102288002301F50083D72500A183A301F50011459B
:10229800828083D705002300F50083D70500A1833A
:1022A800A300F50083D725002301F50083D7250077
:1022B800A183A301F50083C755002302F50083C756
:1022C8006500A302F50003D5850019054205418183
:1022D800828083D705002300F50083D70500A183FA
:1022E800A300F5000945828083D705002300F50087
:1022F80083D70500A183A300F50083D72500230118
:10230800F50083D72500A183A301F500114582803C
:1023180003D54500060542054181828083D7050023
:102328002300F50083D70500A183A300F50003D59A
:102338002500090542054181828083D705002300D5
:10234800F50083D70500A183A300F50083D72500F6
:102358002301F50083D72500A183A301F50003D548
:102368004500110542054181828083C7050023008D
:10237800F5000545828083D70500411122C406C6B1
:102388002300F50083D705002E841105A183A30E31
:10239800F5FE83D725009505230FF5FE83D7D5FFD6
:1023A800A183A30FF5FE03C6F5FF9710FB1FE78077
:1023B800805C03454400B2402244110541018280FB
:1023C8008947639CF50083471500034705000145CD
:1023D800A207D98F2310F60082801145828003D787
:1023E8000500D94763FEE702011122CC06CE2EC6AE
:1023F8002A84EF70A07FB24683D70600636DF5008C
:1024080022856244F240B7250500014709469385B5
:10241800C52505611DBBF2406244094505618280FE
:102428000945828091479DC583460500FD15C20573
:102438008547C1816392F60213D725008D8991479C
:1024480091E9914701CB05052301D6002310E60049
:1024580048C281473E85828009479147E39CE6FE52
:10246800C94733D7F502B3F5F502D1BFAE86B72514
:1024780005000147114693852527C1B993F7350013
:1024880091EB8981914789C52310B60048C28147DD
:102498003E8582809147EDBF03C745008947631A8F
:1024A800F702011122CC2A84C84506CEAE86014720
:1024B80019C52EC69D45EFE03F88B2462A8722857A
:1024C8006244F240B725050019469385A5290561A0
:1024D800ADB90945828099E111458280834705009D
:1024E80005472311F600E379F7FEFD1593F5F50F7F
:1024F80033D7F502B387E702E390F5FE050548C236
:102508002310E6000145828083C745000947AE864F
:102518006385E70041476399E700B7250500014750
:1025280021469385E53715B1094582802310B60009
:1025380091E1014548C201458280AE86B725050074
:10254800014729469385A52D09B12310B60091E1CD
:10255800014548C201458280AE86B725050001477E
:1025680031469385052FD5B62310B60091E1014574
:1025780048C20145828003D74500854763FDE702CD
:10258800011122CC2A84884106CE0DC12EC685456C
:10259800EFE08FFA2A8722856244B246F240B725D7
:1025A8000500394693858531056145B6F240624498
:1025B8000945056182800945828091479DC5034789
:1025C80005008D46914763F2E602FD15C205C181FB
:1025D800B3C6E5023308D702639905010505231040
:1025E800D6002311E60048C281473E85828083C712
:1025F80045000947AE866385E70041476399E700D0
:10260800B7250500014741469385E5373DBE094595
:102618008280B335B000139525008280011122CC49
:1026280026CA06CE03C785008547AA842E84494654
:102638006311F702EFF01FAA835724004915130608
:10264800200963C8A700F2406244D24409450561E5
:1026580082800347940085476314F70013660604D5
:10266800484011C58D4532C6EFE00FED3246A286CF
:102678006244F2402A872685D244B725050093850F
:1026880045320561D9B48D4763FFB702834715000A
:1026980003470500F115A207D98F2310F6008347D9
:1026A800350003472500C205A207C181D98F231130
:1026B800F6002312B60089C5110508C601458280B7
:1026C80023240600E5BF11458280011122CC2A840B
:1026D800884506CEAE8611C52EC69545EFE0CFE5F6
:1026E800B2462A8722856244F240B725050059463A
:1026F8009385253405616FF05FA5B335B000139558
:1027080025008280AE86B72505000147614693857E
:1027180025376FF09FA38547114563F4D702834798
:10272800160083450600A207CD8F2310F700938774
:10273800E6FF2311F70089476386F600090650C3B0
:102748000145828023220700E5BF0147814679467B
:1027580081456FF09F9F83D705002300F50083D73D
:102768000500A183A300F5000945828083C72500E1
:1027780005472300F50003D505006397E7000A0520
:102788000505420541818280C9473305F502CDBF61
:1027980003D505000A0542054181828083D72500BB
:1027A8002300F50003D5050083D725003305F5027E
:1027B800050542054181828003D50500828003D545
:1027C8000500828003D50500828083D72500230079
:1027D800F50003D5050083D725003305F502050567
:1027E80042054181828083D705002300F50083D705
:1027F8000500A183A300F50083D725002301F50078
:1028080083D72500A183A301F50003D54500110551
:1028180042054181828083D705002300F50083D7D4
:102828000500A183A300F50003D52500090542058D
:102838004181828089471145639BF60083471600D2
:10284800834606000145A207D58F2310F700828032
:1028580003D70500D947AE8663FAE700B725050018
:1028680001470D469385E5756FF09F99094582806C
:1028780011456393A6028347160083460600014567
:10288800A207D58F2310F70083473600834626001A
:10289800A207D58F2311F700828083C7250005473B
:1028A800FD1793F7F70F6361F70483D705008DCF02
:1028B800011122CC2A84C84106CE15C12EC68945ED
:1028C800EFE08FC72A8722856244B246F240B725D7
:1028D800050015469385457705616FF07F92F240B4
:1028E8006244094505618280094582809547114502
:1028F80063F9D706411122C426C24AC006C68347D7
:102908001600BA8403470600A2073284D98F2390A1
:10291800F400834736000347260093054400A207C6
:10292800D98F2391F40089472382F400094613853F
:10293800540036899710FB1FE780E0039307A9FF2F
:102948002394F4009947631BF90023A60400B240BE
:102958002244924402490145410182801904C0C4BD
:10296800FDB7828083D705008DCF011122CC2A8440
:10297800C84106CE15C12EC68545EFE0EFBB2A87B4
:1029880022856244B246F240B72505001D4693856C
:10299800857905616FF0DF86F2406244094505617B
:1029A80082800945828099476395F60489474111D9
:1029B80006C62302F7008347160083460600B28541
:1029C800A207D58F2310F7008347360083462600D9
:1029D80003464700A207D58F130557002311F700B8
:1029E80091059710FB1FE78000F9B24001454101AE
:1029F8008280D14711456394F600C1474DBF82805C
:102A080083D705008DCF011122CC2A84C84106CE78
:102A180015C12EC68945EFE02FB22A872285624468
:102A2800B246F240B725050025469385457A0561EB
:102A38006FF00FFDF2406244094505618280094547
:102A4800828089471145639BF600834716008346B9
:102A580006000145A207D58F2310F70082800111D7
:102A680022CC2A84C84106CEAE86014719C52EC697
:102A78008545EFE06FACB2462A8722856244F24072
:102A8800B72505002D469385057C05616FF04FF746
:102A980011456393A6028347160083460600014545
:102AA800A207D58F2310F7008347360083462600F8
:102AB800A207D58F2311F7008280011122CC2A8426
:102AC800C84106CEAE8611C52EC68545EFE0CFA615
:102AD800B2462A8722856244F240B725050035466A
:102AE8009385657C05616FF0AFF193F7160011458A
:102AF80089EB89476387F60085822312D70010C3C4
:102B080001458280011122CC2A84C84106CE15C114
:102B18002EC68545EFE04FA22A8722856244B24639
:102B2800F240B72505003D469385C57C05616FF0E9
:102B38002FEDF240624409450561828083D7050084
:102B48008DCF011122CC2A84C84106CE15C12EC6CC
:102B58008945EFE06F9E2A8722856244B246F2409B
:102B6800B725050045469385257D05616FF04FE93A
:102B7800F2406244094505618280094582808547A3
:102B880063FCD7022304A700A304B70083471600F9
:102B980083450600A207CD8F2310F7009387E6FF31
:102BA8002311F70089476386F600090650C30145DB
:102BB800828023220700E5BF1145828001478146B4
:102BC8004D4681456FF0CFE38D47114563FBD70232
:102BD8008347160083450600A207CD8F2310F70010
:102BE8008347360083452600A207CD8F2311F700BF
:102BF8009387C6FF2312F7006386A600110610C745
:102C08000145828023240700E5BF011122CC2A84D4
:102C1800884506CEAE8611C52EC69545EFE0CF9104
:102C2800B2462A8722856244F240B72505005D46F0
:102C38009385E57E05616FF0AFDC854711456397A5
:102C4800F6008347060001452300F700828001470C
:102C58008146654681456FF0AFDA011122CC2A849E
:102C6800C84106CEAE86014719C52EC68D45EFE090
:102C7800AF8CB2462A8722856244F240B7350500F8
:102C88006D469385E58105616FF02FCC011122CC4B
:102C98002A84C84106CEAE86014719C52EC68D4581
:102CA800EFE08F89B2462A8722856244F240B73521
:102CB800050075469385E58105616FF00FC901111F
:102CC80006CE2EC6EF80A06E01C9B245F24003556C
:102CD800250005616FB09026F24049450561828064
:102CE800A38C01BC238C01BC23A001BC23A201BC82
:102CF80023A401BC23A601BC23AE01BA23AC01BAAC
:102D0800938741DC3707B40098C33747A000D8C37E
:102D1800370710009306070A94C7B7065000C10684
:102D2800D4C7930607054107D8CB3707D007410713
:102D380098CF3707840398D337C70700130707B816
:102D4800D8D3416794CB93060701130717F8D8D750
:102D5800417723AE070094D798DB8280011126CAF9
:102D6800AA84214522CC06CE2E8432C636C43AC265
:102D7800EFE02F841DC9A24612473246930700FD93
:102D88002300F5009947A30095002301F5002303CC
:102D9800D500A303E5002312C500AA852285624455
:102DA800F240D24405616FE00F8BF2406244D24496
:102DB8000561828023A0A1BC828023A2A1BC82805D
:102DC80023A4A1BC828023A6A1BC8280011122CCAD
:102DD8004AC806CE26CA2A890144B3048900636812
:102DE800B400F2406244D2444249056182802EC652
:102DF800EFE06F9593170501C183A183B245238046
:102E0800F4009307140093F7F70F850463F9B700EC
:102E1800CA9709042380A7001374F40F7DBF3E846A
:102E28007DBF411122C4138481DF03556400C1674B
:102E380006C6FD17630BF50003C6C1C6938501BD21
:102E4800EF80E037FD572313F400B24022444101DC
:102E5800828009C925151375F50F1335850E13459D
:102E6800150082800145828023800500F94763E2CE
:102E7800C708797122D426D24ECE56CA5AC806D669
:102E88004AD052CC5EC63684B289AE8A2A8B814437
:102E980063FF3405B307940003CA070013891400BD
:102EA8001379F90F63050A04B3072A0163C1F9040A
:102EB800B307240183CB07005E85613F0DC99307E3
:102EC800FAFF2380FA0063906B031305190022951B
:102ED800B250225492540259F249624AD24A424BA1
:102EE800B24B45618280D29493F4F40F55B70145F3
:102EF800C5B701458280011122CC26CA4AC84EC6F0
:102F0800938781DF06CE2E89D0CB8CCBC8C7AA8405
:102F180041469305F00F4A85EFE0AFA58549138434
:102F280081DF631735030848C1454D354146930590
:102F3800F00F2685EFE0EFA3054963132503484406
:102F48006244F240D2444249B249C1450561BDBD1F
:102F5800414681454A85EFE0CFA1E31935FDE1B748
:102F6800414681452685EFE0CFA0E30A25FDF240E2
:102F78006244D2444249B24905618280011122CC9F
:102F880026CA4EC6AE84AA8913060002138581DFBD
:102F9800814506CE4AC8EFE0AF93138981DFA38746
:102FA80091C6A3013901EFB0207B138481DF8547E7
:102FB80019C1814749452300F400F2406244D244D4
:102FC8004249B24905618280814781CD19C9854747
:102FD800631BF50083C7550093E707FCA382F50040
:102FE80085473E85828089476317F50083C755006A
:102FF80093F7F703E5B70D478547E314E5FE03C7E5
:1030080055001377F70313670704A382E500D1BFC0
:1030180081478DC105C103C755009306000C85473C
:103028001377070C6308D700930600048D476303E2
:10303800D70089473E858280411122C4005D06C6BB
:1030480026C21DC8AA84085009C59710FB1FE7802F
:103058006087485009C59710FB1FE780A086085471
:1030680009C59710FB1FE780E08522859710FB1F95
:10307800E780408523AC0402B240224492444101D7
:103088008280938781DF09E903C7270013858701B9
:1030980011C7138501BB828013858701828003C510
:1030A800A1DF828003A541E0828003A581E08280C0
:1030B80083A7C1E088438280938781DFD44B9842FD
:1030C800050798C203C537009307F00F6305F5009D
:1030D80091656FE04F8C8280011122CC06CE2E8440
:1030E80032C6EF80A03B9147B245631EF50083A727
:1030F800C1BC85C303A30700630D03002285624496
:10310800F2400561028383A741BC81C703A347003E
:10311800E5B7F2406244054505618280011122CC81
:103128002A840355450006CE26CA4AC84EC6EF80F3
:10313800001835C52A89834405008349C500ED3D3B
:103148004A85EF90200E03554400EF80A030138984
:1031580081BD83470900A1CB6397970483C591BDBF
:103168002685EFF0DFB519E1230009000355440077
:10317800EF80C0329147631DF500938781DF835646
:10318800440003D767006395E6007D572393E70063
:10319800F2406244D2444249B24905618280814981
:1031A8009304F00F6DB79307F00FE381F4FC8346A7
:1031B800640003564400034524004E87A685EFF0BB
:1031C800FFB96DB779715EC6AA8B2E8552CC56CAE7
:1031D8005AC806D622D426D24AD04ECEAE8A328BD0
:1031E800368AEF80C00C79CD045D2A89E1CC9C50E9
:1031F800614599C3130540039C5481C75105420595
:10320800418163050A00710542054181DC5081C78F
:10321800590542054181EFD0DFB92A8445C5614689
:103228008145EFD0FFEA83C941DF639409008349F0
:103238000900930700FD2300F400A947A3007401C7
:103248002301F400230364018C5023125401130555
:10325800840191C908C47146930A44039700FB1F6F
:10326800E780607156858C5491C948C45146930AC9
:1032780045019700FB1FE78000705685630C0A0024
:1032880008C87146D285930AC5019700FB1FE780DD
:10329800806E5685CC5099C548C859469700FB1F83
:1032A800E780606DA2854E85EFD0FFBA2254B250F8
:1032B8009254F249624AD24A424BB24B4A85025969
:1032C80045619DBBB250225492540259F249624A58
:1032D800D24A424BB24B4561828001114EC6AA893F
:1032E8002E854AC806CE22CC26CA2E89EF70307C9D
:1032F80021C583C441DF99E0834405001945EFD017
:103308005FAB2A8415C981451946EFD07FDC930746
:1033180000FD2300F400B947A30034012301F400A1
:1033280023122401A2856244F2404249B24926850B
:10333800D24405616FD03FB2F2406244D244424960
:10334800B2490561828039715ECEAA8B2E8526DA54
:103358004ED652D456D25AD006DE22DC4AD8AE8493
:10336800328BB68A3A8ABE8942C6EF70507421C938
:103378002A894145EFD0FFA32A8431C141468145BE
:10338800EFD01FD503C541DF19E1034509009307B5
:1033980000FD2300F400BD472301F400B247A30059
:1033A80074012312940023046401A3045401230527
:1033B8004401A30534015CC4A285EFD0DFA9F25013
:1033C8006254D2544259B259225A925A025BF24B71
:1033D80021618280797126D2AA8439454AD04ECE9D
:1033E80006D622D42EC6B2893689EFD09F9C21C139
:1033F800B2459307000D2310F500B1472A84231224
:10340800B5002301F500CE85190519469700FB1F65
:10341800E780605623062401A2852254B25002593F
:10342800F24913F5F40F925445616FD0DFA2B25000
:10343800225492540259F24945618280411126C2B0
:10344800938481DF03C7340006C622C44AC09307A9
:10345800F00F630AF7042A893945EFD09F952A842B
:1034680039C1930700FD2300F500A30025012301BE
:103478000500938584010D0519469700FB1FE78019
:10348800804F83D78400A28503C534002315F40038
:1034980083C714002306F4002244B2409244024930
:1034A80041016FD05F9BB2402244924402494101DE
:1034B8008280011156C2AA8A314526CA4AC84EC618
:1034C80052C406CE22CCAE84328AB6893A89EFD06D
:1034D8005F8E39C52A842685EF70705D1DCD034542
:1034E8000500930700FD2300F4009D47A300540145
:1034F8002301F400231294002313440123143401FC
:1035080023152401A2856244F240D2444249B249BB
:10351800224A924A05616FD01F9403C5B1DFD1B723
:10352800F2406244D2444249B249224A924A056171
:103538008280397162CC2A8C594526DA4AD84ED60F
:1035480052D456D25AD05ECE06DE22DCAE8432C6C3
:1035580036C4BA8B3E8BC28A468A83590104034912
:103568004104EFD01F8535C53246930700FDA246BA
:103578002300F5009547A301C500A3008501230199
:10358800F5002A8419461105A9C2B6859700FB1FC4
:10359800E780603E23066401230A24012315740191
:1035A800231754012318440123193401A2856254B6
:1035B800F2504259B259225A925A025BF24B624C6B
:1035C8002685D25421616FD01F898145EFD05FB025
:1035D800D1B7F2506254D2544259B259225A925A2F
:1035E800025BF24B624C21618280411122C4138438
:1035F80081DF8347240006C626C29DC7AA851946CF
:10360800138501BB9700FB1FE780E03603452400C4
:10361800938501BBEFF05F9B2244B240138501BB49
:10362800924441016FB00014B240224492440145D3
:1036380041018280411126C2938781DF06C622C4D8
:103648004AC003C737009307F00F938481DF6302F2
:10365800F7042A892945EFD0CFF52A841DC9930795
:1036680000FD2300F500A147A30025012301F50073
:1036780083C72400938501BBA301F50019461105F2
:103688009700FB1FE780202F03C53400A285EFD0E9
:103698008FFC03C724008D47631FF70083A781BCF5
:1036A80099CB03A38700630803002244B2409244E5
:1036B800024941010283B240224492440249410135
:1036C8008280797122D406D626D24AD04ECE52CCE8
:1036D80056CA09445DC92A8903550500AE89514473
:1036E800EF70F03CAA8455C19387C1C683C73700E1
:1036F8008546BA8AFD1793F7F70F494463F7F6082A
:103708000347C500A1476314F700639009089C5C50
:103718004544A5EF9165938545711305C00297004F
:10372800FB1FE780201188DC2A8A4D4439CD130617
:10373800C0028145EFD0DF998357090093064A00FC
:1037480036852311FA0071469305490036C697005D
:10375800FB1FE780402289472300FA0003C5C40005
:10376800B2460356090083C5C1C661151335150055
:10377800EFA0C0462A8463860900CE852685EF809F
:10378800505501C42685EFF03F8B2285B250225454
:1037980092540259F249624AD24A4561828083C7EB
:1037A800F1C60547FD1793F7F70F6378F7088947C0
:1037B80051C6011122CC26CA4AC84EC652C406CEEA
:1037C800AA89368AB2842E89EF70702E2A84D1474E
:1037D80029C9485509C59700FB1FE780A00EF14588
:1037E8002685EFD05F9148D4CD4705CD8346C400E8
:1037F80021478147639FE600630D0A000347A5013F
:103808000356050193062501AA854E85EF80C0441D
:10381800AA8703474400630F090013676700230260
:10382800E400F2406244D2444249B249224A3E8509
:103838000561828013674700DDB7C9473E858280EE
:10384800E14763EAA70093171500138541DC3E950D
:1038580003550500828041657D158280011122CCC7
:103868002A842E8526CA06CEAE84EF7050240DCD4C
:10387800B7470F009387F723094563E2870281451D
:103888000A854146EFD0DF84A685231081000A858A
:10389800418023018100A3010100EFA0A016F2409E
:1038A8006244D244056182804945D5BFA386A1C63A
:1038B80082806FA0C02B797152CC2A8A328522D49B
:1038C80026D24AD04ECE56CA5AC85EC606D662C45A
:1038D800AE8BB28A368BBA843E89C2894684EF7031
:1038E800101D15C92A8C63140A0213774B008347ED
:1038F800450015CF93E727012302FC008DEC631CDC
:103908000902639A090205E8ED9B2302FC00832B58
:103918008C03639F0B06B250225492540259F24909
:10392800624AD24A424BB24B224C45618280F59B97
:1039380093E70701D1B793E747002302FC0001CCC6
:103948001C484146A2852324FC0213058C019700DC
:10395800FB1FE780400263910B02D5D80325CC02F8
:1039680009C59700FB1FE780E0F5F1452685EFD0F4
:103978008FF82326AC0261BFE30B09F80325CC02BC
:1039880009C59700FB1FE780E0F3F1454A85C5B7F5
:103998009DC483A70B0299EB916593853571714599
:1039A8009700FB1FE78000E923A0AB0203A50B02E9
:1039B80019C57146A6859700FB1FE780C0FB638881
:1039C800090283A74B0299EB9165938525715945A7
:1039D8009700FB1FE78000E623A2AB0203A54B027A
:1039E80019C55946CE859700FB1FE780C0F81DC44E
:1039F80083A78B0299EB91659385157151459700C3
:103A0800FB1FE78020E323A4AB0203A58B0219C5A3
:103A18005146A2859700FB1FE780E0F52254B2507B
:103A28009254F249B24B224CCA865A860259424BEA
:103A3800D6855285D24A624A45616FF0AFF80111C6
:103A480026CA52C406CE22CC4AC84EC62A8AAE849A
:103A5800EF70F00535C1AA893945EFD08FB52A84B2
:103A680021CD03C941DF6314090003C90900930785
:103A7800000D2310F400AD472301F400938569007D
:103A88001305340019469700FB1FE780C0EE93F733
:103A98001400858085882306F400A3069400231566
:103AA8004401A2856244F240D244B249224A4A857E
:103AB800424905616FD02FBAF2406244D24442496C
:103AC800B249224A05618280411122C4138481BB14
:103AD800084006C619C59700FB1FE780A0DE232013
:103AE8000400B240224441018280011106CE22CC5A
:103AF80026CA4AC82EC6EF70807B29CDB24503C9B5
:103B080041DF0CD5AA846314090003490500414527
:103B1800EFD02FAA2A841DCD9307000D2310F5009E
:103B2800A5472301F50083C7540093856400110558
:103B3800A30FF5FE19469700FB1FE780C0E39C54CE
:103B4800A285F2405CC46244D2444A854249056178
:103B58006FD06FB0F2406244D2444249056182801E
:103B6800797122D406D62A842EC6EF7040740DCD02
:103B78008346C5001147AA8749456393E6029C5FBF
:103B8800B24599C383C567010808EF80701DB7D691
:103B98000500938626DE100889452285EF8060108F
:103BA800B2502254456182805145DDBF83C7F1C6BA
:103BB8000547FD1793F7F70F637AF704894721CA7A
:103BC800411122C426C24AC006C6B2842E89EF70AB
:103BD800006E2A84D14705C563080900834745005C
:103BE80093E727002302F5004146A68513058401C3
:103BF8009700FB1FE78020D89C481CD48147B2401F
:103C08002244924402493E8541018280C9473E854B
:103C18008280797122D406D62A842EC6EF70206954
:103C280001CDB2452285230EB1006C08EF80F00665
:103C3800B2502254456182805145DDBF6F70007CCF
:103C4800C1671387E7FF6393E50283A741BC91EB44
:103C5800494582804945B240224492440249410183
:103C6800828003A30700E30503FE0283411122C4F7
:103C780026C24AC006C6FD172A892E84B2846394D8
:103C8800F50283A741BC91CB9C4381CB829711E578
:103C9800238C21BDA38C91BC7DBFA6854A85EFF0FE
:103CA8000F8255F9F5B72E85EF70606045D58347CB
:103CB80005000D45E39127FB22852244B2400249C5
:103CC800A685924441016FA0702761476360A704ED
:103CD8004111416722C406C626C27D172A840945B8
:103CE8006381E502C547AE846315F4002E85EFA015
:103CF800F02E93171400138441DCA29723909700A9
:103D08000145B240224492444101828009458280A3
:103D1800011106CE2AC6EFE0BFFCEF10A01BD12D83
:103D2800EF90313D938781DF130700F02391E7007F
:103D38002382070032451387C1C6FD56A300D7006A
:103D4800F2402386A1C6954505616F50D0751D7157
:103D580093970501A6CA86CEA2CCCAC8CEC6D2C43D
:103D6800D6C2DAC05EDE62DC66DA6AD86ED6C18791
:103D7800AE8463D0074603C5C1C6EFD06F872A8DCE
:103D8800138481DF63130D022165258DF640664497
:103D9800D6444649B649264A964A064BF25B625CC7
:103DA800D25C425DB25D2561828083470D001307B6
:103DB800200A639CE7000349340003552D00C165C0
:103DC8006A86FD15EFF04FB105A21387C1C60349F6
:103DD8001700130710096396E71483471D0015475A
:103DE800639EE7006A85EFF06FB36A85EFC0BFF99D
:103DF80003C5C1C6EFC0DFFF2A8D69B7394763968F
:103E0800E71403554D008567A5076314F50483255A
:103E18008D0003CA0500631B0A00850581C9194680
:103E2800138501E19700FB1FE780E0B40347040016
:103E380085476318F70E63080A00230004005285BB
:103E4800EFF0CFDF5DB789472300F400EFA05011F2
:103E580069BF096793072700631CF504032A8D00CF
:103E680063010A0C83470A0089EF83472A00034746
:103E78001A00A207D98F2314F40083473A00A3003D
:103E8800F400034704008947631DF70883470A00C5
:103E980091C72300040003450A005DB78345140059
:103EA800035584008D472300F400EF509062E5B776
:103EB800930757006319F50083278D0003C5070092
:103EC800EFF04FF71DB7F977E917AA97C207C18333
:103ED800914663EEF60083A781BCE38807F09C4314
:103EE800E38507F06A858297E31105F01DA82D0781
:103EF800631EE50083A701BCE38907EE9C43E386C4
:103F080007EE0965EA852D058297F9BF896713874A
:103F1800C7006311E50283278D0083C70700E38686
:103F280007EC9307F00FE302F9ECEA854A85EFC046
:103F38009FF27DBDB907E316F5FE83A741BCE38672
:103F480007EADC43EA85E9F34DB53D476397E704A3
:103F580003554D0089671387D700E300E5FE1387F3
:103F68009701E30CE5FCCD07E31DF5FA0357640060
:103F7800C167FD17631DF70083A741BCE38707E608
:103F8800DC43E38407E60965EA854D05B5BF83A7E9
:103F9800C1BCE38C07E49C43EDB71307E003E3924D
:103FA800E7F883472D0005476393E70E83476D00C5
:103FB800938D81BBF1E383A70D00C5CF03CA07002A
:103FC800214903457D00130C8D00E285EFF04F84F5
:103FD80083474D01A303AD0083580D010358ED003D
:103FE80003574D002A8603453D003EC283572D01E5
:103FF800E286D2853EC0CA87EFF0AFD383473D0043
:1040080095E7DD4783580D010358ED0083467D0091
:1040180083554D003EC283572D013EC06287CA8733
:1040280005465285EF70005DA301AD0083A70D0022
:1040380081C71145EFF05FA9138A81BD03450A00C6
:10404800E30505DA83C591BDEFE07FC7E30F05D827
:1040580083463D0093071003638AF60003564D001C
:1040680083450A004A873685EFE05FCF238C01BC81
:10407800ADBB034A3400A9B783A781BC034A340007
:104088001149A1D3DC4395DF014582971DBF29471C
:10409800639DE70883476D00938D81BBA5EF83A7D8
:1040A8000D00B5C703CA0700214903457D00130C5D
:1040B8008D00937725001376150089E7E285EFE0F8
:1040C8003FF52A8683470D02A303CD008358CD010F
:1040D8000358AD0103574D0003453D003EC28357C9
:1040E800ED01E286D2853EC0CA87EFF08FC48347D0
:1040F8003D008DFFDD478358CD010358AD01834650
:104108007D0083554D003EC28357ED0139B7034A00
:10411800340059BF83A781BC034A34001149D1D761
:10412800DC43C1D70145829749B70947639CE7003B
:1041380083A701BCE38B07CADC43E38807CA6A8507
:10414800829765B12D476398E70083A701BCE38E8A
:1041580007C89C47DDB70D476397E7006A868D451A
:1041680003554D0085B11947E39DE7DA93056101D1
:1041780013051031EF90B1022C0813052031EF9090
:10418800110203566D008357810103554D0063E802
:10419800C70083568D000357610163F7E600930556
:1041A8000002EFA0A06291B16374E6002313ED0052
:1041B80063F4D7002314FD000357CD008356AD00E8
:1041C80003568D0083556D0001488147EFA0C05FFD
:1041D80029B993F7150099CB83A701BC89C7DC439C
:1041E80099C30145829713C514004DB693F725006E
:1041F80099CB83A781BC89C7DC4399C305458297BE
:1042080013C5240061B693F745000145E38007B85C
:1042180083A7C1BB138481DF99CB85472302F400B0
:1042280083A781BC89C7DC4399C305458297484465
:104238002C08EF90A0662808EFF02FBB83D761DE2B
:1042480091CB130600643386C70203C5C1C69145E6
:10425800EFD02F8513C5440015BE411122C42A840E
:10426800554506C6EFF0CFDDB335A00022852244C0
:10427800B24041016FA08050797122D406D68D4793
:104288002E84631FF50003D7A50083D6850003D6C7
:1042980065000345340083D54500EFF08FA109A8D8
:1042A80089671387D700631FE50203C5250019E551
:1042B8008547B25022543E854561828083A681BBE2
:1042C800E5DA03C6360083C50600814802C202C08B
:1042D8000148814701479106EFF0AFA50545EFF08A
:1042E800AFFEF9B71387E700E304E5FC138737014E
:1042F800631AE50003C5250045DD014781460146EF
:10430800814561BFE507E305F5FA41677D178147F8
:10431800E311E5FA03C75500C947E31BF7F883D64D
:10432800E50003D6C5000355840083D5A500EFA09A
:10433800604B51C15D45EFF0AFD03335A000231C71
:10434800A10083454400035524003008EF609068BD
:1043580083578101B1FF6C0813051031EF90216478
:104368009305E10113052031EF9061638357C10183
:10437800035784006374F7002314F4008357E101A2
:104388000357A40063F4E7002315F4008355840061
:104398008357A40063F4B7002315B4000357E4005F
:1043A8008356C4000356A4000355240001488147DE
:1043B800EFA0803FF5BD8547231CF10059B7C167C1
:1043C8001387E7FF639CE50083A781BB8DC383C781
:1043D80007000D47639BA7006FA0403CFD174947A6
:1043E8006395F50083A781BBE5FB3A858280494741
:1043F800EDBF238201BE23A601BE23A401BE375709
:104408000500938781E11307478998C3375705004B
:104418001307C78CD8C3375705001307079E98C7DB
:10442800374705009387C1BD1307673C98C33747D3
:10443800050013070728D8C38280397122DC06DEFD
:1044480026DA4AD84ED652D456D25AD05ECE62CC4C
:104458000347050085472A84630BF7040346850054
:10446800930695009305F1000545EFE0FF9F81470E
:1044780019C1834705008346040011476381E60498
:1044880003A781BE8D4603471700630AD70285CB71
:104498001DC70DE10145F2506254D2544259B25938
:1044A800225A925A025BF24B624C21618280814708
:1044B8000145D1B78546631ED7088D8BE1DF0345DB
:1044C8001400130A2400D285EFE09FB4A300A400CF
:1044D80083A7C1BE2A8B1389C1BE8149C1C3930476
:1044E800F00F83C741BE138C41BE63FBF90203255D
:1044F8000900939B49005E958347050063829706F0
:1045080083471500639E67051946D2850905EFC0E4
:104518005FC239C58324090003470400DE94B9E467
:10452800834604009147E387F6F683270900BDD345
:1045380003460C0001479305F00FE30DE6F4BE8433
:10454800C10703C507FF6307B50C05071377F70F06
:10455800EDB78946E310D7F4858B8DB7054525BFA0
:10456800850993F9F90FB5BF88C4E5A09147631A87
:10457800F706C84405C5834784000346050063045D
:10458800F606034704009147631BF706C84419C59C
:1045980097F0FA1FE780003323A604000345840040
:1045A80091659385E571050597F0FA1FE7808028E6
:1045B80005C5034704009147631CF704C8C4834733
:1045C8008400930594000505A30FF5FE03468400B7
:1045D80097F0FA1FE780203A034584003335A0009E
:1045E8005DBD884441BF930594000505EFC07FB4C5
:1045F8008547E318F5F85545EFF08FA4BDA8884422
:1046080051DD97F0FA1FE780E02B23A4040079B767
:1046180088C475B72380D40083471400D2851385D6
:104628002400A380F400194697F0FA1FE780A0340D
:104638000345840091659385F571050597F0FA1F88
:10464800E780401F05C5034704009147E31EF7F0C4
:10465800C8C483478400930594000505A30FF5FE9D
:104668000346840097F0FA1FE780E0308347840010
:10467800E39607EE034504007D151335150021BDAB
:10468800011122CC83A7C1BE06CE26CA4AC84EC68F
:1046980052C48DC31384C1BE2E8AAA84014908401E
:1046A80063129902630C0A0497F0FA1FE7808021CD
:1046B80023200400F2406244D2444249B249224ACB
:1046C8000561828093194900B3073501884709C9F4
:1046D80097F0FA1FE780001F1C40CE9723A407001D
:1046E8001C40CE97C84709C997F0FA1FE780801D7C
:1046F8001C40BE9923A60900050955B745DD139648
:1047080044008145EFC0DF9C144081477D5613F774
:10471800F70FE37197FA1397470036972300C700FE
:104728008507F5B779714AD083A781BE06D622D40A
:1047380026D24ECE52CC56CA5AC85EC6D1CFAA8906
:10474800138981BE938A41BE014411ED83A6C1BE7F
:1047580099CA03C60A002A8481479305F00F13F704
:10476800F70F6366C708131534002105EFC06FE41F
:10477800AA8401E92145EFC0CFE3AA8431C10144ED
:10478800CD49930700FD2380F4008547A3803401B9
:104798002381F400A381840055C49389840023A253
:1047A8003401014A930BF00F83C70A006373FA00C0
:1047B80039E883270900A68503C50700EFC0AFE9DC
:1047C80003C50A0081456D3D0325090097F0FA1FCE
:1047D800E780400F23200900B25022549254025916
:1047E800F249624AD24A424BB24B456182801397E2
:1047F80047003697034707006305B700050413749D
:10480800F40F8507A9BF83A7C1BE93154A00BE95BB
:1048180083C70500638477032380F90083C71500E5
:10482800138529007D14A380F9001946890513749E
:10483800F40F97F0FA1FE7800014A109050A137A0C
:10484800FA0F9DB723A20400ADB7411122C406C6D2
:104858002A8405E10945EFE0BFFE2A8611C503C594
:10486800C1C68545EFC0FFA30545EFF01F9F2A8409
:1048780009C903C5C1C68545EFC05FB82285EFF0F9
:104888007FEAB24022440545410182808967138747
:10489800B7006319E50083A781BE95C39C4503C58E
:1048A800070065B71387C7008147631BE5009C4570
:1048B80003C50700854709C583A781BEFDF3814766
:1048C8003E858280797106D622D426D24AD04ECE31
:1048D80052CC56CA5AC85EC662C461CD83473500F9
:1048E800AA8995C3404105C05945EFE07FF5931A61
:1048F800850193DA8A410149130B000DB54B83C733
:104908003900636EF900B250225492540259F249A8
:10491800624AD24A424BB24B224C4561828083079D
:10492800840263CF570783A781BE138C81BEADCBAA
:104938002285EFF09FB02DC5034584005105EFC0D7
:104948004FC7AA8431CD2310650123017501834720
:104958000400194693052400A301F5008307840287
:1049680015052303F50083471400A30FF5FE97F000
:10497800FA1FE7804000034684002386C4001DC652
:104988001385440188C89305940097F0FA1FE780BF
:1049980080FE83270C00A68503C50700EFC0AFCBB8
:1049A8000509130494021379F90F91BF23A8040091
:1049B800CDB783A781BEA1DBEFF0DFD62254B2507A
:1049C80092540259F249624AD24A424BB24B224CA3
:1049D800014545616FF07F88797106D622D426D2C9
:1049E8004AD04ECE52CC56CA5AC85EC662C479C1A5
:1049F80083473500AA8995C3444185C05945EFE0EE
:104A08003FE4931A850193DA8A410149930B00FD2B
:104A1800414C83C73900636EF900B2502254925456
:104A28000259F249624AD24A424BB24B224C456182
:104A380082808387F40063CA5707138A81BE83275D
:104A48000A00A5C75145EFC0CFB62A8439CD230047
:104A58007501A30005002301850183C704001946D9
:104A680093852400A301F5008387F4001505A306A8
:104A7800F50083C71400A30FF5FE97F0FA1FE7802F
:104A880080EF83C78400938594001305C400A305B1
:104A9800F400194697F0FA1FE780E0ED83270A0033
:104AA800A28503C50700EFC00FBB0509C104137930
:104AB800F90F85B783A781BEADD3EFF0BFC62254E7
:104AC800B25092540259F249624AD24A424BB24B0E
:104AD800224C014545616FF04FF883A781BE95C709
:104AE80003C707008D476313A70203C5C1C6411159
:104AF800854506C6EFC09F9013050003EFF09FC2DF
:104B0800B240014541016FF04FF5C9473E858280AB
:104B1800797126D2938481BE9C4006D622D4BDEFFB
:104B280003C7F1C6C947298B25C791652A84938590
:104B3800D571114597F0FA1FE780C0CF88C0CD47DF
:104B480021C91146A28597F0FA1FE780C0E21545F2
:104B5800EFE01FCFAA841945EFE09FCE2AC6930540
:104B6800F1011305F041EF706175938781DF83C60A
:104B780027000347F1013246B336D00011C3890636
:104B88000347340003452400A685EF90F03EAA872A
:104B9800B250225492543E8545618280C547CDBFAC
:104BA8005D71A6C2A2C486C6CAC04EDE52DC56DA01
:104BB8005AD89384C1C683C734004944A18B638AF9
:104BC800070E83A781BE41446395070E2A89EFF03B
:104BD800EF8683C744005544637DF50C83A781BBEA
:104BE80045446398070C91659385C571294597F0ED
:104BF800FA1FE78020C423ACA1BA4D445DC92946F9
:104C0800CA8597F0FA1FE78000D783A781BB83C7BF
:104C18001700DDCB2D45EFE0BFC22A843145EFE018
:104C28003FC22A899305F1021305F041EF7001692B
:104C3800938781DF83C727000347F102B337F0006A
:104C480011C3890741453ECEEFE09FBF2A8B3D4502
:104C5800EFE01FBFAA8A3545EFE09FBE2A8A394593
:104C6800EFE01FBEAA892145EFE09FBD2ACC1D4574
:104C7800EFE01FBD03A781BB2ACA03453700930590
:104C88004700EFE06FB403A781BBE24852480346F0
:104C98002700F247AA865AC6228556C452C24EC079
:104CA8001107CA85EF90D02D2A8401C50D45EFE084
:104CB800BFE12285B640264496440649F259625A15
:104CC800D25A425B616182802545EFE07FB72A8432
:104CD8002945B1B783C7F1C60145A18B99C313858F
:104CE800C1BD6FE08F8D411122C4138441BE26C21D
:104CF800AA8403450400854506C6EFF07F9883C75C
:104D0800F1C6A98BB5C723009400138581E1EFE0B4
:104D18006F8A9384C1BE9C4099C74D45B2402244D6
:104D28009244410182800345040019E10145FDB721
:104D380091659385B571120597F0FA1FE78080AFEA
:104D480088C061DD0346040081451206EFC04FB8F4
:104D58008346040090408147FD5513F7F70FE3772A
:104D6800D7FC1397470032972300B7008507F5B79C
:104D7800014523000400EFE0EF834DBF411122C439
:104D880003A5C1BB06C619C597F0FA1FE78080B313
:104D980023AE01BAB240224441018280011122CCE3
:104DA80006CE26CA8D472E846313F50603C7350041
:104DB800E94703D54500938481DF6316F70083D75D
:104DC80064006382A706EF60804E09C583576400BC
:104DD8002317F5000357A400835684000356640084
:104DE8008355440003453400EFE0AFEC035744001B
:104DF80083D764006309F7008547F2406244D244D0
:104E08003E8505618280FD572393F400F5B78967D5
:104E1800CD07631DF50083C7250031476385E7008B
:104E28004547E39BE7FCEFD0DFFFF9B741677D1704
:104E38008147E314E5FC83C655004947E39FE6FA3A
:104E480083C5450003552400300023140100EF609A
:104E580040335DB7797122D483A7C1BB06D626D269
:104E68004AD00545B5C30D45EFE09F9DAA8411457D
:104E7800EFE01F9D2A899305F1011305F041EF70BA
:104E8800E143938781DF83C627000347F101B336E7
:104E9800D00011C3890683A7C1BB36C603C5370036
:104EA80093854700EFE04F9203A6C1BBB2462A871D
:104EB8008348B6000348A600930746000346260029
:104EC800CA852685EF90500AB2502254925402594E
:104ED800456182807D57238EE1B2239801BE23ACC1
:104EE80001BE23AE01BE23A001C03757050093873A
:104EF80041E2130727F798C337570500130707251B
:104F0800D8C3375705001307C7E598C7B757050033
:104F1800938747DA23AAF1BE8280411126C283A76C
:104F2800C1BB06C622C48DCF2A840D45EFB07FE8E9
:104F3800AA8505C1930700FD2300F5008D47A3004E
:104F480085002301F50083A7C1BB03C50700EFB0A7
:104F58009FF019C42244B240924441016FF01FE20D
:104F6800B2402244924441018280797126D283540E
:104F78004500896706D622D44AD04ECE52CC56CAAE
:104F880013876700639EE40283A7C1BB014481CFF6
:104F980018450345070015E10547A380E7000545C7
:104FA800EF90407D05442285B25022549254025914
:104FB800F249624AD24A45618280EFF01FF6DDB7B6
:104FC80013879700636797041384C1B303470400EA
:104FD8009307F00FE308F7FC1C45114503C90700C8
:104FE800EFB03FDDAA855DDD930700FD2300F500E6
:104FF80089472301F500F977E117BE9493B41400AB
:10500800A3002501A301950003450400EFB0BFE408
:1050180051BFA9070144E398F4F883A7C1BBCE8A1E
:10502800D9D3184503C417008547034A07001389D5
:1050380081DF630CF40283474900ADF70D45EFB0FB
:105048005FD7AA8505C1930700FD2300F5009147A6
:10505800A30045012301F50083A7C1BB03C50700D1
:10506800EFB07FDFEFF09FD135BF83A781BF91EF0E
:105078000145EFE0EFFC2A8611C603C5C1C6894584
:10508800EFC02FA283A7C1BBA9A003C607009386C0
:1050980017009305F1000545EFD01FDD71D983474F
:1050A8000500858BF1D70545EFE08FF99307B0032D
:1050B800AA8463F9A70203C5C1C65D661306067014
:1050C8008945EFC0CFB0938444FC239891BE83A751
:1050D800C1BB0947A380E7008347490089CB230266
:1050E8000900D1B5130600643306C50271B75285AD
:1050F800EFF0BFE24DBD79714ECE83A7C1BB22D47C
:1051080006D626D24AD052CC454489EB9387C1C6ED
:1051180083C7370013F7570019EB49442285B2506B
:10512800225492540259F249624A4561828003A787
:1051380081BF414465D7034707006DD3858B2E890E
:105148002A8AC9C7834709000547F91793F7F70F54
:10515800E365F7FC916593857571314597E0FA1F12
:10516800E780406D23AEA1BA4D444DD923004501D7
:10517800A30005002946CA85090597E0FA1FE780BC
:10518800807F930571001305F041EF702113834769
:105198007100A9E703C7A1DF8D476311F704EFD0BA
:1051A8007FF02C00EF80806F2800EFE00FC44545AA
:1051B800EFE00FE901443DD1130600643306C50250
:1051C80003C5C1C69145EFC0CF8D89BFEFE01FA7CA
:1051D8002A84EF606025E377A4F6ADBFEFF09FC7A0
:1051E8002A840DDDEFF09FB915BF411126C283A7B0
:1051F800C1BB06C622C44AC0A1C383C707000D4469
:10520800639DA70203C5C1C68945EFC02F9F03C58B
:10521800C1C69145239801BEEFC04F9EA38E01DE03
:1052280083A7C1BB0145A38087002244B2409244B2
:10523800024941016F90005449442285B2402244FA
:105248009244024941018280411106C622C426C205
:1052580085476315F506138401BF83570400A1C76A
:1052680003C7C1DF29E31307B0036369F70203C566
:10527800C1C68945EFC08F980356040093070064A0
:1052880003C5C1C63306F6028945EFC08F812310D6
:105298000400B2402244924441018280938747FC33
:1052A8002310F400FDB783A7C1BBE5D72244B24061
:1052B800924403C5070041016FF03FF383A7C1BBC8
:1052C800E9DB9387C1C683C73700918BF9D303C540
:1052D800C1C68945EFC08F922244B24092442398B8
:1052E80001BE41016FF09FA983C7F1C6958BD9CF45
:1052F800B9CD83A781BFD9CBFD4763EBC70811C2DE
:10530800C1CA411122C44AC006C626C2238EA1B210
:1053180036893284A1C1938481BF88407D46814506
:105328000505EFB0FFDA8840CA852286050597E0B3
:10533800FA1FE78040648C40228523808500224440
:10534800B24092440249850541016F90204283A7EB
:1053580001C055B7938401C088407D468145050545
:10536800EFB01FD78840CA852286050597E0FA1F47
:10537800E78060608C402285238085002244B2400B
:1053880092440249850541016F90803E49458280DB
:1053980009458280797106D622D426D24AD04ECECB
:1053A80052CC8D4763FCA70009442285B250225491
:1053B80092540259F249624A4561828003C781DFEB
:1053C8004144E314F7FE938781DF83C927009307DD
:1053D800F5FF93F7F70F85462E842A89938481DF9A
:1053E80063E4F60695E199452800EFD03F9E03C592
:1053F800C1C6914523812401EFC04F80A3820400D8
:1054080029CC2381340155B7194681452800EFB0CE
:105418003FCC19462C002285EFB0BFD151F5194673
:105428009305F00F2800EFB0BFCA19462C0022855B
:10543800EFB03FD035F9A2851946280097E0FA1F4A
:10544800E7806053014465B70144E312E5FAC844B4
:105458002C00EF80A0442A8459BF6314090001443A
:10546800A9B72800EFE06F982A8441FD8D47E3181B
:10547800F9FE4545EFE0CFBC1375F50FA382A400F4
:1054880079DD03C5C1C65D66130606709145EFB0A8
:105498001FF421BF83C7F1C6918B89CF41111385B2
:1054A80041BF06C6EFD03F92B2407D57239FE1DE51
:1054B8004101828001456FD01F91411122C403A58B
:1054C80081BF06C626C24AC0138481BF19C597E0AA
:1054D800FA1FE780203F2320040003A501C093841E
:1054E80001C019C597E0FA1FE780C03D23A004005A
:1054F8001389C1C683473900958BADCB138541E22B
:10550800EFD01F8C83473900958B81EB4D45B24016
:1055180022449244024941018280116993056971CC
:105528001305000297E0FA1FE780C03008C079DD54
:10553800130600028145EFB0BFB9930559711305F1
:10554800000297E0FA1FE780E02E88C001C9130621
:1055580000028145EFB0DFB7014555BF084097E02D
:10556800FA1FE7802036232004004DB70145EFD00D
:105578003F85DDB703C70500937625009377D70FDE
:1055880099C293672700131885011358884113F7A8
:10559800F7076354080013E70708937685009377A5
:1055A800770F99C2936787001377050293F6F70D73
:1055B80019C393E607022380D50063450800937753
:1055C800A50281CB8347060093E7C7002300F600B6
:1055D80082807DFD83470600CD9BCDBF2D45631797
:1055E800071403C805000947631EE812C8410347AA
:1055F8001500034505002207498F42070D654187BD
:10560800930825A06309170B011122CC26CA4AC8A2
:105618004EC606CEBE89B68432842E8963CEE80093
:10562800930705A0630DF702130515A0630EA704E1
:10563800239004000545A5A0930745A06307F70834
:105648006346F706130565AAE314A7FE854723906A
:10565800F600DC4583C707002300F60081A0C84593
:10566800EFB03FA8420541814E86637335012A8613
:105678002390C400420641828325C900228597E011
:10568800FA1FE780402F19A8DC4583D7070023902D
:1056980006012300F600A183A300F6000145F240AD
:1056A8006244D2444249B2490561828099472390B5
:1056B800F6001946D1B785472390F600DC45014529
:1056C80083C707002300F6008280DC45A9CB214769
:1056D8002390E60003D707002300E60003D707005E
:1056E8002183A300E60003D727002301E60003D7A0
:1056F80027002183A301E60003D747002302E60021
:1057080003D747002183A302E60003D767002303DA
:10571800E60083D76700A183A303F60041B723906F
:105728000600ADBF2390060005458280828083C8AD
:10573800050089476391F814DC41797122D406D6B3
:1057480026D24AD04ECE52CC03C8170083C70700D2
:105758002E8422083368F80042088D6713580841E0
:10576800138327A0630A680E2A8A3A89B684B28509
:10577800634C0301138707A0630AE802938717A005
:105788006303F808854711A8138737A06303E80A5D
:10579800138767AA8D47E317E8FEB2502254925444
:1057A8000259F249624A3E8545618280484432C6C0
:1057B800EFB03F93420541819D47E36025FFB30960
:1057C8009900D547B24563D43701B547F9B748447E
:1057D8002686C2094A9597E0FA1FE780C01948440F
:1057E80093D9090159463306364181454E95EFB0A4
:1057F8003F8E83A781C099E3814745B79C43814584
:10580800E5DF52852DA0AD47E31909F8E39F16FBA4
:1058180083471600834606005844A207D58F2310F5
:10582800F70083A781C0E9DB9C438545F1D78297C0
:10583800E1B7AD47E31309F69947E398F6F848440A
:10584800194697E0FA1FE780001383A781C0CDD7D8
:105858009C43DDD38D4575B7AD4721F38547E39666
:10586800F6F60347060093070008E3E8E6F2DC458E
:105878002380E70051B785473E85828023A401C075
:1058880089472380F1B4138F01B48147938E01E3D4
:105898005947B386FE00238006008507E39BE7FE91
:1058A800B707A000938541B4938707059CC1B70744
:1058B800E803DCC1238301C037F60600938781A380
:1058C8001306468FD0C337F606000947138ED1B3A7
:1058D8001306868C2300EE00D0C723AEE70123AE63
:1058E800C70337F6060037FF060037FE0600854671
:1058F8001306868D938811B4138341C01388F1B3BE
:105908001385E1B3130F0F8E130E0E8D2380E8005D
:105918002380E7002388E7002380E7022388E70243
:105928002380E7042300E8002384D7002395070099
:10593800D0CB238CD700239D070023A2E703238421
:10594800D7022395070223A6D703D0DB238CD702DF
:10595800239D070223A2C7052384D70423950704A0
:10596800231003002300D50023A667042388E70437
:1059780023AE17052380E7062388E7062380E70878
:10598800B7F8060037F706001307478D9388088F86
:1059980023A2E708F0CB238CD704239D070423A276
:1059A80017072384D70623950706ECD7F0DB238C4B
:1059B800D706239D070623AE07072384D708239518
:1059C800070823A6A70837570500938781AC130754
:1059D800475E98C33757050013076773D8C323A4D6
:1059E80007008280A54763E1A70CB7E70600938705
:1059F80047420A053E951C41411122C426C206C6EB
:105A08004AC0B2842E848287D547614563E1B702D4
:105A180059468145138501E3EFB08FEB2286A685B1
:105A2800138501E397E0FA1FE780E0F40145B240EF
:105A38002244924402494101828089476145E398A2
:105A4800F5FE035706002392E1C0CDB7A147614593
:105A5800E39FF5FC2146A685138541B4EF80B10F7D
:105A6800F1B785476145E394F5FC938581A3D04D53
:105A78009385850203C50400EFF0DFAF45BF854776
:105A88006145E396F5FA938581A3D05D93858504F6
:105A9800D5B785476145E39CF5F803470600238F92
:105AA800E1B269B7094561B7094582800547630ACC
:105AB800E5024111AA8706C62E8599CB114763884E
:105AC800E7022547638BE7020945B240410182801E
:105AD8005546938501E397E0FA1FE780C0E9014541
:105AE800EDB783D741C001452390F5008280214658
:105AF800938541B4EF803106DDB783C7E1B32380D6
:105B0800F500F1BF938761C003C7070011EF054790
:105B18002380E700058909C9938681AC4146A545DC
:105B2800138581A36F308066014582800111138837
:105B3800F5FF06CE22CC26CA4AC84EC652C41378F0
:105B4800F80FAD4563ED050BB7E506000A08938528
:105B5800C5442E983E8A83270800BA893689B284BC
:105B680082878545EFD08FC12A8419E1EFF0FF9431
:105B78002285F2406244D2444249B249224A056130
:105B880082808945EFD08FBF2A847DF12685EFF08A
:105B98008F95F9BF9145EFD06FBE2A8471F952866F
:105BA800CE854A85EFD02FB5EFF03F91EFF09F8E6D
:105BB800EF80800175BFA145EFD04FBC2A844DF915
:105BC8005286CE854A85EFD00FB32685EFF0AF9188
:105BD800EFF04F90EF70D06161BFB145EFD00FBAD1
:105BE8002A8459F55286CE854A85EFD0CFB02685CE
:105BF800EFF06F8FEFF00F8EEF70905F75B709447D
:105C080085BF79714ECEAE896C0022D426D24AD097
:105C180006D62A89B284EF00B0782A840DE1CE85B1
:105C28004A85EFC09F912A8419E93245B7260500B5
:105C38002687938646532D468145EF1040112285CD
:105C4800B250225492540259F249456182807971C6
:105C58004ECEAE896C0022D426D24AD006D62A89E6
:105C6800B284EF00F0732A840DE1CE854A85EFC037
:105C7800FF9A2A8419E93245B726050026879386B4
:105C8800A6614D468145EF10800C2285B250225402
:105C980092540259F24945618280397126DAAE84FC
:105CA8004C0022DC4AD84ED652D406DEAA89328964
:105CB800368AEF00F06E2A8431EDA6856303090267
:105CC80083D704002C002314F10083D72400231564
:105CD800F100930720302316F10093078002230771
:105CE800F1004E85EFC05F822A840DE55946A685EE
:105CF8001305A1002304210197E0FA1FE780A0C73C
:105D08001245B726050052879386E64D25462C0096
:105D1800EF10E0032285F2506254D2544259B2592E
:105D2800225A21618280797126D2AE846C0022D4F5
:105D38004AD04ECE06D6AA893289EF0070662A84E8
:105D48000DE1A6854E85EFC03F812A8419E93245C9
:105D5800B72605004A87938626553546A685EF005F
:105D6800107F2285B250225492540259F24945615B
:105D78008280BD47638CF50663E9B702A547638750
:105D8800F50663EDB7009947638CF5049D47638F6B
:105D9800F5049547638CF50401458280B547638710
:105DA800F50463E1B704AD47F5B7DD47638EF50247
:105DB80063EAB700C947638BF502D9476386F502E2
:105DC800C547C9BFF5476383F50263E4B700ED47EC
:105DD800D1B793072005638BF5009307200D5DBFAE
:105DE80048458280084182800845828048418280F7
:105DF8009307F00F630CF506011126CAAA84130550
:105E0800000222CC4AC84EC652C456C206CE3A89AF
:105E1800B689B28A2E8AEFA0DFF92A844D4515C8C3
:105E2800930700FB2300F400A3005401231144014D
:105E38002302340113058400614663050902CA85FB
:105E480097E0FA1FE78020B3A2852685EFB0AF80E0
:105E58000145F2406244D2444249B249224A924A38
:105E6800056182808145EFB0AFA6F9BF0945828000
:105E7800011122CC06CE2A842306B100A306C10054
:105E8800EF50E04219CD0347C500A147631FF70053
:105E980003C5C1B478009306E0070146A285EFF078
:105EA8003FF5F24062440561828078009306E0077E
:105EB8000146A28503C5D1B4DDB793070064330654
:105EC800F6026FB02FC605C903470500854693073C
:105ED800270093F7F70F63F0F602411122C42A84D2
:105EE8003A8506C6EFB04FD5FD572300F400B240FF
:105EF8002244410182808280035705009307000BEA
:105F08006313F702834745004947639CE70003474B
:105F1800150185476399E7000355250085456F30CE
:105F2800504D6D47C5BF828001112314B1006C002C
:105F380022CC26CA4AC806CE2A89B6842315C100AF
:105F4800EF0010462A840DE12C004A85EFC00FD2DD
:105F58002A8419E93245B726050026879386C64262
:105F680015462C00EF00B05E2285F2406244D24410
:105F78004249056182807971930720302314B1006A
:105F88002315C1002316F1002C0093078002014657
:105F980006D62307F100EFF05FD0B250456182804A
:105FA800C177797185073EC4894726D22316F10047
:105FB800AE84930780024C0022D44AD006D62A89A0
:105FC8002307F100EF00D03D2A840DE12C004A851B
:105FD800EFC0EFE12A8419E91245B72605002687A4
:105FE8009386265C45462C00EF0070562285B250F9
:105FF80022549254025945618280B28605466FF058
:10600800DFC9797126D2AE846C0022D44AD04ECE34
:1060180006D6AA893289EF00B0382A840DE1A68510
:106028004E85EFC0CFBB2A8419E93245B726050053
:106038004A879386863C0D46A685EF0050512285F7
:10604800B250225492540259F249456182807971C2
:10605800930720202314B1002315C1002316F10053
:106068002C0093078002014606D62307F100EFF0C3
:10607800DFC2B25045618280011122CC06CE2A844B
:106088002EC632C436C2EF5080220DC98346C500E1
:10609800A14712472246B245639CF60003C5C1B426
:1060A800B2862E86A2856244F24005616FF05FD405
:1060B800B28603C5D1B42E86A285F5B7F2406244F4
:1060C8000545056182806FF0DFB36FF09FB36FF015
:1060D8009FC56FF05FC579714ECEAE896C0022D432
:1060E80026D24AD006D62A89B284EF00702B2A8499
:1060F8000DE1CE854A85EFC00FC82A8419E93245DB
:10610800B72605002687938606573D468145EF004A
:1061180010442285B250225492540259F2494561E2
:106128008280B28601466FF05FB7011122CC2E84BF
:106138006C0026CA06CEAA84EF009026DD47630AC3
:10614800F500930710102314F400A2852685EFC0EC
:10615800EFCCF2406244D24405618280239405006A
:1061680083D7850099E36FF09FAE094582806FF071
:10617800FFFE03C761C4854763FBE702011122CC18
:106188002E846C0026CA06CEAA84EF007021DD4753
:10619800630AF500930700102314F400A2852685EE
:1061A800EFC0CFC7F2406244D244056182805945AE
:1061B800828023A8A1C0828023AAA1C08280011165
:1061C80022CC26CA06CE2A84AE84EF50400EA6857D
:1061D8002285EFB07FEC0DE5228523169100EF5064
:1061E800000D19CD0347C500A1476310F70203C589
:1061F800C1B478009306F0070146A285EFF05FBFAF
:10620800F2406244D2440561828078009306F00728
:106218000146A28503C5D1B4D5B7011126CA06CE59
:1062280022CCDD47B68463E3B708D94763FFF50A94
:10623800A5476382F50A63EFB7049547638DF508B0
:1062480099476388F50A0544C167FD176317F6087F
:106258003AC6EFB03FE833068540324742064182EE
:10626800420441803305C400420593650708418113
:1062780032C6EF30F027AA8749C181C4324623903D
:10628800C400B30580406244F240D2443E850561B3
:106298006FA09FAAC5476380F504C9470D44E394DE
:1062A800F5FAC167FD17E31DF6FA5DB7F547638098
:1062B800F50463E4B700ED47D5B793072005638875
:1062C800F5029307200DE390F5F8C167FD170D441B
:1062D8006319F600B5BF094485BF9307200DE39104
:1062E800F5F8310642064182A5BF15445DBF0D444D
:1062F8004DBFC167FD171D447DB7F2406244D244CB
:1063080005618280011122CC26CA06CE03C645004B
:106318002E841307000281469945AA84EFF0FFEF07
:106328002AC629CD83570400034644009305540028
:106338002310F100835724002311F1008947231209
:10634800F100930780022303F10097D0FA1FE7803A
:106358008062834744008A8526852314F100EFC0B4
:10636800AF932A8411C5324597D0FA1FE78080552C
:106378002285F2406244D244056182804D44CDBFFB
:106388005D7186C6A2C4A6C2CAC04EDE894763062E
:10639800F600C1470944631AF6040144B9C52E89B9
:1063A8004C0832C6B689AA84EF00807F2A84324618
:1063B8000DEDC1778507CA851305D1013ECC230EA3
:1063C800C10097D0FA1FE780005B2C082685EFF004
:1063D8007FF32A8419E95245B72605004E8793862C
:1063E80046481D462C08EF0090162285B6402644E4
:1063F80096440649F25961618280797122D43684C3
:106408004AD04ECE52CCB2892E8A3A898146130799
:1064180010022286D94526D206D6AA84EFF0FFDFDD
:106428002AC629C12286CA85231481002312410164
:106438002313310197D0FA1FE780E0534C002685DB
:10644800EFC0AFA82A8411C5324597D0FA1FE7805C
:1064580060472285B250225492540259F249624A46
:10646800456182804D44F5B7011122CC26CA06CE7B
:106478004AC8DD472A84AE84638DF50281470355F7
:1064880004006C002306F100EFC0CFA70545638C1C
:10649800A40803458400B165938505B8EFB0CF80A3
:1064A800E5472301F400B7270500938727705CC0F0
:1064B80095A8034755013149B28633062703184981
:1064C8009C4232971043E31BF6FA83D746000356E3
:1064D8004700E315F6FA8C460847EFA09FC559DD3B
:1064E8008347540103474401850793F7F70FA30A2D
:1064F800F40063F0E704B387270318480355040042
:10650800BA97984783D6470003D6270083D5070054
:10651800EFF0BFEE25F503458400B165938505B816
:10652800EFA09FF85945F2406244D24442490561C0
:10653800828083476401A1B7011122CC26CA06CE06
:10654800DD472A84AE84639CF50603550500EFB049
:106558007FB80356C40183562401035744016D16BE
:106568002A9642064182B307D640C207231EC400BA
:10657800C18363F1E7089305C5FF3308F740635CFF
:10658800B802BA96918EC206184C83550401035579
:106598000400C1823E97EFF05FE615E103458400F1
:1065A800B165938505B8EFA03FF05945F2406244C4
:1065B800D244056182806D1593160501F1B78147B4
:1065C800035504006C002306F100EFC0AF930545A6
:1065D800E38EA4FC03458400B165938505B8EFA05C
:1065E800BFECE5472301F400B72705009387277020
:1065F8005CC065BF8547E9B7397126DAAE842C00DF
:1066080022DC4AD84ED606DE2A89B289512B2A8442
:1066180021ED4A85EFB01FAC83D644006D1563C5E4
:10662800A60093160501C182984403D6240083D599
:1066380004004A85EFF07FDC2A841DE53146A685F3
:1066480008082306010097D0FA1FE780C03283D7D5
:1066580024002245B72605004E879386E6685D46E6
:106668006C00231EF100E5252285F2506254D254B5
:106678004259B259216182806FF01FF86FF0DFF73D
:10668800797126D206D622D44AD04ECE52CC56CADA
:106698005AC88944C5C159CE2E842A89BA8A368BEC
:1066A800328AEFB03FA3930544008147711503D7A1
:1066B80005006352A70A850793F7F70FB105E3189A
:1066C800FAFE8A854A85E929AA842DE531453305EC
:1066D800AA02916593851570CD4497D0FA1FE7807B
:1066E8006015AA8921C931463306CA02A28597D006
:1066F800FA1FE780402818448356440003562400B4
:10670800835504004A85EFF05FCFAA841DED02454A
:10671800B7260500854756879386E6685D464C0090
:106728002302F1004EC423064101A30601002307FA
:106738006101312DB2502254268502599254F249F2
:10674800624AD24A424B456182804E8597D0FA1FF1
:10675800E7804017C5B7ED44F1BF79714ECE37F6E3
:106768000600AE89C16526D20147AA848946130668
:10677800C68FFD15054522D406D64AD0EF10F01075
:10678800054431CD2A891307300281461146F54563
:106798002685EFF09FA82AC6554431C18357A90022
:1067A800CE8601462314F10091472315F100854751
:1067B8002300F500B2472C002685A3800700324746
:1067C800FD572301F7003247A301F700EF10B0018E
:1067D8002A8411C5324597D0FA1FE780A00E22857A
:1067E800B250225492540259F249456182804111B3
:1067F80006C6EFF00FD819C5B240410117D3FA1FEA
:106808006700430CB24041018280A386A1B4828014
:106818002386A1B48280011106CE2AC6EFB0AFF25A
:10682800FD57A386F1B432452386F1B423A801C0ED
:1068380023AA01C091452386A1C0EF30C046F2408B
:1068480005616F20D02993970501C18763D307128B
:1068580003C5C1C0797122D44AD006D626D22E8962
:10686800EFA00FD92A8441CD034705009307000AFA
:106878006314F70885474C08A305F100EFB08FF8BB
:10688800AA841DE98347610171476373F708138779
:1068980017FE1377F70F9306000263F2E608858B5D
:1068A800D5C383A701C1994481CB0355240013069E
:1068B800B1004C088297AA848347B10099C708445D
:1068C80009C597D0FA1FE780E0FF95E05247B70760
:1068D8000001938707F07D8FB70712009387071091
:1068E800630CF70003476101ED476317F700035591
:1068F80024008545EF30E02F2285EFA0CFC8B250A5
:10690800225421653345A900925402594561828079
:106918003707301405073357F700058B49D303A70A
:1069280041C159DB0347510141FB2306F100994757
:106938002308F100035524006C0023170100EFB071
:106948007F909DBF83A741C19DC3035524001306B3
:10695800B1004C0882972DD1AA8483475101A9FF21
:1069680083476101230891002306F100E1B79944A8
:10697800EDB701458280397122DC26DA06DE4AD875
:106988004ED652D456D25AD0A5472A84B284639997
:10699800F5108347450203570600835A26008507EA
:1069A8002302F5029307F7FFB387FA025442C2079E
:1069B800C183B69703C9170083C707008346C5007C
:1069C80022093369F90085476390F60233075703B4
:1069D800231006008149014A130B3501931A070158
:1069E80093DA0A0163E15907C167FD176302F90CDD
:1069F80083570401637EF90A050942098346C400E6
:106A08001359090123172401054703550400930569
:106A1800E400639FE6002315F10093072030231656
:106A2800F10093078002231421012307F1002C00B1
:106A3800EFB09FAD03458400B165938505B8EFA01D
:106A4800BFA65945BDA083D62400DC408345240158
:106A5800ED1613865900C206C1823E965A85EFB0DC
:106A68008FD305C9630C3A01C84003D62400B30587
:106A78003501529597D0FA1FE780E0EF83D72400BD
:106A88003E9A83D70400420A135A0A0185072390C5
:106A9800F40083D72400BE99C20993D9090199B794
:106AA80003474600A9476310F7028347450281CF91
:106AB8000145F2506254D2544259B259225A925A5C
:106AC800025B21618280834624011309340137F572
:106AD80006004A8689451305458FEFB0CFCB19C10B
:106AE8000545C1BF8346240137F506004A86894516
:106AF8001305858FEFB02FCA65F58346240137F556
:106B080006004A8689451305C58EEFB0CFC869F9D6
:106B18008346240137F506004A8689451305858D85
:106B2800EFB06FC755FD03C74400BD47E3EAE7FA76
:106B3800A56793874712B3D7E700858BD5D38347DB
:106B4800440285072302F40203D9240071BD03C659
:106B580001C703A781C181476315F60081463685C1
:106B68008280BA8613078702835587FDE389A5FECD
:106B7800850793F7F70FCDB7011106CE2EC6EFF0B4
:106B88001FFD01CD8347A500B24513871700639603
:106B9800E50093F707F82305F500F24005618280C8
:106BA800011106CE2EC6EFF09FFA05C5B24591C178
:106BB80088C1834785001307E00F5D456388E700B8
:106BC8001307F00F01456383E7005945F24005615B
:106BD80082800945E5BF411122C42A84210506C6E1
:106BE80026C24AC0EFF02FAE83472400A51793F7BB
:106BF800D70F91EB0347C4008547631EF7041C4871
:106C0800814431499DEFFD5723010400A304F4009A
:106C1800230204021305C4002244B24092440249EC
:106C28006146814541016FA0AFCAB38724033E95F1
:106C3800084509C597D0FA1FE780C0C8850493F4B2
:106C4800F40F834744010848E3E1F4FE97D0FA1FA4
:106C5800E78040C74DBF084C75F975B7411122C48C
:106C6800416406C626C29307E4FF630EF500AA84B2
:106C780085E1EFF0DFED01E91305F4FFEFF03FEDFB
:106C880019C123109500B2402244924441018280E8
:106C980085476395F504EFF09FEB2A846DD5FD5782
:106CA8002310F500834784001307F00F6385E7027C
:106CB8001307E00F638BE700834624000345940025
:106CC80001475146A685EFF0AF922285EFF0BFF05D
:106CD800FD572304F4002305040075B78947E3949E
:106CE800F5FA8545EF40007D59FD2685EFF03FE632
:106CF8002A844DF949BF39C9034785009307F00F26
:106D08006306F704011122CC06CE2A8483462500A7
:106D1800835505000345950001475D46EFF04F8D0B
:106D280003472400E1476319F700035504006C008A
:106D380023060100EFB01F9DF9572304F4002285B4
:106D4800EFF07FE9F2406244056182808280930718
:106D5800F00F6306F706011122CC26CA2A844EC614
:106D6800AE84B689AA8593068500377505004AC89A
:106D780052C43A89328A1305E5CF794606CEEFF038
:106D8800CF93A3042401230144012322340185C0A5
:106D98001305C4006244F2404249B249224AA6851A
:106DA800D2446146056117D3FA1F6700C3BCF2409D
:106DB8006244D2444249B249224A056182808280B3
:106DC800238EA1C082809547639CF50683474502C0
:106DD800854685072302F502835706005842034675
:106DE8002600FD17C207C1836318D6048A07BA971D
:106DF80003C7170083C707002207D98F0357E50089
:106E080063F9E704411106C622C485072316F50075
:106E18002A849305C50003550500EFB02FE5034507
:106E28008400B165938505B8EFA00FE8B24022440D
:106E3800D9473E8541018280C946B387D70245BFFD
:106E480083464600294785476396E600034745027F
:106E580011C381473E8582809D476392F50683472B
:106E680045028356E50085072302F502835706008D
:106E78005842FD178A073E978347170003470700C4
:106E8800A207D98F014763F6D704411106C622C469
:106E980085072A842316F5009305C50003550500C8
:106EA800EFF04FC603458400B165938505B8EFA0A0
:106EB800AFDFB240224459473A8541018280834678
:106EC8004600A94705476396F6000347450213376E
:106ED80017003A858280411122C406C626C2B547EA
:106EE8002A84639BF50483474502B28485072302FD
:106EF800F50203550500EFB0EF9D83D70400130793
:106F0800F5FF014563C5E7020357E4000355040094
:106F18009305C400BA972317F400EFB0EFE30345D5
:106F28008400B165938505B8EFA00FD85945B240E4
:106F38002244924441018280034746009D4705450B
:106F4800E317F7FE0345440213351500CDB7C547CF
:106F5800639EF5068357060003572600FD17B3877F
:106F6800E7020347450205072302E5025842C20724
:106F7800C1833E978347370003472700A207D98F6D
:106F880041677D176395E70081473E8582801387B7
:106F980017002316E5000357E500E3F7E7FE411164
:106FA80022C49305C5002A840355050006C6EFB020
:106FB8000FE403458400B165938505B8EFA0CFCEF3
:106FC800B2402244D9473E8541018280834646002B
:106FD80029478547E39BE6FA0347450255F775B706
:106FE800011122CC26CA4AC852C406CE4EC683C74F
:106FF800250015472A8AAE8432843689639DE704C2
:107008003686A2852685EFF01FDCAA8955E98547D3
:107018006318F40A03474900A9476301F70203C547
:1070280094004A8785460146D285EFE07FDC19E562
:1070380085454A85EFE0FFD31334150083C6240045
:1070480003C5940001476946D285EFE07FDA2685BB
:10705800EFF07FB851A01D476398E7003686A285F8
:107068002685EFF07FDF55B725476398E70036861A
:10707800A2852685EFF03F9049BF35476398E70022
:107088003686A2852685EFF01FE541B74547639808
:10709800E7003686A2852685EFF07FEBBDB75D4712
:1070A800639FE70003C7C50085473686A285268506
:1070B800631DF702EFF04FBB8547631BF504854955
:1070C800A5476317F402835709009DE30544E38746
:1070D80009F6D947E39DF9F62285F2406244D24485
:1070E8004249B249224A05618280EFF0EFC4E9B70C
:1070F80003C594004A87A2860146D285EFE05FCF98
:1071080071F5A2854A85EFE0DFC613341500C1B7D3
:107118000544D9B7397122DC06DE26DA4AD84ED6BC
:1071280052D456D283D705001944A1E783C9250054
:107138002A89328A938759FE93F7D70FAE84CDE711
:1071480083C6C1C11307F00F938AC1C11944638272
:10715800E602F5476394F904EFF07F9FAA8921C1FD
:107168000346A5000DCE93178601E18763DD07006E
:1071780001442285F2506254D2544259B259225ADB
:10718800925A21618280F5454A85EFE07FCE83C718
:10719800A90093E707F82385F900D9BF814983D669
:1071A8004400904483C5140003C504003800EFB0C0
:1071B8008FD62A845DFD83C6240003C50A003800E3
:1071C8000146CA85EFE0DFC22A8445F5B24799C374
:1071D80023000A0083C724007547E39BE7F8E38987
:1071E80009F82385F90071B7EFF07F96AA8A49D18B
:1071F80085476396F90883D5440088443000EFA09A
:107208005FEF2A843DF503C72A00C54763F7E708FF
:10721800DD476306F70A03C59A0083C7C1C06393B5
:10722800A70A014403C72A008D476316F70483574A
:10723800810003D7CA0063F4E7002396FA0083D5D8
:10724800CA004A85EFE0BFF783C771D56D476374FD
:10725800F70283D5CA005D47637FB70013873500FF
:107268006354F70891051166C20513060629C18102
:107278004A85EF70204D5685EFF0FF95DDBD8347B9
:1072880025001144E39737EF5C41E38407EE83D58B
:107298004400884430008297ADB7B727020093872F
:1072A800072AB3D7E700858BBDD703C6240034006F
:1072B800D6854A85EFF0DFD22300AA005DBD83A7FB
:1072C8000A01DDB783C6240038000146CA85EFE00D
:1072D8003FB22A8421F983C524002800EFE07FA962
:1072E80029D123000A003DBF1307B00F93F5F70F0C
:1072F8006374F7009305B00F1166130606298DBF56
:10730800011122CC06CE26CA4AC84EC652C4938959
:10731800C1C603C549009307800291653305F5028C
:1073280093856570938481C197C0FA1FE780805068
:1073380003C649009307800281453306F60288C0D8
:10734800EF901FD99C404D45A1C39384C1C61389B2
:1073580081C10144130A8002FD5983C74400636D4B
:10736800F402377505001305C511EFE09FE4377582
:107378000500130505B8EFA03FC8377505001305CC
:1073880045C6EF40C00A0145F2406244D244424932
:10739800B249224A05618280B307440303250900E4
:1073A8006146814505041374F40F3E952310350199
:1073B80023010500231435012305050023020502D6
:1073C8003105EF90FFD051BF0145828083C611C7B8
:1073D800814763E5D70001473A8582802E8791056A
:1073E80003D6C5FFE30AA6FE8507E5B70DCD83479B
:1073F80025000547890793F7F70F6376F7024111D0
:1074080022C406C62A848355050003453500014772
:10741800F9465D46EFE0DF9DF9572311F400B240CD
:10742800224441018280828003C711C7FD568147EB
:1074380063E3E70082802310D50023010500850758
:107448001105FDB7014582801386B1B59307000287
:107458002300F600FD57238DF1B4A387F1B42387E9
:10746800F1B48545239CB1B4239F01C023A401C274
:1074780023AC01C223A601C2B7F70600938601B563
:107488009387878EDCC2238001C2938741AD094769
:107498002380E6002380E7002388E7002380E702B3
:1074A8002388E70237F706001307C78DD4C7D8DB50
:1074B800B7F606000D47238CE7029386868DD4CB5A
:1074C80003A741C237F50600B7F606001305458F36
:1074D8009386C68FC8C32384B70023950700238CDF
:1074E800B700239D0700D0CFD4D323840702239568
:1074F800070223A60702239D0702D8DF3777050076
:10750800938741B11307075D23A00700D8C323A4BD
:1075180007008280411106C6EFF05FEB11C50345F5
:107528002500B240410182800145E5BF411122C4D6
:1075380026C24AC006C6AA842E893284EFF01FE903
:1075480011E94165CA857D15EFF05FE8C54711C5AA
:1075580023109500230185008147B24022449244BC
:1075680002493E854101828029E78948354763936E
:107578001605011106CE22CC26CA0347160003467B
:10758800060093C7F7FF2207598EF18F32C68DE7A1
:10759800C4452A84A685EFF0FFF732460147630FFA
:1075A800A60022856244F240A685D24405616FF0A8
:1075B800FFF72D473A85828013070008F24062449E
:1075C800D2443A850561828083C8050009486395DD
:1075D800080303A845008347180003480800A207CA
:1075E800B3E70701C2070D68C187130828906395A0
:1075F800070189476FF05FF705458280011122CCAA
:107608001384F1B40347040006CE26CA4AC84EC6FE
:107618009307F00F6300F704AA892945B2842E89DD
:10762800EF902FF905C99307100B2310F5002302DB
:107638000500231135012313250123149500AA857C
:10764800034504006244F240D2444249B24905610C
:107658006F907F80F2406244D2444249B24905614A
:107668008280411126C2AE8483A541C222C406C6C7
:107678002A84EFF03FEA098909C922852244B240E9
:10768800A685924441016FF04F8DB2402244924446
:10769800054541018280411122C426C24AC006C65E
:1076A800AA841304450013090504835704008DC3F5
:1076B800084409C597C0FA1FE780C02022853146D3
:1076C8008145EF90FFA03104231A04FEE31F24FD37
:1076D800B2402244FD572390F400024992444101EC
:1076E800828003C611C703A701C381476315F6004B
:1076F800814636858280BA8613070704835507FCBE
:10770800E389A5FE850793F7F70FCDB783A781C354
:1077180089CB03D747006314A700884782809C431E
:10772800C5BF01458280411106C6EFF03FFE09C57D
:107738000845B240410182800145E5BF011126CAD2
:107748009384450022CC4EC606CE4AC852C456C2BF
:107758005AC0268781490144814681471545035609
:10776800070045CEC9E20354470083572700B28675
:10777800A297C207C18385093107E392A9FE35C4E0
:107788002E89916593854570228597C0FA1FE780F9
:10779800600A2A8B39C9814A014A8C4485C503D6B7
:1077A800440033054B0197C0FA1FE780C01C83D7FC
:1077B800440088443E9A420A135A0A0197C0FA1FA5
:1077C800E780401063870A00314681452685EF909F
:1077D8003F90850AB104E3E23AFD232669012314A8
:1077E8008900054521A0630DD6000145F240624499
:1077F800D2444249B249224A924A024B05618280E8
:1078080003562700E313F6FE035647003294B29757
:107818004204C2074180C183B9BF0545E37835FDFD
:10782800B9BF83A7C1C299E301458280984703572E
:10783800A7006315A7001385470082809C43E5B71E
:10784800411106C6EFF0FFFD11C503550500B24012
:10785800410182800145E5BF411106C6EFF07FFC7A
:1078680011C503452500B240410182804145E5BF6D
:10787800411122C42A842E8506C6EFF0FFFDAA8591
:1078880005462285EF30502595476305F500BD472D
:107898006313F5002145B240224441018280411121
:1078A80022C406C603A4C1C281469387C1C229C0A7
:1078B80018440356A70018406317A60285CA98C241
:1078C8002E8581C921469305440097C0FA1FE78099
:1078D800800A228597C0FA1FE780C0FE0145B240A2
:1078E800224441018280A2863A84D1B798C3C9BF95
:1078F8000545F5B783A781C30146138781C3A9C787
:1079080003D847009443631CA802011106CE22CC79
:1079180026CA0DCA14C2AA843E852E8497C0FA1FAF
:10792800E78040FA2C002685EFF07FF701E519C0C3
:10793800B2471CC0F2406244D244056182803E8650
:10794800B68775BF14C3C1BF05458280411122C4E3
:107958002A84090506C6EFE00FD7FD57A301F400F6
:10796800B24022444101828003C711C783A741C3A3
:107978002A86050781463E8583D707006388C700A6
:10798800850693076500E3E8E6FE0145828041111C
:1079980022C4416406C626C29307E4FF630EF500BD
:1079A800AA8485E1EFF05FFC01E91305F4FFEFF02D
:1079B800BFFB19C123109500B240224492444101F3
:1079C800828085476394F504EFF01FFA2A846DD509
:1079D800FD572310F500834724001307F00F638435
:1079E800E7021307E00F638AE70003453400014705
:1079F800F9465146A685EFE0AFBF2285EFF01FF5A7
:107A0800FD572301F400230204007DB78947E3955D
:107A1800F5FA8545EF30102A45F12685EFF0DFF4B9
:107A28002A8455F951BF1D71A6CACEC686CEA2CCEE
:107A3800CAC8D2C4D6C2DAC05EDEAE8483C5250009
:107A4800F947AA896397F504EFF01FF22A8411ED2C
:107A580001442285F6406644D6444649B649264A3A
:107A6800964A064BF25B25618280834725000547CD
:107A7800890793F7F70FE37DF7FC034535000147C6
:107A8800F9460146CE85EFE0AFB62285EFF01FEC50
:107A9800C1B703AB0400B7070001938707F03707A6
:107AA8001200B377FB0013070710B28A0149638AF3
:107AB800E7022EC6EFF05FEB2A89B2451DC10346E7
:107AC800450005C293178601E187E3C307F84E8591
:107AD800EFE00FBA8347490093E707F82302F9005C
:107AE80085BF03C7A1B59307F00F138AA1B5194441
:107AF800E301F7F6E147E3EEB7F493D71500FD1776
:107B080013973700B7E706009387C747BA9703A8C4
:107B18000700E30008F483AB4700E38C0BF2420B49
:107B2800135B0B0163050B00C947E394F5F283D699
:107B38004400904483C5140003C504003808029823
:107B48002A84E31805F02C084E85829B2A8421C9D3
:107B580083C71400E39F07EE83C72400230AA1000C
:107B680039472308F1006399E70262478347170002
:107B780003470700A207D98F0C084E852319F10087
:107B8800EFA04FECE30605EC14080546D9454E85F1
:107B9800EFE08FCE2A8475BD83578101F1BF83C67C
:107BA80024009147E386F6EA03450A0038080146AF
:107BB800CE85EFE0EFA32A84E31D05E883C5240002
:107BC8002808EFE00F9B19C123800A009840B707E7
:107BD8000001938707F07D8FB7071200938707107E
:107BE800E308F7E6E30609E683C724002302F90061
:107BF8008DB5011106CE2EC6EFF01FD701CD8347F4
:107C08004500B245138717006396E50093F707F818
:107C18002302F500F2400561828003A7C1C219E37F
:107C2800014615A81C4703D8A700636B05018358B4
:107C38004700B38608016355D50081466394160151
:107C48001843F1BF3E86C10703D3A7FF6317A300FC
:107C580099C123900501328582808506C206C182BA
:107C6800F1BF397152D42E8A4ED69305E101AA8903
:107C7800528522DC4AD856D206DE26DA328936C642
:107C88003AC4BE8AEFF07FF9054435C5AA84035586
:107C9800E1013944EFF09FA739CD03284500630C73
:107CA80008042247B246D6874A86A6854E8502989A
:107CB8002A8431E19307E00F638FFA0203C70400B7
:107CC8008947631AF702D84083471700034707001C
:107CD800A207D98FC2070D67C18713072790639C36
:107CE800E7008347190003460900D285A2075D8E85
:107CF8004E85EFF0BF902285F2506254D25442591B
:107D0800B259225A925A21618280797122D403543D
:107D180025004ECEAA89228556CA06D626D24AD032
:107D280052CC5AC85EC662C4AE8AEFF09F9B01E986
:107D38002285EFA0DFF1594429E90144B9A003C71E
:107D480089008547AA840144631AF702AA85138526
:107D58008900EFF0BF9E29CD03D7640083D6840045
:107D6800D04483D5440003D52900E147EFF07FEFE5
:107D7800D9472A846318F50223A604002685EFF064
:107D88009F9149C0D947E30AF4FA2285B250225498
:107D980092540259F249624AD24A424BB24B224C9F
:107DA8004561828061DD83D744002390FA00F9B7EA
:107DB80013894400014A914B594C154B83550900CE
:107DC800D5DDE14763067A010357C90011C3D947D6
:107DD80003572900835649000326890003D5290043
:107DE800EFF03FE82A846319850123240900050A76
:107DF8003109E3156AFD59B77DD9835709002390E6
:107E0800FA00F5B703D529002DB701112317C100D2
:107E18009307E00F1306E1000147894606CEEFF00D
:107E28005FE4F24005618280797122D42A84035587
:107E3800850026D2AE849305210106D64AD0EFF0FC
:107E4800DFDD6308050E834785002AC693F707021E
:107E58008DCF03552101EFF01F8DAA87B24501EDA3
:107E68008357840039452390F400B2502254925429
:107E7800025945618280035524004946829711C5FD
:107E8800835784002390F400CDB7035924004A8512
:107E9800EFF03F8511ED41657D15EFF09F8419E501
:107EA8008357840025452390F400C1B7231025018A
:107EB8001307450081479546035607002DE63147CD
:107EC800B387E702130984003146CA8591073E95B6
:107ED80097C0FA1FE78020AA3146CA85480897C08C
:107EE800FA1FE78040A90356C40003552400414700
:107EF8008146DD45EFE06FB22ACE19E5835784004D
:107F080045452390F40095B70C480356C40097C024
:107F1800FA1FE78040A6035524004C08EFA0FFCEC7
:107F280029D5594599B785073107E397D7F82545E6
:107F380081BF0545B1B7797122D42A8403558500DC
:107F480026D2AE849305E1014AD006D63289EFF0F5
:107F5800DFCC51C58347850093F70702A9E703479C
:107F680014019307200519E3834744008356A400AE
:107F7800504483558400035524000147EFF07FCE19
:107F8800AA8721E98347140199E703552400EFA044
:107F9800FFC2D94711E18147B25022549254025985
:107FA8003E85456182802AC60355E101EFF0AFF7AF
:107FB800AA8705C9B2450355240049468297AA876E
:107FC80059DD035784002390E4000347140161F747
:107FD800E1B75947E317E5FE230009006DBF854760
:107FE800CDB7B947F9BF397122DC4AD84ED652D439
:107FF80006DE26DAAA892E8A32C63689EFF0DF969F
:10800800094415C5834725001307E00FAA845D447A
:10801800638FE7001307F00F5944639AE70032466D
:1080280005E2D2854E85EFA07FC62A8415CD22852C
:10803800F2506254D2544259B259225A2161828074
:1080480003550A009305E101231F0100EFF0FFBC6F
:108058000355E101EFF05F80AA8505464E85EF30B4
:10806800A0272A845DDDE1B79307F00FE301F9FC4F
:1080780037750500938624007946A6851305453F84
:10808800EFD0BFE3A38124015DB7397126DA83A459
:10809800C1C252D45AD05ECE62CC06DE22DC4AD8A7
:1080A8004ED656D266CA2A8BAE8B328C368A99E067
:1080B8008149B9A0804483DC44000149835AA40063
:1080C800631499018440E5B78357A400A28963F833
:1080D800670105094209135909014104D5B7E3EAC3
:1080E800FBFE630C0A00834504004840D286628682
:1080F8003AC6EF905FEA324769DD19C3231057018A
:10810800F25062544E85D2544259B259225A925A68
:10811800025BF24B624CD24C2161828003D705008E
:1081280083D62500854763E9E60439C7411183C62C
:10813800450026C237F506009384550022C42686DA
:108148002E841305458F894506C6EF90DFE4C147A5
:1081580011CD83464400835524000355040001478C
:108168002686EFF09FF2814711E1A947B2402244E9
:1081780092443E85410182803E8582802E86035549
:10818800060083D52500854763E2A50205C183461D
:10819800460041110147150606C6EFF01FEF81475B
:1081A80011E1A947B2403E85410182803E85828027
:1081B8002E860355060083D52500854763E2A50270
:1081C80005C18346460041110147150606C6EFF072
:1081D800DFEB814711E1A947B2403E85410182802A
:1081E8003E85828039714ED683D7250083D9050014
:1081F80006DE22DC26DA4AD852D456D25AD05ECECF
:1082080062CC66CA6AC863E037198547638E091469
:10821800416BAE8A2A8A2314010002C6014401492F
:108228007D1B894B054CC94C054D83D52A00014758
:10823800814601464E8523130100EFF01FE5AA840D
:108248006300051209EC13072002930661005A86A1
:1082580095455285EFD07FFC2A84630805120357A1
:10826800810083C7040045C70347A100630CA70723
:1082780041476385E7022C005285EFA00FE209CD44
:1082880034001546D9455285EFD01FDF11C5324558
:1082980097B0FA1FE78000638147F9A083D7A4004D
:1082A8004146130524002300F40083D7A400A183CA
:1082B800A300F400CC4097B0FA1FE780C06B4904D4
:1082C800835781008507C207C1832314F10063F92E
:1082D800270983D7A400638567098509C20993D94B
:1082E8000901A1B7E39977F983D7A40009461305D3
:1082F80024002300F40083D7A400A183A300F40082
:10830800CC4097B0FA1FE7800067110455BF22C61A
:108318000359610003C7A40013052400638277038F
:1083280033599903230571012300E40083D7A4007E
:108338004146A183A300F400CC401379F90FA5BFEF
:10834800230581012300E40083D7A40013592900E1
:108358001379F90FA183A300F4000946CC4055B75F
:108368008357810089FBA947F2506254D25442597D
:10837800B259225A925A025BF24B624CD24C424D8D
:108388003E85216182808547C5B7C547F1BF03C7D0
:1083980061C4854763F3E706011122CC26CA4AC89F
:1083A80006CE2A843289AE84EFF00FDC01C9034778
:1083B80025009307E00F5D456308F700631C09007B
:1083C800A6852285EFA07F89F2406244D2444249C3
:1083D8000561828003D504009305E100231701009D
:1083E800EFF0BF830355E100EFF00FC7AA850546FC
:1083F8002285EF20706E69D5C1BF5945828013F779
:10840800050201C7B2856FF0AFC6411126C24AC046
:1084180006C622C413F98500AA84631709001397B6
:1084280085016187635D070232853684EFF0CFC22C
:10843800AA8505466313090001462685EF20D06901
:1084480001E90145B2402244924402494101828037
:1084580083479400E5DB83478400E5F7E5B793F7A6
:108468002500E5F30D45F9BF7971AE8622D42A843B
:1084780003D506009305E10106D636C6EFF0EFF9FD
:1084880009CD83458500B2460356E1012285EFF008
:108498001FF7B2502254456182800545DDBF13F7AE
:1084A800050201C7B2856FF0AFBC411122C426C2D4
:1084B80006C693F485002A8491E4139785016187A1
:1084C800635007023285EFF02FB9AA85054691E07F
:1084D800014622852244B240924441016F20D05F78
:1084E80093F72500014591E30D45B240224492449B
:1084F800410182807971AE8622D42A8403D5060090
:108508009305E10136C606D6EFF02FF1B24601CD4C
:10851800834585000356E1012285EFF05FF8B250EC
:108528002254456182800545DDBF797126D2AA842F
:108538000355A500C16722D44AD04ECE06D62317CC
:108548000100FD173284B6890149630DF500050560
:1085580083C60400D04042051307E1004181EFF0D3
:10856800DFB22A8983C60400D04037F50600894562
:108578001305458FEF903FA21DC503D4A4002285A3
:10858800EFF00FAC09C57D142A944204418063843E
:10859800090023908900B25022544A859254025906
:1085A800F2494561828083C60400D04037F5060051
:1085B80089451305858FEF901F9E61F183C60400DE
:1085C800D04037F5060089451305858DEF90BF9C8F
:1085D80019C9E30609FA8357E100E39287FA0354BD
:1085E800A9007D145DB703D4A40055B7397122DC06
:1085F80026DA4AD84ED652D456D25AD062CC06DEA3
:108608005ECEBE8983C785002A8AAE84C18B328C30
:1086180036843A89C28A468B9DE783CB0400894712
:10862800638BFB046285EFF06F8E1DC18328050004
:10863800638008025A88D6874E87CA862286A6850E
:108648005285829839A03285EFF0EF8DAA8711ED17
:108658003945F2506254D2544259B259225A925A68
:10866800025BF24B624C216182802946A6855285C5
:10867800829745D5F9BFD8408347170003470700BD
:10868800A207D98FC2070D67C18793060790638039
:10869800D72263CCF60693062780638CD70C63C178
:1086A800F60213070780E3CFE7F62D45E39309FAAF
:1086B800DC4403C60700CC432310C900228559A215
:1086C80013073780E390E7F62D45E39409F88547CB
:1086D8002310F900DC44814583C707002300F40018
:1086E80003D5A400050542054181EFF00FD3835758
:1086F80009006315051291072310F90011468145F9
:1087080013051400EF80DF9C29A29306279063814C
:10871800D71863CED71293063790638AD7181307F2
:108728004790E391E7F02D45E39509F2DC441D47B6
:108738002310E90003C707002300E40003C717005C
:10874800A300E40003D727002301E40003D7270090
:108758002183A301E40003C747002302E40003D7F1
:108768006700A302E40083D76700A1832303F40012
:108778004DA02D45E39F09ECDC446C0083C917002C
:1087880003C70700A209B3E9E90011472310E9006C
:1087980083C707004E852300F400DC4483C7170015
:1087A800A300F400EFF06FC7AA8435C50356C100D3
:1087B800C1659306E100FD158329C500EFF0FFD6DA
:1087C80019ED83C60400D04037F506008945130526
:1087D800858FEF904FFC01E5FD572317F10003C784
:1087E800090089476310F70283A549000946130564
:1087F800440097B0FA1FE7800018835709008907DB
:108808002310F9008357E1002301F400A183A30199
:10881800F40001453DBD23173101EDB703470500BD
:108828008907BA972310F9008357A500A300F4001D
:108838008357A500A1832301F400034605004C419A
:108848001305340097B0FA1FE780E012D9B7C8447F
:10885800EF803F8993170501C1832A871D45E3EA05
:1088680037DF6399F90023100900CC440356090047
:10887800CE95A9B54207B3863A01418363C7E6009E
:10888800B38737412310F900CDB723105901F1BF41
:108898002D45E39009DCCC445285EFE0BFC7231097
:1088A80079012300A4002181A300A4009DB72D45D0
:1088B800E39109DADC442310790183C70700230018
:1088C800F400DC4483C71700A300F40099B71D71B6
:1088D800CAC82A8903552500A2CCCEC6D2C4D6C29E
:1088E800DAC05EDE62DC66DA6ED686CEA6CA6AD8E2
:1088F800AE8AEF902FFE130CF5FF93170C01C1837E
:108908002A8A8149138481E43EC6C16D8357C90010
:1089180063F6F9008357040063CC870103552900E7
:10892800938581E4EFA00F9E2A8D15CD594D25A87A
:1089380083278900139719009305E101BA9783C427
:10894800170083C70700A204DD8C2685EFF0EFAC83
:10895800AA8515E923909A004840054D09C597B0A6
:10896800FA1FE78020F6F64066446A85D6444649F1
:10897800B649264A964A064BF25B625CD25C425D77
:10898800B25D2561828032488348490083A681C24E
:108998000356E1010355290081471387E1C1EFF030
:1089A800FFC42A8D138881C209C523909A004840C4
:1089B80075B75C4095E303552900514781461386F6
:1089C800FDFFBD45EFD07F8548C0138881C209E50A
:1089D80023909A00454D41BF8357040003D7E1C156
:1089E8009384E1C13E976347470113C7F7FF529746
:1089F8002390E400484003D60400832508003E95F0
:108A0800850997B0FA1FE78000F78357040003D75A
:108A18000400C20993D90901BA972310F400FDB5DF
:108A2800397122DC2A840355250006DE26DA4AD865
:108A38004ED652D45AD05ECE62CC66CA2E8B56D24F
:108A48006AC8EF902FE92A8A8346C4008355A40098
:108A58000355840078001306D400130CBAFF651A76
:108A6800EFF0AFE2420AAA898144135A0A01138936
:108A780081E46386090463D48405938A81C28348A8
:108A8800440083A60A000356C100035524005288F7
:108A980081471387E1C1CE85138DE1C1EFF01FB582
:108AA80015C5814A0356C1008355A4004E85930617
:108AB800E100EFF09FA7AA89639B0A065DF9F1EC34
:108AC8008357840029452310FB003DA883570D00D8
:108AD80003560401E317F6FC83A50A004848EF8013
:108AE8004FE561D183274900A1E30355240041667E
:108AF800454781467D169D45EFD02FF205E5835702
:108B0800840045452310FB00F2506254D254425968
:108B1800B259225A925A025BF24B624CD24C424DE5
:108B2800216182802322A90083DAA900A5BF8327B7
:108B38004900A697238057019387140013970701CC
:108B480083274900418393DA8A00BA972380570123
:108B58001387240083264900938734004207910431
:108B68004183C207C204C183C180369711CD8356A1
:108B7800E1002300D70003274900BA970357E10013
:108B880021832380E700F5B5FD562300D70003278E
:108B98004900BA972380D7001DB703552400898060
:108BA800239491E4938581E4EF90DFDB31DD59452F
:108BB800A1BF411122C406C693F705012A84328554
:108BC80085C3EFE07FC9AA8505462285EF20C070DE
:108BD80095476305F500BD47631DF502214515A8B6
:108BE80093F7450099CBEFE03FC70546AA85228554
:108BF8002244B24041016F20206E93F7050489C7D3
:108C0800EFE09FC50146DDB713F5150013351500D4
:108C18000605B24022444101828079714AD04ECE85
:108C280052CC06D622D426D22A8AAE89014983D7C5
:108C380049006364F9000145A1A083A70900131442
:108C48001900930414003387970003470700A2977D
:108C580003C5070022079305E100598DEFE0FFFBEC
:108C680005E983A7090005453E94034704002380CE
:108C7800E70083A70900BE9403C70400A380E700A8
:108C8800B250225492540259F249624A4561828094
:108C9800834585000356E1005285EFF09FF105C139
:108CA80083A709003E94034704002380E70083A7B5
:108CB8000900BE9403C70400A380E700D1B70509E3
:108CC800420913590901A5B7011122CC2A8403D5F9
:108CD80005009305E10006CEEFE03FF401CD8345A2
:108CE80085000356E1002285EFF0BFECF2406244B4
:108CF800056182800545DDBF1D71CAC82A890355F3
:108D0800250086CEA2CCA6CAD2C4D6C2DAC05EDE00
:108D180062DC66DA2E8ACEC66AD86ED6EF908FBB32
:108D28002AC68346C9008355A900035589007808D7
:108D38001306D900EFF06FB5B247416B938AA7FFCE
:108D4800C20AAA8B014493DA0A01938481E47D1B49
:108D5800638F0B180356C10183C58B000355290087
:108D6800EFF03FE5AA8D631F05168348490083A6E7
:108D780081C20356C10103552900568881471387CC
:108D8800E1C1DE85EFF09F86AA8D9389E1C1138D3D
:108D980081C2631905141DCC03D7090083D72400A9
:108DA80011076397E7003247A2976D1763C8E70674
:108DB800938781E403D7270003552900938581E42D
:108DC8003354E40223908700EF905FD7AA8D15C132
:108DD800D94D05A003552900494781465A86C545FE
:108DE800EFD0AFC3C8C015E583D7AB00C54D23107E
:108DF800FA00F64066446E85D6444649B649264A86
:108E0800964A064BF25B625CD25C425DB25D2561BC
:108E1800828083D7090091072391F400DC4003D7AF
:108E2800AB009306E101A2972380E70093071400A3
:108E380013970701DC4041835E85BA9703D7AB00DF
:108E480021832380E7000356C1018355A900EFF071
:108E5800CFED13072400D4409307340042071104D0
:108E68004183C2074204AA8BC1834180369721E11E
:108E7800FD562300D700D84083250D00BA972380DC
:108E8800D700C84003D60900229597B0FA1FE7809B
:108E980080AE83D709003E944204418011F883577D
:108EA80089002310FA00E3960DF4A94D99B783566B
:108EB800E10183250D002300D700D840BA97035756
:108EC800E10121832380E700C84003D609002295E9
:108ED80097B0FA1FE78020AA83D709003E9442047E
:108EE8004180BDB583D7AB002310FA0045BF814D43
:108EF80075B75D71A6C2CAC0AA8403598500035517
:108F08002500A2C44EDE52DC5AD85ED662D466D2A0
:108F180086C656DA6AD06ECE2E8BEF90AF9B930B37
:108F2800D5FF7115131A05010144135A0A019389D3
:108F380081E46355741583C6C40083D5A400130760
:108F4800E1001386D4004A85EFF02F942A8D630739
:108F580005120359A500834585000356E10003D592
:108F68002400EFF01FC56310051283C8440083A6D0
:108F780081C20356E10003D5240052888147138734
:108F8800E1C1EA85EFF08FE6938DE1C1138881C2D4
:108F9800631B050E0DC883D70D0003D72900890769
:108FA8006308F706138781E48357270003D5240055
:108FB800938581E43354F40223108700EF905FA473
:108FC80005C5594515A003D5240041664D4781467E
:108FD8007D16A545EFD06FA423A2A900138881C2EE
:108FE8001DE123102B014545B64026449644064909
:108FF800F259625AD25A425BB25B225C925C025DC1
:10900800F24D6161828083D70D0089072391F900B1
:1090180083D70D00A29763D3770783A74900035727
:10902800AD00930A2400A2972380E7000504931754
:10903800040103A44900C183C20A3E948357AD00CA
:109048008325080093DA0A01A1832300F40003A50D
:10905800490003D60D00569597B0FA1FE780A091F6
:1090680003D40D00C167FD17569442044180E30202
:10907800F9EC050942091359090165BD29451DF097
:1090880023102B0195B76DDC31BF8357050081E7AD
:1090980089473E858280411126C2444122C406C6C2
:1090A8004AC083C60400D0402A8437F506008945A3
:1090B8001305458FEF803FEE19C9834724002547E4
:1090C800E51793F7F70F6377F702E14729A883C6F7
:1090D8000400D04037F5060089451305858FEF80D9
:1090E8009FEB61FD8947B2402244924402493E8584
:1090F8004101828083D681B58547138981B5E5D63C
:10910800035704003697C166E3CFE6FC9165938563
:109118002570314597A0FA1FE780C071AA84CD4712
:1091280079D131468145EF70BFFA835704008355E2
:10913800090001460147B386E500C206C18263699A
:10914800F702AE97C207C18319C22310F90023A002
:1091580004002146A2851385440097B0FA1FE780D2
:1091680080819387C1C2984311EF84C38147A5BF0B
:1091780050401315470005072A962315D6000546C3
:109188005DBF3E871C43F5FF04C3B1BF797106D6A6
:1091980022D426D24AD04ECE11E90949B2502254DF
:1091A8004A8592540259F249456182802AC6AA84A6
:1091B8002800B6892314B1002305C100EFF0FFECA5
:1091C8002A8969FDE38C09FC83D7A400F9D7916546
:1091D80093855570314597A0FA1FE780A0652A84CA
:1091E80005C931468145EF70BFEE83D7A40023201F
:1091F8000400232434012312F400938781C3984385
:1092080001E780C361BF3E871C43F5FF00C379B700
:109218004D4969B7938701C203C7070011EF054796
:109228002380E700058909C9938641B141469145E4
:10923800138541AD6FF09FF501458280A387A1B4E6
:109248008280C167FD176315F5002E856FE0CF9DFD
:10925800411106C6EFE08F9711C5FD572310F500A1
:1092680023010500B2404101828001114AC806CE9F
:1092780022CC26CA85472A896393F5044A85EFE0FC
:109288004FC639E9C16437F606009385F4FF130722
:10929800E10089461306C68D0545EFE01FDF2A84E5
:1092A800FD140DC44C444A85EFF0BFF90356E100A4
:1092B80022858146A685EFF04FA72A84DDB7894726
:1092C8006396F5008545EF20E01E4DD9F2406244D3
:1092D800D244424905618280EFE0EFBB65B70111D6
:1092E80026CA9384C1C622CC03C55400138401C383
:1092F80006CE4AC84EC62320040023AA01C223A2D0
:1093080001C251C1138941C39307A0043305F50273
:10931800916593851570938941C2190597A0FA1F25
:10932800E780405103C654009307A00481453306E3
:10933800F60208C01906EF70BFD9184083C654005A
:109348000146BA87FD55636AD60693976600BA97B1
:109358002320F9003E870146FD5585062310B700F6
:10936800A301B7002301B700230207000506190768
:10937800E366D6FE79572390E7001947B386E602DD
:10938800B69723A0F900378505001305E5A2EFC0BD
:10939800BFE2378505001305A5BFEF805FC6378597
:1093A800050013056599EF208008F2406244D24415
:1093B8004249B2490145056182802390B700239252
:1093C800070023A607002398070023AC0700239E65
:1093D800070023A207022394070223A80702239A5F
:1093E800070223AE0702050693870704A9BF4111A8
:1093F80006C622C42A84EFC06FC8EFE0EF84238733
:1094080081B403A541C2EFE02F82238D81B42244A9
:10941800B240379505001305252741016F2020012B
:1094280093970501C18763DB073203C5E1B47971FE
:1094380022D45AC806D626D24AD04ECE52CC56CAC4
:109448002E8BEF70FF9A2A8439C5034705009307CE
:10945800000B631FF7028547938481C2A304F100C0
:109468009C4023150100A9E7EF004078916593859A
:10947800357097A0FA1FE780E03B88C015E983475D
:10948800910099C78345440013058400EFD02FB697
:109498002285EF705F8FB250225421653345AB00AF
:1094A80092540259F249624AD24A424B456182803B
:1094B80061468145138581E4EF709FC103494400EB
:1094C8008947938481E4D289938A81E46314F906F5
:1094D800EF00C0712390A40003552400938581E414
:1094E800EF900FB70357240083D7040083568400F6
:1094F80011ED63E4F6002314F400835584003A85E3
:10950800EFC0FFCB2285EFC03F9F95BF63E4F60015
:109518002314F40083578400D945938681E40D46CB
:109528003A852390FA00EFC03FB58D4561DD13857C
:1095380081E4D1A09947631AF9029305A100228515
:10954800EFF00FCEAA845DDDD9476396F40E0509C6
:10955800035524001379F90FD945938681E44A8687
:10956800EFC09FB1CA8559DDD9B7A1476318F90083
:109578009305A1002285EFF0DF97E9B7A947631F9C
:10958800F906035584006C00EFE02FE92A89630D82
:1095980005140355240041669306E10055477D16DE
:1095A800AD45EFC09FC7C8C0AA8649C183484400DB
:1095B8000358E1000356C10003552400814713876F
:1095C80081E4CA85EFF08F82AA84631E050E0355D5
:1095D8002400938581E4EF908FC80DD503552400AE
:1095E800938681E42D46D945EFC01FA9E30C05F009
:1095F800AD45138581E4EFD08F9F29B7B147631B31
:10960800F90E035584006C00EFE02FE1AA8469CDC0
:109618000355240041669306E10059477D16B54578
:10962800EFC0BFBF23A2AA00AA8629E983578400F6
:10963800C5442315F10003471400D147E304F7ECB0
:109648008347440003552400938581E42380FA006E
:109658008357A10023829A002391FA00EF809FBECE
:10966800E30205EA03552400938681E40546D945BB
:10967800EFC09FA0E30805E8854555BD8348440031
:109688000358E1008357A4000356C1000355240082
:10969800A685138781E4EFE07FF5AA840DE50355DD
:1096A8002400938581E4EF904FC1E30D05E4035551
:1096B8002400D945938681E43546EFC0FF9BB54524
:1096C800E30205E4ADB5D9476393F400814403A5EB
:1096D8004A0097A0FA1FE780E01EE38504E283575B
:1096E80084002315F10081BF835784008544231526
:1096F800F10091B7B9476318F9009305A1002285D5
:10970800EFF0EF9C81B5C1476318F9009305A100FC
:109718002285EFF06FDE3DB5C947631AF9001306DD
:1097280091009305A1002285EFE0FF8021BDD94774
:10973800631DF9009305A1002285EFE0EFEEAA84EE
:10974800E31405E0A304010075BBE147E31CF9DA63
:109758009305A1002285EFE04FDBEDB30145828040
:10976800F9C6011152C42E8A854522CC4EC656C26E
:1097780006CE26CA4AC8AA8AB6893284EF10905300
:10978800D1470DC183C741C483C651C4814419E080
:10979800B684BE8603A7C1C393974400BA9763ED06
:1097A800D400D547F2406244D2444249B249224AE1
:1097B800924A3E85056182803E89C10703D727FF0B
:1097C80009C7850493F4F40FD9BF21CC9565938517
:1097D80025C01305000297A0FA1FE780A0052326DD
:1097E800A90061D113060002814593840404EF7037
:1097F8003F8E2311990023000900231359010DC43A
:109808008347940003A6C1C42304F900118C83275D
:10981800C90011841180238E870023A02901814764
:1098280051B723260900C1BF23044901FDB7854765
:109838003E85828083C541C403A7C1C38147639520
:10984800F50081463685828003562700BA8619C2FC
:10985800E30AA6FE850793F7F70F4107CDB703C6BE
:1098680041C403A7C1C381476315F6008146368505
:10987800828083552700BA8689C583454700E388D7
:10988800A5FE850793F7F70F4107F9BF83C571C494
:1098980003A7C1C481476395F50081463685828058
:1098A80003560700BA8619C2E30AA6FE850793F78E
:1098B800F70F4107CDB703C851C483A7C1C30147F8
:1098C8006315E80081463685828003D62700BE8668
:1098D80019CA03D667006318A600D04709C60356FD
:1098E8002600E302B6FE05071377F70FC107C9BFC5
:1098F800411122C4404526C206C6AA8415C0484460
:1099080009C597A0FA1FE780E0FB484809C597A05A
:10991800FA1FE78020FB228597A0FA1FE78080FACC
:10992800268541468145EF70AFFAB2402244FD5783
:10993800A384F400924441018280011122CC2A843C
:109948000355250006CE2EC6EF10D00432462285D8
:109958008145EF00F06222856244F24005616FF0B4
:109968003FF90DC503572500411122C406C62A84B4
:1099780011CBDD45EF00B06422852244B24041019D
:109988006FF01FF7B240224441018280828041116A
:1099980026C2B1469304C5FFB386D402138701E6F5
:1099A80006C622C436978356A7006398B602484372
:1099B8000DC5138401E69307F00F6306F60083478D
:1099C8000500639CC70097A0FA1FE780A0EFB14786
:1099D800B387F402A29723A20700B240224492441C
:1099E80041018280411122C42E8426C24946AA849C
:1099F8008145228506C6EF70AFEDA1CC83C7C401AF
:109A08001397470083A7C1C4BA9703D70700231049
:109A1800E40003D7270083D767002311E40003D7A6
:109A280021C42312E40003D704002313E40003D75E
:109A380024002314E40003D744002315E40003D7CB
:109A480064002316E40003D784002318F4002317C6
:109A5800E400B240224492444101828083C541C45B
:109A680003A8C1C403A6C1C3014781476394E500A5
:109A78003E8582808346060081CE544691CA83C6BD
:109A8800C6019206C2966315D500850793F7F70FAE
:109A980005071377F70F4106D1BF13060064338615
:109AA800C50293069500AA8537A505001305A59656
:109AB8006F705F87411122C406C62A84034595004A
:109AC800EF709F97FD57A304F400B2402244410170
:109AD8008280011122CC4AC84EC652C456C25AC00E
:109AE80006CE26CA2A89AE8901441D4B83C751C4B4
:109AF8006361F40463950902930AF00F83C741C4B4
:109B08006367F4061144A144228505044204130640
:109B1800F00FCA854180EFF09FE7E31794FEF2400B
:109B28006244D2444249B249224A924A024B0561F0
:109B3800828083A7C1C393144400BE9483C70400E2
:109B48009DC383D76400639027036396690103D597
:109B58002400EF10206426854E868145EF00504290
:109B68002685EFF0FFD805041374F40F41B783A7D7
:109B7800C1C393144400BE9483C704009DC383C724
:109B880094006380570383D76400639C270126856C
:109B9800EFF05FF22685D145EF0070422685EFF0A1
:109BA8003FD505041374F40F91BF41677917630B10
:109BB800E502411122C406C685472A846399F50047
:109BC80022852244B240814541016FF09FF08947C8
:109BD8006396F5008545EF10F00D7DD1B240224423
:109BE8004101828082809D456FF0BFEE03D521C47C
:109BF800828003C701C4011106CE2317A1002316D2
:109C0800B10085476318F70070009305E10005452A
:109C1800EF409033F24005618280A947631CF60447
:109C280083C7150003C70500A207D98F2310F500C5
:109C380083C7350003C72500A207D98F2311F50074
:109C480083C7550003C74500A207D98F2312F50023
:109C580083C7750003C76500A207D98F2313F500D2
:109C680083C7950003C78500A207D98F2314F50081
:109C7800014582800545828091476314F60283C7B7
:109C8800150003C70500A207D98F2310F50083C765
:109C9800350003C72500A207D98F2311F500014518
:109CA8008280054582809387C5FF93960701C1820C
:109CB8000D47636ED70031473387E702938701E684
:109CC800BA972381A7002390B700014582800945F0
:109CD80082809306B00FAA8763F4A6009307B00F9B
:109CE800F1172391F1C42383B1C42384B1C48280C2
:109CF8009567938707C0DD8D1905C2054205411197
:109D0800C181418106C697A0FA1FE780A0B211C59C
:109D1800B240E95541016F702F82B2404101828003
:109D2800238301C40547238001C4A380E1C4238B96
:109D380001C40111239101C42388A1C452C413850D
:109D480001E622CC26CA4AC84EC61306000381453E
:109D5800138A71C406CE238201C4A38201C423AE30
:109D680001C223000A00938941C5EF706FB6EF1056
:109D7800E04A03C50900138441C4938451C413897C
:109D8800C1C305C99565938545C0120597A0FA1FFB
:109D9800E78040AA23A6A1C409CD03C6090083C74A
:109DA800190081452300CA0012062380F400EF70D1
:109DB8002FB203C501C783C704009565938555C0B5
:109DC8003E951375F50F2300A400120597A0FA1FFE
:109DD800E78040A62320A90021C503460400814549
:109DE8001206EF70EFAE032709008346040081478F
:109DF80025077D56639FF6006244F240D2444249EB
:109E0800B249224A37A50500130525BB05616F1025
:109E1800006285072300C70093F7F70F4107D9BFF2
:109E28002300040023800400C1BF4111939705015A
:109E380026C206C622C44AC0C187AE8463DD0708AD
:109E480003C501C5138901C5EF609FFA2A8429C992
:109E580003470500930700096311F704034715003A
:109E6800CD476318F7060348250003C581D583C786
:109E780061C41306640081458146138761C4AA88BA
:109E88006318D80299C12300F7008347070091C7D8
:109E9800034509008545EF700FB02285EF60BFEEDE
:109EA8002165258DB24022449244024941018280B5
:109EB80083450600AE9793F5F70F93F7F80F63F411
:109EC800A50093F7F50F850693F6F60F0906854565
:109ED80045BFF52BD9B793F715000145E1D7EF003A
:109EE800506909C983C761C491C703C501C58545C0
:109EF800EF706FAA13C5140075B785462A8763FBF0
:109F0800C60483C7150003C60500A207D18F231016
:109F1800F500639CD70083C7350083C62500A207D8
:109F2800D58F2311F5000145828089460145639448
:109F3800D70283C7350083C62500A207D58F231112
:109F4800F70083C7550083C64500A207D58F2312A3
:109F5800F70082800545828091476314F60283C723
:109F6800150003C70500A207D98F2310F50083C782
:109F7800350003C72500A207D98F2311F500014535
:109F880082800545828091476314F60283C71500D5
:109F980003C70500A207D98F2310F50083C7350032
:109FA80003C72500A207D98F2311F5000145828038
:109FB80005458280A1476314F60483C7150003C7CB
:109FC8000500A207D98F2310F50083C7350003C702
:109FD8002500A207D98F2311F50083C7550003C7B1
:109FE8004500A207D98F2312F50083C7750003C760
:109FF8006500A207D98F2313F50001458280054526
:10A0080082808947631CF60083C7150003C70500D3
:10A01800A207D98F2310F50001458280054582806B
:10A028008357260079714ECE06D622D426D24AD03E
:10A038001307F007AE896372F70209473AC423167B
:10A04800F100300093F5F50FEF10A013B250225431
:10A0580092540259F2494561828003574600D94615
:10A068002A89328463F8E6008357660063F4F600B1
:10A078006379F70023140100300093F5F90F4A853E
:10A08800E1B70355060002C4EFF05F80AA8459C106
:10A09800EFF0DF9C83C784006369F5001146A24690
:10A0A800CE854A85EF10200455B7340026869305DF
:10A0B800F00F4A85EFF0CFEA75F1A2470357840005
:10A0C800DC472390E700035724002391E700035758
:10A0D80044002392E700035764002393E70003D763
:10A0E80044002394E700DC4485CB93F4F90F2286DF
:10A0F800A6854A858297C167FD172A86E311F5FA76
:10A1080022459947F9452300F50023029500EFF011
:10A11800DF982DBF094661B7014651B7A947631CAF
:10A12800F60483C7150003C70500A207D98F2310BB
:10A13800F50083C7350003C72500A207D98F23116F
:10A14800F50083C7550003C74500A207D98F23121E
:10A15800F50083C7750003C76500A207D98F2313CD
:10A16800F50083C7950003C78500A207D98F23147C
:10A17800F500014582800545828083C705002300DC
:10A18800F50083C71500A300F50083C7350003C792
:10A198002500A207D98F2311F5008280232205000C
:10A1A80003C7450089476304F7000545828083D6C5
:10A1B80065000D47E37BD7FE9C45011106CE22CCF6
:10A1C80026CA4AC84EC683C4170003C60700A2049D
:10A1D800D18C138644006311D60403C4370083C7A7
:10A1E8002700AE8922045D8C9307C4FFC207C18390
:10A1F8002A89636FF70003A58900231199002310AA
:10A208008900F155EF605FB32322A900014531A011
:10A218002285EFF02FE265F10545F2406244D24411
:10A228004249B24905618280397122DC2E84834714
:10A2380004004AD806DE26DA4ED619472A89B2859E
:10A24800639AE706034624002800EFF0FFD0AA84AB
:10A2580015E903558100EFF0EFDDAA898345140065
:10A2680015C937B705002E861307670C34009D45BE
:10A278004A85EF00D03B4E850946814511234E851E
:10A28800EFF00FE7F250625426854259D254B25982
:10A298002161828089472310F100835781000A8653
:10A2A8002311F1008357A1002312F1004A85EF0022
:10A2B800506DC9BF4947639BE70203562400280035
:10A2C800EFF05FCFAA845DFD138501E68357C500D3
:10A2D80099E3814445BF03471400834604000345BE
:10A2E800E5003C000146CA85152E69BF51476390B9
:10A2F800E702035624002800EFF03F92AA8459F1A0
:10A308008345140030004A85EFF09FD1A5BF594717
:10A31800639FE704035624002800EFF0FF95AA8402
:10A3280035F1835581004A85EFF0EFD81DC55845B2
:10A338008356A10083570700B697C207C18323102D
:10A34800F700C1DB5C47D1D783C761C4D9D303C544
:10A3580001C58545EF603FE435B789473EC083575F
:10A3680081000A86834514002312F10081B78345D2
:10A3780014000A8623100100EF00B06099BF5D71D8
:10A38800A6C256DA86C6A2C4CAC04EDE52DCAA8A63
:10A3980003C51500AE8432C6EFF06FCCB24501EDAF
:10A3A8008144B6402644268506499644F259625AA5
:10A3B800D25A61618280230205002311050083C9F6
:10A3C800040085472A84639AF90003C624002808F4
:10A3D800EFF0BFB2AA8405492DA09D476394F90404
:10A3E800034705008D47E31DF7FA03C62400280834
:10A3F8000549EFF05FB9AA8409E50546814522853C
:10A4080041262285EFF00FEB034584003C08014705
:10A41800CE862686D6851924E30509F82285EFF02D
:10A428002FCD41B7CD47639DF900034705009147FC
:10A43800E318F7F603C624002808EFF09FBC59BFBD
:10A44800D547E39FF9F4034A05008947E31AFAF46C
:10A4580003C6240028080549EFF05FCCAA8455F10B
:10A4680083570102BDE3035781011306F0035C44DF
:10A47800930607FCC206C182636CD6000356A1018D
:10A48800D94663F7C6008356C101D94563EFD500A5
:10A49800035524002391E7000549EF00B04F035608
:10A4A8000102D28522854924A9BF8355E101239160
:10A4B800E7002392C7002390B7002393D70085476E
:10A4C8002300F400014A0149D9BF014AC9BF797183
:10A4D800AA8522D426D203542500AA84280806D6A1
:10A4E800EFF0DFCBF24599E535E985452285EFF0B8
:10A4F8004FF075A8835781011547639BE7060357FB
:10A50800A1018D4763FCE7046800EFF01FC70357FC
:10A51800E100DD4763FCE7008345D100B70717007A
:10A528008507100822853EC8EF00B0458357E10033
:10A538000357A10191076305F7002285EFF0AFEA01
:10A548008347C10072466C00858B1106228591CF26
:10A55800EFF0FFE201C52285EFF0EFE8884451D51E
:10A568009790FA1FE780003649B7EFF0FFCBDDB7C9
:10A5780011476389E7001387A7FF42074183854690
:10A5880063ECE6023147F117B387E702138701E668
:10A59800BA9703D7070079D303C527003008A285E7
:10A5A8000D204DFD035781019147E310F7F4B25098
:10A5B80022549254456182802C082285052E59FD2B
:10A5C800FDB701114AC82A89314526CA06CE22CCD0
:10A5D8002EC6B284EF60EFFD21C1B2459307000A91
:10A5E8002310F5002311B5002A84214611058DC0DA
:10A5F800A6859790FA1FE7800038A2854A85EF6004
:10A608009F850145F2406244D244424905618280F7
:10A618008145EF60FFABD5B70545EDB7797126D217
:10A62800AA841305000206D622D42ECE32CC36CA0E
:10A638003AC83EC6EF60EFF721C96246F245424785
:10A64800D246B2472A84130520FA2300A400A300A7
:10A65800C4002311B4002302E400A302D4001305AC
:10A668008400614691CFBE859790FA1FE780A0309D
:10A67800A2852254B2502685925445616F60AFFD81
:10A688008145EF60FFA4EDB7B25022549254456162
:10A6980082805845797122D406D62A84AE862DCF79
:10A6A80083572700231DF10093072006639DF504B7
:10A6B80003D621C4835767006373F600B28713F685
:10A6C800F70F83552701834707018D8F93F7F70FFE
:10A6D80081E5890793F7F70FB297FD17B3C7C7024C
:10A6E800231EF1008357240083556400034584002A
:10A6F800231CF10001473C080146EFF03FF2B2503D
:10A708002254456182800347C70183A7C1C4120749
:10A71800BA9783D76700E9B72EC619468145280836
:10A72800EF601F9BB2467DBF797122D406D626D230
:10A738002A848DC181470147930600062E868355DA
:10A74800640003458400EFF07FEDB2502254925428
:10A7580045618280B28428005946EF607F972314B0
:10A76800910089E88357240048446C002315F100C0
:10A77800EFF04FA73C000147930600060146C1B71A
:10A78800797106D6814799ED8357250058452316D8
:10A79800C1002314F1003C0011C78357270023157B
:10A7A800F1003C002E86835565000345850001476E
:10A7B80093060006EFF09FE6B25045618280411192
:10A7C80022C406C68347050011472A846395E70219
:10A7D8002E86835565000345850081470147CD4690
:10A7E800EFF0DFE34946835564002244B240154543
:10A7F80041016FF0CF9913F7B70F89466317D70058
:10A808000146EFF07FF25146F9BF0D476398E70024
:10A818002244B240014641016FF09FF6B240224403
:10A828004101828003D70500B14671173307D7026B
:10A83800938701E6BA97D84319EBD8412395A70027
:10A848000145D8C303D725002394E70082805945E2
:10A858008280797122D4404526D24AD006D6AA846D
:10A868002E8925C0484419C59790FA1FE7808005AE
:10A87800232604008357040083D5640003C584009D
:10A888002315F10083572400014793064006231639
:10A89800F100835784004A862317F1001C483EC8FC
:10A8A80083D724002314F1003C00EFF03FD7A30E18
:10A8B800240123280400B2502254925402594561BD
:10A8C8008280280031468145EF609F8083D724002D
:10A8D80083D5640003C584002314F10001473C00BC
:10A8E800930640064A86EFF07FD3F1B7797152CCD0
:10A8F8002A8A03D5050026D206D622D44AD04ECEBF
:10A9080056CAAE84EFE01FF319E18547ADA840456C
:10A91800AA8965DC83576500E39947FF835784005C
:10A92800638507128346C40103A7C1C49206FD17B5
:10A938003697C20703576700C1832314F4006316D0
:10A94800F70093053006EFF0DFD45C48A5EFC84068
:10A95800034915008347050022093369F90083D7A5
:10A96800240013072900631AF702F955EF60CFBCDA
:10A97800C8C02391240103C589002686D285EFF03B
:10A988005FC4814721E1B250225492540259F249DE
:10A99800624AD24A3E85456182809565938515C095
:10A9A8004A859790FA1FE780E0E848C8C840231C0A
:10A9B8002401F955EF604FB883D72400C8C0F917B0
:10A9C8002391F400484859C503D624008356A401AE
:10A9D800835784013308D60063C007090347C401BD
:10A9E80083A7C1C495451207BA9783D7270063CFB9
:10A9F8000705CC4036959790FA1FE780C0F70357B4
:10AA0800A40183D72400BA97C20703578401C183DE
:10AA1800231DF400E39BE7EE03D7290003C5890053
:10AA280030002314E1005848D2852315F1003AC6B6
:10AA3800EFF03FB911C548489790FA1FE78080E8C2
:10AA4800232A0400232C0400C9B599454E85EFE05C
:10AA5800DFEE65BDA545DDBF9145CDBF03D7250018
:10AA680079CB83D621C4ED4763E8E60C011122CCEB
:10AA78002E8426CAAA844840914506CEEF60CFAB03
:10AA880083572400AA862300F50083572400A18356
:10AA9800A300F500835704002301F5008357040041
:10AAA800A183A301F50003562400C167F917110615
:10AAB800420641826394F4042AC4314532C6EF60E9
:10AAC8004FAFAA85CD470DC5930700F92300F500C0
:10AAD8003246F957A2462311F50089472302F500AB
:10AAE8002313C50014C503C501C5EF60CFB6814760
:10AAF800F2406244D2443E850561828081452685C4
:10AB0800EF30104EAA8701E903C761C475D37D17DA
:10AB18002383E1C4F1BF09476302E5021D476301CE
:10AB2800E50249476300E5027D47E313E5FC03C7F7
:10AB380061C48147E1BFED473E858280D1474DBF63
:10AB480091477DB789476DB701114AC83147130945
:10AB5800C5FF3307E90226CA938401E606CE22CC54
:10AB6800BA94D84039C7138401E683C661C48547BF
:10AB780095CA2314A10083D7840003D5A4002C0010
:10AB88003AC62315F100EFF07FED11C5C840979044
:10AB9800FA1FE78020D3B147B307F902A29723A28F
:10ABA80007008547F2406244D24442493E85056128
:10ABB80082808147C5BF797126D244454AD083D760
:10ABC800640003D921C452CC06D622D44ECE56CA2C
:10ABD8002A8A63F327013E8903D7240142091359BE
:10ABE800090183D7040141CB998F4A8463D5270192
:10ABF800139407014180C5452285EFF06F8FAA891C
:10AC0800CD4A25C183D724002AC6231581002314E1
:10AC1800F10083D7240185E383D704019309250034
:10AC28002300F50083D70401A183A300F500637610
:10AC3800240503D4040183D72401CC4422864E85FD
:10AC4800BE959790FA1FE78000D303556A002C0041
:10AC5800EFF0DFE0AA8A15C54E859790FA1FE780C6
:10AC680060C6B2502254568592540259F249624A3B
:10AC7800D24A4561828089078DBF79144204418098
:10AC88005DBF03D7240183D704003A94FD17C20798
:10AC9800420403D70401C18341802390F40023991F
:10ACA80084006377E400D5FFFD57A38EF40055BFF9
:10ACB80081455285EFF0FFB96DB779714AD052CC12
:10ACC80003CA61C522D456CA5AC85EC662C406D62B
:10ACD80026D24ECE5284054B930BF00F83A7C1C3E7
:10ACE80093144400BE9483C9040063996907DC4443
:10ACF800B5C7D84725C703D7070029C783C761C485
:10AD080089CF2685EFF03FEBAA8505E983C751C4B3
:10AD180005046351F402238B81C4B25022544E853A
:10AD280092540259F249624AD24A424BB24B224CDF
:10AD380045618280238B01C4CDB72685EFF07FB1B2
:10AD48008149E1BF83C7D701639A7701930520063C
:10AD58002685EFF01F94DC44A38E070083C751C4F7
:10AD680005041374F40F6363F4000144E31844F713
:10AD7800C1BF4111154506C6EFF01FDD09C50545E0
:10AD8800B240410182801945EFF01FDC6DF9114591
:10AD9800EFF09FDB6DF51D45EFF01FDB6DF103C58F
:10ADA80051C479DDB24041016FF03FF183D705000E
:10ADB8000D47F117C207C1836361F706DC41B1CFC4
:10ADC800411122C42E84854526C206C6AA84DD25E3
:10ADD80039C52685012DC167F917638FF40009ED80
:10ADE8008357240091CB835604001947639FE602DA
:10ADF80003D721C463FBE70283C761C4A285268504
:10AE080099C72244B240924441016FF03FC52244A1
:10AE1800B240924441016FF0FFA00945828051453C
:10AE2800B24022449244410182806D45D5BF3971B8
:10AE380026DA4ED6AA84AE895D45C9454AD806DECB
:10AE480022DC328936C63AC4EFE09FEA25C522479C
:10AE58002A84014511C7B24613054400B6850297F6
:10AE68009357850023003401A3002401A301F400B3
:10AE78009547231CF10083C761C42301A400110571
:10AE8800231DA10022CE2C08268595C3EFF01FBDF7
:10AE9800AA8411C522859790FA1FE780A0A2F250D4
:10AEA800625426854259D254B25921618280EFF00A
:10AEB8007F97F9BFCD44E5B7797126D24AD052CCF5
:10AEC80056CA06D6BA8A22D44ECE19472E89B284DB
:10AED800368A639BE506035526000944EFE09F95F3
:10AEE8002AC63DC95C458359650083D7270023904E
:10AEF800F400B24715472380570103C611C42391B4
:10AF0800E700130716001377F70FA380E1C4238225
:10AF1800C70001E70547A380E1C45147631AE90068
:10AF280015472391E400DC4703D784002394E70006
:10AF38005287A686CA854E85EFF07FEF2A84324570
:10AF480015C4EFE0FF9A09A842867400BE85AA8955
:10AF5800EFE01F812A8451DD2285B2502254925499
:10AF68000259F249624AD24A45618280F945EFE0C6
:10AF7800DFB2DDB783D705002300F50083D70500CE
:10AF8800A183A300F50083D725002301F50083D70B
:10AF98002500A183A301F5001145828083D7050010
:10AFA8002300F50083D70500A183A300F50083D70C
:10AFB80025002301F50083D72500A183A301F5000F
:10AFC80083D745002302F50083D74500A183A30258
:10AFD800F50083D765002303F50083D76500A183B7
:10AFE800A303F5002145828083D705002300F500DF
:10AFF80083D70500A183A300F5000945828083D784
:10B0080005002300F50083D70500A183A300F50000
:10B0180083D725002301F50083D72500A183A30149
:10B02800F50083D745002302F50083D74500A183A7
:10B03800A302F50083D765002303F50083D76500D5
:10B04800A183A303F50083D785002304F50083D7E4
:10B058008500A183A304F5002945828003D7050054
:10B068008546AA872300E50003D705002183A300AE
:10B07800E50003D70500631DD70003D7250023018A
:10B08800E50003D725002183A301E500114582804F
:10B0980009456315A70203D7250019452381E70051
:10B0A80003D725002183A381E70003D74500238226
:10B0B800E70003D745002183A382E700828083D776
:10B0C80005002300F50083D70500A183A300F50040
:10B0D80083D725002301F50083D72500A183A30189
:10B0E800F50011458280797126D24AD04ECEB284BD
:10B0F8002A89AE8929468145480022D406D6368455
:10B10800EF501FFD231691008DE88357240023126A
:10B11800F10083D721C42314F1005C4499CF83C67E
:10B12800C70103A7C1C4920683D787003697035780
:10B1380027002315F1002313E10037B705004A85DE
:10B1480013076700540013F6F90FD545EFF03FCE0B
:10B158002A8911C19DE085472300F40023020400D9
:10B16800014681452285EFF02FDCB25022544A85F2
:10B1780092540259F249456182802285EFE04FF7E7
:10B18800EDB737B70500B286130747062E86854503
:10B198006FF0FFC901112317A100B7B6050041657B
:10B1A800700001489307F00F0D479386C6F799453D
:10B1B8007D1506CEEFF05FD0F24005618280B7B60C
:10B1C8000500B28701482E861147938646FAC9457D
:10B1D8006FF09FCE37B70500B286130707FF2E869C
:10B1E800CD456FF0DFC4011122CC138401E926CAD2
:10B1F8004AC84EC606CE2A89AE89930404031C4069
:10B2080081C7CE854A8582971104E31A94FEF240DD
:10B218006244D2444249B2490561828003C541D69D
:10B22800411122C4937735001384C1C60981A30252
:10B23800F400AA9706C626C22302F400A5C7130580
:10B24800C0033385A702A5658505938481C59780CA
:10B25800FA1FE780205E034644009307C003814538
:10B268003306F60288C0EF50BFE69C408346440090
:10B27800014789077D56634DD7002244B240924466
:10B28800130600038145138501E941016F505FE40E
:10B298002390C7002381070023A50702050793878A
:10B2A800C703D1BFB240224492444101828003C601
:10B2B80001C703A781C581476315F6008146368516
:10B2C8008280BA861307C703835567FCE389A5FE06
:10B2D800850793F7F70FCDB7011122CC2EC632C4DC
:10B2E80006CE2A84EFF0BFFC2246B24511E9C167B9
:10B2F800F9176303F4005145F24062440561828006
:10B3080054558347450095C213F7270141456314F7
:10B31800A700154575F2C18B3D45F9DF83C7A60126
:10B328000145E3FBB7FC3145C1BFC18B0145E9F7D6
:10B338001545D9B7797126D24AD0416922D44ECE63
:10B3480052CC56CA5AC806D6AA8901449384C1C6A3
:10B35800930AC0037D19054B83C744006364F40056
:10B36800014525A8B307540303A781C5BA9703D796
:10B3780027006316270105041374F40FF1BF03C5F2
:10B388005700300093856700EF10C10C1946CE8531
:10B398002800EF501FDAE31065FFB2502254925490
:10B3A8000259F249624AD24A424B4561828083C5BA
:10B3B80001C7C16603A781C5FD1681476395F500DE
:10B3C800014632858280035827003A866306D800F2
:10B3D80003480700E307A8FE850793F7F70F13074D
:10B3E800C703E9BF411106C6EFF07FEC11C503554D
:10B3F8004501B240410182800145E5BF83C601C7CE
:10B4080003A781C50145814711076393F600828030
:10B418000346070001C605051375F50F850793F761
:10B42800F70F1307C703D5B703C501C782809386F3
:10B4380001E98147138701E931468C4291E58A0782
:10B44800BA9788C30145828085079106E397C7FEAE
:10B458004D458280411106C622C4EFF05FE50DCD4F
:10B468002A84035525008545EFF0FFD7485409C5C0
:10B478009780FA1FE780004522851306C00381459F
:10B48800EF501FC5FD572311F400230204000145A6
:10B49800B2402244410182800945DDBF411106C600
:10B4A800EFF0FFE011C50345C500B24041018280BD
:10B4B8000145E5BFC167F9176304F502411122C4CC
:10B4C80006C62E84EFF0BFDEAA87014591C703C5E3
:10B4D8004700698C33358000B240224441018280A4
:10B4E80005458280011106CE2EC6EFF05FDC854748
:10B4F80011C903574501B24585476305B700231AAB
:10B50800B5008147F2403E850561828031C901114D
:10B518004AC84EC6C16922CC26CA52C456C206CEF3
:10B528000144AA841389C1C6930AC003FD1983473D
:10B538004900634BF400F2406244D2444249B249A4
:10B54800224A924A056182803305540383A781C544
:10B558003E95835725006383370182940504C1BF54
:10B56800828003C601C783A781C5C16601458907D3
:10B578000147FD1691456313E600828003D8070052
:10B588006309D80003C8A7006315B800050513753B
:10B59800F50F05071377F70F9387C703E9BF03C6AE
:10B5A80001C783A681C50147814791066310E6025A
:10B5B800858393C7F7FFC207C18305456364E50226
:10B5C80085473395A70042054181828083C50600DF
:10B5D80081C583D5C602CD8F05071377F70F9386EC
:10B5E800C603E9B793F61700E1FE050585831375D1
:10B5F800F50FE9B7797156CAAA8A2E8526D24AD09C
:10B608004ECE52CC5AC85EC662C406D622D4AE8488
:10B61800328B368CBA8B3E8AC2894689EFF03FC995
:10B6280049E141657D15EFF09FC82A84554531CC25
:10B638001946DE8513056400A30284019780FA1F6A
:10B64800E7806033835701032311940023026401C8
:10B658002319F400835741032300540123260402CD
:10B66800231AF40023064401231734012318240164
:10B67800EFF0FFF22318A402232A04022685232CC4
:10B6880004028145EFF03FB60145B250225492546E
:10B698000259F249624AD24A424BB24B224C4561A6
:10B6A80082804545DDB783C601C703A781C58147A9
:10B6B8006395F60041657D1582803A861307C703B6
:10B6C800835547FF6395A5000355260082808507AB
:10B6D80093F7F70FF1BF03C801C7416603A781C5F8
:10B6E8007D16814785482D43314E6314F800014586
:10B6F8008280835627003A856382C602545B99CEBE
:10B7080083C506006397150183C616006378DE00BB
:10B71800828089E583C61600E37CD3FC850793F70E
:10B72800F70F1307C703D1B783C501C7416603A73E
:10B7380081C57D16814725486394F50001458280BF
:10B74800835627003A85638BC600545B81CA83C63B
:10B758001600E51693F6F60FE373D8FE850793F700
:10B76800F70F1307C703C9BF894791C909C9954787
:10B778002380F50083470500A380F50081473E85B7
:10B78800828039714ED652D4AE892A8A9305300503
:10B79800414526DA4AD856D206DE22DC32C6368938
:10B7A800BA8A9780FA1FE780E008CD4421C92A8425
:10B7B80089446380090432468145231AC100414601
:10B7C800EF501F915686CE8522859780FA1FE78015
:10B7D800801A2146630E0902CA8528089780FA1F35
:10B7E800E7806019A28650082C085285EF20507C0B
:10B7F800AA8422859780FA1FE780C00CF250625411
:10B8080026854259D254B259225A925A21618280CD
:10B8180081452808EF50DF8BF1B789478DC505C5ED
:10B82800411106C6AE871947AA852380E70013850C
:10B83800170041469780FA1FE780E013B24081471E
:10B848003E85410182803E858280894795C90DC920
:10B85800411106C625472380E50003470500AE874A
:10B868001946A380E50093051500138527009780E6
:10B87800FA1FE7804010B24081473E85410182802F
:10B888003E85828089478DC505C5411106C6AE87AC
:10B898002147AA852380E700138517004146978032
:10B8A800FA1FE780400DB24081473E854101828002
:10B8B8003E85828089479DCD15CD411106C61D471D
:10B8C8002380E50003570500AE872146A380E500E5
:10B8D8000357050021832381E5009305250013857F
:10B8E80037009780FA1FE7800009B24081473E85FC
:10B8F800410182803E85828089478DC505C54111F9
:10B9080006C6AE870D47AA852380E7001385170072
:10B9180041469780FA1FE7800006B24081473E857E
:10B92800410182803E85828089478DC505C54111C8
:10B9380006C6AE871147AA852380E700138517003E
:10B9480041469780FA1FE7800003B24081473E8551
:10B95800410182803E85828089478DC505C5411198
:10B9680006C6AE872947AA852380E70013851700F6
:10B9780041469780FA1FE7800000B24081473E8524
:10B98800410182803E85828023AE01C423A001C686
:10B9980023A201C637D70500938701B2130727F101
:10B9A80098C337C705001307E7E0D8C337B70500C2
:10B9B8001307A77898C737D705009387C1B213072D
:10B9C800A76598C337C70500130707FDD8C337C74E
:10B9D80005001307477B98C78280C14709CD144DDE
:10B9E800C14791CA784D01CB83C73600BD4663F481
:10B9F800F600834787013E858280411122C426C212
:10BA08009384C1C54AC02A89884006C649C513849B
:10BA1800C1C5631E0900834705002146B1CB29052E
:10BA28009780FA1FE78020F51C400545B9CF4945A6
:10BA3800EF502FB8AA840DC5930710FC2300F5001A
:10BA4800A30025010C400905414689059780FA1F86
:10BA5800E78060F21C40A68503C51700EF50AFBF12
:10BA680008409780FA1FE780E0E52320040029A812
:10BA780009059780FA1FE78000F0EF203053054949
:10BA880045F59C40238027010545B2402244924455
:10BA98000249410182800145CDBF1C4D639F0716B5
:10BAA800411122C426C22A84AE844145930530053B
:10BAB80006C69780FA1FE780E0D708CCCD47630415
:10BAC8000510A68541469780FA1FE780C0EA83459E
:10BAD8000400F9ED7C4C184CD04B5443058A858AF8
:10BAE8006307D60083D64701F99A239AD700D04B2B
:10BAF800544305828582058A858A6307D60083D6E2
:10BB08004701F59A239AD700D04B5443098289827A
:10BB1800058A858A6307D60083D64701ED9A239A5A
:10BB2800D700D04B54430D828D82058A858A6307DE
:10BB3800D60083D64701DD9A239AD700D04B5443C9
:10BB48002182A182058A858A6308D60083D64701A7
:10BB580093F6F6EF239AD700D04B54432582A5825B
:10BB6800058A858A6308D60083D6470193F6F6DFEF
:10BB7800239AD700D04B54432982A982058A858A03
:10BB88006308D60083D6470193F6F6BF239AD700F9
:10BB9800D44B5843AD822D83858A058B638AE60092
:10BBA80003D74701FD769386F67F758F239AE700C2
:10BBB80003C714007C4C11CF03C7170019CB954756
:10BBC800A301F4008147B240224492443E854101DA
:10BBD800828003C72400118B19E703C72701118B43
:10BBE80019E38547F1BF03C7070083C6040081C571
:10BBF800B687BA863E871146E147E366E6FCE3640A
:10BC0800D6FC95473307F702B7E7060093878755B1
:10BC1800BA97B69783C7070065B7C5473E85828040
:10BC2800AE8715C5784D05C7834607002380D50024
:10BC380083461700A380D500834627012381D500BA
:10BC480083468701584BA381D500D8C182804146DD
:10BC580081453E856F50CFC783A701C691C703A30F
:10BC6800870063030300028309458280011122CC07
:10BC78002A84494506CEEF70BFBC05C12AC6228575
:10BC8800EFF0EFE219C96244324683550503F240EA
:10BC980003C5E1C605616F50CFE0F240624405611B
:10BCA8008280797126D29947231DB100AA842E85F6
:10BCB8008D4522D406D632C636C4231CF100EFE0E7
:10BCC8002F832ACE4D441DC13246A246AA8532850D
:10BCD80082962A8419E52C082685EFF02F8D2A8470
:10BCE80011C572459780FA1FE780C0BD2685EFF021
:10BCF800FFF72285B2502254925445618280011187
:10BD080022CC9305C5012A8441460A8506CE978030
:10BD1800FA1FE78040C603554400B7C605000A86E7
:10BD280093860690C545EFF0DFF7F240624405615F
:10BD38008280011122CC9305C5022A8441460A85D6
:10BD480006CE9780FA1FE78000C303554400B7C6A4
:10BD580005000A8693860693C545EFF09FF4F240E6
:10BD6800624405618280B7C605002E8693862682C6
:10BD7800C5456FF01FF30111B28722CC2300B10033
:10BD88002A84BE8513051100194606CE9780FA1F2E
:10BD9800E78060BEB7C605000A8622859386268599
:10BDA800A145EFF01FF0F240624405618280B7C6FA
:10BDB80005002E869386C688C5456FF09FEE011153
:10BDC800B28722CC2310B1002A84BE851305210036
:10BDD800214606CE9780FA1FE780E0B9B7C605006E
:10BDE8000A8622859386C68BAD45EFF09FEBF2401D
:10BDF800624405618280B7C605002E869386069642
:10BE0800C5456FF01FEA011106CE22CC26CA83442D
:10BE180005008547639BF4048347150019472A8466
:10BE2800639AE7041C4D83D7470013F7071019C717
:10BE3800784D035747011377071021E313F70720BD
:10BE480001CB784C03574701137707206315071078
:10BE580093F7074081CB7C4C83D7470193F7074082
:10BE6800639C0714C947A300F400F2406244D2441B
:10BE78000561828031476392E70A3C5091EF930550
:10BE8800300571459780FA1FE780C09A28D009C508
:10BE980071468145EF50CFA32450A9C883C7A40198
:10BEA80091E72285EFF07FB3238DA4008145268595
:10BEB8004146EF50EFA128503D478345A5019387A0
:10BEC800F5FF93F7F70F6364F700EF603FF0EF506B
:10BED8008F873C50A1452398A70013852701EF6061
:10BEE800FFEE2C5003554400EFF0FFE7B54703552C
:10BEF8004400A300F400EFF08FBB414611C58357FF
:10BF0800E50013D617003E966244F240D24403C5BA
:10BF1800E1C6854505616F50CFB83547639AE7029A
:10BF28003C5189CB83D5070103554500138627016A
:10BF3800EFF0FFE81C4C83D7470013F7072039CBF5
:10BF4800784C035747011377072029C7B94745B7E6
:10BF58003947639BE700EF70EF94AA8503554400C7
:10BF6800EFF0FFE4BD4761B73D476394E704EF7026
:10BF78000F93AA85630D9502814526852EC6EF701D
:10BF88004F902A86B24503554400EFF0DFDE1C4C83
:10BF980083D7470093F70740E38607EC7C4C83D7A9
:10BFA800470193F70740E38F07EAC14789B7814400
:10BFB800E9B74147E398E7EAEF702F8FAA85035561
:10BFC8004400EFF05FE379BD797106D622D426D21A
:10BFD80083440500A5E48347150019472A84639420
:10BFE800E7067C4D83D7470113F7170011C7184D93
:10BFF80003574700058B39EB13F7270019C7184C6F
:10C0080003574700098B631B0712918B99C71C4C78
:10C0180083D74700918B639207187C4C83D74701DD
:10C0280013F7071063030718184C035747001377D3
:10C038000710630C0716B147A300F400B25022544E
:10C048009254456182801D47639DE70A3C5089EB05
:10C058009305300571459770FA1FE780A07D28D0B9
:10C068002450ADC82285EFF05F97238DA400814549
:10C0780026854146EF50CF8528503D478345A50189
:10C088009387F5FF93F7F70F6367F70283C781CEAE
:10C09800B5C7414681450808EF508F8319469385F7
:10C0A80001E108089780FA1FE780E08C30500C08FF
:10C0B8002E85EFA0D005EF401FE93C50A1452398FD
:10C0C800A70013852701EF607FD02C50035544004B
:10C0D800EFF07FC9A14703554400A300F400EFF037
:10C0E8000F9D414611C58357E50013D617003E96AC
:10C0F80003C5E1C68545EF50CF9A89B7EF601FCDDC
:10C108005DBF21476399E7023C5189CB83D507017D
:10C118000355450013862701EFF07FCA7C4C83D76F
:10C12800470113F7270021CF184C03574700098B05
:10C1380039C7A5474DB72547639BE700EF609FF6D2
:10C14800AA8503554400EFF09FC6A94769B7294758
:10C158006392E704EF60BFF48547AA856304F5009E
:10C168008145854426852EC6EF60BFF12A86B245F3
:10C1780003554400EFF03FC07C4C83D74701918BB7
:10C18800E38D07E81C4C83D74700918BE38707E8CA
:10C19800AD4791B72D47E392E7E8EF601FF1AA8515
:10C1A80003554400EFF03FC58DBD13F7072009CBB9
:10C1B800184C035747001377072019C3B947ADBD7B
:10C1C80093F7074089CB1C4C83D7470093F7074068
:10C1D80099C3C14795B5C94785B515CD01118A855C
:10C1E80022CC06CE2A84EFF0BFA383470400035570
:10C1F800440089CFB7D605009386A6D10A869D4507
:10C20800EFF03FAAF240624405618280B7D605008C
:10C21800938646D2E5B705458280AA8503C5E1C65F
:10C228006F50CF9D411122C4405926C206C6AA8428
:10C2380031C4084C09C59770FA1FE780A0682850D8
:10C2480009C59770FA1FE780E067685009C59770BD
:10C25800FA1FE7802067285409C59770FA1FE780FE
:10C268006066685409C59770FA1FE780A065228543
:10C278009770FA1FE780006523AA0402224403D5B9
:10C288000403B240924441016FF03FF9411126C2C4
:10C2980006C622C4AE84EFF08F8131C14C592A847E
:10C2A8009DCD83A8C50603A88506FC51B85183C651
:10C2B800650003D6450083C505002685EF70AFDF0E
:10C2C8002285EFF03FF6EFF02FC611C92244B240A5
:10C2D800924403C5E1C6854541016F40DFEBB2409A
:10C2E8002244924441018280411122C4405926C20D
:10C2F80006C67C4CAA8483D7470113F7071019C7D1
:10C30800184C03574700137707101DE313F707204E
:10C3180019C7184C035747001377072011EB93F7F9
:10C3280007409DCB1C4C83D7470093F707408DC728
:10C338009947A300F4002285EFF0FFAC03471400EF
:10C34800C947631FF700224403D52400B240924432
:10C35800814541016FF09FF3C947A300F400E5B799
:10C36800B2402244924441018280411106C622C44F
:10C3780026C2EFF04FB61DCD4059AA8405CC83479D
:10C38800040095C783A701C689C7DC4399C32285E2
:10C39800829703471400C947631EF700224403D558
:10C3A8002400B2409244814541016FF03FEE83A7DB
:10C3B80041C6D9BFB2402244924441018280411112
:10C3C80026C24AC006C622C4AA842E89EFE03FEEE0
:10C3D8000DCD405955C083574400639F9708834744
:10C3E800140019476391E70883470400B5CB7C4CD8
:10C3F80083D7470113F7170005C3184C03574700A5
:10C40800058B19CB9D47A300F400B2402244924407
:10C41800024905454101828013F7270001CB184CDA
:10C4280003574700098B19C3A547F1BF918B81CBEF
:10C438001C4C83D74700918B99C3AD47E9B783A7B5
:10C4480001C6E1D7DC43F1D3228582970347140064
:10C45800C9478145E31BF7FA2685EFF03FE375B737
:10C4680083A741C6F9BF45476398E70063040900FD
:10C4780013092003CA85CDB7631C09002685EFE0A0
:10C488001FE319C58347450093E707012302F50019
:10C49800A6854A85EF607FE48DBF4111B7B60500D8
:10C4A80022C42E862E8493860677894506C626C220
:10C4B8004AC02A89EFF0EFFE83450400AA844A8522
:10C4C800EFF0DFDCB2402244268502499244410164
:10C4D800828083A741C695CB9C4385CB797122D4B2
:10C4E80006D6984110082A843AC8D84185453ACAE0
:10C4F800829701C92306A100035524006C00EFF0C0
:10C50800DFF9B2502254456182808280011122CC29
:10C5180006CE2A842EC6EFE09FD95C5991CF83D7E7
:10C528004700B245639A870085476397F5006244E0
:10C53800F24005616FF01FCFF240624405618280CE
:10C54800411106C6EFF02F96C167FD176307F50086
:10C55800B240DD4541016FF07FD3B2404101828096
:10C568002300B5008280011126CA4EC6AE84AA896E
:10C5780093053005130500034AC806CE22CC32893C
:10C588009770FA1FE780002B29CD13060003814519
:10C598002A84EF40FFB34146CE852285EF40BFBBDA
:10C5A800A6850D461305D401EF40FFBA1306040211
:10C5B800930504012285EFA08035AA840D469305D2
:10C5C800D4024A85EF403FB922859770FA1FE78069
:10C5D800602FF240624426854249D244B24905613F
:10C5E8008280CD44FDB781474146B306F5003387C5
:10C5F800F5000347070003C806008507334707010E
:10C608002380E600E393C7FE82805D714EDE62D42C
:10C61800AE892A8C9305300513050003A6C2CAC04B
:10C6280052DC56DA5AD85ED686C6A2C4B28B368B8E
:10C63800BA84BE8A4289468A9770FA1FE780801FAB
:10C648006301050E1306000381452A84EF405FA8A5
:10C658004146E2852285EF401FB0414681450A8563
:10C66800EF401FA71D46DE850A85EF40DFAE1D4659
:10C67800DA8513057100EF401FAE33392001B3345A
:10C68800900041468145080823072101A30791002E
:10C69800EF401FA41946D6854808EF40DFAB19467E
:10C6A800D2851305A101EF401FAB93040401414655
:10C6B800CE852685EF403FAA8A852685EFF0BFF212
:10C6C800930904024E86A6852285EFA040242A8974
:10C6D8001DE54146CE8526859770FA1FE780A0297B
:10C6E8000C082685EFF03FF04E86A6852285EFA040
:10C6F80000222A8946454146CE85EF40DFA522859E
:10C708009770FA1FE780001CB64026444A85964475
:10C718000649F259625AD25A425BB25B225C6161A5
:10C7280082804D49D5B7011126CA52C4AA842E8ADF
:10C7380013050003930530054AC84EC606CE22CC21
:10C748003289B6899770FA1FE780C00E31CD2A84E6
:10C75800A6854146EF403FA0930404012146D285B7
:10C768002685EF405F9FCA85214613058401EF4067
:10C778009F9E13090402A6854A862285EFA02019E8
:10C78800AA844146CA854E85EF40FF9C2285977052
:10C79800FA1FE7802013F240624426854249D244BA
:10C7A800B249224A05618280CD44F5B75D71A2C4C1
:10C7B800A6C24EDE52DC86C6CAC0AE89328AAA84B8
:10C7C800EFE0FFAE4059414681450A85EF405F9052
:10C7D80051C8035944006317990883470400D9E3F3
:10C7E8000347140099476313F70414081306C40495
:10C7F8009305C40213057400EFF0FFF225E52285C6
:10C80800EFF0AF9D2A860C080A859770FA1FE7801B
:10C8180080168A854A85EF10B07A0545B6402644C9
:10C8280096440649F259625A616182802C509DC92A
:10C83800C54683D705016318D7086310FA02214655
:10C84800C9054E85EF40FF8E85476318F5002285A0
:10C85800EFF0AF982A862C5045BF93052003268514
:10C86800EFF0DFA22685EFE09FA42A843DC94C554E
:10C87800ADC983D70501639647072146C9054E858B
:10C88800EF403F8B85472A89631DF5044C540A8580
:10C8980003C6A5019770FA1FE780E00D83C7B1B6FC
:10C8A80091C75C5483C7B7016396270DBD4526859C
:10C8B800EF10106983A781D70145ADD31D45894580
:10C8C80082970145A1BFE31FFAF82146C9054E85A5
:10C8D800EF403F868547E317F5F82C5003C6A501BE
:10C8E80025B703C7B1CD938981D4058B3E8905CF80
:10C8F8000347540083C741CD6317F7021946938550
:10C9080051CD13056400EF40DF828547631DF500B4
:10C9180083A7090381C791451D458297BD45268593
:10C92800EF101062DDBD03C781CE83A7090331C7AD
:10C9380003C7B1CD098B09CB81C795451D458297A2
:10C948002685EF103068D1BD81C78D451D4582977A
:10C95800414681450810EF40AFF71946938501E13C
:10C9680008109770FA1FE78000010C100A862E85C0
:10C97800EF90F0798A85268579BD8545E1F3C9B7B9
:10C988008147C1463307F500B388F5000347070020
:10C9980083C808003308F6008507334717012300CA
:10C9A800E800E391D7FE82800147BD471308F00FE6
:10C9B8003306F50083460600B388F500FD178606A2
:10C9C800558F2380E8000347060093F7F70F1D8370
:10C9D800E39007FF82808147930800F8414893F667
:10C9E800F70F3387F50063FCC600B306F50083C66E
:10C9F80006002300D7008507E39307FF828063952D
:10CA0800C60023001701C5BF23000700EDB70111B9
:10CA18004AC856C22E89AA8A93053005414506CED2
:10CA280022CC26CA4EC652C4328A9770FA1FE780B3
:10CA380060E0AA849305300541459770FA1FE780A6
:10CA480060DF2A84CD49B5C021CD41468145EF40FC
:10CA58002FE82686A2855685EF90706BAA8929E172
:10CA68008387040063D30706A2852685EFF0DFF3EA
:10CA7800B7E506004A86938545572285EFF05FF0B3
:10CA88008307090063D80704A2854A85EFF0DFF120
:10CA9800B7E506005286938545572285EFF05FEE8D
:10CAA80026859770FA1FE780E0E111C42285977008
:10CAB800FA1FE78020E1F24062444E85D2444249A1
:10CAC800B249224A924A05618280CA852685EFF0DA
:10CAD800BFED7DB7D2854A85EFF01FEDD1B739712B
:10CAE8005AD05ECE2A8BAE8B41459305300506DEC3
:10CAF80026DA52D456D262CC66CA6AC8368C328DCF
:10CB0800BA8C22DC4AD84ED69770FA1FE78080D2BA
:10CB1800AA8A9305300541459770FA1FE78080D1AE
:10CB28002A8ACD44638C0A0849C52A86D6855A853F
:10CB3800EFF0FFEDAA8435ED930530054145977078
:10CB4800FA1FE78020CF2A89930530054145977061
:10CB5800FA1FE78020CEAA896308090E6304050E30
:10CB68001304FD0011841376FD003DCC7D144204AE
:10CB7800418025EE131544004E86D6855E95EFF06C
:10CB88003FE0414681454A85EF408FD4014D9317D8
:10CB98000D01C18363F48708BDC04A859770FA1FE9
:10CBA800E78040D2638709004E859770FA1FE780B7
:10CBB80060D156859770FA1FE780C0D063070A00D6
:10CBC80052859770FA1FE780E0CFF25062542685AD
:10CBD8004259D254B259225A925A025BF24B624CD1
:10CBE800D24C424D216182800144131544008A854C
:10CBF8005E95EFF05FDE4E86D2850A8549B79315BC
:10CC08004D000A86DE954A85EFF09FD74A868A85C9
:10CC18005A85EF90D04FAA84050D95BFBDFC0A86B2
:10CC2800CE854A85EFF0DFD54A868A855A85EF900A
:10CC3800104EAA846686CA8562859770FA1FE780B7
:10CC480080D3A1BFCD4491BFCD44A9BF894761C25C
:10CC5800DDCD2300A60083C70500A300F60083C727
:10CC680015002301F60083C72500A301F60083C73A
:10CC78003500A30206002302F60083D74500A183EE
:10CC8800858BA302F60003D745001377072009C751
:10CC980093E72700A302F60083D7450093F70740E0
:10CCA80099C78347560093E74700A302F60083D746
:10CCB800450013974701635807008347560093E7D9
:10CCC8008700A302F6002303060083C74500858B6F
:10CCD8002303F60003D74500098B09C793E727000C
:10CCE8002303F60083D74500918B99C783476600D5
:10CCF80093E747002303F60003D745008147218BBC
:10CD080019C703476600136787002303E6003E85BB
:10CD180082802E86AA8505456FF05FF32E86AA8548
:10CD280009456FF0BFF24DC95971A2D42A84035541
:10CD38004500A6D2CAD0CECED6CA86D6D2CCDAC8BC
:10CD4800DEC6B68AB2892E89EFE06FD6AA8439C5C5
:10CD58000C182285EFE0DFEC83470400138A640097
:10CD6800A9CBEF60CFB32A8B014583CB5400EF608A
:10CD78004FB1AA840C100818EFF0BFF9084C2C101A
:10CD8800EFF0DFF9D288268A56C05E88D2875A87A4
:10CD980014103010CE854A85EFF03F87B6502654E0
:10CDA80096540659F649664AD64A464BB64B6561CB
:10CDB8008280EF60CFAEAA8B014503CB5400EF60B1
:10CDC8004FAC2ACE084C0C10EFF0BFF42C1008180A
:10CDD800EFF0DFF4F2484DBF8280894791C909C955
:10CDE800AD472380F50083470500A380F500814700
:10CDF8003E858280011122CC4AC806CE26CA2A84E2
:10CE0800EFE0BFC92A8901CDE147630EF50E21493C
:10CE1800F24062444A85D2444249056182807C4C92
:10CE280083C72701858B91CF1C4C054783C72700F3
:10CE38008D8B6398E7008347640093E7170023030B
:10CE4800F4008344340089476391F4020355440095
:10CE58008545EF60DFBE8347640093E747002303FF
:10CE6800F4008D47A300F40065B70D476390E40212
:10CE7800035544008945EF609FBC83476400A300C5
:10CE8800940093E747002303F40059B71147E38F51
:10CE9800E4FA0547639EE40293047400A300F400D7
:10CEA800414681452685EF40AFA21306C40232856C
:10CEB800C14532C6EF509FF1324622859306C40120
:10CEC800A685EFF05FE62285EFE07FE331D181B7F9
:10CED8001547E39FE4F293047400A300F40041466D
:10CEE80081452685EF40CF9E6C4C414626858905B5
:10CEF8009770FA1FE78020A88347640093E74700EC
:10CF08002303F4005DB70D4921B7397122DC40597C
:10CF180026DA4AD84ED606DEAA89AE843289630656
:10CF280004200355250083574400638BA700A144C0
:10CF3800F250625426854259D254B25921618280F6
:10CF48008347040099E39D44E5B7AD47E3EDB7FE99
:10CF58009387E5FF93F7F70F2547E366F7FE37E773
:10CF680006008A071307C74DBA979C438287B28584
:10CF78002285EFF03FE8AA8465BF4146CA851305BC
:10CF8800C4039770FA1FE780009F2285EFE07FDADD
:10CF9800AA8411C1A1449547A300F40051BF930985
:10CFA800C404CA8541464E859770FA1FE780A09C45
:10CFB8001309740014084E86CA852285EFF0BFD67F
:10CFC80041469305C4030808EF40AF968547E3112F
:10CFD800F5F68A861306C402CE854A85EFF0AFF4CB
:10CFE80011ED2285EFE07F9F2A8703554400814693
:10CFF80001468A85EFE0EFF8AA8411C1A144994758
:10D0080061BF034714009D47E31FF7F27C5089EB8B
:10D018009305300571459770FA1FE780A08168D0A5
:10D02800685015D14146CA859770FA1FE780A094C9
:10D038002285EFE09F9A7C50238DA700A147A3008B
:10D04800F4008144F5B56850E30F05EE034714007A
:10D05800A147E31AF7EE83570600930529002146F6
:10D068002318F50049059770FA1FE780C0907C4C9B
:10D0780083D7470113F727002DC3184C03574700E0
:10D08800098B21CFA54765BF03471400A547E31CBB
:10D09800F7EA3C5481EB854559459760FA1FE780CC
:10D0A800607928D4285419C54146CA859770FA1F53
:10D0B800E780608CA94761B703471400A947E314C8
:10D0C800F7E8285419469305190041059770FA1F87
:10D0D800E780608A7C4C83D74701918B95CF1C4CA5
:10D0E80083D74700918B8DCBAD4791BF7C5489EB9B
:10D0F8009305300551459760FA1FE780A07368D4FF
:10D108006854E30605E24146CA859770FA1FE7802E
:10D1180080867C547D5798CB4E85EFF0EF9C15B7F1
:10D1280083450600EFF08F9629BFAD47E39BF5F0E6
:10D138008346060083552500130665000345050050
:10D14800EF604FA9FDBD15C1AA8709458DC14111E1
:10D158002E8541469385170006C69770FA1FE7800B
:10D168008081B240014541018280094582808280E8
:10D1780089471DC595C5411106C603471500AE87E9
:10D1880019462380E500930525001385170097604D
:10D19800FA1FE780407EB24081473E854101828088
:10D1A8003E85828015C1AA8709458DC141112E850A
:10D1B80041469385170006C69760FA1FE780A07B53
:10D1C800B2400145410182800945828082808947B9
:10D1D8001DC995C9411106C6034725008346150098
:10D1E800AE872207558F2390E50021469305350029
:10D1F800138527009760FA1FE780E077B2408147E0
:10D208003E85410182803E85828015C1AA870945F5
:10D218008DC141112E8541469385170006C697603A
:10D22800FA1FE7804075B2400145410182800945F7
:10D2380082808280094711CD89CD83471500A14698
:10D2480001472380F500FD1793F7F70F63F3F60006
:10D2580061473A85828015C1AA8709458DC1411168
:10D268002E8541469385170006C69760FA1FE7800A
:10D278008070B240014541018280094582808280E8
:10D2880089476309051063870510411106C622C442
:10D2980026C2834715002E842380F5008347250086
:10D2A800A380F500834735002381F50083474500B7
:10D2B800A381F50083475500858B9396870083D714
:10D2C800450093F7F7EFD58F2392F5008346550075
:10D2D80093F7F7DFA20693F60620DD8E2392D5009A
:10D2E8000347550093F6F6BF220713770740558F7B
:10D2F8002392E50083475500FD769386F67F8D835C
:10D30800858B758FAE07D98F2392F500834665000C
:10D31800F99B858ADD8E2392D500034765009377B4
:10D32800270013F7D6FF5D8F2392E500834765003A
:10D3380093F647009377B7FFD58F2392F5000347FD
:10D348006500DD9B4D45218BD98F2392F500EF6059
:10D358002FCFAA845145EF60AFCE0347340093F432
:10D36800F40F1375F50FC94763609702636EE50004
:10D37800834604001147E1476368D70083461400D9
:10D3880005476363D7008147B240224492443E85F3
:10D39800410182803E85828015C1AA8709458DC1D9
:10D3A80041112E8541469385170006C69760FA1FDE
:10D3B800E780605CB2400145410182800945828076
:10D3C8008280797122D42A84084506D626D223067B
:10D3D80001008344050029479387F4FF93F7F70F6B
:10D3E8006360F70C37E706008A0713074750BA97B8
:10D3F8009C4382870C08EFF0BFE8C9476312F50227
:10D4080099472306F100035524006C00EFF0EF88DC
:10D41800B25022549254456182800C08EFF0FFDE2E
:10D4280029C98347C100E5F303552400EFE01F84B1
:10D43800C5B70C08EFF03FE2E5B70C08EFF09FDF47
:10D44800C5B70C08EFF03FD0E1BF0C08EFF03FD8AC
:10D45800C1BF0C08EFF01FD5E1B70C08EFF05FD1A2
:10D46800C1B70C08EFF05FF365BF834715002308C9
:10D47800F10003552400EFD09FE3A14719CD0347DE
:10D48800C5006311F70203A701C69D4719C71843D2
:10D4980009C71008A6850297AA872306F10051B785
:10D4A8009D4785B703A741C6CDB7411122C406C61B
:10D4B80003470500930720092A846311F70A834765
:10D4C800150039476393E7028356450009676107EA
:10D4D80081476390E6081C452244B24003C5070013
:10D4E8009385170041016FE04FD11307E00363955F
:10D4F800E708034725009547631CF70203554500D5
:10D50800EFD0DFF991476304F500854799A083A719
:10D5180041C6E5DF03A38700E30903FE0356E400E1
:10D5280003554400930564002244B240410102833C
:10D53800A147631BF7008345640003554400224458
:10D54800B24041016FE0BFE7930600038147E3045F
:10D55800D7FEB24022443E85410182809306000AEC
:10D568008147E318D7FEEFF0DFE5084459DD9760FF
:10D57800FA1FE780203551BF8147E1BF411122C41E
:10D5880026C206C62A84EFE04FD1AA8419C9E1470A
:10D59800630FF50AA144B240224426859244410112
:10D5A80082802285EFE07FC36C4C83C72501858B81
:10D5B80091CF1C4C054783C727008D8B6398E700E4
:10D5C8008347640093E717002303F400834734007C
:10D5D80009476391E702894503554400EF602FC668
:10D5E8008347640093E747002303F4009147A300AF
:10D5F800F40055B79386D7FF93F6F60F0546636494
:10D60800D6008545D1BF6390C702A300E400414618
:10D61800814513057400EF30BFABC1451305C40243
:10D62800EF50CFFA8DBF9546E397D7F6A300E400F5
:10D6380041468905130574009760FA1FE780A033F7
:10D648008347640093E747002303F400F9B78D4448
:10D6580099B7797122D4405926D24AD04ECE06D6EF
:10D66800AA89AE84328963080420035525008357AC
:10D678004400638BA700A144B25022542685025966
:10D688009254F24945618280034704008547631438
:10D69800F7009D44D5B79387F5FF93F7F70F254714
:10D6A800E369F7FE37E706008A0713070753BA97B7
:10D6B8009C438287B2852285EFF05FECAA846DBF18
:10D6C8004146CA851305C4039760FA1FE780A02A5C
:10D6D8000347140091476305F7029306C401130634
:10D6E800C402930574002285EFF0EFE32285EFE092
:10D6F8000FE1AA8411C1A1449547A300F400ADBF6E
:10D708008D47A300F400814485BF9307C4043E8578
:10D71800CA8541463E899760FA1FE780C0258A86F8
:10D728004A86930574002285EFF0EFDF41469305A2
:10D73800C4030A85EF30FF9F8547E31FF5F2228572
:10D74800EFE02FDFAA8405F9994745BF0347140086
:10D75800B147E310F7F47C5089EB93053005714528
:10D768009760FA1FE780000D68D068501DD14146C8
:10D77800CA859760FA1FE78000202285EFE0EFA5B1
:10D788007C50238DA700B547ADBF6850E30305F073
:10D7980003471400B547E31EF7EE835706009305C9
:10D7A800290021462318F50049059760FA1FE780EC
:10D7B800801C7C4C83D7470113F707203DC3184CC6
:10D7C800035747001377072029CFB9471DBF0347E1
:10D7D8001400B947E31FF7EA3C5489EB9305300579
:10D7E80059459760FA1FE780E00428D4285419C5E2
:10D7F8004146CA859760FA1FE780E017BD4711B711
:10D8080003471400BD47E316F7E828541946930563
:10D81800190041059760FA1FE780E0157C4C83D713
:10D82800470193F707409DCF1C4C83D7470093F7D8
:10D8380007408DCBC147F1B57C5489EB9305300582
:10D8480051459760FA1FE780E0FE68D46854E30406
:10D8580005E24146CA859760FA1FE780C0117C54EB
:10D868007D5798CB03D529008145EFE03FA261BDE4
:10D8780083450600DDBF8547E397F5E803284600A2
:10D888008347360003472600834616008355250044
:10D89800034606000145EF501FABB5B5011126CA76
:10D8A80006CE22CC89441DCD95CDAA842E8468004D
:10D8B8008D45EF50AFD18347E1002685228693F747
:10D8C800F70393E707046C002307F100EFE0BFC9F3
:10D8D800AA8409E90D466C00130534009760FA1F05
:10D8E800E7806009F24062442685D244056182805F
:10D8F8005D714EDE86C6A2C4A6C2CAC052DC56DA24
:10D908005AD85ED6894955C54DC6138B4500420B7A
:10D91800135B0B01AE8A2A8A930530055A85B284B7
:10D928009760FA1FE78000F12A84CD4959C1EF506A
:10D938002FF82A895686D285935A8900135A0901E5
:10D94800937BF90F1305440093FAFA0F137AFA0F31
:10D9580013598901EF303F80A30174012301540159
:10D96800A300440123002401EF502FF4AA85414667
:10D978000808EF304FFE214734005A86A285080870
:10D98800EFF0EF95AA890DE121462C002380740160
:10D99800A380540123814401A381240113854400F9
:10D9A800EF306FFBEF504FF122859760FA1FE78049
:10D9B80060F1B64026444E8596440649F259625AAB
:10D9C800D25A425BB25B61618280011106CE2AC6DF
:10D9D800EFD09FFB324599452387A1C6EFC0AFAC76
:10D9E800F24037C505001305455105616FD03FA4C6
:10D9F80083C7F1C6A18B99C3938701B223A0F1C64F
:10DA080001458280797152CC2A8A2E8506D622D485
:10DA180026D24AD04ECE2EC6EFD07F8945C5405972
:10DA280045C4834734008949F91793F7F70F63ED25
:10DA3800F90883574400B24589446394B70613092B
:10DA480074004146D2854A859760FA1FE780A0F2A4
:10DA58001306C4023285C14532C6EF502FB732468D
:10DA68009306C401CA852285EFF0EFAB0347040093
:10DA7800834714000DC30D4781446394E702A30054
:10DA8800340122852254B25092540259F249624A12
:10DA980045616FE0CFA61147639EE700A30094009D
:10DAA8008144B2502254268502599254F249624A5E
:10DAB800456182800D478144E395E7FE9547A300C1
:10DAC800F400C1B78944F1BFC944E1BF79719397A4
:10DAD800050122D406D626D24AD04ECEC1872E843E
:10DAE80063D307049384C1C603C52400EF304FB045
:10DAF8002AC611CDEFF07F9BB24519E503C5140086
:10DB08009307F00F631EF5002E85EF30CFA7216530
:10DB1800218DB250225492540259F24945618280B3
:10DB2800EF306FB3EDB793F7150091C7EFE0FF83C0
:10DB380013451400F9BF8DE90145E1BF850493F44D
:10DB4800F40FEFD07F8EE3F9A4FE339599001319F3
:10DB5800050113590901B3772401EDD34A85EFE094
:10DB68003F9E3345240175B785448549D9BF39C9D6
:10DB7800011126CA06CE22CCAA8409459DCD0D46A0
:10DB880028002E848D059760FA1FE780C0DE834742
:10DB9800A10070002C0093F7F70393E7070426858C
:10DBA8002305F100EFE03F9C09E90D46A2856800D6
:10DBB800EF302FD87D153335A000F2406244D244AF
:10DBC800056182800945828083C7F1C6918B99C31C
:10DBD8009387C1B223A2F1C601458280011152C4C4
:10DBE8002A8A32854EC656C25AC006CE22CC26CACA
:10DBF8004AC82E8BB28AB689EFD06FEB09ED8944FB
:10DC0800F240624426854249D244B249224A924AA5
:10DC1800024B056182805C592A89C544F5F34D455C
:10DC2800EF501FC21374F50F5145EF507FC1E388C1
:10DC380009FC83C78901E3E487FC1375F50FE360EA
:10DC4800F5FC93053005130500079760FA1FE78078
:10DC580060BE232AA9022A84CD445DD11306000799
:10DC68008145EF30EFC6A3000400230044012301DF
:10DC7800640123125401232E3405232C0400A3012C
:10DC8800040063170A008547A300F40081448DBF90
:10DC98002285EFE08FD48547A300F400AA842DD114
:10DCA8004A85EFE02FD8A9BF397122DC06DE26DAD3
:10DCB8004AD84ED652D456D25AD05ECE62CC66CA14
:10DCC8000944630F060E630D070EAA8B3A89368B3B
:10DCD800B28A2E8CEFD0AFDD2A8A51446302050E3A
:10DCE8009305300541459760FA1FE780A0B4AA89DB
:10DCF8004D4479C58344190083472900A204C2070B
:10DD0800BE9483470900BE9483473900E207BE9456
:10DD180083278A0263E697007D570944639DE708D5
:10DD280063070C0083474A000544898BC9C7930CD5
:10DD38004B00214681450A85C20CEF306FB993DC50
:10DD48000C019305300566859760FA1FE78080AE61
:10DD58002A8C4D442DC15A86D6851105EF30AFBFA8
:10DD68001146CA856285EF300FBF414693058A0187
:10DD78004E85EF304FBE21478A866686E2854E85FE
:10DD8800EFE0FFD52A841DE121468A852800EF307F
:10DD98008FBC2146930549002800EF308FB985478D
:10DDA800631EF502A6855E85EF503FD462859760B5
:10DDB800FA1FE78020B14E859760FA1FE78080B090
:10DDC8002285F2506254D2544259B259225A925A78
:10DDD800025BF24B624CD24C216182800544F9B758
:10DDE800397162CC2A8C594526DA4AD84ED652D493
:10DDF80056D25AD05ECE06DE22DCAE8B328BB68A85
:10DE08003AC63E8AC289468983440104EF207FFAD4
:10DE18002DCD9167938717E92310F50085472301D6
:10DE2800F5002A843247210563080C049307100380
:10DE3800A301F40019468145EF308FA9230364013B
:10DE4800A3035401230A94002312740123174401E5
:10DE58002318340123192401A2856254F250D254A4
:10DE68004259B259225A925A025BF24B624C03C58C
:10DE7800C1C621616F203FFEA30104001946BA857F
:10DE88009760FA1FE78020AF55BFF2506254D25412
:10DE98004259B259225A925A025BF24B624C2161A2
:10DEA8008280797156CAAA8A1305100326D24AD0ED
:10DEB8004ECE52CC06D622D42EC6328AB684BA8921
:10DEC8003E89EF201FEF39CDB2453746020193074F
:10DED8008500130616E92A845CC110C12304550184
:10DEE800A304B5001946D28529059760FA1FE78073
:10DEF80080A8CE8523089400130514012686976010
:10DF0800FA1FE78040A723082403A2852254B250B1
:10DF180092540259F249624AD24A03C5C1C64561C0
:10DF28006F207FF3B250225492540259F249624A48
:10DF3800D24A45618280011122CC2A84314506CE1D
:10DF48002EC632C436C23AC0EF20BFE61DCD916757
:10DF5800938717E92310F500B245224692460247F7
:10DF68008D472301F500A301850062442312B50003
:10DF78002313C5002314D5002315E500F240AA8514
:10DF880003C5C1C605616F201FEDF24062440561FB
:10DF9800828001114AC82A89394526CA06CE22CC70
:10DFA8002EC6B284EF20FFE021C1B2459167938766
:10DFB80027E92310F50091472301F500A301250166
:10DFC8002312B5002A84A685190521469760FA1FF1
:10DFD800E780609AA2856244F240D244424903C570
:10DFE800C1C605616F203FE7F2406244D24442490E
:10DFF8000561828001114AC82A89414526CA06CE90
:10E0080022CC2EC6B284EF20DFDA1DCD9167B2454F
:10E01800938727E92310F50095472A842301F50003
:10E0280023122501214619059760FA1FE780A0945D
:10E03800A285231794006244F240D244424903C5A2
:10E04800E1C605616F203FE1F2406244D244424993
:10E0580005618280011122CC2A84394506CE2EC65C
:10E0680032C436C23AC0EF20DFD41DCD9167938702
:10E0780017E92310F500B245224692460247994710
:10E088002301F5002312850062442313B5002314ED
:10E09800C5002315D5002316E500F240AA8503C55F
:10E0A800C1C605616F203FDBF24062440561828092
:10E0B800797122D406D62A842EC632C436C23AC012
:10E0C800EFD0EF9E1DC1B245224692460247231C5F
:10E0D800B100231DC1002C081306F00F2285231E52
:10E0E800D100231FE100EFD08F8DB250225445613B
:10E0F8008280011122CC2A84394506CE2EC632C42C
:10E1080036C23AC0EF20FFCA1DCD9167938717E941
:10E118002310F500B2452246924602479D47230147
:10E12800F5002312850062442313B5002314C500AB
:10E138002315D5002316E500F240AA8503C5C1C6FC
:10E1480005616F205FD1F2406244056182805D7194
:10E158002AC613052002CAC04EDE52DC56DA5AD847
:10E168005ED662D466D26AD086C6A2C4A6C26ECE75
:10E178002E8CB28B368B3AC43E8DC28CC68A035A1B
:10E1880001058359410503498105EF209FC24DCD03
:10E1980091663243938616E9A9472A842310D5004D
:10E1A8002301F500930DE40021059304440122475F
:10E1B8006305030693071003A301F400194681457C
:10E1C800EF201FF1194681456E85EF207FF0194633
:10E1D80081452685EF20DFEF23037401A303640143
:10E1E8002300240323128401231D5401231E440108
:10E1F800231F3401A2852644B64096440649F259A5
:10E20800625AD25A425BB25B225C925C025DF24D6A
:10E2180003C5C1C661616F201FC4BA85A30104008C
:10E2280019469750FA1FE7800075EA856E851946EA
:10E238009750FA1FE78020741946E685268597507F
:10E24800FA1FE780407349BFB64026449644064902
:10E25800F259625AD25A425BB25B225C925C025D0E
:10E26800F24D6161828079715EC6AA8B61454ECE9E
:10E2780052CC56CA5AC862C406D622D426D24AD02C
:10E288002E8BB28A368ABA893E8CEF209FB23DC95E
:10E2980037470B01130717E913048500AA8418C12F
:10E2A80040C101491305240023007401A30064013F
:10E2B8001946D6859750FA1FE780E06B130594003E
:10E2C800230444011946CE859750FA1FE780A06AB7
:10E2D800A307840103C7340005091379F90F410422
:10E2E800E362E9FC2254B2500259F249624AD24A26
:10E2F800424BB24B224CA68503C5C1C69254456118
:10E308006F207FB5B250225492540259F249624AA2
:10E31800D24A424BB24B224C45618280011122CC39
:10E328002A84214506CE2EC632C4EF209FA80DC5EB
:10E338002246B245930710592310F50023018500A2
:10E348002303C50062442312B500F240AA8503C521
:10E35800C1C605616F203FB0F2406244056182800A
:10E36800011122CC2A84214506CE2EC632C4EF20C4
:10E378005FA40DC922469167938727E92310F5000A
:10E38800B245A1472301F50023038500A303C50077
:10E3980062442312B500F240AA8503C5E1C60561AF
:10E3A8006F207FABF240624405618280011122CC6C
:10E3B8002A84314506CE2EC632C436C23AC0EF2072
:10E3C8005F9F05CD22468567B245924602479387EF
:10E3D80017C92310F500230185002303C5006244F3
:10E3E8002312B5002314D5002315E500F240AA85B1
:10E3F80003C5C1C605616F201FA6F24062440561CE
:10E408008280011126CAAE844AC82A891385C400AD
:10E4180006CE22CC32C6EF20DF990DCD85679387D3
:10E4280017E9B2452310F5002301950023122501B1
:10E438002A84310508C426869750FA1FE780A0531E
:10E44800A2856244F240D244424903C5C1C605616F
:10E458006F207FA0F2406244D24442490561828025
:10E46800011122CC2A84194506CE2EC6EF207F94AE
:10E4780015C58567938717F92310F500B2458547B9
:10E48800A301F5002301850062442312B500F24080
:10E49800AA8503C5C1C605616F20FF9BF24062448F
:10E4A80005618280411122C42A840D4506C6EF20E9
:10E4B8005F9015C1930710F92300F500E947A30001
:10E4C800F500230185002244B240AA8503C5C1C6D0
:10E4D80041016F205F98B2402244410182800111BE
:10E4E80022CC2A84214506CE2EC6EF209F8C1DC53E
:10E4F8009167938727E92310F500B2459307000336
:10E508002301F5002303850062442312B500F2407D
:10E51800AA8503C5E1C605616F20FF93F2406244F6
:10E52800056182800111214506CE2EC632C4EF2036
:10E538005F8815C58567B24522469387073923103A
:10E54800F50085472301F5002312B5002313C50004
:10E55800F240AA8503C501C505616F20DF8FF2402F
:10E5680005618280397122DC4ED656D25ECE06DE37
:10E5780026DA4AD852D45AD0894BAA893284B68A24
:10E58800639E751183C781C44A8A8944D1C383C7EE
:10E59800160003C706009306C6FFA207D98F239A61
:10E5A800F1C6138B41C7639AD70831452EC6EF20B1
:10E5B8005F80AA843DCDB245420441802302B50064
:10E5C80023138500930700F91504A1652310F500AE
:10E5D80023113501850522859750FA1FE78080258C
:10E5E80088C439C183C781C49385EAFF13562400C0
:10E5F800FD172384F1C49750FA1FE780C0399C4463
:10E60800A68589079CC403C501C5EF20DF84814422
:10E61800F250625426854259D254B259225A925A1B
:10E62800025BF24B2161828026859750FA1FE780B2
:10E638006029239901C68544E1BF1307D6FFE3CAC1
:10E64800E7FE83C781C6938481C6138981C781CBBE
:10E658000325090009C59750FA1FE780A02603552E
:10E668000B00A16585051105420541819750FA1FE8
:10E67800E780401C2320A9005DDD83C781C4228672
:10E68800D685FD172384F1C49750FA1FE780A02E82
:10E69800239981C685472380F40095BF138A21C733
:10E6A80083570A00138B21C7D9D7938441C703D74F
:10E6B8000400138981C7B386C70011070325090021
:10E6C8006344D7063E95D6859750FA1FE780A02A5F
:10E6D80003560A0083D704008144329442044180DF
:10E6E80023108A009107E315F4F23145EF206FEC0F
:10E6F800AA850DC9930700F92310F50083570A006E
:10E7080023113501230275012313F500832709001E
:10E718001CC503C501C5EF200FF423100A0023848C
:10E7280001C6FDB50325090009C59750FA1FE78002
:10E73800601923100B00238401C6F5BD6FB0A01F1C
:10E748006FB0E0206FB0E065411106C6EFB0602001
:10E75800B2400145410182806FB0E0226FB00025D0
:10E768006FB040286FB0602A6FB0602C6FB0602E19
:10E778006FB060306FB060326FB060346FB06036C9
:10E7880003530100035E4100835E8100035FC10003
:10E7980072C276C47AC61AC06FB0E0366FB0003A5B
:10E7A8006FB0E03B6FB0E03D6FB0E03F6FB08041CD
:10E7B8008347160003460600A2075D8E6FB0C0426D
:10E7C8006FB000446FB0C0466FB060576FB0405A2A
:10E7D8006FB040606FB060626FB080646FB0A06669
:10E7E8006FB0C0681307A5FF420785672A88418371
:10E7F8001385A7C7636CE502138707C801456368DB
:10E80800B70263E605031307301F6362C702138765
:10E8180066FF42074183938767C763EAE7000506F7
:10E828003306B6028E063325D600828001458280E3
:10E83800B7E606008147938646581308F00F3387DA
:10E84800F600034607001317060141836364E500D9
:10E8580063130601828003D605006365C700239011
:10E86800E5008280850793F7F70FD1BF4111939791
:10E87800050122C406C626C2C1872E8463D50702B5
:10E88800EF200FD7AA8409CD83470500054793C712
:10E8980007086364F700EF50E00D2685EF20AFCE40
:10E8A8002165218D21A893F7150091CF83A701EF4A
:10E8B80083A7070891C3829713451400B2402244E6
:10E8C80092444101828093F7250091CB83A701EF01
:10E8D80083A7470891C3829713452400C5B793F7C8
:10E8E800450091C7EF00705D13454400C1BF93F721
:10E8F800050289CB83A781EFBC4791C38297134553
:10E9080004026DBF93F7050189CB83A781EFFC4310
:10E9180091C382971345040155B793F7052089CB16
:10E9280083A701F0FC4F91C382971345042079B760
:10E9380093F7051089CB83A701F0BC4F91C3829749
:10E9480013450410A5BF939725010145E3D807F6A1
:10E95800938701EC83C6770003C6670083C5570019
:10E9680003C54700EFB00060096525BF411126C205
:10E97800AA8422C41306C00A138401EC81451385B6
:10E9880001EC23A001C806C623A201C8EF204FF45A
:10E99800A38391D89307F00F3CDCF977FD17231375
:10E9A800F40A2314F40AFD472305F40A83C771D532
:10E9B800232E040613970701B9078E072311F402C3
:10E9C8002313F402A1472317F400B7071092938783
:10E9D800777D1CC81CCCB70748014183ED0723107D
:10E9E800E4022312E4025CCC37171092B707160032
:10E9F800130787809387079058C81CD4EF80806AD4
:10EA0800EF20205EEF70D03A2244B2409244410198
:10EA18006F50D002397122DC3704400026DA4ED616
:10EA2800AE84AA899305E4FF054506DE4AD8EF209F
:10EA38007FD9498C131704014183218393178400DC
:10EA480013590401D98F231601001379F90F1008FF
:10EA58008A854E852317F100A306210102C002C250
:10EA680002C402C802CA02CC02CEEF70506A8347C1
:10EA7800E1010347D101A3818400A2074207BA97A5
:10EA88000347F101218023828400BA97F25062542F
:10EA98002380F40013D78700C183A3822401A380B5
:10EAA800E4002381F4004259D254B2592161828092
:10EAB800011119469385E1D5138581F406CE22CC40
:10EAC80026CA4AC891644EC69750FA1FE780A0EA42
:10EAD8009385F4FF0145EF20BFCC2A84FD550145FD
:10EAE800EF205FCEA287FD147D5933F79700B366F8
:10EAF800E500C5CA631425016305970A138701EC6D
:10EB0800230CF708A18393E707FC9169C164232AC2
:10EB1800A708A30CF708138401ECFD19FD14CE8592
:10EB28000145EF20FFC72A89FD550145EF209FC900
:10EB3800B3672501EDD7FD576314F500E30139FFED
:10EB480093570501230EF40893578501A30EF40883
:10EB580083178408231DA408230F24094205135989
:10EB680089001379F9034185A30F2409658DE58F81
:10EB78006312F5020317C4098317A408658FE58F8C
:10EB8800631AF7000317E4098317C408658FE58F34
:10EB9800E307F7F8F2406244D2444249B2490561BA
:10EBA8008280A6850145EF20BFBF2A84FD55014517
:10EBB800EF205FC1A28715BF011126CA938701EC18
:10EBC80022CC805B4EC606CE4AC852C403495406BE
:10EBD800938901EC631809001946938581F413059C
:10EBE800640621A885476314F90683C7290013051D
:10EBF80064061946B1CB9385E1F49750FA1FE78074
:10EC080080D783C7190091CF8347340713070004BF
:10EC180093F7070C6397E7001305C406EF50405BB2
:10EC280028D08547A303F40003C571D88545238000
:10EC380001ECEF204FD60145F2406244D2444249EC
:10EC4800B249224A05618280938541F57DB7094A18
:10EC5800631749058347C4062302040689E78547E5
:10EC68002302F40695BF1305C406EF50A05128D01F
:10EC78000DC1EF50202D2C5083C7A50099CB23023E
:10EC880024071946B105130564069750FA1FE78053
:10EC980080CE034744068947E305F7F6C9B78D4791
:10ECA8004945E31BF9F88347C4062302040681EBB0
:10ECB80085472302F40619469385E1F40DB7130539
:10ECC800C406EF50204C28D00DC1EF50A0272C507F
:10ECD80083C7A50099CB230244071946B10513053C
:10ECE80064069750FA1FE78000C90347440689471E
:10ECF800E309F7F075BF4111C5451305400922C462
:10ED080006C69750FA1FE780E0B22A8421C9130685
:10ED18004009814523A8A1EEEF208FBBE577850741
:10ED28002312F4009387C1F6D84B9C4F2324E408A0
:10ED38002326F4088D47A307F400B7F70500938747
:10ED480007BC7CDCB7F705009387A7042320F408E9
:10ED5800B7F705009387C7FC2322F4082285B24041
:10ED680022444101828083A741F1639C0724011159
:10ED780026CA83A741CA06CE22CC98434AC84EC6A3
:10ED88000D8B05C3B84B619BB8CB984313678700BD
:10ED980098C39C438D83858B89C7010001000100BE
:10EDA800010083A741CA1307A005B70600F9B8CB2D
:10EDB8001307000AB8D37D47D8C383A741C9FD16F6
:10EDC800984F2A84758FB7060002558F98CF984FB1
:10EDD800137737F81367870198CF83A601CBD856E6
:10EDE800759BD8D60347C5009376F70798431377E2
:10EDF80007F8558F98C337C7898E130767ED98C7EB
:10EE08003757550013075755D8C3D857B70600F0DA
:10EE1800FD16719BD8D79843758F98C38347150102
:10EE2800054783268508BD8B2304F500639BE716F9
:10EE38003147A304E5002380F600834755061309EC
:10EE4800E506898B8DC32C5199CD83C7250181CFC8
:10EE580083C735011946D105A306F5064A8597509B
:10EE6800FA1FE78040B18347D40689CB032784087B
:10EE78008347070093E707F82300F7000325840872
:10EE88001946CA8521059750FA1FE780C0AE834707
:10EE9800540613096406898B85C32C5091CD83C70A
:10EEA800A50099CB89472302F4061946B1054A857E
:10EEB8009750FA1FE78020AC83475406858B91E76B
:10EEC800034744068947631AF700032784088347E2
:10EED800070093E707042300F70083278408034704
:10EEE80094001946CA85A380E7000325840809050C
:10EEF8009750FA1FE78020A8930720F9A302F4008F
:10EF080083A781C90327840837F50500814598CB75
:10EF18001305052EEF204FE1EF7030479387C1F6B8
:10EF28008546A383D700930640F9A302D40093062D
:10EF3800003423810700D4C783A641CAA3810700F0
:10EF4800238207001389C1F6BC52FDFF83A701CBBA
:10EF580083A70709139777006349070083A781D719
:10EF680089C785451305000882978347940003A73E
:10EF780041CAA16692079386363054C79387871192
:10EF88003CD3930700F82302F9006244B167F240CA
:10EF9800D2444249B249938737305CC705616F70E4
:10EFA8003038034735019305E40119071377F70350
:10EFB800A304E5002380F6000325850803463401F1
:10EFC800D1B58280411122C403A401EF06C626C22E
:10EFD800834474008547639FF4028347C400130782
:10EFE8005002639EE7028347240113F7270015CFD9
:10EFF800930760022306F4002285EFF0DFD68347EB
:10F008002401918B81CB03C571D88945EF20AF9836
:10F0180023039400B24022449244410182801307A2
:10F028006002639DE70083472401918BE5D793072E
:10F0380070022306F4002285EFF0FFD223030400B8
:10F04800D1BF411126C2938701EC22C4805B06C65A
:10F05800854703477400631AF70A8356A401130708
:10F06800006483C701EC3347D702850793F7F70F8E
:10F078002380F1EC63C6E700EF20CFF6238001EC94
:10F0880083472401938641D803C5360093F61700B9
:10F09800938441D891CE130750022306E400998B3C
:10F0A8008DC38945EF202F8F85472303F40011A8CE
:10F0B80013F74700898B95CB930760022306F4006A
:10F0C8006DF303471401854783C434006317F702BF
:10F0D8000356A40126858545EF20AF9C228522444E
:10F0E800B240924441016FF01FC809C793077002EC
:10F0F8002306F40023030400E9B7B9450545EF20CA
:10F10800EFE70356A4012A96F1B7B240224492448D
:10F118004101828083C711EC411122C406C626C270
:10F128004AC02A849DE70347840085476313F71084
:10F138008347D40603475407858B631AF70E19468D
:10F14800930564071305E406EF10BFFEB334A0006F
:10F1580091A883475507F1C38347B50713070004F0
:10F1680093F7070C639BE70A285121C51309640725
:10F17800CA851305A502EF4030568547AA84631A4D
:10F18800F50228508947230AF406834735001946B3
:10F19800CA8593E72700A30AF40651059740FA1F8A
:10F1A800E780607DB24022442685024992444101AD
:10F1B80082800347840085476301F7068347C406B6
:10F1C800A9EF13054407EF50A00028D039C589449A
:10F1D800230A94068347350019469305640793E785
:10F1E8002700A30AF40651059740FA1FE780A07884
:10F1F80083475406898B99E385446DB72C5083C7A0
:10F20800A500FDDB230294061946B1051305640623
:10F218009740FA1FE7802076C5B78347C406898BD5
:10F22800E38307F03C5083C71700E39E07EE814451
:10F2380095BF8347D40013F7170019CF8346B4004E
:10F248000D47639BE60068582C5C2244B240924408
:10F25800024941016F70401B898BD9DF0347B40015
:10F268009547E31BF7F8C5B7411126C206C622C465
:10F278009384C1C703A401EFEF703011EF707013CE
:10F288009C40A303040023120400138441D885C3BF
:10F29800034534008545EF20EF9FAA8705CD130568
:10F2A80010273385A7029C40130505D9829703458B
:10F2B80034008545EF208F94034534008945EF20BD
:10F2C800EF93034534002244B240924491454101F2
:10F2D8006F20CF929C40D9BF39714ED6938701ECED
:10F2E80022DC805B4AD852D456D2216AB16A5AD0FD
:10F2F8005ECE06DE26DA938901EC1389C1F6130A7D
:10F308003A30938A3A30834754001307500963917F
:10F31800E72CEF70C07E83473900858B638207280E
:10F328000325C408130604018145A3010900975069
:10F33800FA1FE78060C7631405188325C4087D4752
:10F3480083C7150093F7F7032305F400E91793F72C
:10F35800F70F6366F71683C70500BD8BA305F40096
:10F36800F51793F7D70F639C07149304640619469F
:10F37800A1052685EF10FFDB630305148325C40868
:10F3880013056407194683C7050089059987858B86
:10F39800A30AF4069740FA1FE780E05D2285EFF0A4
:10F3A8007FD7630E05108346B40015478347840052
:10F3B8006399E612B98B6394071083A70906638FD4
:10F3C8000710EF70007F83A709068297EF10701F60
:10F3D800AA846305051083A741BA82978325C408C8
:10F3E800A8DC154683C7F50003C70501138504107B
:10F3F800A2074207BA9703C7E500F905BA9703C7FA
:10F4080035FF6207BA9723A4F40883C755FF03C7DB
:10F4180065FFA2074207BA9703C745FFBA9723A615
:10F42800F40883C775FFA385F40283C795FF03C754
:10F4380085FFA207D98F2396F40283C7B5FF03C7B8
:10F44800A5FFA207D98F2397F40283C7D5FF03C767
:10F45800C5FFA207D98F2398F40283C7F5FF03C716
:10F46800E5FFA207D98F2399F4029740FA1FE78096
:10F4780080500327C40883473702FD8B2384F40296
:10F488008347370205679306A7C79583A384F402C9
:10F4980083D7E402E917C207C18363EEF60083D677
:10F4A80004039307301F63E8D70083D724031307A7
:10F4B80007C86371F70203D54400EF10B02BA3040B
:10F4C80009000347540093076009E30EF7E2EF7061
:10F4D800406ED5A883A7490626858297EFF0DFD826
:10F4E800F9BFBD8B81C71947E39BE7FC83474401FC
:10F4F80011472304E4009907A304F4008327840830
:10F508002380E700834794000327840893F7F703D1
:10F51800A300F70083475406858B91E70347440609
:10F528008947631AF700032784088347070093E78E
:10F5380007042300F70003258408A6851946090552
:10F548009740FA1FE78020430325840803464401B7
:10F558009305E40321059740FA1FE780C04193070C
:10F5680060F9A302F4008347940003A741CA130576
:10F57800A0059207232647019387C71C3CD393070E
:10F5880000F82302F900232657019750FA1FE78055
:10F5980020959750FA1FE7808092EF70806105B739
:10F5A80023020900EF70E0608347890089EF8347F1
:10F5B8009900850793F7F70FA304F900A18B81C77A
:10F5C80085472314F900930720F9A302F40061A8E2
:10F5D800130740096399E70283472900858B8DC388
:10F5E800834784002301090013F7E70009C7BD8B8F
:10F5F8001947E39EE7EC930750F9A302F40021B3FF
:10F6080023020900E9B513076009E39EE7CE938753
:10F61800C1F603C72700058B41CB23810700EF7094
:10F628004059930710F9A302F40083A7C1CB85CFF3
:10F63800DC4395CB89472302F10083475407130520
:10F6480061001946A302F10083470401930564078A
:10F658002306F1009740FA1FE780E03183A7C1CB6A
:10F668004800DC4382978347640085E71384C1C759
:10F678001C4085C303C571D88545EF10BFE1AA8733
:10F688001DC9130510273385A7021C40130505D98A
:10F698008297F2506254D2544259B259225A925A1D
:10F6A800025BF24B2161828023820700EF70605079
:10F6B800930710F919BF1C40E1BF411106C6EFF0CE
:10F6C800BFBAB2401306200893050008014541015E
:10F6D8006F40602623AEA1C6828083C771D885E7B4
:10F6E80037F5050041111305458706C6EF10DFF110
:10F6F800EFF0CFA7B240B7F705009387E7CF23AA6B
:10F70800F1EE41018280B7F705009387E7CF23AA7E
:10F71800F1EE828011C98327050993E70740232862
:10F72800F508FD572300F502828023A2A1C8828034
:10F73800011122CC06CE2A84034505029307F00F57
:10F748002E866309F5002EC6EF101FCF3246FD57EF
:10F758002300F402834734020357C40393060402C8
:10F7680093E70706A301F40283574403A285F240F6
:10F77800BA97231DF402624437F505001305C571D5
:10F7880005616F103FBA011122CC06CE2A840345C9
:10F7980015029307F00F2E866309F5002EC6EF10A9
:10F7A800BFC93246FD57A300F40293061402A2858E
:10F7B8006244F240371506001305C58305616F10D2
:10F7C8007FB6011122CC06CE2A8403452502930771
:10F7D800F00F2E866309F5002EC6EF10FFC53246DE
:10F7E800FD572301F40293062402A2856244F240E5
:10F7F800371506001305658605616F10BFB293873C
:10F8080001EC9853DC5393068004232EE512232C35
:10F81800F512ED47A303F514A301F5142317F51406
:10F82800B7071B009387871405472328F514930708
:10F83800801423040514A304D5142305E514230216
:10F848000514A302D5142303E514231AF5148280A2
:10F858000357E503954703562503B307F702835675
:10F86800E50293D537406355B600118F93173700DB
:10F87800B3C7D702C207C183231EF502828083273C
:10F88800C50E0D469306F00F03C707000D8B230521
:10F89800E5006314C70083C62700A30AD50003C781
:10F8A8000700418B2308E50083C71700A305F5006F
:10F8B80082800327050F6DCF411122C406C68347F6
:10F8C8008500835625152A8493F7C70F2304F5006E
:10F8D800834597000356C70013958501618563F535
:10F8E800C606635E05040345870093F5F507A30480
:10F8F800B700854513E627006314B50013E6170023
:10F908002304C4005C4389075CC313F6F60FA30401
:10F91800C4000325840E4C4309059740FA1FE7806D
:10F9280080058327040F03469400D44303D7C700F8
:10F93800B296118FD4C32396E700894715A893E799
:10F9480017002304F400D1B71376F60F63590504A2
:10F9580003458700854593E627006314B50093E6C1
:10F9680017002304D400A304C400A3040700854798
:10F97800A30BF4008327040F01459C4389CF034759
:10F98800A40283C791D56378F7008347840093E77F
:10F9980007012304F400B24022444101828093E726
:10F9A80017002304F400A304C400A304070095B7B8
:10F9B8000545828083478500CD9B2304F50082801E
:10F9C8008327C50E0347850083C707009356374032
:10F9D8008987B58F858B99C7134787002304E5006E
:10F9E80001458280054582808327C50E034785002F
:10F9F80083C70700935627408D87B58F858B99E776
:10FA0800134747002304E5000145828005458280AD
:10FA18008327050C85072320F50C91E78327450CE0
:10FA280085072322F50C8327450C93F7070891C710
:10FA380085472320F50C2322050C8347350293F7CD
:10FA4800070491CF835745030357C503BA97231D6E
:10FA5800F5028327450993F7F7BF232AF508828023
:10FA68008327850C85072324F50C91E78327C50C8C
:10FA780085072326F50C8327C50C93F7070891C73C
:10FA880085472324F50C2326050C8347350213F7F5
:10FA9800070409C793E70702A301F502828083A739
:10FAA80081F0014591E3828003C7770011E30505E2
:10FAB8009C43CDBF83A781F00145054791E3828030
:10FAC80083C677006393E60005059C43C5BF4111D3
:10FAD80022C491452A84014506C6EF103FCA938780
:10FAE80001EC83D6C7052315A4040547637DD70217
:10FAF80083564403035724050355C40483A8870485
:10FB0800158F3307A7028326040885451303F5FFDD
:10FB1800130E80023697835624159386260285860F
:10FB2800AD0663E66500B240224441018280338815
:10FB3800C503C6877D563A9881E72315B404E5B70F
:10FB48006314F4001C40F5DB83AEC7076398AE006E
:10FB580003A607083306C8403376A6026364D600B6
:10FB68009C43D9BF890575BF938701EC83D6C70528
:10FB780005476376D706035725158345950403A3E0
:10FB880087041307270205872D07FD150546130E61
:10FB980080026363B6008280B306C6038327050824
:10FBA8007D58BE969A8781E72315C5048280631421
:10FBB800F5001C41F5DB83AEC7078328C507639AA8
:10FBC8001E0183A807083388D84063E416013388E8
:10FBD80016416364E8009C43F9B705065DBF82805F
:10FBE80003C6C1D5938601EC3C5D03DEC605131838
:10FBF800860105430357C50213588841938801ECD1
:10FC080093864700637FC30B835525159307170019
:10FC1800938525028585AD05635F08021307204E8D
:10FC2800B387E702BD079583B6976349080037078E
:10FC3800C0A863E5E70037074057BA972320F508BF
:10FC480003A38804D14863530800CD4801479A8725
:10FC5800FD5695E38280058A11C613078002B38793
:10FC6800E702D9B705671307B747B387E702938752
:10FC780007049D8355BF6394A7009C43A5CB03A8A5
:10FC8800C707705D631CC8000328050803A607089A
:10FC9800B30606416364C800B306C84063E4B6000F
:10FCA8009C4345BF8327050805076207C69723209D
:10FCB800F5088347B50261878607FD17E349F7F81A
:10FCC80082800907635508029307204E3307F7021D
:10FCD8003D071583369763490800B707C0A86365D1
:10FCE800F700B70740573E972320E5088280058A2A
:10FCF80011C6930780023307F702E9BF8567938728
:10FD0800B7473307F702130707041D83E1B7938743
:10FD180001EC83D6C7050547637CD70C411122C483
:10FD2800A04706C626C2A28789EB09EC230C05006A
:10FD3800B240224492444101828003C7A7016DFB6F
:10FD48009C43DDB76314A40000406DD08347740062
:10FD5800D1EF785C7C5D630BF70803478501930757
:10FD68000008AA84631BF7048357E4021946930525
:10FD780000082314F5062315F506835704032317F3
:10FD8800F504835724032318F50403554500EF3081
:10FD9800903A8547238DF40083C7840193F7F707CA
:10FDA800238CF4001305C4052244B2409244314622
:10FDB8009305F00F41016F10AFB18357E502194663
:10FDC800930500082314F4062315F4068357050346
:10FDD8002317F40483572503035544002318F40418
:10FDE800EF3070358947230DF4006DBF004035BFF3
:10FDF800230C05008280938701EC83D6C705411147
:10FE080026C206C622C40547AA846371D71A0347C7
:10FE1800050E098B630C0718BC47BE85ADED03D6EC
:10FE2800241501447D581306260205862D067D55A6
:10FE3800A5EB630C0410834774000357E402C5EB79
:10FE480089472316E404A304F4040357440583579D
:10FE580044032285BA97C1071D8B998F2319F4048F
:10FE6800835704032317F404835724032318F40443
:10FE7800EFF0FFC58327440993E74700232AF408D6
:10FE88008547A30CF4008D47230DF400B2402244AB
:10FE980092444101828003C7A5016DFB8C41BDBF1F
:10FEA80098436394970051D7BA8783A6070803A796
:10FEB800040863E1E6023387E640F45C63F4E60095
:10FEC8003377D7026376A7003A856373C700BE8588
:10FED8009C43B9BF158FF45F63F4E6003377D7020C
:10FEE800E37807FF3A88E375C7FE3E84D5B783D722
:10FEF800E402B3F7E702D9FB9D46994763F5E600AC
:10FF0800935717008D0705672314F406130707C8CE
:10FF18008A076353F700BA872315F4068357040347
:10FF280003554400130660082317F4048357240379
:10FF3800930500082318F404C947230DF40022444C
:10FF4800B240924441016F30101FADC103D7E402A3
:10FF580083D7E502B3F7E702B1EB8387840163D760
:10FF680007049D46994763F5E600935717008D07E8
:10FF780005672394F406130707C88A076353F70035
:10FF8800BA872395F40683D7040303D544001306E0
:10FF980060082397F40483D7240393050008239863
:10FFA800F404CD47238DF400EF30F018238C0400BF
:10FFB800F1BD938701EC83D6C70505476373D72046
:10FFC800397162CC035C25154AD85149130C2C02AF
:10FFD800135C1C402D0C33592C0366CAAA8C794536
:10FFE80026DAE544130610278146814522DC4ED6E1
:08FFF80052D456D25AD05ECE5D
:0200000260009C
:100000007D6A06DE6AC86EC6A0478569930B8A843E
:10001000938A81D4938909C8130A0A403305AC0234
:10002000B3049C02EFD0307A2A8BA58005E0F25011
:100030006254D2544259B259225A925A025BF24B3C
:10004000624CD24C424DB24D2161828063958C004E
:1000500003A40C0069DC8347A401E9E3785C83A76F
:10006000CC0763EDE70A03A50C0883270408636740
:10007000F50A03CD4A011D8DDE87931D8D0193DDA9
:100080008D4163C90D0093761D00D28781E6B707C5
:1000900002008D076374F5086374A7003375E502E9
:1000A000637E8507935717006373FC00E287AA9766
:1000B00063D80D067945130610278146B3B5A7020C
:1000C0003385A702EFD0307093071500854663870C
:1000D000D704034674000357E4023DE22316E40408
:1000E0000357040385832315F4042317E4040357FB
:1000F00024032318E4040947A304E40483D74C032E
:10010000A30CD400A9072319F4048327440993E717
:100110004700232AF4089147230DF400004039B723
:1001200013771D0009C7514533D5A70271BF654735
:100130003385E702B3B7E7022581DE075D8D69B736
:1001400083D6EC0263FFE602B3F6E602DA8763C702
:100150000D0013761D00CA8711E2A68785078583E7
:1001600063E1F602DA8763C80D00137D1D00A687E0
:1001700063030D00CA8785078583B307F740E3FF54
:10018000D7F89D46994763F5E60005839307370046
:100190002314F4061397270063D3E9004E8783578F
:1001A0000403035544002315E4062317F40483577E
:1001B000240313066008930500082318F404D147AC
:1001C000230DF400EF30A07791BF828083A701C890
:1001D000411122C406C6858B2A84A5EF416513050B
:1001E00025F5EF00F03F35C58347E5002317F500FF
:1001F0008327840FB1E7232CA40E232EA40E85475A
:10020000231BF402232005008347B4002316F500C6
:100210008347A4002304F5008547A304F5009387D2
:1002200001EC03D78700228505072394E700974058
:10023000FA1FE780E09D0145B240224441018280DF
:100240008327C40F88C383576403232EA40E850716
:1002500045BF8347840023080400054593C7470032
:100260002304F400D1BF83C771D8638A07104111FA
:1002700026C206C6AA8422C44AC07D55DDC003A793
:1002800081F045C3938781D483C5D7010385470196
:100290007D548505138981D40548B708C0A8130E7D
:1002A000000C8346770083270708639906050353EC
:1002B000070783560703637CD3060346D7006318FA
:1002C00006070326070F25E6032647092DE2034606
:1002D000F700631EC605705FB38666407916330665
:1002E000D60283264708B356D602B297AE96C20608
:1002F000C182231BD706635F0502958F63F38700D6
:100300003E84184359FF83A741BA82976368A402C9
:10031000B307A4409CC09C4035476361F70423A009
:100320000400B24022449244024941018280835633
:100330006707D1B7E3F3D7FCC697C1B7B3078540CA
:1003400063DB070083074901E3C407FCB707C0A8C4
:10035000A297898FC1B723A0040075BFCD179CC099
:100360008307490163D50700130534FF5DBFB1471B
:10037000E3EC87FE3705C0A84D1522955DB77D5586
:100380008280411106C6EF00502419C98327050F4A
:10039000014581E7B240410182809C430505D5BFFC
:1003A0007D55CDBF03A741C801114AC806CE22CC56
:1003B00026CA4EC62A8939CF938941C803D7C1F1CD
:1003C00085476319F704138781D4030747018327FF
:1003D000050803546507938481D463580704338464
:1003E000874083A741BA82976367A404B307A440F8
:1003F00003C5E40103A709000581637AF506338587
:10040000A74083C7440193968701E18663D306041E
:1004100016050297F2406244930700FB2306F90099
:10042000D2444249B24905618280E3FA87FA37072C
:10043000C0A8BA976DB7330785408147E35A07FADA
:1004400083874401E3C407FAB707C0A8A297898F3E
:1004500045B7858B99C79307803E3305F502158113
:100460004DBF9307D0033305F50205815DB7014504
:100470004DB7411126C2938701ECFC4B22C44AC000
:1004800006C62A842E89938401EC6394A70023AACC
:1004900004048327840F81CB035544000146930550
:1004A0000008EF30C0498357840381CB03554400D3
:1004B0004D4693051008EF3080480355440015461B
:1004C00093051008EF30A04723030400A30604009F
:1004D0002304240503D7C405854763E6E700854563
:1004E0000145EF10EF84B240224492440249014595
:1004F0004101828083476500638007348357050785
:10050000411122C406C685072318F5068347F50066
:10051000230F05002A84139787016187634407022C
:1005200003574503954763E4E700014501A8930598
:10053000E003EFF01FF42301A4040945B240224474
:100540004101828013F707023DC793F7F7FDA30728
:10055000F50083270509034775002301050493E788
:1005600047002328F50885476317F7040327450844
:100570007C5D938681D4B3D7E70203C7D60183C6D7
:1005800046011396860161869107BA97C207C18317
:10059000231AF50686071397070141838347B5029F
:1005A000635D06129306204EB387D702BD0795837D
:1005B000BA972319F4068347E40013F71700630181
:1005C00007248357240503574403639CE72083577C
:1005D00004038355040503452402231AF4048347C6
:1005E00094042319B4029205A305F4028357A404CA
:1005F000F9152316F4028357E4042318F402EF00DC
:100600003FEB8346740023180406138681D4835776
:10061000C4020357C404639D0612034646018326A1
:10062000040893158601E18563D9050C1305204E56
:10063000B387A702BD079583D106B69763C90500A6
:10064000B706C0A863E5D700B7064057B697232082
:10065000F4082317E40263D3050C9307204EB30775
:10066000F70295837CDC63DA050C06079377E701D4
:10067000230EF40083574403230204022313F402DD
:100680008347A40181C72285EFF08FCE8347F40012
:1006900093E70702A307F4008347E400F99B2307CD
:1006A000F4008347340293F70704E38007E8035715
:1006B000A40383574403E31AF7E60347D4009307E0
:1006C000200A6315F7008547A306F4008327440931
:1006D00093E70740232AF40889BD858A91C69306CB
:1006E0008002B387D702E9B585669386B647B3879C
:1006F000D702938707049D8365BD1375160011C546
:1007000013058002B387A70205BF05651305B5472A
:10071000B387A702938707049D8339BF9377160099
:1007200091C793078002B307F7022DBF85679387B0
:10073000B747B307F7029D8335B7058A81470DFA9E
:1007400085679387B747B307F7028983FD8B0DB79A
:100750000346460193158601E1859DC7832604085B
:1007600063D005041305204EB387A702BD07958308
:10077000B69763C90500B706C0A863E5D700B706FA
:100780004057B6972320F4082317E40263DB0502E1
:100790009307204E3307F7023D07158378DCFDB53C
:1007A0001375160011C513058002B387A702C9B7D8
:1007B00005651305B547B387A702938707049D8393
:1007C00045BF058A11C6930780023307F702F9B7C0
:1007D00085679387B7473307F702130707041D831D
:1007E00075BF998F13970701E35D07EA93058002B0
:1007F0002285EFF01FC82301A404130580023DBB2E
:10080000898BE38007EA0357A41083574403B30698
:10081000F74013960601E34B06FCE314F7E8154690
:1008200093055410130504109730FA1FE780201524
:100830008347E400F59BA5B50545828005C54111B8
:100840009305200222C406C62A84EFF09FC2FD57FA
:100850002301A404A3060400A300F402B24022442E
:100860004101828082800DC9411122C406C68307DE
:10087000F5002A849305E00363D30700A145EFF058
:100880005FBFFD572301A404A30604002301F40263
:10089000B2402244410182808280938701ECB847B4
:1008A000630E0744797126D2938781D406D622D469
:1008B0004AD04ECE52CC56CA5AC85EC6938601EC78
:1008C00083884701AC4A01457D58938481D437031E
:1008D000C0A8032607088357670763DF080EB3071E
:1008E000F64063F50701BA853E880545184375F360
:1008F00011C1ACCAA04A8569370AC0A8B70A4057D7
:10090000054B9389B94783A741BA832B0408829783
:100910006374752F83C7E40103576407B38BAB403F
:10092000BA9763E27723835744032285A30E04001A
:100930008507231AF40201272285EFF0BFBB51E19E
:1009400083864401230504028327040803576407B0
:1009500063D806083387E74038DC785CBA9763C908
:1009600006003706C0A863E5C70037064057B297B0
:10097000034674002320F4088545631BB60683579D
:1009800004078356040363EAF60A8346D400639699
:10099000C60A8326040FD5E283264409D9EE03460E
:1009A000F4009306000C631AD608B387E702032706
:1009B0004408B3D7E70203C7D4010507BA97231B3E
:1009C000F406B250225492540259F249624AD24A71
:1009D000424BB24B45618280E373F6F01A9601B741
:1009E000E3FAE7F63706C0A83E963307E640ADB710
:1009F0000347C40139C383554403035664022313D8
:100A0000B4023386C5403307C70203464402329717
:100A10001377F70F2302E4027D466370E602138723
:100A2000170063CA0600B706C0A86366D700370779
:100A3000405705073E972320E40883A741BA8297D1
:100A4000AA8983A741BA8297E30D35FF83A741BAEC
:100A500083298407829783C744011397870161879D
:100A6000635B07063385A94045C5745C6372D50A8C
:100A70006359070616058347440203A741CAA166C6
:100A8000938636303E9554C7060528D39386C1F623
:100A9000130600F82382C600B1669386363054C729
:100AA0007D476375F70081172302F402EF60600E43
:100AB000EF60A01003477400854781456311F70478
:100AC0003755060013056532EF009FA6930700FD1A
:100AD0002306F400FDB5E3F7A9F8B706C0A8B69958
:100AE00051B7858B99C79307803E3305F502158171
:100AF00059B79307D0033305F5020581ADBF3725FC
:100B000006001305E538EF00BFA2930710FCC9B734
:100B100003477400854703A304036317F700954553
:100B2000E30103EA154529A0E30D03E895451945BE
:100B30002254B25092540259F249624AD24A424B6C
:100B4000B24B4561028363DC0B0483574403228567
:100B50008507231AF402C5212285EFF0BF99785C3E
:100B600083270408BA97038744016345070063E3BA
:100B70004701D6972320F4088347740063956701E3
:100B80002285EF4020788347D40185458507A30E51
:100B9000F4009C58E38907D615458297ADB303C787
:100BA00044018357240393168701E1868E0763D59A
:100BB00006021307204EB387E7029583E3F377E13C
:100BC000A1452285EFF0FF8A03A304032301A404B7
:100BD0008945E31903F4F5B3058B11C713078002A8
:100BE000B387E702E1BF05671307B747B387E7029B
:100BF000938707049D83D9B703C744018357240310
:100C0000B30B754193168701E1868E0763D3060AFD
:100C10001307204EB387E702958363F3FB0C83A78A
:100C200041BA829783574403AA8B22858507231AEA
:100C3000F40211212285EFF0FF8BE31405D8785CD4
:100C400083270408BA97038744016345070063E3D9
:100C50004701D6972320F4088347D40113F7070FE1
:100C600035C72285EFF06FB5A30E04008327040873
:100C7000E3F7FBFA835604077C5C03274408B38739
:100C8000F602B3D7E70203C7D4011107BA97231BB3
:100C9000F40683477400639F670383570403E3F4F8
:100CA000D7C62285EF4000669C58E38E07C48D4569
:100CB000E5B5058B11C713078002B387E702B1BF03
:100CC000B3873703938707049D8381BF8507A30EEE
:100CD000F40069BF9C58E38807C28D45194575BD6E
:100CE000E3C10BCEA1452285EFF0AFF803A30403C7
:100CF0002301A404E30703CC91452DB58280411163
:100D000022C406C62A848327040FA5EF8327840FF5
:100D1000D9EB0325840E09C59730FA1FE78000BB85
:100D2000034514029307F00F6304F500EF004FF141
:100D3000034504029307F00F6304F500EF004FF042
:100D4000034524029307F00F6304F500EF004FEF13
:100D500003554400252483A701D585C383D7C1F15A
:100D600089EF138441D8484C09C99730FA1FE780AE
:100D7000E0B5232E040023200402B24022444101A6
:100D80008280C84309C59730FA1FE78020B48327C3
:100D9000040F03D7E700136707F02397E7009C438E
:100DA0002328F40E8DB703D7E700C843136707F075
:100DB0002397E70009C59730FA1FE78020B1832702
:100DC000840F9C43232CF40E91B783A781F099E301
:100DD0003E85828003D74700E30CA7FE9C43C5BF36
:100DE00083A781F1C16683C581D5FD16014703D66E
:100DF000E700630BA6006309D60005071377F70F1A
:100E0000C107E3F6E5FE81473E858280411122C499
:100E1000138401EC3C4C06C626C2A1EB03554402E8
:100E2000938481D483C704011305150215858507B2
:100E3000160592073E95420541819305B0209730F3
:100E4000FA1FE780A09F15C183C6040128CC814703
:100E5000138716001207939506012A97C18113087C
:100E600040F5930820F563D7F600B240224492443F
:100E7000410182808DE32317150158C1A3040500A9
:100E800041052A8663E3B70001468507C207232888
:100E9000C5FEC183C9BF2317050123220500F9BF81
:100EA00041119305A0201305801506C622C426C251
:100EB0009730FA1FE78080981306801581452A84B1
:100EC000EF008FA1014535CC938701ECB0479384A7
:100ED00001EC21C2F44483D746001387170093170F
:100EE000070193150701C18363D305008547328746
:100EF00083554700E383F5FE18437DFB2312F4007E
:100F000095CB83D7C40580C2E0C48507239EF40433
:100F100011A885472312F400A0C4E0C4239EF40462
:100F2000EFF0DFEEFC4423A00700230304002306B8
:100F3000040031A022859730FA1FE78020990355DD
:100F40004400B240224492444101828041111387FF
:100F500001EC26C2244F22C406C6138401EC81E8AA
:100F6000232C0404B240224492444101828026850D
:100F70009730FA1FE78080958440D5B7411122C48D
:100F8000938701ECB44706C60147B687138401EC8A
:100F9000B1C703D647006317A60415E7984238C4C3
:100FA0003E859730FA1FE78060927C4423A00700BB
:100FB0008357C4058DE3EFF07FF923240404B24086
:100FC00022444101828074446394F60078C4C9BF0E
:100FD000944314C3F1B7FD17231EF4048357C405CB
:100FE000F9FFD1BF3E879C4365B7614681451385B4
:100FF00081F06F006F8E8347450081460147FD8B6E
:101000002302F5000548814795453306F500034660
:10101000060009C6638F0601328785468507E39679
:10102000B7FE014581CA1305F7FF798D3335A0005E
:10103000828005458280011126CA4AC806CE22CC8C
:101040004EC652C456C25AC02A8993074510930609
:10105000F50F814401479319870003C7070013D692
:101060008401B3693601A204FD17D98C4E87E3943D
:10107000D7FE83478902034439013E941374F40F69
:101080009307400263F687001304B4FD1374F40F52
:10109000A309890022862685CE85EFC010700589B8
:1010A00009CD23098900F2406244D2444249B24941
:1010B000224A924A024B05618280814A014A130BFF
:1010C000500256862685CE85EFC0306D058901C554
:1010D000050A137AFA0F850AE3956AFF337444030D
:1010E000814A014A130B500252862685CE85EFC0F5
:1010F000D06A058911C963958A002309490165B73A
:10110000850AE20A93DA8A41050AE31F6AFD61BF94
:10111000A30905008280411122C4938701ECFC4B96
:1011200006C626C2A9EF138401EC24409307F00BF6
:1011300003C764006304F700EF50302803D664014E
:1011400003C571D893050020EF002F969307500236
:10115000A382F4003C40B755550037C5898E03C6BD
:10116000570093855555130565EDEF50102A194723
:10117000A389E1F63C40130710FB2383E700B2404C
:101180002244924441018280011126CA4EC69389AD
:1011900001EC22CC03A4090406CE4AC883474400CC
:1011A000A9CF0347540093076002138941D863ED28
:1011B000E704035664010345390093050020EF005E
:1011C000CF8E83475400B755550037C5898E8507A4
:1011D000A302F40083A7090493855555130565ED13
:1011E00003C65700EF5070221947A389E1F683A781
:1011F0000904130710FB2383E700F2406244D24442
:101200004249B24905618280EF50301B8356840108
:101210001307006483C701EC3347D702850793F7B0
:10122000F70F2380F1EC63D5E70083C741F789C747
:10123000EF00CFDB238001EC9307F0FB2303F400E6
:10124000624403453900F240D2444249B249930511
:10125000002005616F000F9B0111938701EC22CCE8
:10126000A04352C406CE26CA4AC84EC683441403BD
:101270003A8A99E41946938581F41305240321A839
:1012800005496392240983C72700130524031946DF
:10129000A5CB9385E1F49720FA1FE780406EB70550
:1012A0000001FD150145EF006FD208D4EF50104B3F
:1012B00048D0C1451545EF00EFCC938441D82306B3
:1012C000A40085470356840103C53400A303F4003A
:1012D00099472302F40093050010EF00CF8F03C558
:1012E000340093050010EFF09EEB0145238001ECE4
:1012F000F2406244D2444249B249224A05618280A6
:10130000938541F549BF83C717004945F5D38949FE
:101310006392340513058403EF20506728C8EF203B
:10132000F0422C4899CD83C7A500639C2701230870
:1013300094021946B105130524039720FA1FE7808C
:101340000064034704038947E30BF7F48547230848
:10135000F4020DB78D47E394F4F413058403EF20F2
:10136000F06228C8EF20903E2C4899CD83C7A50095
:10137000639C2701230834031946B1051305240390
:101380009720FA1FE780A05F034704038947E3081B
:10139000F7F085472308F40219469385E1F4F1BD7F
:1013A0004111D1451305C00622C406C69720FA1F75
:1013B000E780C0482A8439C11306C0068145EFF092
:1013C000BED123A081F09387C1F6D84B9C4FA302D6
:1013D000040038D07CD09307000B2313F400B71718
:1013E0000600938787257CC8B71706009387671187
:1013F0003CCCB7170600938787187CCC2285B24077
:10140000224441018280011122CC06CE26CA4AC85C
:101410004EC6834785042A8499EB284845E1034753
:10142000D4008547631AF71228406C4009A2284966
:1014300021C58347A500A9C383479404A5CF83474B
:10144000F4041307000493F7070C6395E70693046D
:10145000A404A6856905EF20B02805473C48631B16
:10146000E50209472304E4041946A6851385C7004D
:101470009720FA1FE780A050034784048947E30EB2
:10148000F7F819469305A40413052403EFF0FECAE8
:1014900049F521A083C7170091EB8144F2406244D3
:1014A00026854249D244B2490561828083C711EC46
:1014B000E1D7E5B783471500E1F3C5B783472501B9
:1014C000B9DF83471404C1C78347740413070004BA
:1014D00093F7070C639DE70693092404CE85130553
:1014E000A502EF20F01F2A898547AA84284863189F
:1014F000F9041946CE8551059720FA1FE780204848
:1015000083C711EC89DF89472300F4048347D400A3
:10151000E39627F93C4803D5270003D7470083D536
:10152000670083D787004207598DC207DD8D62446B
:10153000F240D2444249B24905616F40706D834721
:101540001500A1DF83C711ECE38B07ECB9B7834724
:101550001500E39607EC91B70347940383471404FF
:10156000E31DF7F21946930524041305A403EFF0D5
:10157000DEBCB334A0001DB7797126D2938701EC8D
:1015800022D4A0434AD052CC370AC0A84ECE56CA65
:101590005AC806D65EC662C4938401EC138BC1F6AA
:1015A000930A8AFD834764001307100B639BE73E91
:1015B00083C7C1F6858B638F073A68501306B40062
:1015C0008145238601F69730FA1FE780609E6315F8
:1015D00005366C507D4783C7150093F7F703230545
:1015E000F400E91793F7F70F6368F73483C7050032
:1015F00013F7F700A304E400B98B639F073283C796
:101600000500930B240419469987858BA300F404E5
:1016100089055E859720FA1FE780603603479400AE
:1016200085476310F7026C5019461305A40483C75D
:101630000500A1059D83A304F4049720FA1FE78009
:1016400000342285EFF03FDC6308052E3850930705
:1016500020022304F40095462300D7003850130CD1
:101660002403A300F700034704038947631AF70024
:101670002C4819466285B1059720FA1FE780203073
:1016800083471403858B91E7034704038947631954
:10169000F70038508347070093E707042300F7005B
:1016A00028501946E28509059720FA1FE780202D6A
:1016B00083471404858B81CB38508347070093E719
:1016C00007F82300F70028501946DE8521059720EA
:1016D000FA1FE780C02A83A741BA829783D7C4053F
:1016E0009305F5004CD4138681D4638E071A034703
:1016F000F600834646018D4713072702139886019B
:101700000587231FF400135888412D07930735F7E9
:101710006342080293F716009306000A99E39306C2
:10172000400AB387D54063F7D5009307FA003E958A
:10173000B307D54083AE840413037002154EF685BB
:101740007D55639F0510636FA700635A0814938744
:1017500087FD8356E4018506C206C182231FD4009B
:10176000E37FDEFC3C5058502387E7005C50385044
:10177000A183A307F7003C50035764022388E700C6
:101780003C5003477402A388E7003C501854238957
:10179000E7001C543850A183A309F7003C500357BD
:1017A000A402238AE7003C500357C401A38AE70040
:1017B0003C500357E401238BE7008357E401385082
:1017C000A183A30BF7003C5003570402238CE700CE
:1017D000835704023850A183A30CF7003C500357F1
:1017E000E400238DE7008357E4003850A183A30D64
:1017F000F7003C5003570401238EE7008357040190
:101800003850A183A30EF7003C5003C7640A238F0E
:10181000E7003C5003C7740AA38FE7003C5003C79E
:10182000840A2380E7023C5003C7940AA380E7029E
:101830003C5003C7A40A2381E7028347C400385001
:10184000FD8BA301F7028347460138509396870129
:10185000E18663DB06068347370293E707FA41A078
:1018600083A80508B386174163E8F800B386F840FB
:101870006359080063EBE60063F3A60036858C41EC
:10188000C9B5E3FBE6FE637AF300938787FD8358CF
:10189000E4018508231F1401C5B7D697CDBFE368BF
:1018A000F3EAD6977DB538509946834797010347A9
:1018B0008701A207D98F8D838D073E8763F3F600DA
:1018C0001947231FE40079BD13F6070793F6370085
:1018D00011CA91EA834637028607819BD58FA301FF
:1018E000F70211A0ADDA385083A781C9A1669386AB
:1018F0003630D8CB8347840003A741CA1305A0051F
:10190000920754C79387C71C3CD3930700F8230260
:10191000FB00B167938737305CC79720FA1FE780D9
:1019200080649720FA1FE7808061EF5000299307B9
:1019300030FB2303F400BDB1034764009307100B91
:10194000E312F7C6BC40B755550037C5898E03C6AC
:10195000570093855555130565EDEF50002B1389FE
:10196000C1F69947A303F900BC40130710FB23837A
:10197000E7006DA883A741CABC53E39507C2BC40EA
:10198000B755550037C5898E03C657001389C1F670
:1019900093855555130565ED23020900EF50E026A8
:1019A000C9B71307300B6393E708938BC1F683C75E
:1019B0001B00858BC1CBA3800B00EF10E049EFF03B
:1019C000CFC039C1585438DD58502324E508185485
:1019D0002326E5080357C401A305E5020357E401E4
:1019E0002316E502035704022317E5020357E40018
:1019F0002318E502035704012319E5020347C40035
:101A00002304E502EF10A034938441D803C53400C9
:101A100093050010EFF01E9F03C5340093050020CE
:101A2000EFF05E9E2302040023130400B250225400
:101A300092540259F249624AD24A424BB24B224C6A
:101A40004561828083A741CABC53E39D07B4BC4073
:101A5000B755550037C5898E03C657009385555530
:101A6000130565ED23820B00EF50201A9947A383DD
:101A7000FB00DDBD411126C283A401F01387C1F62E
:101A800006C622C40347B7009387C1F601CB83C6BD
:101A9000A70019476394E600A385070003C77700F2
:101AA00095461376D70F6317D6002385E7000547C1
:101AB000A385E700EF506010138441D8034534003C
:101AC00093050010EFF01E940345340093050020A9
:101AD000EFF05E9323820400239304002244B2407B
:101AE00092441306100893050008014541016F1048
:101AF0001065B7170600371506009387073A91451A
:101B00001305855723A2F1F06FF09EA283270509E4
:101B1000011122CC06CE26CA4AC84EC652C456C2AD
:101B20002A846389071813F7270019CBF59B23280C
:101B3000F50803554500194693050008EF1030607D
:101B40008327040913F7470021CBED9B2328F408D2
:101B50008347340293F7070491CB832744092285F6
:101B600093E70740232AF408EFD01FCF834794015F
:101B700099E78347340293E71700A301F402035562
:101B800044000D4693050008EF10705B93070004B6
:101B9000231CF400230D04008327040913F7070115
:101BA00039C7BD9B2328F408834714040355440018
:101BB000214689C7A30004041306000393051008F7
:101BC000EF10F0578347340293E71700A301F402A4
:101BD0008347040489CF8347040EC18B89CB835587
:101BE000E40322859205C205C181EFD0FFB48327AB
:101BF000040913F7072001CF0355440093F7F7DFDB
