:10037500010DFF011900021A0000021C0000021EF7
:100385000000020F0000010C01010E7F0120000199
:1003950021000122000112000113000114000111C6
:0103A5000057
:1003D500E4FFFEE4FDFC0DBD00010CBC01F8BDF41D
:0C03E500F50FBF00010EBE03EABFE8E701
:0103F10022E9
:1003A700E4F515F516C3E5169FE5159E501FE4F510
:1003B70017F5180518E51870020517B460F5E51765
:0E03C700B413F00516E51670DC051580D8227B
:03000B000203F2FB
:0D03F200C0E00509E50970020508D0E03201
:0300030002019C5B
:10019C00C0E0C0F0C0D075D000C000C004C005C025
:1001AC0006C00785080A85090B750800750900202B
:1001BC00CC0630CD0320B20930CC4720CD4420B240
:1001CC0041C3E50E940B7480948050047F0B802EF9
:1001DC00D3E50B940FE50A940040047F01801AC309
:1001EC00E50B9401E50A9400400DAC0AAD0B7E00C2
:1001FC007F0F12032080027F01C3E50E9FFF8F0E3D
:10020C00805030CC0620CD0320B20920CC4430CD18
:10021C004120B23ED3E50E947E7480948040047FDE
:10022C007E802DD3E50B940FE50A940040047F01EA
:10023C00801AC3E50B9401E50A9400400DAC0AAD9D
:10024C000B7E007F0F12032080027F01EF250EFF33
:10025C008F0EAF0E7E00D3EF947F74809480400499
:10026C007F7F8011C3EF940AEE6480948050047FEA
:10027C000A8002AF0E8F0ED007D006D005D004D066
:08028C0000D0D0D0F0D0E03228
:10000E00E4F5947593FFF5CA75C9FFF5927591FFE6
:10001E00F5967595FFF5B275B1F7F5D875D908F562
:10002E00E9F5F975DB4275F34075EB2075FBFFD2F0
:10003E00DEF519F589F58A758CDCD28CD2A9D2AF92
:10004E00C288D2A820CC047F0080027F018F1220AC
:10005E00CD047F0080027F018F1320B2047F0080C9
:10006E00027F018F147F017E001203A730CC20D3B4
:10007E00E51B94C8E51A94004006AE1AAF1B800922
:10008E00E51B2401FFE4351AFE8E1A8F1B8005E452
:10009E00F51AF51B30CD20D3E51D94C8E51C940050
:1000AE004006AE1CAF1D8009E51D2401FFE4351C82
:1000BE00FE8E1C8F1D8005E4F51CF51D30B220D37D
:1000CE00E51F94C8E51E94004006AE1EAF1F8009C2
:1000DE00E51F2401FFE4351EFE8E1E8F1F8005E4F2
:1000EE00F51EF51FD3E51B94C8E51A94005014E5D0
:1000FE001D94C8E51C9400500AE51F94C8E51E9493
:10010E000040097F057E001203A78017750C0220A0
:10011E00CC0620CD0330B256E4F50FF510E5196488
:10012E00017045AF0E7E00D3EF947F7480948040B3
:10013E00047F008011C3EF940AEE64809480500413
:10014E007F008002AF0DEF250EF50EFF7E00C394EB
:10015E007F748094804003750DFFD3EF940AEE6494
:10016E008094805003750D01850EFB020052C3E58D
:10017E0010940AE50F9400500B0510E5107002055F
:0E018E000F020052E4F523F524F5250200527D
:0300000002029465
:0C029400787FE4F6D8FD7581250202DBBE
:10032000BC000BBE0029EF8DF084FFADF022E4CCC1
:10033000F875F008EF2FFFEE33FEEC33FCEE9DEC8A
:10034000984005FCEE9DFE0FD5F0E9E4CEFD22EDD0
:10035000F8F5F0EE8420D21CFEADF075F008EF2F1A
:10036000FFED33FD4007985006D5F0F222C398FD0B
:050370000FD5F0EA22A8
:1002A00002000EE493A3F8E493A34003F68001F266
:1002B00008DFF48029E493A3F85407240CC8C3335F
:1002C000C4540F4420C8834004F456800146F6DF2E
:1002D000E4800B0102040810204080900375E47E46
:1002E000019360BCA3FF543F30E509541FFEE49323
:1002F000A360010ECF54C025E060A840B8E493A3EA
:10030000FAE493A3F8E493A3C8C582C8CAC583CA14
:10031000F0A3C8C582C8CAC583CADFE9DEE780BECC
:0103A6000056
:00000001FF
