:020000040800F2
:100000007007002089010008D11500089D13000821
:10001000CD1500088F0200085919000800000000E3
:1000200000000000000000000000000001160008B1
:100030009302000800000000D51500080316000810
:10004000A3010008A3010008A3010008A301000800
:10005000A3010008A3010008A3010008A3010008F0
:10006000A3010008A3010008A3010008A3010008E0
:10007000A3010008A3010008A3010008A3010008D0
:10008000A3010008A3010008A3010008A3010008C0
:10009000A3010008A3010008A3010008A3010008B0
:1000A000A3010008A3010008A3010008A3010008A0
:1000B000A3010008A3010008A3010008A301000890
:1000C000A3010008A3010008A3010008A301000880
:1000D000A3010008A3010008A3010008A301000870
:1000E00095020008A3010008A301000800F002F82F
:1000F00000F03AF80AA090E8000C82448344AAF188
:100100000107DA4501D100F02FF8AFF2090EBAE885
:100110000F0013F0010F18BFFB1A43F0010318473B
:10012000C0190000E0190000103A24BF78C878C157
:10013000FAD8520724BF30C830C144BF04680C60ED
:10014000704700000023002400250026103A28BF35
:1001500078C1FBD8520728BF30C148BF0B60704739
:100160001FB51FBD10B510BD00F058F81146FFF7C0
:10017000F7FF01F00FFC00F076F803B4FFF7F2FF91
:1001800003BC00F07DF8000009488047094800479B
:10019000FEE7FEE7FEE7FEE7FEE7FEE7FEE7FEE737
:1001A000FEE7FEE704480549054A064B7047000094
:1001B0006D160008ED000008700100207007002097
:1001C00070030020700300204FF0000200B51346BA
:1001D00094469646203922BFA0E80C50A0E80C5067
:1001E000B1F12001BFF4F7AF090728BFA0E80C5018
:1001F00048BF0CC05DF804EB890028BF40F8042B11
:1002000008BF704748BF20F8022B11F0804F18BF7D
:1002100000F8012B7047704770477047754600F033
:100220002BF8AE4605006946534620F00700854688
:1002300018B020B5FFF7B6FFBDE820404FF000062C
:100240004FF000074FF000084FF0000B21F00701BE
:10025000AC46ACE8C009ACE8C009ACE8C009ACE801
:10026000C0098D46704710B50446AFF300802046A4
:10027000BDE81040FFF781BF004870471001002023
:1002800001491820ABBEFEE726000200704700BF00
:10029000FEE7704710B54FF4806000F097F810BD8E
:1002A00072B600BFFEE7000070B5044600F03AFAEF
:1002B00006462546681C10B104480078054400BF76
:1002C00000F030FA801BA842FAD370BD1C00002059
:1002D00010B5044600224FF40051334800F01CFAD8
:1002E000282000F095FA0020304908703049087045
:1002F0003049096848622BE02F490868C11700EBB4
:1003000091712D4A126802EBA1012B4A1268274B0A
:100310001B7802FB0311274A1268526A914217D2D6
:1003200022490978082913DA4FF48061234800F044
:10033000EBF900F001001D49097888401C49097853
:1003400008431B49087019480078401C1749087079
:1003500018480068406A1849096801EBC1018842E1
:10036000CAD3134800781649164A1278885415489B
:100370000078401C1349087000BF0E480068406AAE
:100380000D49096801EB8101B0EB410FF5D34FF442
:1003900080600D490860282000F05CFA01225103BA
:1003A000014800F0B9F910BD001001400200002022
:1003B0000300002038000020100000200008014049
:1003C00024000020010000201404014010B5044660
:1003D00004480068204020B1024804602046FFF72E
:1003E00077FF10BD140401402DE9F84703460022B1
:1003F00094466EE14FF0010808FA02F4D1F800804B
:1004000008EA0400A0427DD1DFF8DCA2D1F8048024
:10041000A8EB0A09D0453AD014DCB8F1030F50D04C
:1004200009DCB8F1000F31D0B8F1010F1CD0B8F1E0
:10043000020F49D120E0B8F1110F18D0B8F1120F16
:1004400042D11EE0B9F5881F25D006DCB9F5803F02
:1004500020D0B9F5801F37D11AE0B9F5001F18D0A8
:10046000B9F5041F30D117E0D1F80CC02DE0D1F858
:100470000C8008F1040C28E0D1F80C8008F1080C7D
:1004800023E0D1F80C8008F10C0C1EE000BF00BF87
:1004900000BF00BF00BF00BFD1F80880B8F1000F57
:1004A00002D14FF0040C0BE0D1F80880B8F1010F35
:1004B00003D14FF0080C1C6102E04FF0080C5C61A6
:1004C00003E04FF0000C00E000BF00BFFF2801D8A0
:1004D000984601E003F104084646FF2802D84FEA97
:1004E000820803E0A2F108084FEA88084746D6F8D8
:1004F00000804FF00F0909FA07F928EA09080CFAF9
:1005000007F900E088E048EA0908C6F80080D1F859
:10051000048008F08058B8F1805F7DD100BFDFF81B
:10052000CC81D8F8188048F00108DFF8C091C9F8EC
:100530001880C846D8F8188008F00108CDF8008067
:1005400000BF00BF4FEAB9384FEA920958F8295066
:100550004FEA82784FEA18794FF00F0808FA09F845
:1005600025EA0805DFF88881434502D14FF00008ED
:1005700016E0DFF88081434502D14FF001080FE01B
:10058000DFF87481434502D14FF0020808E0DFF83C
:100590006C81434502D14FF0030801E04FF004089D
:1005A0004FEA82794FEA197908FA09F848EA05050D
:1005B000DFF84C814FEA920948F82950D1F80480BD
:1005C00008F48018B8F5801F0AD1DFF83881D8F810
:1005D000008048EA0008DFF82C91C9F8008009E0A3
:1005E000DFF82081D8F8008028EA0008DFF81491AD
:1005F000C9F80080D1F8048008F40018B8F5001F8D
:1006000010D1DFF8008108F10408D8F8008048EA2A
:100610000008DFF8F09000E05AE009F10409C9F899
:1006200000800DE0DFF8DC8008F10408D8F80080D5
:1006300028EA0008DFF8CC9009F10409C9F8008025
:10064000D1F8048008F40038B8F5003F0ED1DFF887
:10065000B480A8F10408D8F8008048EA0008DFF860
:10066000A490A9F10409C9F800800DE0DFF8948096
:10067000A8F10408D8F8008028EA0008DFF8849080
:10068000A9F10409C9F80080D1F8048008F4803881
:10069000B8F5803F0ED1DFF86C80A8F10808D8F8D3
:1006A000008048EA0008DFF85C90A9F10809C9F861
:1006B00000800DE0DFF84C80A8F10808D8F8008031
:1006C00028EA0008DFF83C90A9F10809C9F8008081
:1006D000521CD1F8008028FA02F8B8F1000F7FF41C
:1006E00089AEBDE8F887000000001110001002403C
:1006F00000080140000C01400010014000140140BE
:100700000800014008040140024693680B400BB109
:10071000012000E0002070470AB1016101E00B04F4
:100720000361704701480068704700001400002012
:100730000348006803490978084401490860704784
:10074000140000201C00002010B50848006840F08C
:10075000100006490860032000F0CAF80D2000F0E0
:1007600007F800F02BF8002010BD00000020024028
:1007700070B504460E4800784FF47A71B1FBF0F082
:100780000C490968B1FBF0F5284600F01BFC08B1E4
:10079000012070BD102C07D200222146501E00F00F
:1007A00069F80548046001E00120F2E70020F0E765
:1007B0001C000020200000201800002008B500BF09
:1007C0001148806940F001000F498861084680693E
:1007D00000F00100009000BF00BF00BF0846C069E4
:1007E00040F08050C8610846C06900F08050009019
:1007F00000BF00BF00BF0549486820F0E06040F03E
:100800000070486000BF08BD0010024000000140B9
:1008100010B501460846002817DB00F01F0301222F
:100820009A400B4B440943F8242000BF00BF00BF8F
:10083000BFF34F8F00BF00BF00BF00BF00BF00BFAE
:10084000BFF36F8F00BF00BF00BF00BF10BD00002F
:1008500080E100E001460846002809DB00F01F03A4
:1008600001229A4043099B0003F1E023C3F80021D1
:1008700000BF70472DE9F05F80460D461646002701
:1008800001F06CF8074639462A46334601F0070066
:10089000C0F1070ABAF1040F02D94FF0040A01E0CF
:1008A000C0F1070AD14600F1040ABAF1070F02D2DB
:1008B0004FF0000A01E0A0F1030AD4464FF0010A0C
:1008C0000AFA09FAAAF1010A0AEA020A0AFA0CFA71
:1008D0004FF0010B0BFA0CFBABF1010B0BEA030B16
:1008E0004AEA0B042146404601F040F8BDE8F09F7B
:1008F00000BF00F00702064B19684FF6FF031940CE
:10090000044B0B4343EA0221014B196000BF7047BF
:100910000CED00E00000FA0570B504460D460CB978
:10092000012070BD5A48006800F00700A8420ED2AE
:100930005748006820F007002843554908600846DA
:10094000006800F00700A84201D00120E9E7207804
:1009500000F0020002281DD1207800F004000428D5
:1009600005D14C48406840F4E0604A49486020782E
:1009700000F00800082805D14648406840F460505F
:10098000444948604348406820F0F000A1680843AB
:1009900040494860207800F0010078B36068012881
:1009A00006D13C48006800F4003090B90120B8E757
:1009B0006068022806D13748006800F0007040B92E
:1009C0000120AEE73348006800F0020008B90120BA
:1009D000A7E73048406820F00300616808432D49CC
:1009E0004860FFF79FFE064609E0FFF79BFE801B6D
:1009F00041F28831884202D9032092E707E0254876
:100A0000406800F00C006168B0EB810FEDD1204828
:100A1000006800F00700A8420ED91D48006820F0C9
:100A2000070028431A4908600846006800F00700DC
:100A3000A84201D0012074E7207800F004000428C7
:100A400007D11448406820F4E060E1680843114988
:100A50004860207800F00800082808D10D48406858
:100A600020F46050216940EAC1000A49486000F062
:100A70003FF808494968C1F30311074A515CC8406F
:100A80000649086006480068FFF772FE002048E744
:100A90000020024000100240C61A0008200000207A
:100AA0001800002001480068704700002000002066
:100AB00000B5FFF7F7FF04494968C1F30221034A73
:100AC000515CC84000BD000000100240D61A00086A
:100AD00000B5FFF7E7FF04494968C1F3C221034AA3
:100AE000515CC84000BD000000100240D61A00084A
:100AF00070B500210022002400230020134D6968F6
:100B000001F00C05F5B1042D02D0082D19D101E03A
:100B10000F4819E00F4DC1F38346AB5D01F48035FA
:100B200055B10A4D6D68C5F340450B4E725D084DD9
:100B30005D43B5FBF2F402E0084D03FB05F42046EB
:100B400002E000BF024800BF00BF70BD00100240BD
:100B500000127A00B41A0008C41A000800093D0007
:100B6000F8B504460CB90120F8BD207800F001006A
:100B7000002878D0F848406800F00C0004280CD019
:100B8000F548406800F00C00082811D1F248406890
:100B900000F48030B0F5803F0AD1EF48006800F4DF
:100BA000003000285FD0606800285CD10120DBE7BE
:100BB00000BF6068B0F5803F06D1E748006840F4A8
:100BC0008030E549086028E0606858B9E24800686C
:100BD00020F48030E04908600846006820F4802056
:100BE00008601AE06068B0F5A02F0BD1DA48006801
:100BF00040F48020D84908600846006840F48030FE
:100C000008600AE0D448006820F48030D2490860C7
:100C10000846006820F48020086000BF606888B142
:100C2000FFF780FD054606E0FFF77CFD401B6428CA
:100C300001D9032098E7C848006800F40030002874
:100C4000F2D010E0FFF76EFD054606E0FFF76AFD03
:100C5000401B642801D9032086E7BF48006800F4E0
:100C600000300028F2D1207800F00200022857D18D
:100C7000B948406800F00C0050B1B748406800F037
:100C80000C00082818D1B448406800F4803098B9A6
:100C9000B148006800F0020020B12069012801D0AD
:100CA000012061E7AC48006820F0F800616940EA83
:100CB000C100A949086033E02069E8B10120A749D3
:100CC0000860FFF72FFD054606E0FFF72BFD401BF0
:100CD000022801D9032047E79F48006800F002007E
:100CE0000028F2D09C48006820F0F800616940EAD2
:100CF000C1009949086013E0002098490860FFF797
:100D000011FD054606E0FFF70DFD401B022801D945
:100D1000032029E79048006800F002000028F2D183
:100D2000207800F0080008282DD1A069B8B1012072
:100D30008B490860FFF7F6FC054606E0FFF7F2FC7A
:100D4000401B022801D903200EE78348406A00F0C7
:100D500002000028F2D0012000F03EFC13E0002049
:100D60007F490860FFF7DEFC054606E0FFF7DAFC86
:100D7000401B022801D90320F6E67748406A00F0BC
:100D800002000028F2D1207800F00400042873D17A
:100D900000277148C06900F0805070B900BF6E48EC
:100DA000C06940F080506C49C8610846C06900F0D5
:100DB0008050009000BF00BF01276A48006800F41F
:100DC0008070B0B96748006840F480706549086079
:100DD000FFF7A8FC054606E0FFF7A4FC401B6428CB
:100DE00001D90320C0E65F48006800F48070002845
:100DF000F2D000BFE068012806D15748006A40F0F1
:100E000001005549086227E0E06858B95248006A75
:100E100020F00100504908620846006A20F00400F2
:100E2000086219E0E06805280BD14B48006A40F0E1
:100E30000400494908620846006A40F0010008625F
:100E40000AE04548006A20F001004349086208466C
:100E5000006A20F00400086200BFE068A0B1FFF75C
:100E600061FC054609E0FFF75DFC401B41F288315B
:100E7000884202D9032077E622E03748006A00F072
:100E800002000028EFD012E0FFF74CFC054608E016
:100E9000FFF748FC401B41F28831884201D903200A
:100EA00062E62D48006A00F002000028F0D1012F10
:100EB00005D12948C06920F080502749C86100BF8A
:100EC000E069C8B32448406800F00C00082860D0EE
:100ED000E069022848D1002020490866FFF722FC7B
:100EE000054606E0FFF71EFC401B022801D903203F
:100EF0003AE61948006800F000700028F2D1206A34
:100F0000B0F5803F07D11448406820F40030A16854
:100F1000084311494860D4E9080108430E4949686B
:100F200021F4741108430C49486001200B490866FC
:100F3000FFF7F8FB054607E03DE0FFF7F3FB401B3A
:100F4000022801D903200FE60348006800F0007072
:100F50000028F2D02FE000000010024000004242C2
:100F60008004424200700040002014490866FFF7E8
:100F7000D9FB054606E0FFF7D5FB401B022801D947
:100F80000320F1E50E48006800F000700028F2D15F
:100F900011E0E069012800D1E6E50948466806F459
:100FA0008031206A814204D106F47011606A814266
:100FB00001D00120D8E50020D6E500000000424223
:100FC0000010024070B504462546681EB0F1807FCF
:100FD00001D301200FE0681E4FF0E02148610F218E
:100FE0004FF0FF3000F0C2FC00204FF0E02188619C
:100FF00007200861002070BD10B50346002200BF25
:1010000093F83C00012801D1022010BD012083F893
:101010003C0000BF22F0FF00CC6840EA040222F44A
:1010200040708C6840EA040222F480604C6840EA18
:10103000040222F400600C6840EA040222F48050AA
:101040000C6940EA040222F400504C6940EA0402B0
:1010500022F48040CC6940EA04021868426400BF70
:10106000002083F83C0000BF00BFCEE730B5024649
:101070000B4600BF92F83C00012801D1022030BD90
:10108000012082F83C0000BF022082F83D00106879
:1010900044681068816824F070041868044310687C
:1010A0004460104D1068A8420BD01068B0F1804F1A
:1010B00007D00D4D1068A84203D00C4D1068A8420F
:1010C00005D121F08001586801431068816001203A
:1010D00082F83D0000BF002082F83C0000BF00BF46
:1010E000CDE70000002C0140000400400008004053
:1010F000014691F83D00012801D0012070470220EF
:1011000081F83D00124B086898420BD00868B0F196
:10111000804F07D00F4B0868984203D00E4B0868E9
:1011200098420CD10868806800F00702062A0CD0AB
:101130000868006840F001000B68186005E0086866
:10114000006840F001000B6818600020D6E700003E
:10115000002C014000040040000800402DE9F0414F
:1011600004460E461546002700BF94F83C000128AF
:1011700002D10220BDE8F081012084F83C0000BFCC
:1011800035B1042D09D0082D0CD00C2D14D10EE052
:101190003146206800F0A6FA10E03146206800F0E1
:1011A000D1FA0BE03146206800F000FB06E0314642
:1011B000206800F02FFB01E0012700BF00BF00BF47
:1011C000002084F83C0000BF3846D3E710B5044641
:1011D0000CB9012010BD94F83D0028B9002084F816
:1011E0003C00204600F026F8022084F83D00211D36
:1011F000206800F03DFA012084F8460000BF84F822
:101200003E0001213F20015540200155412001555C
:1012100000BF00BF012084F8420043200155442054
:1012200001554520015500BF012084F83D000020F4
:10123000D0E7000008B5124A016891420DD100BF05
:101240001049896941F400610E4A9161114689692A
:1012500001F40061009100BF11E00168B1F1804F1D
:101260000DD100BF0749C96941F00101054AD161AB
:101270001146C96901F00101009100BF00BF08BD1E
:10128000002C01400010024010B504460CB90120AA
:1012900010BDA06900B100E000BF94F8410028B97A
:1012A000002084F84000204600F02AF8242084F82A
:1012B00041002068C06820F400502168C8602046C2
:1012C00000F0CCFA2068006920F4904021680861A1
:1012D0002068406920F02A00216848612068C068C1
:1012E00040F400502168C86000206064202084F829
:1012F000410084F842000020606300BFC8E700009E
:1013000010B586B00446002002900390049005902A
:101310001E492068884236D100BF1D48806940F4CC
:1013200080401B4988610846806900F48040019034
:1013300000BF00BF00BF0846806940F00800886118
:101340000846806900F00800019000BF00BF4020FF
:101350000290022003900320059002A90D48FFF798
:1013600043F88020029000200390049002A90948CD
:10137000FFF73AF800BF0849486840F0E06040F0E5
:101380000400486000BF06B010BD000000380140F6
:1013900000100240000C01400000014000BFFEE7C9
:1013A00000B585B00020019002900390049000BF2A
:1013B0002E48806940F010002C49886108468069F9
:1013C00000F01000009000BF00BF00BF0846806919
:1013D00040F0040088610846806900F00400009035
:1013E00000BF00BF00BF0846806940F00800886168
:1013F0000846806900F00800009000BF00BF01228D
:1014000051031B48FFF788F9012251021948FFF7E1
:1014100083F94FF4005001900120029003900220C4
:10142000049001A91248FEF7DFFF4FF4007001900D
:101430000120029003900320049001A90D48FEF7BB
:10144000D3FF4FF4806001900B480290012003907D
:1014500001A90848FEF7C8FF00220C212820FFF749
:1014600009FA2820FFF7F6F905B000BD0010024088
:1014700000100140000801400000211000B591B0AB
:1014800000200F9010901C2108A8FEF79DFE20213F
:101490006846FEF799FE2148214908603F204860D0
:1014A00000211F4881604FF6FF71C160002101617A
:1014B00041618161FFF78AFE08B1FEF7F1FE00206D
:1014C0000F9010900FA91648FFF7D0FD08B1FEF756
:1014D000E7FE0020089009900A900B900C900D9068
:1014E0000E90002208A90E48FFF738FE08B1FEF75B
:1014F000D7FE0020009001900290039004904FF4DA
:10150000005005900020079069460548FFF774FDDC
:1015100008B1FEF7C5FE11B000BD0000002C01406F
:101520003800002000B589B00020079008901C21E9
:101530006846FEF749FE4FF08040154908603F209D
:1015400048600021124881604FF6FF71C1600021A0
:1015500001618161FFF73AFE08B1FEF7A1FE0020AC
:101560000790089007A90A48FFF780FD08B1FEF729
:1015700097FE00200090019002900490002269469E
:101580000348FFF7EBFD08B1FEF78AFE09B000BD86
:101590008000002010B50B480B4908604FF4E13083
:1015A0004860002108488160C16001610C214161EF
:1015B00000218161C161FFF767FE08B1FEF770FE8F
:1015C00010BD000000380140C800002000BFFEE749
:1015D00000BFFEE77047000008B508490968C90860
:1015E0004FF47A72B1FBF2F14143009100BF00BFAA
:1015F00000994A1E00920029F9D108BD2000002060
:10160000704710B5FFF794F810BD00B58FB02821D2
:1016100005A8FEF7D9FD14216846FEF7D5FD022086
:1016200005900120099010200A9002200C900021C2
:101630000D914FF460110E9105A8FFF791FA08B1D2
:10164000FEF72EFE0F200090022001900020029055
:101650004FF4806003900020049002216846FFF759
:101660005BF908B1FEF71CFE0FB000BD704700002B
:1016700010B50268184B984208D0B0F1804F05D0E1
:10168000164B984202D0164B984203D122F07002BA
:101690004B681A43104B984208D0B0F1804F05D0E8
:1016A0000E4B984202D00E4B984203D122F4407266
:1016B000CB681A4322F080034C6943EA04020260BB
:1016C0008B68C3620B688362034B984201D10B693C
:1016D00003630123436110BD002C0140000400405E
:1016E0000008004030B5026A056A25F00105056270
:1016F0004368846924F0700424F003040D682C43CB
:1017000022F002028D682A430D4DA84206D100BF87
:1017100022F00802CD682A4322F00402084DA842B4
:1017200007D123F4807323F400734D692B438D6933
:101730002B43436084614D684563026230BD000005
:10174000002C014030B5026A056A25F010050562DB
:101750004368846924F4E04424F440740D6844EA46
:10176000052422F020028D6842EA05120E4DA8429F
:1017700007D100BF22F08002CD6842EA051222F0B4
:101780004002094DA84209D123F4806323F4006389
:101790004D6943EA85038D6943EA850343608461AB
:1017A0004D688563026230BD002C014030B5026A8D
:1017B000056A25F4807505624368C46924F07004E5
:1017C00024F003040D682C4322F400728D6842EA71
:1017D00005220F4DA84207D100BF22F40062CD6858
:1017E00042EA052222F48062094DA84209D123F47D
:1017F000805323F400534D6943EA05138D6943EA8E
:1018000005134360C4614D68C563026230BD0000CA
:10181000002C014030B5036A056A25F48055056245
:101820004468C26922F4E04222F440720D6842EA40
:10183000052223F400538D6843EA0533064DA84280
:1018400004D124F480444D6944EA85144460C261A3
:101850004D680564036230BD002C014070B504463C
:101860002168096921F44051E2681143226811613D
:101870002269A1681143626941EA02052168C968C9
:1018800041F20C62914329432268D1602168496981
:1018900021F44071A2691143226851612D4A2168E7
:1018A000914202D1FFF714F901E0FFF701F900EBD3
:1018B000C00101EB001162689200B1FBF2F100EB94
:1018C000C00202EB001263689B00B2FBF3F26423D8
:1018D000B2FBF3F202EBC20303EB0212A1EB8201B3
:1018E000322202EB01116422B1FBF2F101F0F001AE
:1018F00000EBC00202EB001263689B00B2FBF3F244
:101900006423B2FBF3F201EB021200EBC00101EB26
:10191000001163689B00B1FBF3F100EBC00303EB24
:1019200000136668B600B3FBF6F36426B3FBF6F368
:1019300003EBC30606EB0313A1EB8301322303EB96
:1019400001116423B1FBF3F101F00F01114422688E
:10195000916070BD0038014000BFFEE7024800689A
:10196000C0F30220704700000CED00E010B5002825
:1019700004DB0A07130E054A135406E00A07140E87
:10198000034A00F00F031B1FD45410BD00E400E015
:1019900018ED00E0FEF7D8FEFFF737FEFFF700FD79
:1019A000FFF76CFDFFF7F6FDFFF7BCFD0848FFF7FA
:1019B0009FFB0848FFF79CFB08E04FF47A70FEF7A6
:1019C00073FC05494FF4165000F008F8F5E70000E5
:1019D00080000020380000202400002070B506465A
:1019E0000D46304890FBF6F42820FEF711FF52E038
:1019F00000202D49087000224FF400712B48FEF79B
:101A00008BFE00202A490968486200BF2848006808
:101A1000406AA042FAD32BE025480068406A224978
:101A2000097804FB0141884203D91F48007808283F
:101A300002DB1D48007878B928781B4909780841ED
:101A400000F001024FF400711848FEF765FE1648D9
:101A50000078401C1449087015480068406A04EB7F
:101A6000C401884204D9012251021048FEF754FEF5
:101A70000F480068406A04EB440101EBC40188424E
:101A8000CAD300BF0A480068406A04EB4401B0EBC7
:101A9000810FF7D36D1C28780028A9D12820FEF7E4
:101AA000D9FE70BD40420F00020000200008014036
:101AB0003800002002030405060708090A0B0C0D74
:101AC0000E0F1010010200000000000000000102D3
:101AD00003040607080900000000010203040000D7
:101AE000001B00080000002024000000280100085E
:101AF000241B0008240000204C07000044010008BB
:101B000000000000000000000000000000000000D5
:101B1000680000000000000010000000010000004C
:041B20000024F400A9
:04000005080000ED02
:00000001FF
