BL51 BANKED LINKER/LOCATER V6.22.2.0                                                    07/07/2024  14:03:44  PAGE 1


BL51 BANKED LINKER/LOCATER V6.22.2.0, INVOKED BY:
E:\KEIL-C51\KEIL\C51\BIN\BL51.EXE .\Objects\main.obj TO .\Objects\TINY PRINT (.\Listings\TINY.m51) RAMSIZE (256)


MEMORY MODEL: SMALL


INPUT MODULES INCLUDED:
  .\Objects\main.obj (MAIN)
  E:\KEIL-C51\KEIL\C51\LIB\C51S.LIB (?C_STARTUP)
  E:\KEIL-C51\KEIL\C51\LIB\C51S.LIB (?C?UIDIV)
  E:\KEIL-C51\KEIL\C51\LIB\C51S.LIB (?C_INIT)


LINK MAP OF MODULE:  .\Objects\TINY (MAIN)


            TYPE    BASE      LENGTH    RELOCATION   SEGMENT NAME
            -----------------------------------------------------

            * * * * * * *   D A T A   M E M O R Y   * * * * * * *
            REG     0000H     0008H     ABSOLUTE     "REG BANK 0"
            DATA    0008H     001EH     UNIT         ?DT?MAIN
            IDATA   0026H     0001H     UNIT         ?STACK

            * * * * * * *   C O D E   M E M O R Y   * * * * * * *
            CODE    0000H     0003H     ABSOLUTE     
            CODE    0003H     0003H     ABSOLUTE     
                    0006H     0005H                  *** GAP ***
            CODE    000BH     0003H     ABSOLUTE     
            CODE    000EH     018EH     UNIT         ?PR?MAIN?MAIN
            CODE    019CH     00F8H     UNIT         ?PR?INT0_ISR?MAIN
            CODE    0294H     008CH     UNIT         ?C_C51STARTUP
            CODE    0320H     0055H     UNIT         ?C?LIB_CODE
            CODE    0375H     0032H     UNIT         ?C_INITSEG
            CODE    03A7H     002EH     UNIT         ?PR?_DELAY_MS?MAIN
            CODE    03D5H     001DH     UNIT         ?PR?DELAY?MAIN
            CODE    03F2H     000DH     UNIT         ?PR?TM0_ISR?MAIN



OVERLAY MAP OF MODULE:   .\Objects\TINY (MAIN)


SEGMENT
  +--> CALLED SEGMENT
---------------------
?C_C51STARTUP
  +--> ?PR?MAIN?MAIN
  +--> ?C_INITSEG

?PR?MAIN?MAIN
  +--> ?PR?_DELAY_MS?MAIN



SYMBOL TABLE OF MODULE:  .\Objects\TINY (MAIN)

BL51 BANKED LINKER/LOCATER V6.22.2.0                                                  07/07/2024  14:03:44  PAGE 2


  VALUE           TYPE          NAME
  ----------------------------------

  -------         MODULE        MAIN
  C:0000H         SYMBOL        _ICE_DUMMY_
  D:0092H         PUBLIC        P1M0
  D:0093H         PUBLIC        P0M1
  D:0096H         PUBLIC        P2M0
  D:0091H         PUBLIC        P1M1
  D:00B2H         PUBLIC        P3M0
  D:0095H         PUBLIC        P2M1
  D:00B1H         PUBLIC        P3M1
  D:00CAH         PUBLIC        P5M0
  D:00B0H         PUBLIC        P3
  D:00C9H         PUBLIC        P5M1
  D:00C8H         PUBLIC        P5
  B:00A8H.7       PUBLIC        EA
  D:0008H         PUBLIC        time_cnt1
  D:000AH         PUBLIC        time_cnt2
  D:00F9H         PUBLIC        CH
  D:00E9H         PUBLIC        CL
  C:03D5H         PUBLIC        delay
  D:00FBH         PUBLIC        CCAP1H
  B:00D8H.6       PUBLIC        CR
  D:00EBH         PUBLIC        CCAP1L
  D:00DBH         PUBLIC        CCAPM1
  D:00D9H         PUBLIC        CMOD
  D:00D8H         PUBLIC        CCON
  D:000CH         PUBLIC        times
  C:000EH         PUBLIC        main
  C:019CH         PUBLIC        INT0_Isr
  D:000DH         PUBLIC        cal_flag
  D:000EH         PUBLIC        comp
  D:000FH         PUBLIC        clear_cnt
  D:0089H         PUBLIC        TMOD
  D:0011H         PUBLIC        cir
  D:0012H         PUBLIC        ntouch1
  D:0013H         PUBLIC        ntouch2
  D:0014H         PUBLIC        ntouch3
  B:00A8H.1       PUBLIC        ET0
  D:0015H         PUBLIC        msi
  D:0017H         PUBLIC        msj
  D:008CH         PUBLIC        TH0
  B:00A8H.0       PUBLIC        EX0
  B:0088H.0       PUBLIC        IT0
  D:008AH         PUBLIC        TL0
  C:03A7H         PUBLIC        _delay_ms
  D:0019H         PUBLIC        run_flag
  B:0088H.4       PUBLIC        TR0
  B:00C8H.4       PUBLIC        touch1
  B:00C8H.5       PUBLIC        touch2
  B:00B0H.2       PUBLIC        touch3
  D:00F3H         PUBLIC        PCA_PWM1
  D:001AH         PUBLIC        count1
  D:001CH         PUBLIC        count2
  D:001EH         PUBLIC        count3
  C:03F2H         PUBLIC        TM0_Isr
BL51 BANKED LINKER/LOCATER V6.22.2.0                                                  07/07/2024  14:03:44  PAGE 3


  D:0020H         PUBLIC        last_touch1
  D:0021H         PUBLIC        last_touch2
  D:0022H         PUBLIC        last_touch3
  D:0023H         PUBLIC        dir1
  D:0024H         PUBLIC        dir2
  D:0025H         PUBLIC        dir3
  D:0094H         PUBLIC        P0M0
  -------         PROC          DELAY
  -------         DO            
  D:0006H         SYMBOL        i
  D:0004H         SYMBOL        j
  -------         ENDDO         
  C:03D5H         LINE#         67
  C:03D5H         LINE#         68
  C:03D5H         LINE#         71
  C:03D8H         LINE#         72
  C:03F1H         LINE#         74
  -------         ENDPROC       DELAY
  -------         PROC          _DELAY_MS
  D:0006H         SYMBOL        dms
  C:03A7H         LINE#         75
  C:03A7H         LINE#         76
  C:03A7H         LINE#         78
  C:03B5H         LINE#         79
  C:03D4H         LINE#         81
  -------         ENDPROC       _DELAY_MS
  -------         PROC          TM0_ISR
  C:03F2H         LINE#         82
  C:03F4H         LINE#         83
  C:03F4H         LINE#         85
  C:03FCH         LINE#         86
  -------         ENDPROC       TM0_ISR
  -------         PROC          INT0_ISR
  C:019CH         LINE#         87
  C:01AFH         LINE#         88
  C:01AFH         LINE#         90
  C:01B5H         LINE#         91
  C:01BBH         LINE#         92
  C:01CDH         LINE#         93
  C:01CDH         LINE#         94
  C:020CH         LINE#         95
  C:020EH         LINE#         96
  C:0220H         LINE#         97
  C:0220H         LINE#         98
  C:025EH         LINE#         99
  C:025EH         LINE#         100
  C:0283H         LINE#         101
  -------         ENDPROC       INT0_ISR
  -------         PROC          MAIN
  -------         DO            
  C:0131H         SYMBOL        circle
  C:017CH         SYMBOL        end_while
  -------         ENDDO         
  C:000EH         LINE#         103
  C:000EH         LINE#         104
  C:000EH         LINE#         105
  C:0011H         LINE#         106
BL51 BANKED LINKER/LOCATER V6.22.2.0                                                  07/07/2024  14:03:44  PAGE 4


  C:0014H         LINE#         107
  C:0016H         LINE#         108
  C:0019H         LINE#         109
  C:001BH         LINE#         110
  C:001EH         LINE#         111
  C:0020H         LINE#         112
  C:0023H         LINE#         113
  C:0025H         LINE#         114
  C:0028H         LINE#         116
  C:002AH         LINE#         117
  C:002DH         LINE#         118
  C:002FH         LINE#         119
  C:0031H         LINE#         122
  C:0034H         LINE#         123
  C:0037H         LINE#         124
  C:003AH         LINE#         125
  C:003DH         LINE#         127
  C:003FH         LINE#         128
  C:0041H         LINE#         130
  C:0043H         LINE#         131
  C:0045H         LINE#         132
  C:0048H         LINE#         133
  C:004AH         LINE#         134
  C:004CH         LINE#         136
  C:004EH         LINE#         137
  C:0050H         LINE#         138
  C:0052H         LINE#         140
  C:0052H         LINE#         141
  C:0052H         LINE#         142
  C:005DH         LINE#         143
  C:0068H         LINE#         144
  C:0073H         LINE#         145
  C:007AH         LINE#         146
  C:007DH         LINE#         147
  C:007DH         LINE#         148
  C:009BH         LINE#         149
  C:009DH         LINE#         151
  C:00A2H         LINE#         152
  C:00A5H         LINE#         153
  C:00A5H         LINE#         154
  C:00C3H         LINE#         155
  C:00C5H         LINE#         157
  C:00CAH         LINE#         158
  C:00CDH         LINE#         159
  C:00CDH         LINE#         160
  C:00EBH         LINE#         161
  C:00EDH         LINE#         163
  C:00F2H         LINE#         164
  C:0111H         LINE#         165
  C:0111H         LINE#         166
  C:0118H         LINE#         167
  C:011AH         LINE#         168
  C:011AH         LINE#         169
  C:011DH         LINE#         170
  C:0126H         LINE#         171
  C:0126H         LINE#         172
  C:012BH         LINE#         174
BL51 BANKED LINKER/LOCATER V6.22.2.0                                                  07/07/2024  14:03:44  PAGE 5


  C:0131H         LINE#         175
  C:0131H         LINE#         176
  C:0159H         LINE#         177
  C:0165H         LINE#         178
  C:0168H         LINE#         179
  C:0173H         LINE#         180
  C:0176H         LINE#         181
  C:0176H         LINE#         182
  C:0179H         LINE#         183
  C:017CH         LINE#         184
  C:017CH         LINE#         185
  C:017CH         LINE#         186
  C:0187H         LINE#         187
  C:0192H         LINE#         189
  C:0192H         LINE#         190
  C:0195H         LINE#         191
  C:0197H         LINE#         192
  C:0199H         LINE#         193
  C:0199H         LINE#         194
  C:0199H         LINE#         195
  -------         ENDPROC       MAIN
  -------         ENDMOD        MAIN

  -------         MODULE        ?C?UIDIV
  C:0320H         PUBLIC        ?C?UIDIV
  -------         ENDMOD        ?C?UIDIV

*** WARNING L16: UNCALLED SEGMENT, IGNORED FOR OVERLAY PROCESS
    SEGMENT: ?PR?DELAY?MAIN

Program Size: data=39.0 xdata=0 code=1018
LINK/LOCATE RUN COMPLETE.  1 WARNING(S),  0 ERROR(S)
