:020000040800F2
:100000000809002089010008BF2A000821250008EE
:10001000BD2A0008250400089134000800000000F3
:100020000000000000000000000000001B3000087D
:100030003504000800000000113000081D300008E1
:10004000A3010008A3010008A3010008A301000800
:10005000A3010008A3010008A3010008A3010008F0
:10006000A3010008A30100083F04000829040008B8
:10007000A3010008A3010008A3010008A3010008D0
:10008000A3010008A301000835030008A30100082C
:10009000A3010008A3010008A3010008A3010008B0
:1000A000A3010008A3010008A3010008A3010008A0
:1000B000A30100089D300008A3010008A301000867
:1000C000A3010008A3010008A3010008A301000880
:1000D000A301000885340008A3010008A30100085B
:1000E00037040008A3010008A301000800F002F88B
:1000F00000F03AF80AA090E8000C82448344AAF188
:100100000107DA4501D100F02FF8AFF2090EBAE885
:100110000F0013F0010F18BFFB1A43F0010318473B
:10012000904F0000B04F0000103A24BF78C878C14B
:10013000FAD8520724BF30C830C144BF04680C60ED
:10014000704700000023002400250026103A28BF35
:1001500078C1FBD8520728BF30C148BF0B60704739
:100160001FB51FBD10B510BD00F0A9F81146FFF76F
:10017000F7FF03F01BFA00F0C7F803B4FFF7F2FF34
:1001800003BC00F0CFF80000094880470948004749
:10019000FEE7FEE7FEE7FEE7FEE7FEE7FEE7FEE737
:1001A000FEE7FEE704480549054A064B7047000094
:1001B00099300008ED00000808030020080900201D
:1001C000080500200805002010B5431C02E010F8C7
:1001D000011B71B18107FAD14FF0013202C88C1AAC
:1001E0008C4314EAC211F9D0C01A0A0603D0C01E0B
:1001F00010BDC01A10BD0A0401D0801E10BD090236
:10020000FCD0401E10BD10B5203AC0F00B80B1E804
:100210001850203AA0E81850B1E81850A0E818503B
:10022000BFF4F5AF5FEA027C24BFB1E81850A0E844
:10023000185044BF18C918C0BDE810405FEA827C5E
:1002400024BF51F8043B40F8043B08BF7047D20775
:1002500028BF31F8023B48BF11F8012B28BF20F816
:10026000023B48BF00F8012B70474FF0000200B579
:10027000134694469646203922BFA0E80C50A0E8C9
:100280000C50B1F12001BFF4F7AF090728BFA0E877
:100290000C5048BF0CC05DF804EB890028BF40F843
:1002A000042B08BF704748BF20F8022B11F0804F85
:1002B00018BF00F8012B70477047704770477546AC
:1002C00000F02CF8AE4605006946534620F00700C2
:1002D000854618B020B5FFF765FFBDE820404FF018
:1002E00000064FF000074FF000084FF0000B21F020
:1002F0000701AC46ACE8C009ACE8C009ACE8C009ED
:10030000ACE8C0098D46704710B50446AFF30080D5
:100310002046BDE81040FFF730BF0000004870479E
:10032000A402002001491820ABBEFEE7260002000F
:100330007047000010B5044800F00CF9BDE810400B
:10034000024800F007B9000088000020B800002033
:1003500070B5044600688168C943C90717D1816830
:1003600021F00101816000F03BFE05460AE000BF7C
:1003700000F036FE401B022804D920688068C04384
:10038000C00706D020688068C043C007F0D00020B6
:1003900070BDA06A40F01000A062E06A40F0010069
:1003A000E062012070BD0000F8B50026044600960A
:1003B00000688168C943C9072DD0816841F00101F7
:1003C0008160164816490068B0FBF1F000E0401E5D
:1003D00000900028FBD100F003FE054616E000BFA8
:1003E00000F0FEFD401B022810D920688068C04341
:1003F000C0070BD0A06A40F01000A062E06A40F095
:100400000100E06284F824600120F8BD2068806863
:10041000C043C007E4D10020F8BD00004800002020
:1004200040420F00FEE70000014800F0A7BB0000BB
:10043000E800002070474FF4004000F0C3BC1020DB
:1004400000F0C0BC72B6FEE770470000F8B50024AB
:10045000009490F824202546012A12D0012280F829
:1004600024204A681F23072A0DD20668776B521E84
:1004700002EB820293409F430B6893401F437763D4
:1004800019E00220F8BD06680D2A0AD2376BD21F88
:1004900002EB820293409F430B6893401F433763F4
:1004A00009E0F76A0D3A02EB820293409F430B6822
:1004B00093401F43F7620A68072306680A2A0AD393
:1004C000F7680A3A02EB420293409F438B689340DD
:1004D0001F43F76008E0376902EB420293409F43F5
:1004E0008B6893401F4337610A68102A01D0112A94
:1004F00020D1124B02689A4217D193681B0219D47B
:10050000936843F4000393600968102912D10C49E1
:100510000C4A0968B1FBF2F101EB8101490000E0EE
:10052000491E00910029FBD104E0816A41F02001BD
:100530008162012480F824502046F8BD0024014047
:100540004800002040420F007047806A70470068F2
:10055000C06C704770B50446006806684568A90617
:1005600025D5B10723D5A16AC90603D4A16A41F4F0
:100570000071A1628168C1F34241072910D1217B3A
:1005800071B9416821F020014160A06A20F48070B7
:10059000A062A06AC00403D4A06A40F00100A06277
:1005A0002046FFF7D1FF21686FF01200086028068F
:1005B0002ED570072CD5A06AC00603D4A06A40F4DB
:1005C0000050A06220688168C1F30231072909D078
:1005D0004168490515D48168C1F34241072910D10A
:1005E000217B71B9416821F080014160A06A20F44B
:1005F0008050A062A06AC00503D4A06A40F0010048
:10060000A0622046FFF720FF21686FF00C00086011
:1006100068060CD5F0070AD0A06A40F48030A062CA
:10062000204600F093F821686FF00100086070BD6B
:100630002DE9F0414FF0000704003D467ED0A06A4E
:10064000002628B9E66284F82460204600F080F88D
:100650002046FFF77DFEA16AC90600D420B1A06A3A
:1006600040F01000A06269E0A16A21F4885141F0D5
:100670000201A1626268E169237B0A4347EA430100
:100680000A43A1684FF48077B94209D0012907D005
:100690005FF0000194F814C0BCF1010F02D00AE031
:1006A0003946F7E7F3B1A36A43F02003A362E36A94
:1006B00043F00103E3622368D3F804C02CF4694CCF
:1006C0004CEA010CC3F804C021688B68DFF870C0E5
:1006D00003EA0C0313438B60A168B9420BD00129D4
:1006E00009D00CE0DFF85CC0A3690CEB43330B438B
:1006F00043F40061DFE7218A0D05A5F58015216827
:10070000CB6A23F470032B43CB62216889680E4BBC
:100710001940914208D1E662A16A21F0020141F03C
:100720000101A162BDE8F081A06A20F0020040F062
:100730001000A062E06A40F00100E0620120F1E7F1
:10074000FDF7E1FF00E0FFFFFE0E1FFF7047000016
:100750002DE9F04186B0002500950195029503959D
:1007600006463B4B01683B4803243B4A0127DFF820
:10077000EC8099423AD1816941F4007181618169CB
:1007800001F400710491816941F004018161816982
:1007900001F004010491816941F0080181618069DF
:1007A000009400F00800049069460194104600F09F
:1007B00015FBCDE900746946404600F00FFB294C5B
:1007C0002748C4E900058020C4E902508000206168
:1007D000800060612020C4E90605204600F078FA18
:1007E00008B1FFF72FFE3462666226E01E4B994285
:1007F0002BD1816941F480618161816901F480615B
:100800000491816941F004018161816901F0040171
:100810000491816941F0080181618069009400F0D0
:100820000800049069460194104600F0D7FACDE91B
:1008300000746946404600F0D1FA002211461220A9
:1008400000F03AFC122000F029FC06B0BDE8F0816F
:10085000002401400010024000080140000C01404B
:1008600008000240E8000020002801402DE9F8437C
:1008700000270D460446009700F0B2FB8046206832
:100880008168C90508D5A06A40F02000A06284F8FC
:1008900024700120BDE8F8834168C90503D4C06A0B
:1008A00010F4700F2AD0022000F038FC3B49096890
:1008B000B1FBF0F62068036939490B424FEA610148
:1008C0004FEAA1121FD1C3684FEA611C13EA0C0F53
:1008D00019D103690B4225D1C068104222D11420DE
:1008E00023E0681C0AD02DB100F07AFBA0EB0800D1
:1008F000A84203D920680068800725D520680068D1
:100900008007EED52DE003690B4202D1C168114288
:1009100006D0026923490A4206D1C068084203D1C1
:10092000542002E0292000E0FC204643009816E015
:10093000681C11D02DB100F053FBA0EB0800A842B9
:100940000AD90098B04207D2A06A40F00400A06221
:1009500084F8247003209DE70098401C0090B0426A
:10096000E6D321686FF012000860A06A40F40070BE
:10097000A06220688068C0F3424007280CD1207B29
:1009800050B9A06A20F48070A062A06AC00403D4A9
:10099000A06A40F00100A06200207BE74800002030
:1009A000244992244992240070B5044690F824000A
:1009B00001280DD0012084F824002046FFF7F4FC24
:1009C00002004FF0000005D084F82400104670BDEE
:1009D000022070BDA16A40F20123994341F4807165
:1009E000A1621F4D23681F49AB4218D10E6816F44F
:1009F000702F14D0A66A46F48016A6620E6876059B
:100A000005D5A66A26F4005646F48056A662A66A64
:100A1000F6040AD5E66A26F00606E66206E0A66A4D
:100A200026F48016A6625E68E9E7E06284F8240096
:100A30006FF00200186020688368C3F34243072BFD
:100A400005D1A84208D1096811F4702F04D081683B
:100A500041F480118160B9E7816841F4A001F9E7B0
:100A6000002801400424014010B5044690F82400F9
:100A7000012807D0012084F824002046FFF768FCF5
:100A800010B107E0022010BDA16A21F4885141F0A5
:100A90000101A162002184F8241010BD10B590F866
:100AA00021100022022905D00421816380F8202032
:100AB000012010BD01680B6823F00E030B60016874
:100AC0000B6823F001030B6090F84030C46B0121E8
:100AD00001FA03F3636080F8211080F820201046AB
:100AE00010BD000010B590F821100024022903D099
:100AF0000421816301243DE001680A6822F00E02AE
:100B00000A6001680A6822F001020A601A4A016854
:100B1000914201D1012121E0174A1432914201D1C1
:100B200010211BE0144A2832914201D1891515E0A9
:100B3000114A3C32914201D189140FE00E4A5032E1
:100B4000914202D14FF4803108E00B4A6432914265
:100B500002D14FF4801101E04FF08071064A083A4B
:100B60005160012180F82110002180F82010416B94
:100B700001B18847204610BD080002402DE9F05F12
:100B8000C16B0C6801680B68D0F840C0042202FAFF
:100B90000CF2494DDFF824A1494E4A4FDFF828B145
:100BA000DFF828E122422CD05A072AD50A6892069B
:100BB00003D40A6822F004020A600168A94201D144
:100BC000042219E0514501D1402215E0B14202D181
:100BD0004FF4806210E0B94202D14FF480420BE042
:100BE000594502D14FF4802206E0714502D14FF4FD
:100BF000800201E04FF080622F4908394A60C16AE3
:100C00003BE04FF0020808FA0CF818EA040F4FF026
:100C100000094FF0010235D05FEA837832D50B68C6
:100C20009B0605D40B6823F00A030B6080F8212093
:100C30000168A94201D1022219E0514501D12022C7
:100C400015E0B14202D14FF4007210E0B94202D176
:100C50004FF400520BE0594502D14FF4003206E048
:100C6000714502D14FF4001201E04FF000721249B9
:100C700008394A6080F82090816A00291AD0BDE8BE
:100C8000F05F0847082505FA0CF5254212D01B072E
:100C900010D50B6823F00E030B6090F84010C36B67
:100CA00002FA01F15960826380F8212080F82090D7
:100CB000016BE2E7BDE8F09F080002401C00024023
:100CC0003000024044000240580002406C000240E4
:100CD00030B528B308C8134914221944B1FBF2F106
:100CE0008900C16310498163022141771A6843F684
:100CF000F0718A43D0E900142143D0E902452C4326
:100D000021430469214344692143846921431143F8
:100D1000196000214163012242770177084630BD06
:100D2000012030BDF8FFFDBF0000024070B5044651
:100D300000F056F90546601C02D0044800780444CF
:100D400000F04EF9401BA042FAD370BD3C000020D9
:100D500070B5184D1021284600F030F9164C58B9DE
:100D60003220FFF7E3FF1021284600F027F918B9D9
:100D70002078D0B1002020704FF400410F4800F0DF
:100D80001DF9002810D10E480068406A00280BD1D8
:100D90000B4800F0FDFD0821284600F00FF900285F
:100DA000A06904D0401CA06170BD0120E3E7401E93
:100DB000F9E70000000C014000000020000801409D
:100DC000CC010020044910B50A68024202D0086034
:100DD000FFF7BEFF10BD0000140401402DE9F84FDD
:100DE000DFF8B8910024A9F1040B23460F2709F17D
:100DF000040AABF1040EC9E00125A5402A40AA422D
:100E00007DD1674ED1F804C0ACEB0608B44532D0B2
:100E100014DCBCF1030F3AD009DCBCF1000F2AD07E
:100E2000BCF1010F1CD0BCF1020F31D11DE0BCF1AF
:100E3000110F17D0BCF1120F2AD119E0B8F5881F95
:100E400019D006DCB8F5803F15D0B8F5801F1FD14A
:100E500011E0B8F5001F0ED0B8F5041F18D10AE054
:100E6000CB6815E0CB681B1D12E0CB6808330FE0A0
:100E7000CB680C330CE08B682BB1012B4FF00803CF
:100E800003D0456104E0042302E0056100E0002393
:100E9000FF2A01D8064601E000F104064FEA840566
:100EA00001D9A5F12005D6F8008007FA05FC28EA4B
:100EB0000C0803FA05F548EA0508C6F800804D68F5
:100EC000ED0062D5374DAE6946F00106AE61AD6901
:100ED00024F0030605F001050095334D06EB050CE3
:100EE000DCF80850A607360F07FA06F825EA0805C9
:100EF000DFF8B880404503D14FF0000817E044E028
:100F0000DFF8AC80404502D14FF001080FE0DFF878
:100F1000A480404502D14FF0020808E0DFF8988035
:100F2000404502D14FF0030801E04FF0040808FAF1
:100F300006F848EA0508CCF808804D68D9F8006042
:100F4000ED024D4601D5164300E096432E604D68F4
:100F5000DAF80060AD02554601D5164300E096432D
:100F60002E604D68DBF80060AD035D4601D5164389
:100F700000E096432E604D68DEF80060ED03754694
:100F800001D5164300E096432E60641C0D682A4686
:100F9000E5407FF431AFBDE8F88F00000804014060
:100FA0000000111000100240000001400008014044
:100FB000000C01400010014000140140806808400E
:100FC00000D001207047C26821EA02030A4043EAC8
:100FD0000241016170470AB1016170470904FBE7F2
:100FE00001488068704700003C000020024881688A
:100FF00002781144816070473C000020074810B51A
:10100000016841F010010160032000F075F80E2026
:1010100000F006F800F024F8002010BD0020024087
:1010200070B50D4D04464FF47A712878B1FBF0F09D
:101030000A490968B1FBF0F000F036FC48B9102C01
:1010400007D200222146501E00F036F800206C60C6
:1010500070BD012070BD00003C0000204800002051
:101060000C4808B5816941F001018161816901F095
:1010700001010091C16941F08051C161C06900F076
:10108000805000900448416821F0E06141F0007117
:10109000416008BD0010024000000140002809DB4B
:1010A00000F01F02012191404009800000F1E02082
:1010B000C0F8001170470000F0B40E4B1B680C46DE
:1010C000C3F30223C3F10705042D00D90425191D1C
:1010D000072901D2002300E0DB1E012606FA05F1F4
:1010E000491E214099409E40761E16403143F0BC77
:1010F00002F0FDB90CED00E0064900F007020868B7
:101100004FF6FF03184040EA0220034A10430860EC
:10111000704700000CED00E00000FA0510B5014634
:101120000020234C012922D0022939D010291DD1B9
:1011300061682268D20119D51E48C1F38342C903F0
:10114000805C0AD561681B4AC1F34041921E515C24
:10115000194AB2FBF1F1484301E01849484361687C
:10116000490203D440000321B0FBF1F010BD226A14
:10117000C2F30121012903D1920701D5C80310BD93
:10118000022905D1626A920702D549F6404010BD96
:101190000329FCD121688903F9D54FF2244010BD01
:1011A00000F02AF96168C1F38131491C4900DBE78D
:1011B000001002408650000800127A0000093D002D
:1011C0002DE9F84305460078354CC00754D0E06956
:1011D0000026C00008D4E06940F08050E061E0697A
:1011E000012600F0805000902E480168C90512D4F5
:1011F0000168804641F480710160FFF7F1FE074607
:1012000005E000BFFFF7ECFEC01B642823D8D8F828
:101210000000C005F6D5206A10F4407021D0A988DE
:1012200001F4407181421CD0206A1F49012220F440
:1012300040700A6000220A602062C00711D0FFF7E8
:10124000CFFE074641F2883808E000BFFFF7C8FE2E
:10125000C11B414502D90320BDE8F883206A8007FD
:10126000F4D5206A696820F44070084320621EB1FA
:10127000E06920F08050E0612878800705D560683B
:10128000A96820F44040084360602878C00605D56E
:101290006068E96820F48000084360600020DBE7B4
:1012A0000010024000700040400442422DE9F04727
:1012B0000F46050061D0434E306800F00700B84289
:1012C00009D2306820F0070038433060306800F001
:1012D0000700B84251D128683B4C810712D540071E
:1012E00003D5606840F4E06060602878000703D5AB
:1012F000606840F4605060606068A96820F0F000A9
:10130000084360602878C00728D06868012810D09A
:101310002168022810D0890700292EDA616821F09F
:10132000030101436160FFF75BFE804641F28839AB
:101330000DE021688903EFE78901EDE7FFF750FE33
:10134000A0EB0801494502D90320BDE8F087606899
:10135000696800F00C00B0EB810FEFD1306800F04D
:101360000700B8420BD9306820F0070038433060DE
:10137000306800F00700B84201D00120E5E7287886
:10138000400705D56068E96820F4E06008436060C4
:101390002878000706D56068296920F4605040EA83
:1013A000C100606000F038F86168084AC1F30311B9
:1013B000515CC8400649086006480068FFF730FEE7
:1013C0000020C2E7002002400010024096500008B2
:1013D0004800002040000020044805490068496892
:1013E000044AC1F30221515CC84070474800002004
:1013F00000100240A65000080448054900684968EA
:10140000044AC1F3C221515CC84070474800002023
:1014100000100240A65000080E4A51680E4801F024
:101420000C03042B11D0082B0FD10C48C1F38343BC
:10143000C903C05C0AD55168084AC1F34041921EF5
:10144000515C054A5043B0FBF1F0704704494843F2
:10145000704700000010024000127A00745000082B
:1014600000093D002DE9F84F040070D02078C04DF0
:10147000C00749D06868C0F38100012807D06868B8
:10148000C0F38100022809D16868C00306D5286826
:10149000800339D560680028E7D035E06068B0F592
:1014A000803F0BD010B1B0F5A02F11D0286820F4E8
:1014B00080302860286820F4802002E0286840F40A
:1014C00080302860606890B1FFF78AFD06460AE028
:1014D000286840F480202860F0E700BFFFF780FD17
:1014E000801B642873D828688003F7D50CE0FFF7C9
:1014F00077FD064605E000BFFFF772FD801B6428FC
:10150000F0D828688003F7D420789A4E80074FF0EF
:1015100001094FF0000839D5686810F00C0F07D0AA
:101520006868C0F38100022809D16868C00306D446
:101530002868800714D52069012808D110E02069A7
:10154000B0B1C6F80090FFF74BFD074605E00AE191
:10155000FFF746FDC01B0228C4D828688007F7D5CE
:101560002868616920F0F80040EAC10028600DE0B9
:10157000C6F80080FFF734FD074604E0FFF730FDB2
:10158000C01B022823D828688007F7D420780007DA
:101590002CD57948A169D9B1C0F80090FFF720FD9A
:1015A000074604E0FFF71CFDC01B02280FD8686A3D
:1015B0008007F7D571484FF4FA510068B0FBF1F09D
:1015C000009000BF0098411E0091FAD20EE080E02A
:1015D000C0F80080FFF704FD074604E0FFF700FDB8
:1015E000C01B022875D8686A8007F7D420784007A6
:1015F00060D5E8690027C00008D4E86940F0805051
:10160000E861E869012700F0805000905C480168BB
:10161000C90513D40168834641F480710160FFF766
:10162000DFFC824606E000BFFFF7DAFCA0EB0A0011
:1016300064284ED8DBF80000C005F5D5E068012825
:101640000AD008B1052813D0286A20F001002862CA
:10165000286A20F0040002E0286A40F001002862B5
:10166000E06841F2883B98B1FFF7BAFC82460BE094
:10167000286A40F004002862EEE700BFFFF7B0FCE4
:10168000A0EB0A0159455AD8286A8007F6D50CE024
:10169000FFF7A6FC824605E0FFF7A2FCA0EB0A01DB
:1016A00059454CD8286A8007F6D41FB1E86920F064
:1016B0008050E861E06988B36968C1F3810102295B
:1016C00044D00228C6F8608004D0FFF789FC0446A5
:1016D00038E034E0FFF784FC074604E0FFF780FCC5
:1016E000C01B02282BD828688001F7D4206AB0F5E7
:1016F000803F05D16868A16820F400300843686025
:10170000D4E908010843696821F47411084368604A
:10171000C6F86090FFF764FC044606E025E000BFD1
:10172000FFF75EFC001B022809D828688001F7D566
:101730001BE000BFFFF754FC001B022802D9032066
:10174000BDE8F88F28688001F4D40EE00128F7D0B6
:101750006868226A00F48031914204D1616A00F421
:101760007010884201D00120EAE70020E8E700007D
:101770000010024000004242800442424800002023
:101780000070004070B5040009D0606A002540B1C7
:1017900025616561A56294F8510040B10CE001201B
:1017A00070BD6068B0F5827FF4D0E561F2E784F83F
:1017B0005050204600F040F8022084F85100206884
:1017C000016821F040010160A088218900F4827045
:1017D00001F404410843A18901F400610843217C1C
:1017E00001F002010843217D01F001010843218B32
:1017F00001F400710843217F01F03801084394F897
:10180000201001F080010843218D01F400510843AC
:1018100021680860A069042101EA1040216848603D
:101820002068C16921F40061C1616565012084F807
:101830005100002070BD000030B585B00024009438
:1018400001940294039400681449884223D11448F7
:10185000816941F480518161816901F48051049171
:10186000816941F00401816180690E4D00F004003E
:101870000490A0200090022001900320039069466C
:101880002846FFF7ABFA4020CDE900046946284618
:101890000294FFF7A3FA05B030BD0000003001400C
:1018A000001002400008014010B5401EB0F1807FDA
:1018B00001D3012010BD4FF0E02460610F216017BB
:1018C00001F015FE0020A06107202061002010BD5E
:1018D0007047704710B590F83C20012A22D00122B1
:1018E00080F83C20CA688C6822F4407222434C681D
:1018F00022F4806222430C6822F4006222430C69C5
:1019000022F4805222434C6922F400522243C969D6
:10191000002322F480420A4301684A6480F83C3084
:10192000002010BD022010BD70B590F83C20012AA7
:1019300026D0012480F83C40022280F83D20036834
:101940005A689D6822F070060A6832435A600D4B4F
:1019500002689A4208D0B2F1804F05D00A4B9A42F1
:1019600002D00A4B9A4204D1496825F080031943FA
:10197000916080F83D40002180F83C10084670BD21
:10198000022070BD002C014000040040000800400F
:1019900090F83D10012901D001207047022180F804
:1019A0003D1000680B49884208D0B0F1804F05D047
:1019B0000949884202D00949884204D1816801F06E
:1019C0000701062903D0016841F0010101600020F0
:1019D00070470000002C0140000400400008004057
:1019E00090F83D10012901D001207047022180F8B4
:1019F0003D100168CA6842F00102CA6000680B49E4
:101A0000884208D0B0F1804F05D00949884202D001
:101A10000849884204D1816801F00701062903D0F2
:101A2000016841F00101016000207047002C014075
:101A3000000400400008004001680A6A41F21113E6
:101A40001A4207D10A6A9B101A4203D10A6822F08F
:101A500001020A60012180F83D10002070477047A4
:101A600070B50446006801694FF00005C943890755
:101A700015D4C168C943890711D4E91E0161012049
:101A80002077206880698007204602D0FFF7E7FFB3
:101A900004E000F0E8F8204600F0E4F9257720683B
:101AA0000169C943490717D4C168C943490713D419
:101AB0006FF004010161022020772068806910F432
:101AC000407F204602D0FFF7CAFF04E000F0CBF8C9
:101AD000204600F0C7F9257720680169C943090746
:101AE00016D4C168C943090712D46FF00801016117
:101AF000042020772068C0698007204602D0FFF7C5
:101B0000AEFF04E000F0AFF8204600F0ABF9257717
:101B100020680169C943C90617D4C168C943C90609
:101B200013D46FF010010161082020772068C0698C
:101B300010F4407F204602D0FFF791FF04E000F050
:101B400092F8204600F08EF9257720680169C94394
:101B5000C90708D1C168C943C90704D1891E0161F9
:101B6000204600F0CFF920680169C943090609D46D
:101B7000C168C943090605D46FF0800101612046A0
:101B8000FFF7A6FE20680169C943490609D4C16868
:101B9000C943490605D46FF040010161204600F0B9
:101BA000FBFA20680169C94389060BD4C168C9439F
:101BB000890607D46FF0200101612046BDE870401E
:101BC000FFF787BE70BD000000B585B00021009111
:101BD00001910291039100680B49884212D10B4890
:101BE000816941F0040181618069694600F0040067
:101BF00004904FF4E06000900220019003900448AC
:101C0000FFF7ECF805B000BD002C014000100240C9
:101C10000008014070B5044690F83C0000250128FA
:101C20000FD0012084F83C006AB1042A0FD0082AA2
:101C300011D00C2A13D00125002084F83C0028463E
:101C400070BD022070BD206801F072FAF4E72068D0
:101C500001F096FAF0E7206801F0BEFAECE72068A0
:101C600001F0E6FAE8E7704710B5040003D094F8F5
:101C70003D0010B107E0012010BD002084F83C00B9
:101C8000204600F01FF8022084F83D00211D206846
:101C900001F00AFA012084F8460084F83E0084F836
:101CA0003F0084F8400084F8410084F8420084F842
:101CB000430084F8440084F8450084F83D00002087
:101CC00010BD000008B50068B0F1804F08D105488C
:101CD000C16941F00101C161C06900F001000090DB
:101CE00008BD00000010024070B5044690F83C00AA
:101CF00000260D4601280FD0012084F83C006AB16F
:101D0000042A1DD0082A2FD00C2A3FD001260020FB
:101D100084F83C00304670BD022070BD206801F0A0
:101D200007FA2068816941F00801816120688169B2
:101D300021F004018161206881692A69114311E061
:101D4000206801F01DFA2068816941F40061816119
:101D50002068816921F480618161206881692A6934
:101D600041EA02218161D2E7206801F035FA20685A
:101D7000C16941F00801C1612068C16921F0040115
:101D8000C1612068C1692A69114311E0206801F02E
:101D90004FFA2068C16941F40061C1612068C169DE
:101DA00021F48061C1612068C1692A6941EA022188
:101DB000C161ACE710B5040003D094F83D0010B148
:101DC00007E0012010BD002084F83C00204600F010
:101DD0001FF8022084F83D00211D206801F064F9FD
:101DE000012084F8460084F83E0084F83F0084F81F
:101DF000400084F8410084F8420084F8430084F8ED
:101E0000440084F8450084F83D00002010BD000027
:101E100008B5114A01681148914208D1816941F41D
:101E200000618161806900F40060009008BD0C4A87
:101E30009142FBD1C16941F00201C161C069002238
:101E400000F00200009011461D20FFF735F9BDE8B3
:101E500008401D20FFF722B9002C0140001002406D
:101E6000000400407047000010B50446022249B14A
:101E700004290ED0082913D094F84100012816D067
:101E8000012010BD94F83E000128F9D184F83E20CD
:101E90000FE094F83F000128F2D184F83F2008E0D9
:101EA00094F840000128EBD184F8402001E084F848
:101EB00041200122206801F02DF90F492068884255
:101EC00003D1426C42F4004242642068884208D048
:101ED000B0F1804F05D00949884202D008498842B4
:101EE00004D1816801F00701062903D0016841F09F
:101EF00001010160002010BD002C014000040040E1
:101F0000000800402DE9F047974C4EF66021206A0A
:101F1000884201DD002000E0401C2062A169606A67
:101F2000924E90FBF1F03168496A0025884204D254
:101F30003046FFF781FD3068456220786FF0090771
:101F4000C0B9A069B84215DDE6690E2E01DA002895
:101F500010DB8749206902F00BFC8046304602F016
:101F6000A9FA414602F0D2FB02D2A069002801DCA6
:101F7000A06900E00020E169DFF8F8810844E06131
:101F800021787D4E012915D1A169B94212DD0E30AB
:101F900002F090FA216902F0B9FB02D2A069002890
:101FA00008DB2069B0F1834F02DAA069002801DB69
:101FB000A06900E0002002F07DFA216902F00EF92C
:101FC000A5614146206102F0D3FB0746E06902F0BB
:101FD00071FA394602F09AFB08D22069B04205DD59
:101FE000414602F0C5FB02F029FAE061DFF88C817E
:101FF000E769D8F8000047632069824602F03AFAA0
:10200000D8F80010C862206A0A2190FBF1F201FBA7
:10201000120121BB2178DFF868914FF400580129A3
:1020200005D0142190FBF1F201FB1200B8B907F1C1
:102030000E0002F03FFA514602F068FA0AD2206917
:10204000B04207DDE0690E2804DD41464846FEF750
:10205000BAFF04E0012241464846FEF7BCFF49486A
:10206000FEF7A2FC02214748FEF700FC4548FEF7B8
:102070006CFA800503D54348FEF769FAA06241482F
:10208000FEF792FC02213F48FEF7F0FB3D48FEF7C9
:102090005CFA800503D53B48FEF759FAE0623948FF
:1020A000FEF782FC02213748FEF7E0FB3548FEF7D9
:1020B0004CFA800503D53348FEF749FA20633148CE
:1020C000FEF7D2FCE5606560A5602F4D042005F1A8
:1020D000140101F1140300BF05EB800252F8042C37
:1020E00045F82020E6683244E26001EB800252F8B5
:1020F000042C41F8202066683244626003EB8002C1
:1021000052F8042C43F82020A668401E3244A260F6
:102110000028E1DCA06A2860E06A0860206B186093
:10212000E06801F0EBFD194A194B01F01BFC01F0CE
:10213000A1FDE0601749606902F01CFA054660687D
:1021400002F0D0F9294602F0B7F802F093F9606086
:10215000A06802F0C7F9294602F0AEF802F08AF949
:10216000A060BDE8F087000000000020CC01002046
:10217000000070410000604100008841840100209F
:1021800000100140880000204C0000204AEA04347E
:1021900011B603400000A040704770477047000030
:1021A000F8B5016804460868CA684B6910F00F0F5B
:1021B0004FF0000559D003F0010602F49077374341
:1021C00065D0C10705D0D10503D5616C41F001018F
:1021D0006164410705D5D90703D0616C41F0020164
:1021E0006164810705D5D90703D0616C41F0040112
:1021F0006164010707D502F02001314303D0616C0F
:1022000041F008016164616C00293AD0800604D570
:10221000900602D5204601F05CF820684069616CA8
:10222000C0F38010090700D460B3204601F02AF8FB
:1022300020684069400621D52068143050E8001F0E
:1022400021F0400140E80012002AF5D1E06BA8B16E
:102250006D494163E06BFEF745FC002811D0E06B4F
:10226000416B01B0BDE8F040084783060FD59306E7
:102270000DD52046BDE8F84001F02BB82046FFF709
:102280008DFFF8BD2046FFF789FF6564F8BD266B1A
:102290002023012E7CD1C6067AD5D60678D50868CB
:1022A0004868009048694FF00206400640D5E16B4F
:1022B000086840680004000CE8D0A28D8242E5D98D
:1022C000E085886920282DD020680C3050E8001F58
:1022D00021F4807140E80012002AF5D12068143002
:1022E00050E8001F21F0010140E80012002AF5D15A
:1022F0002068143050E8001F21F0400140E800122F
:10230000002AF5D184F84230256320680C3050E86B
:10231000001F21F0100140E80012002AF5D1E06B07
:10232000FEF7BCFB6663A08DE18D401A81B22AE006
:10233000A08DE18D401A81B2E08D0028A6D0002941
:10234000A4D022680C3252E8000F20F4907042E8CA
:102350000007002FF5D12068143050E8002F22F03C
:10236000010240E80027002FF5D184F842302563B0
:1023700020680C3050E8002F22F0100240E80023C3
:10238000002BF5D166632046FFF707FFF8BDFFE796
:1023900005062BD5150629D594F841002128F5D13D
:1023A000A068B0F5805F01D12069B0B1206A411CFE
:1023B0002162216800784860E08C401E0004000C17
:1023C000E084E3D12068C16821F08001C160206809
:1023D000C16841F04001C160D8E7206A0088C0F3BD
:1023E00008004860206A801C2062E5E74006CDD5E1
:1023F0005006CBD5CA68204622F04002CA6084F855
:10240000413000F08CF8C1E77532000870B5040067
:1024100004D094F84100002510B106E0012070BD01
:1024200084F84050204600F023F8242084F841002E
:102430002068C16821F40051C160204600F0AAFF65
:102440002068016921F4904101612068416921F00F
:102450002A0141612068C16841F40051C16065648E
:10246000202084F8410084F842006563002070BD9C
:1024700030B585B000240094019402940394006860
:102480001B49884232D11B48816941F480418161F6
:10249000816901F480410491816941F00801816101
:1024A0008069154D00F00800049040200090022043
:1024B00001900320039069462846FEF78FFC802098
:1024C000CDE90004694628460294FEF787FC0B48D4
:1024D000416841F0E06141F0040141600022114691
:1024E0002520FEF7E9FD2520FEF7D8FD05B030BD1B
:1024F0000038014000100240000C01400000014083
:1025000090F84230202B01D00220704721B11AB13F
:102510000023036300F09ABF0120704770477047A3
:10252000FEE7000030B510490A6822F0F0020A60A8
:102530000A6842F030020A600C490023C1F8A03159
:102540001A460124050602D5C1F8A44101E0C1F8EC
:10255000A4314006000EC1F8A041C1F8A031521CC0
:10256000D2B2082AEED330BD040C014000802142D3
:102570000D4800B5016821F0F0010160016841F0EB
:1025800030010160094A0120C2F8A401C2F8A0018B
:10259000042002F5D07200F03CFD002353600420BB
:1025A00000F037FD136000BD040C014000802142A3
:1025B0000E4800B5016821F0F0010160016841F0AA
:1025C000300101600A4A0020C2F8A001C2F8A4014B
:1025D000042002F5D07200F01CFD01201060506054
:1025E00004205DF804EB00F014BD0000040C014071
:1025F00000802142134810B50168002321F0F0014A
:102600000160016841F0800101600F4A0124C2F8B5
:10261000A441204600F0FDFCC2F8A041012000F0DA
:10262000F8FC07E05B1CDBB2FA2B03D9FFF7C0FF15
:10263000012010BDD2F824010028F3D1C2F8A00176
:1026400010BD0000040C014000802142FEB50025B1
:102650001C48009501951A49029501608915816011
:10266000057301240475032606614FF4602145605B
:10267000C0E90641FDF7DCFF08B1FDF7E3FECDE957
:10268000005469460F480294FDF7E0FE08B1FDF7DB
:10269000D9FE0220CDE9004069460A48FDF7D6FE82
:1026A00008B1FDF7CFFE0820CDE9000669460548D0
:1026B000FDF7CCFE002801D0FDF7C4FEFEBD0000F2
:1026C00000240140880000203EB500241B480094EF
:1026D000019419490294016089158160047304759D
:1026E000032505614FF460214460C161FDF7A0FF3F
:1026F00008B1FDF7A7FE00940124019469460F4834
:102700000294FDF7A3FE08B1FDF79CFE0220CDE97F
:10271000004069460948FDF799FE08B1FDF792FEB1
:102720000820CDE9000569460448FDF78FFE002822
:1027300001D0FDF787FE3EBD00280140B800002013
:10274000094808B5416941F0010141614069002231
:1027500000F00100009011460B20FEF7ADFCBDE833
:1027600008400B20FEF79ABC001002402DE9F04F04
:1027700085B000254748009501950295039581692C
:1027800041F010018161816901F0100104918169BA
:1027900041F004018161816901F0040104918169C2
:1027A00041F0080181618069012200F008003A4F80
:1027B0005403049021463846FEF70DFCDFF8DCA0F8
:1027C000002204215046FEF706FC0122102150464B
:1027D000FEF701FCDFF8C8B04FF44079002249460B
:1027E0005846FEF7F8FB009401240226CDE9024684
:1027F000694638460194FEF7F1FA04208DE871002D
:1028000069465046FEF7EAFA0827264E0097CDE9BA
:10281000016469465046FEF7E1FA4FF01008CDE931
:1028200000840294694650460394FEF7D7FAE00309
:10283000CDE90006694602955046FEF7CFFACDE98C
:102840000075694658460295FEF7C8FACDF8008033
:10285000CDE9016469465846FEF7C0FACDE9009417
:102860000294694658460394FEF7B8FA00220F21F5
:102870000A20FEF721FC0A20FEF710FC0022114678
:102880002820FEF719FC2820FEF708FC05B0BDE85B
:10289000F08F0000001002400010014000080140CD
:1028A000000C0140000021100F4810B50D490160D7
:1028B0004FF48271416000218160C1604FF4007269
:1028C0000161C0E90512C1610162416281620A21B0
:1028D000C162FEF757FF002803D0BDE81040FDF7A6
:1028E000B1BD10BD003001402C01002010B592B0E8
:1028F00000240F941C2168461094FDF7B6FC20219B
:1029000007A8FDF7B2FC28482649C0E900144FF695
:10291000FF71C0E90241046144618461FFF74AFA32
:1029200008B1FDF78FFD0F940FA91F481094FEF713
:10293000FBFF08B1FDF786FD6020CDE9000402949D
:102940000394049405940022694617480694FFF7FF
:10295000CBF908B1FDF776FD042269461248FFF76E
:10296000C3F908B1FDF76EFD082269460E48FFF76E
:10297000BBF908B1FDF766FD0794089409944FF47C
:1029800000500A94CDE90B4007A907480E94FEF7C2
:10299000A1FF08B1FDF756FD0348FFF715F912B086
:1029A00010BD0000002C01408401002010B58AB049
:1029B000002407941C2168460894FDF756FC14482F
:1029C0004FF0804101603F21C0E901144FF6FF71D3
:1029D000C0E903148461FFF747F908B1FDF732FD40
:1029E000079407A90A480894FEF79EFF08B1FDF76F
:1029F00029FD00940194029400226946044804943D
:102A0000FFF708F9002801D0FDF71CFD0AB010BD42
:102A1000CC01002010B58AB0002407941C21684620
:102A20000894FDF722FC1648144901603F21C0E9D3
:102A3000011442F20F71C0E9031480218161FFF794
:102A4000B9F908B1FDF7FEFC079407A90C480894F2
:102A5000FEF76AFF08B1FDF7F5FC6020CDE9000440
:102A600002940022694606480494FFF73DF90028C5
:102A700001D0FDF7E7FC0AB010BD000000040040E3
:102A8000140200200C4810B50A4901604FF4E131EE
:102A90004160002181600C22C160C0E904128161A3
:102AA000C161FFF7B3FC002803D0BDE81040FDF77B
:102AB000C9BC10BD003801405C020020FEE7FEE703
:102AC00070B50024002104F1B00000F082FA00216A
:102AD000084600F07EFA0021102000F07AFA002566
:102AE0000121002000F075FA6D1CEDB2802DF7D3A6
:102AF000641CE4B2082CE5D370BD00002DE9FF5F33
:102B0000002084B01F4614460126814600900190A3
:102B1000024603460290DDF848B0B04620463946EA
:102B200001F000F9204602D287F0004100E039466A
:102B300001F070F8054601F0CAF822463B4601F064
:102B40002BFA0022444B01F029F901F093F80146D9
:102B50000A2005E008EB8802761C4FEA4208F6B22C
:102B600095FBF0F393FBF8F2002AF3D142F21072D6
:102B700095FBF2F292FBF0F300FB13228DF800209C
:102B80004FF47A7295FBF2F393FBF0FC00FB1C33DD
:102B90008DF80130642395FBF3FC9CFBF0F800FBFF
:102BA00018CC8DF802C095FBF0FC9CFBF0F800FB04
:102BB00018CC8DF803C095FBF0FCB1FBF2F200FBE2
:102BC0001C558DF80450B2FBF0F500FB15224FF0B8
:102BD0002E0A8DF805A08DF80620B1FBF3F2B2FBAA
:102BE000F0F300FB13228DF80720B1FBF0F2B2FBEB
:102BF000F0F300FB13228DF80820B1FBF0F200FB8C
:102C000012108DF809000DEB0B086D4688F8069040
:102C10000020295C30312954401C0A28F9DB0022AD
:102C200013462046394601F07DF805D2761CF6B2EF
:102C3000C6F105012D2068548DF805A0C6F10500E8
:102C400088F806904219DDE904010C2300F0A8F988
:102C500008B0BDE8F09F00000088C34010B54FF4F5
:102C60004870FEF763F80021AE2000F0B2F90021B1
:102C7000084600F0AEF90021102000F0AAF900216A
:102C8000402000F0A6F90021B02000F0A2F90021B8
:102C9000812000F09EF90021FF2000F09AF9002128
:102CA000A12000F096F90021A62000F092F9002161
:102CB000A82000F08EF900213F2000F08AF90021C1
:102CC000C82000F086F90021D32000F082F900210D
:102CD000084600F07EF90021D52000F07AF90021A5
:102CE000802000F076F90021D82000F072F9002150
:102CF000052000F06EF90021D92000F06AF90021CA
:102D0000F12000F066F90021DA2000F062F90021DC
:102D1000122000F05EF90021DB2000F05AF90021BA
:102D2000302000F056F900218D2000F052F90021EA
:102D3000142000F04EF90021BDE81040AF2000F053
:102D400048B92DE9F0478A4617004FF00A084FF0BE
:102D5000640900F1030600F1020500F1010402D547
:102D600057420D2200E00B2200F03AF9404697FB53
:102D7000F0F108FB1171CAB297FBF0F191FBF8F387
:102D800008FB131000F0FF0897FBF9F0C7B2F0B290
:102D9000514600F091F8E8B24246514600F08CF8F6
:102DA000E0B23A465146BDE8F04700F085B82DE95B
:102DB000F04188460446150002D555420D2200E038
:102DC0000B2200F00DF94FF47A7095FBF0F1CAB2C6
:102DD00095FBF0F100FB1151642091FBF0F1CFB2B3
:102DE00095FBF0F100FB11510A2091FBF0F1CEB2FE
:102DF00095FBF0F100FB1150C5B2601CC0B241461A
:102E000000F05AF8A01CC0B23A46414600F054F80F
:102E1000E01CC0B23246414600F04EF8241DE0B23C
:102E20002A464146BDE8F04100F046B82DE9F0479A
:102E3000894642F210710446B2FBF1F3B2FBF1F0A5
:102E400001FB13234FF47A71B3FBF1F303F0FF0896
:102E5000B2FBF1F301FB13236421B3FBF1F3DEB208
:102E6000B2FBF1F301FB13230A21B3FBF1F5B2FB33
:102E7000F1F301FB1327C0B202464946204600F099
:102E80001BF8601CC0B24246494600F015F8A01C71
:102E9000C0B23246494600F00FF8E01CC0B22A46E4
:102EA000494600F009F8241DE0B23A464946BDE81B
:102EB000F04700F001B8000070B500EB400040069C
:102EC00015460024000E00F011F8074905EB4500F7
:102ED00001EB40052819012190F8600000F079F815
:102EE000641C062CF6DB70BD5A48000810B50A4673
:102EF0000446002102F1B00000F06BF8102040EA17
:102F00001410002100F065F804F00F00BDE8104037
:102F1000002100F05EB800002DE9F041203A0024C5
:102F20000D468046D6B27F2803D900208D1C8046EE
:102F3000EDB2102B294610D0FFF7D8FF164906EB4B
:102F4000460001EB40050121285D00F042F8641CB9
:102F5000E4B2062CF7D3BDE8F081FFF7C7FF0F4FAF
:102F600004EB06100121385C00F033F8641CE4B275
:102F7000082CF5D36D1CE9B24046FFF7B7FF0024DB
:102F800004EB061038440121007A00F022F8641C9A
:102F9000E4B2082CF4D3DEE75A480008824A00085D
:102FA0002DE9F0411F4615460E4604460CE03B460F
:102FB00031462046FFF7B0FF0834E4B2782C02D93E
:102FC0000024B61CF6B26D1C2A78002AEFD1BDE8A9
:102FD000F081C0B209B100F073BA00F05ABA000033
:102FE00070B500EB4000400615460024000EFFF7C8
:102FF0007DFF064905EB450001EB40050121285DF9
:10300000FFF7E7FF641C062CF8DB70BD5A48000888
:10301000704700BF401EFCD270477047FDF7E6BF07
:1030200030B593B028216846FDF71FF914210AA88E
:10303000FDF71BF90025022401200F950490009450
:103040001020059012954FF46010CDE908501195AD
:10305000109507946846FEF705FA08B172B6FEE7C8
:103060000AA90F2081E831004FF480600D900E9086
:1030700002210AA8FEF71AF908B172B6FEE74FF46A
:10308000404011900F940FA8FEF79AF8002801D045
:1030900072B6FEE713B030BD704700000148FEF77E
:1030A000DFBC000014020020F0B50268164B174C7C
:1030B000174D4FF08047984205D0B84203D0A04248
:1030C00001D0A84203D122F070064A6832439842E8
:1030D00005D0B84203D0A04201D0A84203D122F4C7
:1030E0004074CA6822434C6922F080022243026085
:1030F0008A68C2620A688262984201D109690163E2
:1031000001214161F0BD0000002C0140000400409D
:103110000008004010B501F01F030121046A994026
:103120008C430462016A9A401143016210BD0000A1
:1031300030B5036A026A22F00102026242688469C1
:1031400024F073050C682C4323F002058B682B4395
:103150000A4DA8420BD123F00805CB6822F4407237
:103160002B434D6923F0040315438A692A434260C7
:10317000846149684163036230BD0000002C014056
:1031800030B5026A036A23F010030362436884695E
:103190000D6824F4E64444EA05248D6822F02002F8
:1031A00042EA05120B4DA8420ED1CD6822F08002F2
:1031B00042EA05124D6923F4406343EA85038D69B1
:1031C00022F0400243EA85034360846149688163D9
:1031D000026230BD002C014030B5036A026A22F45D
:1031E000807202624268C46923F4007324F073059C
:1031F0000C682C438D6843EA05230C4DA8420ED180
:10320000CD6823F4006343EA05234D6922F440525C
:1032100042EA05128D6923F4806342EA0512426096
:10322000C4614968C163036230BD0000002C0140E5
:1032300030B5046A026A22F4805202624268C369AD
:103240000D6823F4E64343EA05238D6824F4005413
:1032500044EA0534064DA84204D14D6922F4804267
:1032600042EA85124260C36149680164046230BD6C
:10327000002C014010B5406A0021C185C184FEF7D1
:103280008DFF10BD01680C3151E8002F22F49072BF
:1032900041E80023002BF5D10168143151E8002FDB
:1032A00022F0010241E80023002BF5D1016B012936
:1032B00009D101680C3151E8002F22F0100241E8D9
:1032C0000023002BF5D1202180F84210002101635A
:1032D000704708B590F84210222901D0022008BD9D
:1032E00082684FF480539A4201D1016921B1816A09
:1032F0009A421BD04AB10AE00268816A5268C2F35E
:1033000008020A80816A891C08E0026972B10268B9
:10331000526802F07F020A70816A491C8162C18D85
:10332000491E0904090CC18503D01BE002685268DC
:10333000F1E70168CA6822F02002CA600168CA6821
:1033400022F48072CA6001684A6922F001024A616F
:10335000202180F8421000214163026B012A03D032
:10336000FFF7DCF8002008BD016301680C3151E86B
:10337000002F22F0100241E80023002BF5D1016854
:103380000A68D20602D50A6849680091818DFEF765
:1033900004FFE7E770B5044600680169E26821F4BC
:1033A0004051114301612169A068084361690843E4
:1033B0002168CA6841F20C639A430243CA602068DC
:1033C0004169A26921F44071114341611E4920689D
:1033D000884202D1FEF710F801E0FDF7FDFF00EB97
:1033E000C00101EB0012606864218000B2FBF0F3C1
:1033F000B3FBF1F36FF018067343B2FBF0F5B2FBC9
:10340000F0F605EB8305322303EB0515B5FBF1F56B
:10341000B6FBF1F605F0F00505EB0615B2FBF0F68C
:10342000B2FBF0F0B0FBF1F06FF01802504306EB86
:10343000800003EB0010B0FBF1F0216800F00F00FA
:103440002844886070BD0000003801408162828598
:10345000C28500214164222180F84210016921B116
:103460000168CA6842F48072CA6001684A6942F021
:1034700001024A610068C16841F02001C16000207A
:10348000704700000148FEF78BBE00005C02002080
:10349000FEE710B50446FFF76BF87820FFF742F817
:1034A000FFF7A8F80020FFF73DF8FFF7A3F8204644
:1034B000FFF738F8FFF79EF8BDE81040FFF778B83F
:1034C00010B50446FFF754F87820FFF72BF8FFF704
:1034D00091F84020FFF726F8FFF78CF82046FFF719
:1034E00021F8FFF787F8BDE81040FFF761B809073A
:1034F000090E002804DB00F1E02080F8001470477A
:1035000000F00F0000F1E02080F8141D704700006B
:1035100070B58AB016460D460446282219A16846A1
:10352000FCF771FE00200A2E05D1002C03DA2D20B5
:103530006442287001206946B4FBF6F206FB124291
:10354000B4FBF6F48A5C2A54401C002CF4D1002110
:10355000295429782D2905D00022411E01EBD17173
:10356000831809E00122F8E7981A2844AC5C10F8A7
:10357000016DAE540470521CB2EB610FF4DD0AB061
:10358000284670BD30313233343536373839414210
:10359000434445464748494A4B4C4D4E4F50515283
:1035A000535455565758595A0000000008B5FDF7B6
:1035B00025FDFFF735FDFFF7D9F8FFF7C1F8FFF755
:1035C00045F8FFF781F8FFF76FF9FFF78FF9FFF77D
:1035D00059FAFFF71FFAFFF7E9F901226F4970481E
:1035E000FEF78EFF6F48FEF7FBF900216E48FEF7ED
:1035F0003BFC6E48FDF7D8F96D48FDF7D5F96C48EE
:10360000FDF732FAFFF72AFBFFF75AFA6748FDF792
:10361000CBF96748FDF7C8F9604C664D664E4FF030
:103620007E57641E6420FDF781FB5C490A2233311A
:10363000E069FFF76DFF59483330FCF7C5FD574986
:103640003331202201E00A54401C0528FBDB2069AD
:10365000A84200DA25610021022358A20846FFF79C
:103660009FFCE06900F026FF216900F025FE00F0D4
:1036700089FD0422009202460B4600212820FFF714
:103680003DFA04234FA201210020FFF789FC3946AF
:10369000206900F0A3FD80464146304600F00CFE54
:1036A0004A49884209DD00F0C9FE0246012108208E
:1036B000FFF77DFB022346A20CE04146454800F09F
:1036C000FBFD00F0BBFE024601210620FFF76FFB69
:1036D000022341A201215A20FFF762FC04233FA2EA
:1036E00003210020FFF75CFC606800F007FBDFF8B7
:1036F000F0800022434600F035F900F08BFA0246D4
:1037000003210420FFF71DFB032336A219463720AF
:10371000FFF746FCA06800F0F1FA0022434600F0F3
:1037200021F900F077FA024603210B20FFF709FB8D
:1037300004232DA203216920FFF732FC02232BA2D0
:1037400003217820FFF72CFC042329A20521002067
:10375000FFF726FCE06800F0D1FA0022254B00F0CC
:1037600001F90222009202460B4605213C20FFF798
:10377000C5F9022320A205217820FFF711FC0721BB
:103780000020E269FFF713FB206900F073FE024698
:1037900007210A20FFF74AFB44E700000100002050
:1037A0005C0200201402002084010020B8000020E8
:1037B000880000200000704100007A476475747929
:1037C0000000000066726571000000000000A0406B
:1037D0006B487A000024744C487A0000763A000066
:1037E00000002440690000006F0000005600000047
:1037F000633A000000408F404100000010B591EA9C
:10380000030F48BF83F0004300F1DA83841A71EBA1
:10381000030C05D2121943EB0C03001B61EB0C01E6
:10382000DFF824E14FEA1154A4EB135C1EEA430FC6
:1038300018BF9EEA445F73D023EA0E03DCF1200E2A
:1038400021EA045143F4801332D322FA0CFE10EB28
:103850000E0023FA0CFE41EB0E01CCF1200E03FA10
:103860000EFE10EB0E0051F10001B1F5801FCCF1FE
:10387000200E32D201EB045112FA0EF2BDE81040D4
:1038800058BF7047401C38BF5FEA420218BF7047FC
:10389000002814BF20F0010041F100014FEA41036C
:1038A00013F5001F38BF7047A1F1C04100F06EBB97
:1038B000012A43EB0302ACF1200CDCF11F0E32BFF6
:1038C0004FF0000E23FA0CF310EB030041EB045110
:1038D000B4EB115FD0D0A1EB045101F58011490880
:1038E0005FEA300001EB04510ED350F1000038BF05
:1038F00012FA0EFE08D1BDE81040C9E7401C38BFDF
:103900005FEA4202CAD1C3E7BDE810404FEA410373
:1039100013F5001F38BF7047A1F1C04100F036BB5E
:103920009EEA445F08D011EA5E0FBDE8104004BF74
:1039300001F0004100207047BDE8104070B500F074
:10394000D7FA00BF64FBBE3E0000E0FF491058BF3D
:10395000C1F140415B1058BFC3F140438B42EFF3CC
:10396000008070472DE9C04130B4DFF8A0C23CEAC6
:10397000111418BF3CEA131400F0EC8081EA03052F
:103980001CEA111444EAD57418BF1CEA131500F0A0
:10399000C780A4EB05044FF0004545EAC12145EA84
:1039A000C32341EA505143EA525304F17F749942D0
:1039B00004F500344FEAC0204FEAC22208BF90420B
:1039C00000F09C804FEA13650FF24016765D4FEAD7
:1039D000134506FB05F7C7F1807706FB07F74FEAAB
:1039E000D737A7FB03687642C8F58038A7FB06CE19
:1039F00038BFA8F1010807FB08E64FF0000EA6FB50
:103A0000028CE6FB03CEDCF1000CCEF1004E38BF99
:103A1000AEF1010EA6FB0C584FF000074FF0000569
:103A2000E6FB0E87A1FB08C6A0FB07CE16EB0E0631
:103A300045F10005E1FB076515F1E04E7EBFA4F5F9
:103A400080345FEA46066D4116F1800745F10005B6
:103A50004FEA17274FEA066647EA0567A6F1DE46F2
:103A6000B6F1805F4FEA15251FD9384624F0010CC6
:103A700005EBC471BCF1FE6F01EB0C1102D8F0BC78
:103A8000BDE8008124425CBF01F5801E9EEAC47F30
:103A900002D4F0BCBDE80081244238D4F0BCA1F1CE
:103AA000C041BDE8004100F071BA4FEAD22242EABB
:103AB00043524FEAD323A7FB02864FEAD02040EAC5
:103AC000415007FB03661EEA0E0F4FEAD12105FBAA
:103AD000026658BFA6EB0056B6EB00564FEA520EF0
:103AE0004EEAC37E18EB0E0E56EB530EBDD518EB07
:103AF00002085E417F1C55F10005B6E74FF48015C2
:103B00004FF000074FF000064FF00008ADE7F0BCA3
:103B10004FF0000001F1C04101F00041BDE800811B
:103B200011EA0C1F0CEA131500D00CE013EA0C1F6D
:103B300000F025804FF00000F0BC81EA030101F0A5
:103B40000041BDE80081F0BCBDE8004181EA03010D
:103B500000F01CBAF0BCBDE8004170B500F0C8F937
:103B6000097EFC3E00F007B881EA03014FF0000037
:103B700001F00041704781EA030100F007BAF0BC90
:103B8000BDE800414FF0000021497047FFFDFBF9FF
:103B9000F7F5F4F2F0EEEDEBE9E8E6E4E3E1E0DE80
:103BA000DDDBDAD8D7D5D4D3D1D0CFCDCCCBCAC8F2
:103BB000C7C6C5C4C2C1C0BFBEBDBCBBBAB9B8B719
:103BC000B6B5B4B3B2B1B0AFAEADACABAAA9A8A80C
:103BD000A7A6A5A4A3A3A2A1A09F9F9E9D9C9C9BDA
:103BE0009A99999897979695959493939291919085
:103BF0008F8F8E8E8D8C8C8B8B8A89898888878716
:103C00008685858484838382828181800000FF078A
:103C10000000F87F4FEA41034FEA5353A3F5806356
:103C2000D3F11E03C8BFD3F1210C0CDD4FF00042CD
:103C300042EAC12242EA505232FA03FC8CEAE17CA9
:103C4000ACEBE1707047102BC4BF0020704703F548
:103C5000787CBCF1FF3F04D06FF0004282EA210083
:103C6000704770B500F044F94992248000207047F5
:103C7000F2E700004FEA1153A3F58063D3F11E036E
:103C8000A8BFD3F1200C08DB4FF0004242EAC1226A
:103C900052EA505232FA03F0704709420BD4102B0B
:103CA000C4BF0020704703F5787CBCF1FF3F05D00E
:103CB0004FF0FF3070474FF00000704770B500F0D4
:103CC00017F900BF4992248000207047F0E710F0F8
:103CD000004248BF4042B0FA80F310FA03F10AD024
:103CE000C3F11D0303F580634FEA415002EB035219
:103CF00002EBD12170474FF000007047B0FA80F31B
:103D000010FA03F10AD0C3F11D0303F580634FEAF3
:103D100041504FEA035202EBD12170474FF00000AF
:103D20007047000051EA030C17D41CF5801F58BFE0
:103D3000BCF5801F00F10680994218BF704708BF8C
:103D40009042704707D711F5801F58BF13F5801FA9
:103D500019D499427047894270471CF5801F08D5D5
:103D6000BCF5801FF7D58B4218BF704708BF824251
:103D700070474FF4001C1CEB410F38BF1CEB430F86
:103D800001D28B42704770B500F0B2F8922449001E
:103D90004FF000514FF08053FFF7D8BDDFF848C116
:103DA00070B51CEA111E1EBF1CEA13159EEA0C0F0B
:103DB00095EA0C0F00F06F8081EA030423EA4C13AC
:103DC0004EEAD47E21EA4C1141F4801143F4801371
:103DD000AE44A1FB024CA0FB0365AEF17F7E361919
:103DE00055EB0C05A1FB034C4CF10003A0FB021C9E
:103DF00016EB0C06654153F10003094218BF46F06B
:103E0000010613F4007F0BD14FEA03314FEA05306E
:103E1000340341EA155140EA16506FF003020AE0FC
:103E20004FEAC3214FEAC520F40241EA555140EA66
:103E300056506FF0020202EB2E4201EB025585EA6A
:103E4000CE710AD05FEA440C18BF24F0004450F150
:103E5000000041F1000120EAD47040F2FE7C62458E
:103E600000D270BDA84214BF4FF080444FF04044D0
:103E7000002E08BF0024BEF1806FA8BFA1F1C04191
:103E8000BDE8704080F282804FF0000001F1C04137
:103E900001F0004170479EEA0C0F0CEA131518BFA1
:103EA00095EA0C0F06D04FF0000081EA030E0EF0E9
:103EB000004170BD00F01CF88900013E00F007B819
:103EC00000F009B84FEA430C5FEA5C5C08D081EA75
:103ED000030100F05BB84FEA410C5FEA5C5CF6D18D
:103EE0004FF00000014970470000FF070000F87F15
:103EF0000EF1020E2EF0030E5EF8046B364205D46E
:103F0000012A43EB030515F5001F12D8012841EBE8
:103F1000010C1CF5001F0CD80ED14FEAD17C15F511
:103F2000001F0CEB4C0C0CF1020C08BF4CEBD37CCB
:103F300004E04FF0080C01E04FEAD37C0CEB4C0599
:103F400026FA05F606F00706B6F1040C06D20EEBCB
:103F5000860CBDE870404CF0010C6047DFE80CF0C7
:103F6000090B02024FF000414FF00000A1F50021C3
:103F700070BD19461046012851EB010418BFD4F555
:103F8000001484BF002001F0004170BD0808A0F5B6
:103F900000114FEA3101704791EA030F10B581F02B
:103FA00000413FF533AC83F0004300F009B8000056
:103FB00010B591EA030F48BF83F000433FF526ACEC
:103FC000841A71EB030C07D212198CF0004C43EBEE
:103FD0000C03001B61EB0C01DFF8A4E14FEA115464
:103FE000A4EB135C1EEA430F18BF9EEA445F00F087
:103FF000B08023EA6E03524221EA0451C3EB6E0300
:1040000038BF5B1EDCF1200E25D322FA0CFE10EB2C
:104010000E0043FA0CFE41EB0E01CCF1200E03FA28
:104020000EFE10EB0E0051F10001CCF1200E29D450
:1040300012FA0EF201EB0451BDE8104058BF704770
:10404000401C1CBFB2F1004F704700280CBF491C38
:1040500020F00100704712EB020E43EB030218BF81
:104060004FF0010E4EEA4202ACF1200CDCF11E0EC4
:1040700054D943FA0CFE10EB0E0051F1FF31CCF194
:104080001E0ED5D50EF1010E12FA0EFE404141EB87
:10409000010101EB445C5FEA5C5C10D910EBDE705F
:1040A00001EB045138BFBEF1004FBDE8104018BF0E
:1040B000704700280CBF491C20F00100704730D227
:1040C0004FEAD42C11F5001124F400641BD0B1FA8E
:1040D00081F20B3AA41AA41ED2F12003914030FAC7
:1040E00003F31943904001EBCC71002C01EB045118
:1040F000BDE81040A8BF704701F1C0414FF000007B
:1041000001F000417047B0FA80F310FA03F100D1DA
:1041100010BDE41A173C4805C90AE4E701EB045155
:1041200010BD491001EB0451BDE810404FEA3000CA
:1041300002E04FF0000170474A0008BF0042F8D08B
:10414000B2F5001F28BF704701F000414FF000009A
:1041500070479EEA445F07D011EA5E0FBDE8104049
:1041600004BF002100207047BDE8104070B5FFF784
:10417000BFFE00BF40DFF63E83F0004110467047AF
:104180000000E0FF43004FEAD30C4FEA3C0C4340F1
:104190001FBF40070CF1605113F0FE4F70471CF039
:1041A000006F03D100200CF0004170470CF0004379
:1041B00043EA507010B540EACC0000F05CFA00BF52
:1041C000000000924FEA0001FFF7E0BE4FF000410F
:1041D0004FF00000A1F500217047000090EA010FA8
:1041E00048BF81F0004100F1CA82421A3CBF801AE8
:1041F00089184FEAD0524FF07F4C1CEA410FA2EBD6
:10420000D15318BF9CEA026F00F03B804FF0004C86
:104210004CEA00204CEA012121FA03FC10EB0C0CC3
:104220001ED202F1FF325FEA1C2040EBC25038BFC1
:1042300070471CF07F0F4FEA400C18BFBCF17F4F56
:1042400038BF7047C3F12003994008BF20F0010038
:10425000BCF17F4F38BF7047A0F1C04000F051BAA9
:104260004FEA3C00000A40EBC25028BF1CF0FF0F91
:104270004FEA400CE6D018BFBCF17F4F38BF704703
:10428000EAE79CEA026F05D010EA5C0F08BF00F075
:104290000040704710B500F0EEF900BF64FBBE3E71
:1042A000401058BFC0F14040491058BFC1F14041D3
:1042B0008142EFF3008070474FF47F0C1CEAD0126C
:1042C0001EBF1CEAD11392EA0C0F93EA0C0F00F008
:1042D000858090EA010F48BF42F4807240F4000CE0
:1042E00041F400002CF07F4120F07F4000B5814276
:1042F000A2EB03020FF2081CACEB504EC0F1000021
:104300009EF800E04FEA4E0E00FB0EFC38BF49005D
:104310004FEA2C1C02F5FA020CFB0EF34FEACE1EFC
:104320004FEA112C4FEAC1210EEB635E42EB2242B1
:104330000EFB0CFC4FEA1C5300FB03114FEA112C3F
:104340004FEA01310EFB0CFC4FEADC4C00FB0C1178
:10435000C14228BF09184CEB03335DF804EB10EBA6
:10436000410143EBC250B2F57C0F38BF704729D5ED
:1043700012F0F00F1CBF00F1C04000F00040704789
:10438000008182838485868788898B8C8D8E8F912E
:104390009293959697999A9C9D9FA0A2A3A5A7A852
:1043A000AAACAEB0B2B3B5B7B9BCBEC0C2C5C7C97E
:1043B000CCCED1D4D7D9DCDFE2E6E9ECF0F3F7FAE2
:1043C000FE0000004FEA400C0CF1807CBCF17E4FF7
:1043D00028BF7047B0F1C04000F093B990EA010FD8
:1043E0000CEAD11348BF42F48072624538BF63457E
:1043F00007D213F47F0F16D080EA010000F00040CE
:10440000704710B500F037F9097EFC3E00F005B8A2
:1044100080EA010000F00040704780EA010000F0EF
:10442000004000F06EB912F47F0F04BF02487047DD
:1044300080EA010000F065B90000C07F41000B0E6A
:10444000D3F19E0208D950F400034FEA032323FA64
:1044500002F048BF4042704710B500F00CF900BFB1
:1044600049922480002070476FF0004282EA2000C9
:1044700070470000C10DD1F19E0206DB4FEA002318
:1044800043F0004323FA02F07047004207D54FEA99
:104490004001B1F1FE4F02D24FF00000704710B55D
:1044A00000F0E9F849922480002070476FEA20006C
:1044B0007047000010F0004148BF4042B0FA80F35E
:1044C00010FA03F2C3F19D030BD051EAC35101EB83
:1044D0001220530638BF704700F1010008BF20F0DA
:1044E00001007047B0FA80F310FA03F2C3F19D03A4
:1044F0000AD0D90501EB1220530638BF704700F1EE
:10450000010008BF20F001007047000050EA010CD4
:1045100000F113801CF5000F58BFBCF5000F01D44B
:104520008842704707D710F5000F58BF11F5000FEC
:1045300015D488427047894270471CF5000F04D596
:10454000BCF5000FF7D5814270474FF0807C1CEB23
:10455000400F38BF1CEB410F01D28142704710B5AC
:1045600000F089F8922449004FF000504FF080513C
:10457000FFF796BE4FF47F0C1CEAD0121EBF1CEA58
:10458000D11392EA0C0F93EA0C0F00F0478090EAE7
:10459000010F48BF42F480724FF0004C4CEA0020FB
:1045A0004CEA012102EB0302A0FB0113A2F5000279
:1045B000002918BF43F001035B0028BF4FEA330313
:1045C00042EB22425FEA132C4CEBC2502EBFBCEBF5
:1045D000436FB2F57C0F70474FEA036CBCF1004F9C
:1045E00008BF20F00100B2F57C0F38BF70470BD533
:1045F00082F0FF0212F5803FC8BF704700F1C04053
:10460000D8BF00F00040704700F5000C5FEA4C0C8A
:1046100048BF7047B0F1C04000F073B890EA010F96
:104620000CEAD11348BF42F48072624538BF63453B
:1046300004D280EA010000F00040704710B500F09D
:104640001AF800BF8900013E00F007B800F009B871
:104650005FEA410C5FEA1C6C08D080EA010000F0C0
:1046600050B85FEA400C5FEA1C6CF6D14FF0004096
:10467000A0F5800070470EF1020E2EF0030E5EF8DA
:10468000044B244204D44FEA4102B2F17F4F11D8C7
:104690004FEA4003B3F17F4F0CD80ED14FEAD07CE4
:1046A000B2F17F4F0CEB4C0C0CF1020C08BF4CEB41
:1046B000D17C04E04FF0080C01E04FEAD17C0CEB18
:1046C0004C0324FA03F404F00704B4F1040C06D2FA
:1046D0000EEB840CBDE810404CF0010C6047DFE8A5
:1046E0000CF0070802024FF00040A0F5800010BD5A
:1046F0000846420018BFD2F1807288BF00F0004027
:1047000010BDFF2141EAD050C005704751EA000CAE
:1047100000F113801CF5000F58BFBCF5000F01D449
:104720008142704707D711F5000F58BF10F5000FF1
:1047300015D481427047894270471CF5000F04D59B
:10474000BCF5000FF7D5884270474FF0807C1CEB1A
:10475000410F38BF1CEB400F01D28842704780EAFE
:10476000010081EA000180EA0100FFF7F8BE0000C5
:1047700090EA010F48BF81F000413FF536AD421A83
:1047800004D882F00042A0EB020011444FEAD0525C
:104790004FF07F4C1CEA410FA2EBD15318BF9CEAAB
:1047A000026F4AD04FF0004C4CEA00204CEA012145
:1047B00021FA03FCB0EB0C0C0FD412F0FE0F36D034
:1047C0005FEA4C001DD5001240EBC25038BF704765
:1047D0001CF03F0F18BF70470BE0A2F101025FEA27
:1047E0001C2040EBC25038BF70471CF07F0F18BF31
:1047F0007047C3F12003994014BF401E20F0010010
:10480000704780084FEA122308BF7047B0FA80FC57
:10481000A2EB0C02CCF1280C60FA0CF093EA122FF8
:1048200004BF00EBC25070474FEAC3707047130AD1
:104830005FEADC1008BF7047F6E79CEA026F04D01D
:1048400010EA5C0F08BF0020704710B5FFF713FF98
:1048500040DFF63E81F0004070470000000000009D
:104860000000002F000000000700070000147F1464
:104870007F1400242A7F2A12006264081323003662
:104880004955225000000503000000001C22410091
:10489000000041221C000014083E08140008083ED5
:1048A0000808000000A060000008080808080000D0
:1048B00060600000002010080402003E5149453E9F
:1048C0000000427F400000426151494600214145BD
:1048D0004B31001814127F10002745454539003C24
:1048E0004A494930000171090503003649494936F2
:1048F00000064949291E00003636000000005636E1
:1049000000000008142241000014141414140000C4
:104910004122140800020151090600324959513E52
:10492000007C1211127C007F49494936003E41410A
:104930004122007F4141221C007F49494941007FBB
:1049400009090901003E4149497A007F0808087FAA
:104950000000417F4100002040413F01007F0814DA
:104960002241007F40404040007F020C027F007FD8
:104970000408107F003E4141413E007F09090906BD
:10498000003E4151215E007F0919294600464949F0
:1049900049310001017F0101003F4040403F001FBD
:1049A0002040201F003F4038403F0063140814633C
:1049B00000070870080700615149454300007F4126
:1049C000410000552A552A55000041417F0000044E
:1049D0000201020400404040404000000102040087
:1049E000002054545478007F4844443800384444EC
:1049F000442000384444487F003854545418000878
:104A00007E0901020018A4A4A47C007F0804047895
:104A10000000447D4000004080847D00007F10281D
:104A200044000000417F4000007C04180478007CB2
:104A30000804047800384444443800FC2424241832
:104A40000018242418FC007C08040408004854546E
:104A5000542000043F444020003C4040207C001C87
:104A60002040201C003C4030403C0044281028449A
:104A7000001CA0A0A07C004464544C4414141414E2
:104A800014140000000000000000000000000000FE
:104A90000000000000F800000000000000333000BB
:104AA000000000100C06100C0600000000000000C2
:104AB000000040C07840C0784000043F04043F0438
:104AC0000400007088FC08300000001820FF211E40
:104AD0000000F008F000E018000000211C031E2177
:104AE0001E0000F00888700000001E2123241927F2
:104AF000211010160E000000000000000000000051
:104B00000000000000E01804020000000007182068
:104B1000400000020418E0000000004020180700D8
:104B20000000404080F0804040000202010F01027E
:104B30000200000000F0000000000101011F01015F
:104B40000100000000000000000080B070000000C4
:104B50000000000000000000000000010101010150
:104B600001010000000000000000003030000000E3
:104B700000000000000080601804006018060100BA
:104B8000000000E010080810E000000F10202010C6
:104B90000F00001010F8000000000020203F20202F
:104BA00000000070080808887000003028242221C6
:104BB000300000300888884830000018202020117C
:104BC0000E000000C02010F8000000070424243F5D
:104BD000240000F808888808080000192120201106
:104BE0000E0000E0108888180000000F112020112E
:104BF0000E0000380808C83808000000003F000018
:104C000000000070880808887000001C2221212202
:104C10001C0000E010080810E00000003122221102
:104C20000F00000000C0C000000000000030300095
:104C30000000000000800000000000008060000014
:104C4000000000008040201008000001020408104D
:104C5000200040404040404040000404040404045C
:104C6000040000081020408000000020100804020A
:104C70000100007048080808F0000000003036010C
:104C80000000C030C828E810E000071827242314CB
:104C90000B000000C038E0000000203C2302022787
:104CA000382008F8888888700000203F20202011D4
:104CB0000E00C0300808080838000718202020100F
:104CC000080008F808080810E000203F2020201005
:104CD0000F0008F88888E8081000203F20202320D3
:104CE000180008F88888E8081000203F200003001A
:104CF0000000C03008080838000007182020221ED5
:104D0000020008F808000008F808203F21010121EE
:104D10003F20000808F8080800000020203F20205D
:104D2000000000000808F8080800C08080807F00AC
:104D3000000008F888C028180800203F2001263805
:104D4000200008F8080000000000203F202020205C
:104D5000300008F8F800F8F80800203F003F003F56
:104D6000200008F830C00008F808203F200007188D
:104D70003F00E01008080810E0000F10202020106D
:104D80000F0008F808080808F000203F2101010181
:104D90000000E01008080810E0000F182424385024
:104DA0004F0008F8888888887000203F2000030C96
:104DB000302000708808080838000038202121229F
:104DC0001C00180808F8080818000000203F200000
:104DD000000008F808000008F808001F2020202024
:104DE0001F000878880000C83808000007380E0146
:104DF0000000F80800F80008F800033C0700073C32
:104E00000300081868808068180820302C03032CE1
:104E100030200838C800C83808000000203F2000B3
:104E2000000010080808C838080020382621202073
:104E30001800000000FE020202000000007F404057
:104E40004000000C30C000000000000000010638E7
:104E5000C00000020202FE000000004040407F004F
:104E60000000000004020202040000000000000034
:104E70000000000000000000000080808080808032
:104E8000808000020204000000000000000000001A
:104E9000000000008080808000000019242222226F
:104EA0003F2008F8008080000000003F1120201102
:104EB0000E000000008080800000000E11202020E5
:104EC0001100000000808088F800000E11202010E2
:104ED0003F200000808080800000001F22222222CC
:104EE0001300008080F0888888180020203F202050
:104EF00000000000808080808000006B9494949378
:104F0000600008F8008080800000203F2100002021
:104F10003F2000809898000000000020203F2020C3
:104F20000000000000809898000000C08080807F12
:104F3000000008F8000080808000203F24022D300F
:104F40002000000808F8000000000020203F20207A
:104F500000008080808080808000203F20003F20F3
:104F6000003F8080008080800000203F21000020E2
:104F70003F200000808080800000001F2020202033
:104F80001F00808000808000000080FFA120201191
:104F90000E000000008080808000000E112020A004
:104FA000FF80808080008080800020203F212000C2
:104FB00001000000808080808000003324242424AD
:104FC0001900008080E0808000000000001F202089
:104FD00000008080000000808000001F2020201042
:104FE0003F20808080000080808000010E30080615
:104FF000010080800080008080800F300C030C3026
:105000000F0000808000808080000020312E0E3153
:105010002000808080000080808080818E70180653
:10502000010000808080808080000021302C2221BF
:10503000300000000000807C020200000000003F01
:10504000404000000000FF00000000000000FF00E2
:1050500000000002027C800000000040403F000091
:10506000000000060101020204040000000000002C
:105070000000010202030405060708090A0B0C0DD3
:105080000E0F1010010202030405060708090A0B9F
:105090000C0D0E0F101000000000000000000102B7
:1050A00003040607080900000000010203040000D1
:1050B000D0500008000000204C000000280100082B
:1050C0001C5100084C000020BC08000044010008EE
:1050D00000000000000000000000000000000000D0
:1050E00000009E42355E5A3FB80B00000E000000E3
:1050F0000000000060EA0000000000000000000066
:10510000000000000000000000000000010000009E
:0C51100010000000000000000024F4006B
:04000005080000ED02
:00000001FF
